:020000040800F2
:1000000078AA012031030008390300083B030008E7
:100010003D0300083F030008410300080000000002
:10002000000000000000000000000000790200084D
:100030004503000800000000CD020008116B000815
:100040004B0300084B0300084B0300084B03000858
:100050004B0300084B0300084B0300084B03000848
:100060004B0300084B0300084B0300084B03000838
:100070004B0300084B0300088D2000084B030008C9
:100080004B030008B52000084B0300084B03000891
:100090004B0300084B0300084B0300084B03000808
:1000A0004B0300084B0300084B0300084B030008F8
:1000B0004B0300084B0300084B0300084B030008E8
:1000C0004B0300084B0300084B0300084B030008D8
:1000D0004B030008D5740008C1750008B17700080B
:1000E0004B0300084B0300084B0300084B030008B8
:1000F0004B0300084B0300084B030008E1200008F5
:100100004B0300084B0300084B0300084B03000897
:10011000BD710008D17300084B0300084B030008B1
:100120004B0300084B0300084B0300084B03000877
:100130004B0300084B0300084B0300084B03000867
:100140004B0300084B0300084B0300084B03000857
:100150004B0300084B0300084B030008D977000845
:100160004B0300084B0300084B0300084B03000837
:100170004B0300084B0300084B0300084B03000827
:100180004B0300084B03000800F002F800F064F88D
:100190000AA090E8000C82448344AAF10107DA45E2
:1001A00001D100F059F8AFF2090EBAE80F0013F0D0
:1001B000010F18BFFB1A43F00103184794E8000031
:1001C000B4E800000A444FF0000C10F8013B13F0B3
:1001D000070408BF10F8014B1D1108BF10F8015BA0
:1001E000641E05D010F8016B641E01F8016BF9D193
:1001F00013F0080F1EBF10F8014BAD1C0C1B09D1EA
:100200006D1E58BF01F801CBFAD505E014F8016B5B
:1002100001F8016B6D1EF9D59142D6D370470000ED
:100220000023002400250026103A28BF78C1FBD8FF
:10023000520728BF30C148BF0B607047642900F0E7
:100240000381732900F04E82002070471FB50EF025
:1002500006FA1FBD10B510BD00F0B0FA1146FFF749
:10026000F5FF0AF0DBFD00F0CEFA03B4FFF7F2FF72
:1002700003BC0AF0B5FB00002A4B19680868B0E817
:10028000F04F80F30988BFF36F8F4FF0000080F3C9
:10029000118870470000000006480068006880F37D
:1002A000088862B661B6BFF34F8FBFF36F8F00DF70
:1002B00000BF00BF08ED00E0DFF80C00016841F46A
:1002C00070010160704700BF88ED00E0EFF3098026
:1002D000BFF36F8F134B1A681EF0100F08BF20ED8D
:1002E000108A20E9F04F106008B44FF0500080F3FE
:1002F0001188BFF34F8FBFF36F8F0CF005FC4FF0E9
:10030000000080F3118808BC19680868B0E8F04F55
:100310001EF0100F08BFB0EC108A80F30988BFF3FD
:100320006F8F704780070020EFF305807047000053
:100330000948804709480047FEE7FEE7FEE7FEE779
:10034000FEE7FEE7FEE7FEE7FEE7FEE704480549B5
:10035000054A064B70470000496C000889010008F7
:1003600078A4012078AA012078A6012078A601208F
:10037000704700000FB4044910B503AA029800F0BA
:10038000B5F910BC5DF814FB200000202DE9F04108
:100390000E460446002020622046E168884730B3BC
:1003A000252805D0D4E901219047206A401CF2E7B6
:1003B000E168204600278847050018D0A5F14100D4
:1003C000192802D820354FF40067324629462046C6
:1003D0002760FFF733FF40B1012804D0F61D26F057
:1003E00007060836D8E7361DD6E72846DAE7206A3A
:1003F000BDE8F08170B50C460546012A05D0287885
:10040000800600D5EA69002302E0012305E05B1CB9
:10041000934202D2E05C0028F9D1A869E618C01A1C
:10042000A861286A184428622846AFF3008004E0D7
:10043000D5E9012114F8010B9047B442F8D32846BE
:10044000AFF3008070BD00002DE9F04106460024A6
:1004500010687529314616A510D0AFF3008000282A
:1004600002DA404213A507E031688A0701D512A5D8
:1004700002E0490704D511A5012401E0AFF3008093
:1004800000210A2206F1240709E0B0FBF2FCB0FBD0
:10049000F2F302FB1C00303078541846491C002847
:1004A000F3D123462A463046BDE8F04100F096B825
:1004B000000000002D0000002B00000020000000C4
:1004C000032A40F2308010F0030C00F0158011F880
:1004D000013BBCF1020F624498BF11F801CB00F858
:1004E000013B38BF11F8013BA2F1040298BF00F8AC
:1004F00001CB38BF00F8013B11F0030300F0258069
:10050000083AC0F0088051F8043B083A51F804CB8F
:10051000A0E80810F5E7121D5CBF51F8043B40F855
:10052000043BAFF30080D20724BF11F8013B11F860
:1005300001CB48BF11F8012B24BF00F8013B00F8A4
:1005400001CB48BF00F8012B704710B5203AC0F02E
:100550000B80B1E81850203AA0E81850B1E81850C4
:10056000A0E81850BFF4F5AF5FEA027C24BFB1E801
:100570001850A0E8185044BF18C918C0BDE8104072
:100580005FEA827C24BF51F8043B40F8043B08BF7B
:100590007047D20728BF31F8023B48BF11F8012B42
:1005A00028BF20F8023B48BF00F8012B704702F03B
:1005B000FF0343EA032242EA024200F0ABB870476D
:1005C00070477047704710B500F0C4F8006810BD60
:1005D00010B5044600F0BEF8046010BD2DE9F047E8
:1005E0000D4699469246044600F1240801688806A3
:1005F00004D5E06921F01001216000E00120A8424B
:1006000001DD471B00E00027A1697A1902EB090010
:10061000081AA0612078C00602D42046AFF30080FB
:10062000002608E0D4E901211AF806009047206A64
:10063000401C761C20624E45F4DB2078C0060AD5AB
:100640002046AFF3008006E0D4E901213020904736
:10065000206A401C2062381EA7F10107F4DC07E085
:10066000D4E9012118F805009047206A401C206257
:10067000281EA5F10105F3DC2046AFF300802078A9
:10068000000602D50220BDE8F0870120FBE700004C
:1006900001694A1C02610878704700B58FB0CDE946
:1006A00001310021059105497944CDE90310114636
:1006B0006846FFF76BFE0FB000BD0000E5FFFFFFCF
:1006C00010B5436913B1AFF3008001E0FFF792FE6C
:1006D000012010BD127800F124010A7000224A7036
:1006E0000122EDE711684FF0FF32E9E7074B70B5E3
:1006F0000D467B44FFF7D1FF0446284600F02EF854
:1007000010B14FF0FF3070BD204670BDFFA5000056
:100710004FF000020429C0F0128010F0030C00F02A
:100720002380CCF1040CBCF1020F18BF00F8012BA0
:10073000A8BF20F8022BA1EB0C0100F015B85FEA6E
:10074000C17C24BF00F8012B00F8012B48BF00F842
:10075000012B70470048704718A40120007B00F06F
:10076000800070474FF0000200B51346944696464D
:10077000203922BFA0E80C50A0E80C50B1F12001B4
:10078000BFF4F7AF090728BFA0E80C5048BF0CC062
:100790005DF804EB890028BF40F8042B08BF7047C0
:1007A00048BF20F8022B11F0804F18BF00F8012B32
:1007B000704700000048704718A401207546FFF7F5
:1007C000F9FFAE4605006946534620F0070085460E
:1007D00018B020B5FFF7BAFDBDE820404FF0000685
:1007E0004FF000074FF000084FF0000B21F0070119
:1007F000AC46ACE8C009ACE8C009ACE8C009ACE85C
:10080000C0098D46704710B50446AFF300802046FE
:10081000BDE81040FFF729BD00B589B001210846A9
:1008200004F0FEFA0121080204F02AFB10200790D0
:1008300003208DF8200000208DF8230007A90E4822
:1008400002F030F901A800F0ADF8002001908DF819
:1008500008008DF80900049001A9084800F01CF870
:10086000002301220421054800F040F8012103483B
:1008700000F006F809B000BD000002400020014071
:1008800021B1826842F00102826003E0826822F0B6
:10089000010282607047000030B50246002000234C
:1008A0005068104C20400D790C6844EA0524204320
:1008B000506090680C4C2040D1E903542C438D6863
:1008C0002C434D7944EA450420439060D06A20F4DB
:1008D00070000C7D641EE4B2234340EA0350D062F2
:1008E00030BD0000FFFEFFFCFDF7FFC0F0B5044681
:1008F0000D4600200021092D11DDE068A5F10A0652
:1009000006EB4607072606FA07F18843A5F10A0613
:1009100006EB460603FA06F10843E0600CE02069A6
:1009200005EB4507072606FA07F1884305EB450660
:1009300003FA06F108432061072A0FDA606B561E9E
:1009400006EB86071F2606FA07F18843561E06EBBC
:10095000860605FA06F10843606322E00D2A0FDAE5
:10096000206BD61F06EB86071F2606FA07F1884381
:10097000D61F06EB860605FA06F10843206310E051
:10098000E06AA2F10D0606EB86071F2606FA07F1BC
:100990008843A2F10D0606EB860605FA06F1084328
:1009A000E062F0BD00210160017141718160C160B0
:1009B000016101210175704730B500220024C5781E
:1009C0008B1F9D4200D030BD002306E0C55C15445E
:1009D000EAB2A518ECB25D1CEBB28D1E9D42F5DCAF
:1009E000431813F8023C934204D1431813F8013C16
:1009F000A34200D0E7E78378512B38D103795BB964
:100A000043794B4D6B7183795BB2AB71C3795BB248
:100A1000EB71037A2B7189E00379012B12D14379B1
:100A2000434D2B72C3886B810389AB81837A2B7111
:100A30009FED400A404B83ED010A2B461B785B1C5F
:100A40002B7073E00379022B70D14379384DAB736F
:100A5000C3882B8203896B824389AB828389EB82B3
:100A6000C3892B83038A6B83837C2B715EE083783D
:100A7000342B0DD1D0F807302D4DEB619FED2D0AB1
:100A80002D4B83ED020A2B465B785B1C6B704DE0AF
:100A90008378012B13D18388254DA5F84830C3886E
:100AA000A5F84A300389A5F84C304389A5F84E30A3
:100AB0008389A5F85030C389A5F8523036E0837891
:100AC000042B33D1B0F9043000EE103AB8EEC00A6E
:100AD000DFED1A0A20EE200A154B83ED0E0AB0F95D
:100AE000063000EE103AB8EEC00ADFED140A20EE30
:100AF000200A0F4B83ED0F0AB0F9083000EE103AD0
:100B0000B8EEC00ADFED0D0A20EE200A084B83ED97
:100B1000100AB0F90A3000EE103AB8EEC00ADFED64
:100B2000070A20EE200A024B83ED110A00BF4AE7B4
:100B3000D04B012000000000704C012017B7D138C5
:100B400010B504463E48007838B9AA2C05D10120DA
:100B50003B4908703B48047070E039480078012830
:100B600005D10220364908703648447066E03448A2
:100B70000078022805D1032031490870314884707B
:100B80005CE02F48007803280CD1322C0ADA0420CC
:100B90002B4908702B48C4702B48047000202B4947
:100BA00008704BE026480078042819D126480078C0
:100BB000002815DD24480078401E2349087023488A
:100BC000007822490978491C204A1170001D1D49EE
:100BD0000C541D48007868BB0520194908702DE0A9
:100BE0001748007805280DD10620154908701748C8
:100BF000007816490978491C144A1170001D1149E2
:100C00000C541BE00E480078062814D100200C4933
:100C100008700E480078001D0A490C549FED0C0A1C
:100C20000C4880ED000A09480078401DC1B2054813
:100C3000FFF7C2FE02E000200149087010BD00006D
:100C4000E00600203C4C0120DE060020DF060020EC
:100C500000000000704C012010B500F0E7F81E48BD
:100C6000007E10B100F026F90AE01C48407E10B169
:100C700000F04CFA04E01A48407E08B100F098F900
:100C800018484089B0F5E16F0DD116480089B0F5DC
:100C9000E16F08D11448007828B914480068401D55
:100CA0001249086002E00020104908600F480068FF
:100CB000B0F5FA6F03D301200D49087002E000205F
:100CC0000B4908700A480078012802D104F0FAFEA6
:100CD00001E005F019F810BD845001206450012096
:100CE000A85001207C4C01202C070020B8000020D7
:100CF000BC00002010B52DED088BB0EE408AF0EE60
:100D0000608AB0EE419A404890ED000AF0EE409AB9
:100D1000F5EEC09AF1EE10FA11D83C4880ED908AB9
:100D2000C0EDA28A80ED6C9A0020394908709FEDD1
:100D3000390A394880ED000ABDEC088B10BD3448F3
:100D40000078C0B9314880ED908AC0EDA28A80ED6C
:100D50006C9A324880ED008A3148C0ED008A3148F3
:100D600080ED009A9FED2B0A2B4880ED000A0120B0
:100D700027490870E0E7294890ED000A38EE400A5C
:100D8000B0EE40BA264890ED000A38EEC00AB0EE48
:100D900040AA244890ED000A39EE400ADFED220A0D
:100DA00020EE200AF0EE40AA6BEE0B0A4AEE0A0A89
:100DB0004AEEAA0AB0EE600A09F077F81648D0EDBC
:100DC000000A30EE200A80ED000A144880ED008A07
:100DD0001348C0ED008A134880ED009A0E4890ED4C
:100DE000000AB4EEE90AF1EE10FA0BDB074880EDD9
:100DF000908AC0EDA28A80ED6C9A9FED060A0648A3
:100E000080ED000A00BF97E754070020E0020020B1
:100E1000EC00002000000000DC000020E0000020CA
:100E2000E4000020E80000200000C84210B504F0F3
:100E300049F948B900201B4948761B4908761B49E7
:100E400048761B49886110BD1648407E38B10020A5
:100E50001549087615494876154988611FE01248FA
:100E6000007E38B100200F49487610494876104975
:100E7000886114E00D48407E38B100200949487669
:100E8000094908760A49886109E00948806930B152
:100E9000002004494876044908760449487600BF92
:100EA000D1E700006450012084500120A8500120A7
:100EB0000408002010B52DED048B9FED370AB0EE2D
:100EC000409A3648C079012805D000203449087678
:100ED000BDEC048B10BD3248007E00B9F8E7304805
:100EE00090ED080ADFED2C0A30EE200A80ED080AAA
:100EF00090ED070AD0ED040A9FED271A00EE810A53
:100F000080ED070AD0ED070AB0EE600A08F0C8FECF
:100F10002348D0ED010A90ED031A41EE000AB0EE2D
:100F2000608AD0ED070AB0EE600A07F091FE1C4817
:100F3000D0ED000A90ED031A41EE000AF0EE608A4F
:100F400090ED020AB0EE401AF0EE480AB0EE680AE0
:100F5000FFF7D0FE124890ED070ADFED120A20EEEF
:100F6000200A114880ED240A0D4890ED050AB5EEDF
:100F7000C00AF1EE10FA0DDD90ED080AD0ED050A79
:100F8000B4EEE00AF1EE10FA04DB00200449087622
:100F90000649886100BF9BE70AD7A33B3850012070
:100FA00084500120ED2E6542E0020020040800205C
:100FB00010B52DED088B9FED4F0AB0EE40BA4E48AC
:100FC000C079012805D000204C494876BDEC088B3B
:100FD00010BD4A48407E00B9F8E7484890ED080A3D
:100FE000DFED440A30EE200A80ED080A90ED070A92
:100FF000D0ED040A9FED3F1A00EE810A80ED070A4A
:1010000090ED078A007E012822D1F0EE000A68EEFA
:10101000200AB0EE600A08F043FE3848D0ED000A1E
:1010200090ED031AF6EE001A21EE211AF0EE608A16
:1010300041EE008AB0EE480A08F032FE2F48D0EDAB
:10104000010A90ED031AB0EE609A01EE009A29E0D1
:10105000B0EE480A08F024FEF0EE409AB0EE480ADE
:1010600007F0F6FDB0EE40AAB7EE000A09EEA90AB5
:10107000F0EE40AA214890ED030A60EE0A0A80EEE5
:10108000AA0AD0ED000A70EE208A90ED030A20EE45
:10109000290A20EE0A0AC0EE2A0A90ED010A30EE73
:1010A000809A00BF154890ED020AB0EE401AF0EEAB
:1010B000490AB0EE680AFFF71DFE9FED110A1148BC
:1010C00080ED240A0D4890ED050AB5EEC00AF1EE58
:1010D00010FA0DDD90ED080AD0ED050AB4EEE00A35
:1010E000F1EE10FA04DB00200449487606498861D5
:1010F00000BF6BE70AD7A33B38500120A85001205E
:1011000000000000E00200200408002010B52DEDD2
:10111000068B9FED410AB0EE40AA4048C0790128F5
:1011200005D000203E494876BDEC068B10BD3C48FA
:10113000407E00B9F8E73A4890ED070ADFED360A3D
:1011400030EE200A80ED070AD0ED040A9FED351A33
:1011500060EE810A90ED071A60EE810AB0EE600A37
:1011600008F09EFD2E48D0ED030A20EE200AB0EED6
:10117000408A90ED000AF0EE408A90ED010AB0EE50
:10118000409A90ED020AF0EE409A007E20B10128CC
:101190000AD0022818D10FE0214890ED000A30EE65
:1011A000080AF0EE408A10E01D4890ED010A30EE8A
:1011B000080AB0EE409A08E0194890ED020A30EEB5
:1011C000080AF0EE409A00E000BF00BFB0EE691AD6
:1011D000F0EE490AB0EE680AFFF78CFD9FED120AA7
:1011E000124880ED240A0E4890ED050AB5EEC00ABB
:1011F000F1EE10FA0DDD90ED070AD0ED050AB4EE20
:10120000E00AF1EE10FA04DB0020054948760849AF
:10121000886100BF88E700000AD7A33B385001204F
:1012200064500120D00FC94000000000E0020020FF
:10123000040800209FED040A044880ED000A002005
:10124000034908707047000000000000DC00002027
:10125000EC00002008B500BF0CF0E2F800900AE0B6
:10126000FFF7FAFC0448408E401C034948860521DC
:1012700068460BF01BFAF3E7F04F01201CB5012183
:10128000022003F0CDFD4FF40070009001208DF896
:10129000040000208DF8060003208DF805000120D1
:1012A0008DF807006946044801F0FCFB4FF400711B
:1012B000014801F062FC1CBD0004024070B5044608
:1012C000002510210A4801F058FCFF2141EA0421C1
:1012D00041F400400AF09AFE00200AF097FE050A49
:1012E0001021034801F04BFC00BF284670BD0000F0
:1012F0000008024070B504462021094801F03DFC79
:10130000002141EA042141F400400AF07FFEC5B209
:101310002021034801F033FC00BF284670BD0000C7
:101320000008024070B504460D461021074801F040
:1013300024FC45EA0421C1F30E000AF067FE1021E7
:10134000024801F01CFC00BF70BD00000008024014
:1013500070B504460D462021074801F00EFC45EA11
:101360000421C1F30E000AF051FE2021024801F0D1
:1013700006FC00BF70BD00000008024010B54FF42D
:10138000407002F0D5FF02F047FA02F0DBFF03F0F5
:1013900079F8FFF741FA4FF4FA6009F075FC04F0B0
:1013A000C9FC09F0B1FB06F039F806F0AFF806F019
:1013B0002DF905F03DFE05F02BFFFFF75FFF4FF421
:1013C00000610C4801F0D9FB4FF48051094801F04D
:1013D000D6FB4FF48071084801F0D1FB4FF4FA605E
:1013E00009F052FC03F0ECF89FED040A044880ED8C
:1013F0001E0A10BD00000240000802400000B44276
:10140000F04C012090ED010A80ED000A90ED020AF7
:1014100080ED010A90ED060ADFED160A80EE201A33
:1014200080ED021A90ED040A80ED030A90ED050AA2
:1014300080ED040A90ED000AD0ED020A30EE200A99
:10144000D0ED010AB0EE001A01EE200AD0ED030A39
:101450009FED091A01EE200AD0ED040A9FED071A4C
:1014600001EE200A80ED050A90ED050A80ED070ADD
:101470007047000067BFFF42021944BF7E0BDE3F8A
:1014800090ED010A80ED000A90ED020A80ED010A5C
:1014900090ED030A80ED020A90ED080ADFED1D0AC7
:1014A00080EE201A80ED031A90ED050A80ED040A03
:1014B00090ED060A80ED050A90ED070A80ED060A18
:1014C00090ED000AD0ED030A30EE200AD0ED010ABB
:1014D00090ED021A70EE810AB0EE081A01EE200AB1
:1014E000D0ED040A9FED0C1A01EE200AD0ED050A9A
:1014F0009FED0A1A01EE200AD0ED060A9FED081AA8
:1015000001EE200A80ED070A90ED070A80ED090A36
:10151000704700006D85AC431736083F20F5F6BFD5
:101520002BF1174010B500F079F83348408AB0F538
:10153000FA7F05DC31480068401C3049086002E051
:1015400000202E4908602D4800680A2803DD02208B
:1015500001F042FA02E0032001F03EFA264909892F
:1015600040F21452914201DD012100E000210846C1
:1015700060B12349097849B922490978012905D17F
:101580000221204A117000211F4A91611C490870F4
:1015900019488089B0F5FA7F01D9012000E00020C8
:1015A00004465CB11948007840B901F06FFA10B9EF
:1015B000002001F011FA0120154908701348047049
:1015C0000D48C089B0F5FA7F01D9012000E0002064
:1015D000044674B10F48007858B901F057FA28B999
:1015E000002001F0F9F9012003F0C0FD01200A49B3
:1015F00008700848047010BD7C4C012024000020B5
:1016000028000020DD06002004080020290000201A
:10161000510700202A0000205207002010B52DEDB0
:10162000048B8848C08800EE100AB8EE400ADFED4F
:10163000860A30EE600ADFED850A80EE201AB0EEF1
:10164000418A8048008800EE100AB8EE400ADFEDBB
:101650007E0A30EE600ADFED7D0A80EE201AF0EEA1
:10166000418A7848408800EE100AB8EE400ADFED63
:10167000760A30EE600ADFED750A80EE201AB0EED1
:10168000419A7048808800EE100AB8EE400ADFEDFB
:101690006E0A30EE600ADFED6D0A80EE201AF0EE81
:1016A000419ABEEE080AB4EEC08AF1EE10FA0CD2EE
:1016B000B6EE080AF4EEC09AF1EE10FA05DD6448C1
:1016C0008068401C6249886002E0002060498860B0
:1016D000BEEE080AB4EEC08AF1EE10FA0CD2BEEEED
:1016E000080AF4EEC09AF1EE10FA05D258480068E4
:1016F000401C5749086002E0002055490860B6EEDA
:10170000080AB4EEC08AF1EE10FA0CDDBEEE080A4B
:10171000F4EEC09AF1EE10FA05D24D484068401C34
:101720004B49486002E0002049494860B6EE080A8B
:10173000B4EEC08AF1EE10FA0CDDB6EE080AF4EE53
:10174000C09AF1EE10FA05DD4148C068401C4049DE
:10175000C86002E000203E49C860BEEE080AF4EE10
:10176000C08AF1EE10FA0CD2BEEE080AB4EEC09AAE
:10177000F1EE10FA05D236480069401C3449086180
:1017800002E0002032490861BEEE080AF4EEC08A89
:10179000F1EE10FA0CD2B6EE080AB4EEC09AF1EEF1
:1017A00010FA05DD2A488069401C2949886102E059
:1017B000002027498861B6EE080AF4EEC08AF1EEEF
:1017C00010FA0CDDBEEE080AB4EEC09AF1EE10FA83
:1017D00005D21F484069401C1D49486102E00020B5
:1017E0001B494861B6EE080AF4EEC08AF1EE10FA21
:1017F0000CDDB6EE080AB4EEC09AF1EE10FA05DD83
:101800001348C069401C1249C86102E00020104919
:10181000C8610F488068962806D3002001F0DCF8E4
:1018200000200B498860086009480068322806D308
:10183000012001F0D1F80020054988600860BDEC66
:10184000048B10BD2850012000803B4500007A44E5
:10185000445001209FED160A164880ED0A0A9FEDBC
:10186000140A80ED1C0A9FED120A80ED2E0A9FEDEE
:10187000100A80ED400A9FED0E0A80ED520A9FED9E
:101880000C0A80ED640A9FED0A0A80ED760A9FED4E
:10189000080A80ED880A90ED910A80ED900A90ED9B
:1018A000A30A80EDA20A90ED250A80ED240A704774
:1018B00000000000E002002090ED000AD0ED010AD7
:1018C00030EE600A80ED080A90ED0B0AD0ED0C0AAC
:1018D000B4EEE00AF1EE10FA06D890ED080AB5EE83
:1018E000C00AF1EE10FA11DC90ED0B0AD0ED0C0AF3
:1018F000F1EE600AB4EEE00AF1EE10FA23DB90EDAF
:10190000080AB5EEC00AF1EE10FA1CD290ED080AF2
:10191000B5EEC00AF1EE10FA02DD90ED080A03E020
:1019200090ED080AB1EE400AD0ED110AB4EEE00ADB
:10193000F1EE10FA07D290ED0A0AD0ED080A30EE67
:10194000200A80ED0A0A90ED0A0AD0ED100AF1EEA5
:10195000600AB4EEE00AF1EE10FA05D290ED100A3A
:10196000B1EE400A80ED0A0A90ED0A0AD0ED100AA5
:10197000B4EEE00AF1EE10FA03DD90ED100A80ED0E
:101980000A0A90ED030AD0ED0A0A20EE200A80ED43
:10199000060A90ED060AD0ED0E0AF1EE600AB4EEEA
:1019A000E00AF1EE10FA05D290ED0E0AB1EE400A0F
:1019B00080ED060A90ED060AD0ED0E0AB4EEE00ABC
:1019C000F1EE10FA03DD90ED0E0A80ED060A90EDBF
:1019D000020AD0ED080A20EE200A80ED050A90EDFB
:1019E000050AD0ED0D0AF1EE600AB4EEE00AF1EE60
:1019F00010FA05D290ED0D0AB1EE400A80ED050A0D
:101A000090ED050AD0ED0D0AB4EEE00AF1EE10FA01
:101A100003DD90ED0D0A80ED050A90ED080AD0ED8A
:101A2000090A30EE600AD0ED040A20EE200A80EDAB
:101A3000070A90ED070AD0ED0F0AF1EE600AB4EE46
:101A4000E00AF1EE10FA05D290ED0F0AB1EE400A6D
:101A500080ED070A90ED070AD0ED0F0AB4EEE00A18
:101A6000F1EE10FA03DD90ED0F0A80ED070A90ED1C
:101A7000050AD0ED060A30EE200AD0ED070A30EE56
:101A8000200A80ED0B0A90ED0B0AD0ED0C0AF1EE66
:101A9000600AB4EEE00AF1EE10FA05D290ED0C0AFD
:101AA000B1EE400A80ED0B0A90ED0B0AD0ED0C0A66
:101AB000B4EEE00AF1EE10FA03DD90ED0C0A80EDD1
:101AC0000B0A90ED080A80ED090A704790ED000AB4
:101AD000D0ED010A30EE600A80ED080A90ED080AA8
:101AE000DFED900AB4EEE00AF1EE10FA07DB90EDBC
:101AF000080ADFED8D0A30EE600A80ED080A90EDED
:101B0000080ADFED8A0AB4EEE00AF1EE10FA07D80F
:101B100090ED080ADFED840A30EE200A80ED080A15
:101B200090ED0B0AD0ED0C0AB4EEE00AF1EE10FADB
:101B300006D890ED080AB5EEC00AF1EE10FA11DCF5
:101B400090ED0B0AD0ED0C0AF1EE600AB4EEE00A5B
:101B5000F1EE10FA23DB90ED080AB5EEC00AF1EEC3
:101B600010FA1CD290ED080AB5EEC00AF1EE10FA98
:101B700002DD90ED080A03E090ED080AB1EE400A9C
:101B8000D0ED110AB4EEE00AF1EE10FA07D290EDB2
:101B90000A0AD0ED080A30EE200A80ED0A0A90ED1C
:101BA0000A0AD0ED100AF1EE600AB4EEE00AF1EE96
:101BB00010FA05D290ED100AB1EE400A80ED0A0A43
:101BC00090ED0A0AD0ED100AB4EEE00AF1EE10FA38
:101BD00003DD90ED100A80ED0A0A90ED030AD0EDC6
:101BE0000A0A20EE200A80ED060A90ED060AD0EDE2
:101BF0000E0AF1EE600AB4EEE00AF1EE10FA05D238
:101C000090ED0E0AB1EE400A80ED060A90ED060A4C
:101C1000D0ED0E0AB4EEE00AF1EE10FA03DD90ED1D
:101C20000E0A80ED060A90ED020AD0ED080A20EEB9
:101C3000200A80ED050A90ED050AD0ED0D0AF1EEBF
:101C4000600AB4EEE00AF1EE10FA05D290ED0D0A4A
:101C5000B1EE400A80ED050A90ED050AD0ED0D0ABF
:101C6000B4EEE00AF1EE10FA03DD90ED0D0A80ED1E
:101C7000050A90ED080AD0ED090A30EE600AD0EDB1
:101C8000040A20EE200A80ED070A90ED070AD0ED45
:101C90000F0AF1EE600AB4EEE00AF1EE10FA05D296
:101CA00090ED0F0AB1EE400A80ED070A90ED070AA9
:101CB000D0ED0F0AB4EEE00AF1EE10FA03DD90ED7C
:101CC0000F0A80ED070A90ED050AD0ED060A30EE06
:101CD000200AD0ED070A30EE200A80ED0B0A90EDC5
:101CE0000B0AD0ED0C0AF1EE600AB4EEE00AF1EE58
:101CF00010FA05D290ED0C0AB1EE400A80ED0B0A05
:101D000090ED0B0AD0ED0C0AB4EEE00AF1EE10FAF9
:101D100003DD90ED0C0A80ED0B0A90ED080A80EDD2
:101D2000090A7047000034430000B443000034C384
:101D300010B52DED048B032006F034F9B44800787B
:101D4000401CB349087008460078022805DBB148FA
:101D5000FFF7B2FD0020AE490870042006F022F91A
:101D6000AC484830FFF7A8FDAB480078401CAA49B2
:101D7000087008460078022819DB012006F012F9E5
:101D8000A4489030FFF798FDA248D830FFF794FDA3
:101D90000020A1490870022006F004F903F09AFC23
:101DA0009E48FFF789FD9D484830FFF785FD0520D7
:101DB00006F0F8F89A48FFF77FFD99484830FFF79A
:101DC0007BFD062006F0EEF895489030FFF77EFE8A
:101DD000072006F0E7F803F073FB8E48D838FFF7CA
:101DE0006BFD8C489038FFF767FD8A484838FFF74D
:101DF00063FD8B4801F06AFD40F686308949088012
:101E0000894890ED5E0A8948D0ED1F0A20EE200A2D
:101E1000B0EE408A844890ED2E0A8548D0ED1F0A26
:101E200020EE200AF0EE408A7F4890ED160A8148A5
:101E3000D0ED1F0A20EE200AB0EE409A7A4890EDCD
:101E4000460A7D48D0ED1F0A20EE200AF0EE409AA7
:101E500018EE100A06F0CFFC18B99FED780AB0EE24
:101E6000408A18EE900A06F0C6FC18B99FED730A76
:101E7000F0EE408A19EE100A06F0BDFC18B99FED8D
:101E80006F0AB0EE409A19EE900A06F0B4FC18B949
:101E90009FED6A0AF0EE409A6148D0ED890A6148E8
:101EA000B0F9000000EE100AB8EEC00A30EE800A69
:101EB00030EE080A624880ED000A594890ED410A68
:101EC00030EE280A5F4880ED000A554890ED530A2D
:101ED00030EE090AB1EE400A5B4880ED000A504836
:101EE00090ED650A30EE290A584880ED000A5848FE
:101EF000D0ED000A9FED571A9FED560A00EE810AB9
:101F0000B0EE402A5448D0ED000A9FED521A9FEDE2
:101F1000510A00EE810AF0EE402AF4EEC22AF1EEF8
:101F200010FA06D2B0EE620AF0EE422AB0EE402A73
:101F300000BFB0EE621AF0EE420A414890ED000A8E
:101F400000F08EF83E4880ED000A90ED000A3E4811
:101F5000D0ED000A30EE600A3A48D0ED000A30EECB
:101F6000600A3A48D0ED000A30EE200ABDEEC00A01
:101F700010EE100A00B239490880314890ED000A8D
:101F80003148D0ED000A30EE200A2E48D0ED000A8C
:101F900030EE200A2D48D0ED000A30EE200ABDEECA
:101FA000C00A10EE100A00B24880254890ED000AE1
:101FB0002548D0ED000A30EE600A2248D0ED000A34
:101FC00030EE200A2148D0ED000A30EE600ABDEE66
:101FD000C00A10EE100A00B28880194890ED000A7D
:101FE0001948D0ED000A30EE200A1648D0ED000A5C
:101FF00030EE600A1548D0ED000A30EE600ABDEE02
:10200000C00A10EE100A00B2C880BDEC048B10BDEF
:102010002C000020900400202D000020B00500209E
:10202000E002002040000020B4470120144B0120B2
:10203000DC49012040490120784A012000000000CD
:102040003000002034000020380000203C00002038
:10205000480700200000FA444C070020E206002058
:10206000F0EE401AF4EEE01AF1EE10FA02D2B0EE01
:10207000600A7047F4EEC11AF1EE10FA02DDB0EE1C
:10208000410AF6E7B0EE610AF3E7000010B5074930
:10209000074800F033F940B14FF0C051044800F058
:1020A00033F80021024800F063F810BD00800018EA
:1020B0005860024010B50749074800F01FF938B1D1
:1020C0000649054800F020F80021034800F050F8C8
:1020D00010BD000000802020A060024000002020F1
:1020E00010B50749074800F009F940B14FF02051F9
:1020F000044800F009F80021024800F039F810BD4A
:1021000000800028B86002400246094B9A4201D282
:10211000084801E00648103801F000531BB1064B97
:102120000B40C36002E0044B0B408360704700002B
:1021300010640240006002407D0F7D0F0246094B93
:102140009A4201D2084801E00648103801F00053D5
:102150001BB1064B0B40C36002E0044B0B40836095
:102160007047000010640240006002407D0F7D0F48
:1021700021B1026842F00102026003E0026822F02D
:102180000102026070470000016821F00101016056
:102190000021016041608160C160016121214161D4
:1021A0004A49884204D13D21484A103A91608CE066
:1021B00046491831884205D14FF47461434A103AB8
:1021C000916082E041493031884205D14FF4741169
:1021D0003E4A103A916078E03C494831884205D146
:1021E0004FF07461394A103A91606EE037496031BE
:1021F000884204D13649354A103AD16065E0334906
:102200007831884204D13349304A103AD1605CE0D9
:102210002E499031884204D12F492C4A103AD1607E
:1022200053E02A49A831884205D14FF03D51274A51
:10223000103AD16049E02949884204D13D21274A1A
:10224000083A116041E025491831884205D14FF420
:102250007461224A083A116037E0204930318842DF
:1022600005D14FF474111D4A083A11602DE01B4945
:102270004831884205D14FF07461184A083A11601C
:1022800023E016496031884204D11149134A121FD4
:1022900011601AE011497831884204D10D490F4A82
:1022A000121F116011E00D499031884204D10A4992
:1022B0000A4A121F116008E00849A831884204D177
:1022C0004FF03D51054A121F1160704710600240E7
:1022D0003D000020400F002000003D20106402401F
:1022E000014600200A6802F001020AB1012000E064
:1022F000002070470146486880B2704770B50246BA
:10230000002000240025124EB24201D2114B01E000
:102310000F4B103B104E0E4036B11E2606EAD1245C
:10232000166806EA040502E0566906F0800501F029
:1023300000560EB15C6800E01C68084E344004EAA8
:10234000010616B10DB1012000E0002070BD0000B3
:1023500010640240006002403C0F3C0F7D0F7D0F77
:1023600010B501F080034BB122B1436943F0800303
:10237000436103E0436923F08003436180290BD06C
:102380002AB1036801F01E042343036004E00368DC
:1023900001F01E04A343036010BD000010B500222D
:1023A0000268134B1A40CC680B6823434C692343E3
:1023B0008C692343CC6923430C6A23434C6A23432F
:1023C0008C6A23434C6B23438C6B23431A43026078
:1023D000426922F00702D1E90B3423431A434261D8
:1023E0000B6943604B6883608B68C36010BD00005D
:1023F0003F801CF0F8480078AA287DD1F648407844
:10240000AA28FAD1F4488078F4490870F248C078D4
:102410004870F14800798870EF484079C8700846E4
:1024200090ED000ADFEDEE0AB4EEE00AF1EE10FAEC
:1024300011DD90ED000ADFEDEB0AB4EEE00AF1EEFB
:1024400010FA08D290ED000ADFEDE70A20EE200A2C
:10245000E64880ED000AE0488079E0490870DE48EF
:10246000C0794870DC48007A8870DB48407AC870D0
:10247000084690ED000ADFEDDA0AB4EEE00AF1EE6C
:1024800010FA11DD90ED000ADFEDD60AB4EEE00A95
:10249000F1EE10FA08D290ED000ADFEDD30A20EE3B
:1024A000200AD24880ED000ACB48807ACB490870D8
:1024B000C948C07A4870C848007B8870C648407BCD
:1024C000C870084690ED000ADFEDC50AB4EEE00AD8
:1024D000F1EE10FA13DD90ED000ADFEDC20AB4EE62
:1024E000E00AF1EE10FA0AD290ED000ADFEDBE0A22
:1024F00020EE200ABD4800E06CE180ED000AB648FD
:10250000807BB6490870B448C07B4870B248007CF4
:102510008870B148407CC870084690ED000ADFED35
:10252000B00AB4EEE00AF1EE10FA11DD90ED000A07
:10253000DFEDAC0AB4EEE00AF1EE10FA08D290ED4D
:10254000000ADFEDA90A20EE200AA84880ED000A63
:10255000A148807CA14908709F48C07C48709E4873
:10256000007D88709C48407DC870084690ED000A48
:10257000DFED9B0AB4EEE00AF1EE10FA11DD90ED0A
:10258000000ADFED980AB4EEE00AF1EE10FA08D284
:1025900090ED000ADFED940A20EE200A934880EDCA
:1025A000000A8D48807D8D4908708B48C07D487039
:1025B0008948007E88708848407EC870084690ED43
:1025C000000ADFED870AB4EEE00AF1EE10FA11DD41
:1025D00090ED000ADFED830AB4EEE00AF1EE10FAA6
:1025E00008D290ED000ADFED800A20EE200A7F4835
:1025F00080ED000A7848807E784908707648C07E71
:1026000048707548007F88707348407FC8700846DE
:1026100090ED000AF9EE040AB4EEE00AF1EE10FAC9
:102620000DDD90ED000AF1EE040AB4EEE00AF1EEE1
:1026300010FA04D290ED000A6C4880ED000A66485A
:10264000807F664908706448C07F4870624890F88F
:1026500020008870604890F82100C870084690ED0E
:10266000000AF9EE040AB4EEE00AF1EE10FA0DDD0C
:1026700090ED000AF1EE040AB4EEE00AF1EE10FA71
:1026800004D290ED000A594880ED000A524890F8B3
:10269000220052490870504890F8230048704E4874
:1026A00090F8240088704C4890F82500C8700846BF
:1026B00090ED000AF9EE040AB4EEE00AF1EE10FA29
:1026C0000DDD90ED000AF1EE040AB4EEE00AF1EE41
:1026D00010FA04D290ED000A444880ED000A3E480A
:1026E00090F826003D4908703B4890F82700487054
:1026F000394890F828008870374890F82900C87049
:10270000084690ED000ADFED360AB4EEE00AF1EE7D
:1027100010FA0DDD90ED000ADFED320AB4EEE00AAA
:10272000F1EE10FA04D290ED000A304880ED000A74
:10273000294890F82A0029490870274890F82B006A
:102740004870254890F82C008870234890F82D0098
:10275000C870084690ED000ADFED210AB4EEE00AE9
:10276000F1EE10FA0DDD90ED000ADFED1E0AB4EE79
:10277000E00AF1EE10FA04D290ED000A1B4880ED59
:10278000000A154890F82E0014490870124890F875
:102790002F004870104890F8300088700E4890F86C
:1027A0003100C870084690ED000ADFED0D0AB4EE66
:1027B000E00AF1EE10FA0DDD90ED000ADFED090AF6
:1027C000B4EEE00AF1EE10FA04D290ED000A0748E8
:1027D00080ED000A70470000F04D012084000020C9
:1027E000002474C9002474490000C84288000020F5
:1027F00038B5044672A000680090724801780078ED
:10280000401C704A107070484454104600781928D3
:102810007ED11820114608706B4800780F2878D1B7
:102820006948007E38B16848017E684A12781DF810
:1028300002008142F3D1002062490870624840786A
:102840006149897801F0070140EA01206049088068
:102850005D48C0788006400D5B49897840EAE10018
:102860005B49488058484079C007400D564909796E
:1028700040EA81005449C97840EAA110544988804F
:10288000514880790007400D4F49497940EA61007D
:102890004F49C8804C48C0794006400D4A49897963
:1028A00040EA21104A4908814748407A8007400D94
:1028B0004549097A40EA41004349C97940EAE110B3
:1028C000434948814048807AC006400D3E49497AD4
:1028D00040EAA1003E4988813B48C07AC0003A499D
:1028E000897A40EA61103A49C8813748007B364905
:1028F000497B01F0070140EA01203549088232484E
:10290000807B8006400D3049497B40EAE10001E0D0
:1029100054E049E02E4948822B48007CC007400D16
:102920002949C97B40EA81002749897B40EAA110F7
:10293000274988822448407C0007400D2249097CB1
:1029400040EA61002249C8821F48807C4006400D51
:102950001D49497C40EA21101D4908831A48007D21
:102960008007400D1849C97C40EA41001649897C1E
:1029700040EAE110164948831348407DC006400DE7
:102980001149097D40EAA100114988830E48807DE4
:10299000C0000D49497D40EA61100D49C8830AF025
:1029A00045FD0C49086009E0002005E0064A411C8D
:1029B000515C1154411CC8B21828F7DB38BD000027
:1029C00004142434EA0600209C4C0120EB0600206D
:1029D0007C4C01203007002010B5044609F0F2FCC1
:1029E0002848007820B1012814D0022844D12AE0D8
:1029F00034B90120234908700846007809F0ECF941
:102A0000022C06D102201F4908700846007809F000
:102A1000E3F932E0012C09D100201A490870084678
:102A2000007809F0D9F9002017490870022C09D163
:102A30000220144908700846007809F0CDF90020FA
:102A40001149087019E0032C09D100200D490870C4
:102A50000846007809F0C0F900200B490870012CE5
:102A600009D10020074908700846007809F0B4F938
:102A700000200549087000E000BF00BF09F0E6FC37
:102A800010BD0000DC060020DD06002010B509F0B6
:102A900099FC0348047809F0D9FC204610BD0000D9
:102AA000DC060020F0B50A4600210023002400BF08
:102AB0003DE0012505FA01F3156805EA03049C428F
:102AC00034D105684F000326BE40B5430560157933
:102AD0004E00B5400668354305601579012D02D0DA
:102AE0001579022D16D185684F000326BE40B543E7
:102AF000856055794E00B5408668354385604568E8
:102B000001268E40B5434560456896798E40B6B241
:102B100035434560C5684F000326BE40B543C560D8
:102B2000D5794E00B540C6683543C560491C1029AB
:102B3000BFD3F0BDF0B5002300244D07ED0E02FA1F
:102B400005F3CE1000F1200555F826504E07F70E7C
:102B50000F26BE40B543CF1000F1200646F827509F
:102B6000CE1000F1200555F8265045EA0304CE109A
:102B700000F1200545F82640F0BD418370470183F0
:102B800070474FF6FF710160002101714171817141
:102B9000C171704710B52DED028B00F00BF9714833
:102BA000008800285ED0704890ED000A6D480088CB
:102BB00041F28831081A6D4901EB800080ED000A6E
:102BC0006B4890ED000A6848D0ED000A30EE200A0C
:102BD000674880ED000A674890ED000A6148008868
:102BE00041F28831081A644901EB800080ED000A47
:102BF000624890ED000A5F48D0ED000A30EE200AEE
:102C00005E4880ED000A5E4890ED000A5548008855
:102C100041F28831081A5B4901EB800080ED000A1F
:102C2000594890ED000A5648D0ED000A30EE200ACF
:102C3000554880ED000A4B48008841F28831081A57
:102C400000EE100AB8EEC00A46480088081A4F493C
:102C500001EB800080ED000A42480088401E414997
:102C600008807BE0484890ED000ADFED490A80EEDD
:102C7000201A484880ED001A00244BE040F27120F1
:102C800060433A4A02EB401141F288323F4808F073
:102C900051F8414800EB840080ED000A3E4800EB0B
:102CA000840090ED000A10EE101A08460BF066FC46
:102CB0009FED3A0B53EC102B0BF068FA12D3364809
:102CC00000EB840090ED000A10EE101A08460BF09D
:102CD00055FC41EC180B9FED330B53EC102B0BF014
:102CE0001BF916D241F288301E4908809FED2F0A49
:102CF0001F4880ED000A9FED2D0A204880ED000A54
:102D00009FED2A0A204880ED000A0020BDEC028BCE
:102D100010BD641C032CB1DB154890ED000ADFEDFB
:102D20001C0A80EE201A80ED001A144890ED000A6B
:102D3000DFED170A80EE201A80ED001A124890EDA0
:102D4000000ADFED130A80EE201A80ED001A41F22E
:102D5000883004490880012015490860144800683B
:102D6000D4E700007001002084010020280F00201B
:102D7000B401002088010020485D0020B801002037
:102D80008C01002068AB0020BC01002088F90020E5
:102D900000409C45C8010020A84701202D431CEBA2
:102DA000E2360A3F2D431CEBE2360ABF000000006A
:102DB000D80100202DE9F04F2DED068B87B01320B0
:102DC000FEF77CFA07461220FEF778FA80461520B7
:102DD000FEF774FA81461420FEF770FA8246172037
:102DE000FEF76CFA83461620FEF768FA0690032079
:102DF000FEF780FA05900220FEF77CFA0490052089
:102E0000FEF778FA03900420FEF774FA0290072088
:102E1000FEF770FA01900620FEF76CFA009048EA7F
:102E2000072000B200EE100AB8EEC00ADFED660A15
:102E300080EE201A9FED650A61EE000A644890ED6D
:102E4000000AB8EE400A20EE800A624880ED000ACF
:102E50004AEA092000B200EE100AB8EEC00ADFED1F
:102E60005A0A80EE201A9FED590A61EE000A58486E
:102E700090ED000AB8EE400A20EE800A564880ED38
:102E8000000A069840EA0B2000B200EE100AF8EEA5
:102E9000C00A9FED4D1A80EE810ADFED4C0A60EE0C
:102EA000200A4B4890ED000AB8EE400A20EE800A56
:102EB0004A4880ED000ADDE9040140EA012000B241
:102EC00000EE100AB8EEC00A9FED3F1AC0EE010AEC
:102ED0009FED3E0A20EE800A414880ED000ADDE9C0
:102EE000020140EA012000B200EE100AF8EEC00A2A
:102EF0009FED351A80EE810ADFED340A20EE200ABC
:102F0000384880ED000ADDE9000140EA012000B206
:102F100000EE100AF8EEC00A9FED2B1A80EE810A2F
:102F2000DFED2A0A20EE200A2F4880ED000A222039
:102F3000FEF7C4F906462320FEF7C0F904462046F2
:102F4000E11704EBD161491101EBC605B5F5806FBE
:102F50001BDBA5F500600AF0B4FF41EC1A0B9FEDF6
:102F6000230B53EC102B0BF013F841EC190B9FEDD6
:102F7000210B53EC102B0AF033FD41EC180B0AF037
:102F800043FF00B21D49088019E028460AF0B0FF4F
:102F900041EC1A0B9FED150B53EC102B0AF0F8FFC8
:102FA00041EC190B9FED130B53EC102B0AF018FD9D
:102FB00041EC180B0AF028FF00B21049088007B056
:102FC000BDEC068BBDE8F08F00FEFF4600007A44A2
:102FD000CC010020780100207C010020800100202D
:102FE00084010020880100208C01002000000000E6
:102FF0000000C03F000000000000374074010020C6
:1030000010B50020084988610849487608490876C3
:103010000849487602F0AAF8002007490870022003
:10302000FFF7DAFC10BD0000040800206450012006
:1030300084500120A8500120580700202DE9F841B4
:1030400040490C8B002077E03F49095CCC2971D1C5
:103050003D4A411C515CDD296CD19446831C1CF80F
:103060000350C31C1CF80360031D1CF803308DF8CB
:103070000030431D1CF803308DF80130831D1CF80F
:1030800003308DF80230C31D1CF803308DF8033077
:1030900000F108031CF803700022022107E08BB244
:1030A0000344DFF8A4C01CF803305A40491C082927
:1030B000F5DBBA4239D1DFF894C09CF800C00CF1BE
:1030C000010C0CF00F03DFF888C09CF800C06345CA
:1030D00020D0DFF880C0DFF8748098F800800CF80A
:1030E0003850DFF8688098F800800CEBC80C8CF83A
:1030F00001609DED000ADFF85CC0DFF8508098F8B1
:1031000000800CEBC80C8CED010ADFF840C08CF895
:10311000003009E0DFF840C0DCF800C00CF1010C21
:10312000DFF83480C8F800C000BF00F1090398B28E
:1031300002E0FFE7411C88B200F10901A14283D9F6
:10314000BDE8F881EC060020F04D012008070020C2
:1031500009070020704E01200C0700202DE9F841DE
:1031600040490C8B002077E03F49095CCC2971D1A4
:103170003D4A411C515CDD296CD19446831C1CF8EE
:103180000350C31C1CF80360031D1CF803308DF8AA
:103190000030431D1CF803308DF80130831D1CF8EE
:1031A00003308DF80230C31D1CF803308DF8033056
:1031B00000F108031CF803700022022107E08BB223
:1031C0000344DFF8A4C01CF803305A40491C082906
:1031D000F5DBBA4239D1DFF894C09CF800C00CF19D
:1031E000010C0CF00F03DFF888C09CF800C06345A9
:1031F00020D0DFF880C0DFF8748098F800800CF8E9
:103200003850DFF8688098F800800CEBC80C8CF818
:1032100001609DED000ADFF85CC0DFF8508098F88F
:1032200000800CEBC80C8CED010ADFF840C08CF874
:10323000003009E0DFF840C0DCF800C00CF1010C00
:10324000DFF83480C8F800C000BF00F1090398B26D
:1032500002E0FFE7411C88B200F10901A14283D9D5
:10326000BDE8F88110070020704F012008070020FA
:1032700009070020704E01200C07002008B500BF90
:103280000AF0CEF800900AE003F066F90448408C9A
:10329000401C034948840121684609F007FAF3E716
:1032A000F04F012008B500BF0AF0BAF800900DE019
:1032B0009FED070A074800F011F80748808C401C72
:1032C000054988840121684609F0F0F9F0E700001B
:1032D0006F12833A3C020020F04F012010B52DED13
:1032E000108B86B00446F0EE408A002003900490D4
:1032F0000590B6EE000A28EE800AB0EE40FAFE48CD
:1033000090ED000AF0EE409AFC4890ED000AB0EE15
:1033100040AAFB4890ED000AF0EE40AAF94890ED73
:10332000000AB0EE40BAF84890ED000AB5EEC00AC7
:10333000F1EE10FA0FD1F54890ED000AB5EEC00A93
:10334000F1EE10FA07D1F24890ED000AB5EEC00A8E
:10335000F1EE10FA7ED0EC4890ED000A8DED030AF4
:10336000EA4890ED000A8DED040AE94890ED000A64
:103370008DED050ADDED030A60EEA00A9DED041A4D
:10338000DDED041A41EE210A9DED051ADDED051A69
:1033900041EE210AB0EE600A07F0AEFCB0EE408AC2
:1033A000DDED030AB0EE480A20EE800A8DED030A37
:1033B000DDED040AB0EE480A20EE800A8DED040A25
:1033C000DDED050AB0EE480A20EE800A8DED050A13
:1033D0009DED040ACF48D0ED000A20EE200ADDED75
:1033E000050ACD4890ED001AF0EE40BA40EEC1BAA1
:1033F0009DED050AC948D0ED000A20EE200ADDED5A
:10340000030AC44890ED001AB0EE40CA00EEC1CAEB
:103410009DED030AC048D0ED000A20EE200ADDED44
:10342000040ABE4890ED001AF0EE40CA40EEC1CA50
:10343000BB4890ED000A60EE2B0ABA4890ED000AF6
:1034400000EEA80A80ED000AB54890ED000A60EE93
:103450000C0A00E03FE0B44890ED000A00EEA80A34
:1034600080ED000AAE4890ED000A60EE2C0AAF48ED
:1034700090ED000A00EEA80A80ED000AA94890ED40
:10348000000AAB48D0ED000A00EEAB0AA948D0ED27
:10349000000A30EE200A80ED000AA34890ED000AF1
:1034A000A348D0ED000A00EE8C0AA348D0ED000A34
:1034B00030EE200A80ED000A9C4890ED000A9C48FE
:1034C000D0ED000A00EEAC0A9C48D0ED000A30EEC8
:1034D000200A80ED000A974890ED000A20EE0F0ABE
:1034E0008DED000A944890ED000A20EE0F0A8DED54
:1034F000010A924890ED000A20EE0F0A8DED020AB3
:103500009DED000A20EE000ADDED010A9DED011A95
:1035100000EE810ADDED020A9DED021AB0EE409A3E
:1035200000EE819AB7EE000A30EE490A20EE290A31
:10353000DDED000A0AEE600ADDED010A0AEEE00A9E
:10354000DDED020A0BEE600A6B4880ED000AB7EE73
:10355000000A30EE490A20EE0A0ADDED000A09EE03
:10356000A00ADDED020A0AEEA00ADDED010A0BEE6B
:10357000600A624880ED000AB7EE000A30EE490AA0
:1035800020EE2A0ADDED010A09EEA00ADDED020AAD
:103590000AEE600ADDED000A0BEE200A584880EDC5
:1035A000000AB7EE000A30EE490A20EE0B0ADDED04
:1035B000020A09EEA00ADDED010A0AEE200ADDED9D
:1035C000000A0AEEE00A4F4880ED000A4A48D0EDB2
:1035D000000A60EEA00A494890ED001AD0ED001AEA
:1035E00041EE210A464890ED001AD0ED001A41EE56
:1035F000210A444890ED001AD0ED001A41EE210A4C
:10360000B0EE600A07F078FBB0EE408A3A4890EDE1
:10361000000A20EE080A80ED000A384890ED000A02
:1036200020EE080A80ED000A354890ED000A20EEF1
:10363000080A80ED000A334890ED000A20EE080ADF
:1036400080ED000A2C4890ED000A20EE00DA2B48AD
:1036500090ED000A60EE00DA294890ED000A20EEB5
:1036600000EA284890ED000A60EE00EA3DEE2D0ADF
:1036700030EE4E0A30EE6E0A314880ED000A1F48E7
:1036800090ED000A1E48D0ED000A20EE200A1A48EC
:10369000D0ED000A1B4890ED001A00EE810AF0EE12
:1036A000000A20EE200A274880ED000A134890ED1A
:1036B000000A1448D0ED000A20EE200A0E48D0ED92
:1036C000000A0F4890ED001A00EEC10AF0EE000A61
:1036D00020EE200A114880ED000A074890ED000A0C
:1036E0000648D0ED000A20EE200A0548D0ED000A79
:1036F000044890ED001A27E0BC020020C002002020
:10370000C4020020C8020020900100209401002083
:1037100098010020DC020020D8020020D402002002
:10372000AC020020B0020020B4020020B802002049
:10373000A80200209C010020A0010020A40100207C
:10374000CC020020D002002000EE810AF0EE000A38
:1037500020EE200A2A4880ED000A3DEE6D0A30EE88
:103760004E0A30EE2E0A274880ED000A264890EDDA
:10377000000AF7EE000AB4EEE00AF1EE10FA03DDFB
:10378000B7EE000A80ED000A1F4890ED000AFFEE38
:10379000000AB4EEE00AF1EE10FA03D2BFEE000A1E
:1037A00080ED000A184890ED000A05F02DF8B1EE02
:1037B000400ADFED160A20EE200A84ED190A1148AE
:1037C000D0ED000A0E4890ED000A05F0B3F8DFEDE9
:1037D0000F0A20EE200A84ED180A0D48D0ED000AE9
:1037E0000C4890ED000A05F0A5F8DFED080A20EE80
:1037F000200A84ED1A0A06B0BDEC108B10BD000043
:10380000D8020020DC020020D4020020ED2E654208
:10381000CC020020D00200201CB50121084601F096
:10382000FFFA0121042001F0FBFA4FF4C050009090
:1038300001208DF8040000208DF8060003208DF88B
:10384000050001208DF8070069461348FFF72AF9A3
:103850004FF48070009001208DF8040000208DF856
:10386000060003208DF8050001208DF80700694649
:103870000A48FFF717F94FF400610748FFF77FF98F
:103880004FF480510448FFF77AF94FF480710348F0
:10389000FFF773F91CBD0000000002400008024061
:1038A000B0EE401AB4EEE01AF1EE10FA09D2B1EE21
:1038B000600AB4EEC01AF1EE10FA02DD9FED020AC2
:1038C0007047B0EE410AFBE70000000010B52DED97
:1038D0000A8B044694ED490ADFED580A20EE200ACF
:1038E000F0EE408A94ED370ADFED540A20EE200A0C
:1038F000B0EE409A94ED5B0ADFED500A20EE200A0C
:10390000B0EE408A4E48C0ED018A80ED199A80EDF4
:10391000318A94ED7F0A80ED490A29EE080AF0EE1B
:10392000409A28EE880AB0EE40AA94ED480ADFEDEE
:10393000430A20EE200AF0EE40AA94ED360ADFEDAD
:103940003F0A20EE200AB0EE40BA94ED5A0ADFEDAD
:103950003B0A20EE200AF0EE40BA94ED7E0AB0EE6B
:1039600040CA94ED530A3748D0ED1F0A80EE201A62
:10397000334880ED151A94ED410A3348D0ED1F0A03
:1039800080EE201A2E4880ED2D1A94ED650A2F48FE
:10399000D0ED1F0A80EE201A294880ED451A94EDDB
:1039A000890A2B48D0ED1F0A80EE201A244880EDAA
:1039B0005D1A2848C07948B1F0EE6A0AB0EE690A8B
:1039C000204A1F49002000F00BFB04E09FED220A73
:1039D0001B4880ED160A1F48007A50B1F0EE4B0AE2
:1039E000B0EE4A0A184A16496031012000F0F8FA90
:1039F00004E09FED190A124880ED2E0A1548407A1E
:103A000050B1F0EE6B0A9FED140A104A0C49C03118
:103A1000022000F0E5FA04E09FED0F0A084880ED6F
:103A2000460AF0EE4C0A9FED0C0A094A0B490320A6
:103A300000F0D6FABDEC0A8B10BD000039FA8E3CBE
:103A4000B447012040490120DC490120784A012087
:103A5000144B01203449012000000000D44801200B
:103A600070B52DED028B05460C46F0EE408A94EDC4
:103A7000010AB0EE408AB7EE000A84ED030A84ED35
:103A8000048AB0EE480A06F02DFA20EE080A84ED0A
:103A9000050A032D01D0022D04D19FED090A84ED02
:103AA000060A01E0C4ED068A94ED150A84ED070AC2
:103AB00094ED000A84ED080ABDEC028B70BD000095
:103AC0000000000010B5AAB01822B44924A8FCF7E1
:103AD0003CFD1822B14918311EA8FCF736FD18220A
:103AE000AE49303118A8FCF730FD1822AB494831F7
:103AF00012A8FCF72AFD1822A84960310CA8FCF78F
:103B000024FD1822A549783106A8FCF71EFD1822CD
:103B1000A24990316846FCF718FD002488E024A8EB
:103B200000EB840090ED000A9D4800EB840080EDDE
:103B3000000A12A800EB840090ED000A9848283093
:103B400000EB840080ED000A0CA800EB840090EDEF
:103B5000000A9348403000EB840080ED000A24A85E
:103B600000EB840090ED000A8E4800EB840080EDAD
:103B7000000A12A800EB840090ED000A8948283062
:103B800000EB840080ED000A0CA800EB840090EDAF
:103B9000000A8448403000EB840080ED000A1EA833
:103BA00000EB840090ED000A7F4800EB840080ED7C
:103BB000000A12A800EB840090ED000ADFED7B0AFA
:103BC00020EE200A7848283000EB840080ED000ABF
:103BD0000CA800EB840090ED000ADFED740A20EEE3
:103BE000200A7148403000EB840080ED000A18A8DC
:103BF00000EB840090ED000A6D4800EB840080ED3E
:103C0000000A06A800EB840090ED000A68482830FE
:103C100000EB840080ED000A684600EB840090ED24
:103C2000000A6348403000EB840080ED000A641C09
:103C3000062CFFF674AF9FED5F0A594880ED070A26
:103C40009FED5D0A80ED210A9FED5C0A80ED200A60
:103C50009FED5B0A80ED250A9FED5A0A80ED1E0A52
:103C60009FED590A80ED1F0A9FED580A80ED060A64
:103C7000B3EE000A80ED080AB1EE040A80ED220AD4
:103C8000B0EE0C0A80ED230A9FED4B0A80ED240A6A
:103C90009FED480A434880ED070A9FED470A80EDF3
:103CA000210A9FED460A80ED200A9FED450A80ED2E
:103CB000250A9FED440A80ED1E0A9FED430A80ED20
:103CC0001F0A9FED420A80ED060AB3EE000A80ED5E
:103CD000080AB1EE040A80ED220AB0EE0C0A80ED6B
:103CE000230A9FED350A80ED240A9FED320A2E4803
:103CF00080ED070A9FED300A80ED210A9FED340A1E
:103D000080ED200AB3EE0E0A80ED250A9FED310A00
:103D100080ED1E0A9FED300A80ED1F0AB7EE000A03
:103D200080ED060AB3EE000A80ED080AB7EE000A3D
:103D300080ED220AB0EE000A80ED230A9FED1E0AF4
:103D400080ED240A9FED1B0A194880ED070A9FEDBC
:103D50001A0A80ED210AB7EE080A80ED200AB3EEB8
:103D6000040A80ED250A9FED1D0A80ED1E0A9FEDD5
:103D70001C0A80ED1F0A01201A49087048708870DB
:103D8000C87008714871002088710120C8710872DC
:103D9000487200F0C9F82AB010BD0000A4E700087E
:103DA00040490120DC490120784A01209A99193FB5
:103DB000144B01200AD7233CCDCC4C3D99BB163B7C
:103DC00000004842DBA2D74000409244CDCC4C3F9B
:103DD000A69BC43A5EBA01400000EA44DBA2574108
:103DE00000005E4334490120F0B50446DDE9055684
:103DF000002092E003EB800797ED003AB0EE432AF3
:103E000006EB800797ED003AF0EE432A05EB8007BA
:103E100097ED003AF0EE431A04EB800797ED003A75
:103E2000F0EE430A01EB800797ED003AB0EE430A4B
:103E3000F5EEC01AF1EE10FA1AD8B4EEC20AF1EE9D
:103E400010FA04DBF5EEC00AF1EE10FA09DCB4EE6C
:103E5000E20AF1EE10FA0AD8F5EEC00AF1EE10FA15
:103E600005D29FED303A04EB800787ED003A53E02E
:103E7000F5EEC00AF1EE10FA22DDB4EEC20AF1EE60
:103E800010FA04DB9FED273AF0EE430A3FE032EEF2
:103E9000613AB4EEC03AF1EE10FA38D232EE403A5E
:103EA00083EE211AB5EEC01AF1EE10FA03D29FED9F
:103EB0001D3AB0EE431A20EE813AF0EE430A26E0B6
:103EC000F5EEC00AF1EE10FA21D2B4EEE20AF1EEFC
:103ED00010FA04D89FED133AF0EE430A17E032EEE1
:103EE000A13AB4EEC03AF1EE10FA10DD30EE623ACB
:103EF00083EE211AB5EEC01AF1EE10FA03D29FED4F
:103F0000093AB0EE431A20EE813AF0EE430A04EB90
:103F10008007C7ED000A00BF401C9042FFF66AAF61
:103F2000F0BD00000000000000203EE09FED290AE7
:103F3000294901EB800181ED000A9FED260A2649FF
:103F4000603101EB800181ED000A9FED220A2249D8
:103F5000C03101EB800181ED000A9FED1E0A1F496F
:103F600001EB800181ED000A9FED1A0A1A49183110
:103F700001EB800181ED000A9FED160A16497831A8
:103F800001EB800181ED000A9FED120A13494839C7
:103F900001EB800181ED000A9FED0E0A0F491831F7
:103FA00001EB800181ED000A401C0628BEDB0A49B6
:103FB000243991ED010A81ED000A91ED190A81ED94
:103FC000180A91ED310A81ED300A91ED490A81ED2F
:103FD000480A704700000000D8470120F848012037
:103FE0002DE9F0412DED0C8B88B007460C461646A6
:103FF000B0EE40BAB0EE609AB7EE000AF0EE40BA0A
:1040000084ED009A94ED010AD4ED000A30EE600AC6
:1040100084ED020AB0EE4B0A21463846FFF720FD38
:10402000062104F10C0000F02BF9B0EE40CAB7EE07
:10403000000A3CEE000AB0EE408A8E48807850B10B
:1040400094ED020AB0EEC00AD6ED210AB4EEE00A01
:10405000F1EE10FA01DB012000E0002080468548E7
:10406000C078D0B196ED220AB5EEC00AF1EE10FA92
:1040700013DD94ED020AB0EEC00AD6ED220AB4EECA
:10408000E00AF1EE10FA08DD9FED7B0A84ED160AD6
:1040900008B0BDEC0C8BBDE8F081D4ED028A754808
:1040A0000079B0B196ED230AB5EEC00AF1EE10FA30
:1040B0000FDD96ED230AC8EE800AB0EE60DAB0EEAE
:1040C0004D0A05F00FFFD6ED230A20EE200AF0EE90
:1040D000408A6848007800287ED0B8F1000F7BD075
:1040E0009FED65AA6348407948B194ED020AB0EEAD
:1040F000C00AD6ED240A20EE200AB0EE40AA96EDC2
:10410000070A70EE0AAA5B48807910B196ED060A9C
:1041100001E09FED590AF0EE40CA002513E0B1EE30
:10412000680A20EE2B0A04F10C0000EB8500D0EDAC
:10413000000A20EE200AC0EE080A02A800EB850063
:10414000C0ED000A6D1C062DE9DB4A48407868B1D5
:1041500006F1580006F1400106F128030622CDE9D8
:10416000001004F1240102A8FFF73EFE002562E0E2
:1041700004F1240000EB850090ED000A04F13C00FE
:1041800000EB8500D0ED000A30EE600A60EE2C0AEC
:1041900080EE880A02A800EB8500D0ED000A30EE20
:1041A000C00A04F1240000EB8500D0ED000A60EEA7
:1041B000AA0A80EE881A30EE410A06EB8500D0ED9F
:1041C000000A60EE209A04F1240000EB850090EDD7
:1041D000000ADFED2A0A00E02FE000EEA90A04F150
:1041E000240000EB850080ED000A2248807908B3A6
:1041F00004F1240000EB850090ED000A04F13C007E
:1042000000EB8500D0ED000A70EE600A04F13C007E
:1042100000EB850090ED000A96ED081ADFED171A05
:1042200021EE211A01EE200A04F13C0000EB85008A
:1042300080ED000A6D1C062D9ADB9FED0F0A84EDC0
:10424000160A002512E094ED160A04F1240000EB92
:104250008500D0ED000A04F10C0000EB850090ED24
:10426000001A00EE810A84ED160A6D1C062DEADBA9
:1042700000BF0DE734490120000000000AD7A33B2E
:104280000246DFED0C0AB0EE600A00200FE002EB00
:10429000800393ED001A02EB8003D3ED001AF0EED9
:1042A000400A41EE210AB0EE600A431CD8B28842AF
:1042B000EDDB70470000000070B5002100230F22E5
:1042C000C4781CB3174C246804F4E064C4F5E064BB
:1042D000C4F30721C1F10404E3B20A4144789C40CD
:1042E000E1B28478144021430C07210E0E4C05786E
:1042F0006155047804F01F050124AC4005786D1168
:10430000AD0005F1E025C5F8004109E0047804F0AE
:104310001F050124AC40054D0678761145F826406E
:1043200070BD00000CED00E000E400E080E100E082
:1043300002490143024A1160704700000000FA057B
:104340000CED00E000B58BB001A8FEF71AFC08A840
:1043500002F064FE03A802F015FE0121084600F0F9
:104360006FFD0121032000F05BFD20200190022061
:104370008DF8080003208DF8090000208DF80A0050
:1043800001208DF80B0001A93C48FEF78BFB0122B0
:1043900005213A48FEF7CEFB40F608400190022086
:1043A0008DF8080003208DF8090000208DF80A0020
:1043B00001208DF80B0001A93148FEF773FB0122A3
:1043C00003212F48FEF7B6FB01220A212C48FEF7F5
:1043D000B1FB01220B212A48FEF7ACFB42F20F7021
:1043E00009901B20ADF820000020ADF82800ADF8A2
:1043F00022008DF82A0008A94FF0804002F0CCFD81
:104400006020ADF80C000020ADF81000ADF81800E9
:104410000820ADF81A004001ADF81C000020ADF8EE
:104420001E000120ADF80E000020059003A94FF0FA
:10443000804002F073FC0020059003A94FF08040FB
:1044400002F0B4FC0020059003A94FF0804002F078
:104450000DFD0020059003A94FF0804002F056FDAD
:104460000121880702F04AFC0121880702F02EFC96
:104470000121880702F036FC0BB000BD00000240AD
:104480000004024000B58BB001A8FEF77AFB08A833
:1044900002F0C4FD03A802F075FD0121022000F026
:1044A000CFFC0121032000F0BBFCC02001900220C2
:1044B0008DF8080003208DF8090000208DF80A000F
:1044C00001208DF80B0001A93A48FEF7EBFA022211
:1044D00006213848FEF72EFB022207213548FEF759
:1044E00029FB0320019002208DF8080003208DF89D
:1044F000090000208DF80A0001208DF80B0001A9A9
:104500002D48FEF7CFFA022200212B48FEF712FBBE
:10451000022201212848FEF70DFB42F20F7009909C
:104520002920ADF820000020ADF82800ADF82200C9
:104530008DF82A0008A9214802F02EFD6020ADF870
:104540000C000020ADF81000ADF818000820ADF800
:104550001A004001ADF81C000020ADF81E0001203B
:10456000ADF80E000020059003A9144802F0D6FB18
:104570000020059003A9114802F018FC00200590C6
:1045800003A90E4802F072FC0020059003A90B4815
:1045900002F0BCFC0121094802F0B0FB01210748F0
:1045A00002F094FB0121054802F09CFB02F08AFA1C
:1045B0000BB000BD000002400004024000040040B7
:1045C00000B58BB001A8FEF7DCFA08A802F026FDC2
:1045D00003A802F0D7FC0121042000F031FC0121E6
:1045E000022000F01DFCC020019002208DF8080080
:1045F00003208DF8090000208DF80A0001208DF8B5
:104600000B0001A92948FEF74DFA0222062127488E
:10461000FEF790FA022207212448FEF78BFA42F2B5
:104620000F7009902920ADF820000020ADF8280077
:10463000ADF822008DF82A0008A91D4802F0ACFC54
:104640006020ADF80C000020ADF81000ADF81800A7
:104650000820ADF81A004001ADF81C000020ADF8AC
:104660001E000120ADF80E000020059003A910489F
:1046700002F054FB08210E4802F08EFB03A90C48FF
:1046800002F094FB08210A4802F0E2FB01210848ED
:1046900002F034FB0121064802F018FB0121044816
:1046A00002F020FB02F00EFA0BB000BD0004024045
:1046B0000008004030B52DED028B87B08CE3FD483B
:1046C000FD49097810F83150FB49097800EBC10029
:1046D0004478F848F849097800EBC10090ED010AE8
:1046E000B0EE408AF4490978481CC11700EB1171FB
:1046F0000911A0EB0111F04A1170012D39D10322EB
:1047000094FBF2F2D0B2032294FBF2F302FB1342C9
:10471000D1B2EA4A009248320192483202924832BB
:10472000039248320492483205929032069207284A
:104730001EDAB5EEC08AF1EE10FA19DB9FEDE00A41
:10474000B4EEC08AF1EE10FA12D821B95DF820203B
:1047500082ED028A0CE0012904D15DF8202082ED6F
:10476000038A05E0022903D15DF8202082ED048A46
:1047700031E3022D03D0052D01D0082D3DD12009B4
:1047800004F00F01CF4A0392CF4A0492CF4A059218
:10479000CF4A069204282FDA06292DDA022D0CD1F1
:1047A000B5EEC08AF1EE10FA07DD03AA52F8202018
:1047B00002EB810282ED008A1EE0052D0DD1B5EEDF
:1047C000C08AF1EE10FA08DB03AA52F82020283242
:1047D00002EB810282ED008A0EE0082D0CD1B5EECD
:1047E000C08AF1EE10FA07DB03AA52F8202040320B
:1047F00002EB810282ED008AEDE2062D23D1B5485D
:10480000C0790128B4D1042CB2DAF0EE488AB7EEB0
:10481000000AF4EEC08AF1EE10FA03DDB7EE000AEA
:10482000F0EE408ABFEE000AF4EEC08AF1EE10FA14
:1048300003D2BFEE000AF0EE408AB0EE680A2046CE
:1048400000F006FDC7E2072D0ED1002C90D1B6EE88
:10485000000AB4EEC08AF1EE10FA01DB012000E09C
:1048600000209D490870B6E2032D3CD19548039085
:10487000954804909548059095480690042C05DAD3
:1048800003A850F8240080ED1F8A2BE0082C06DADC
:10489000201F03A951F8200080ED1E8A22E0082C79
:1048A0000FD1B5EEC08AF1EE10FA1BDBB7EE000AAD
:1048B000B4EEC08AF1EE10FA14D8884880ED008A70
:1048C00010E0092C0ED1B5EEC08AF1EE10FA09DB2A
:1048D000B7EE000AB4EEC08AF1EE10FA02D88048B2
:1048E00080ED008A77E2092D4ED18CB99FED7D0ACB
:1048F000B4EEC08AF1EE10FAA4DDB3EE040AB4EE11
:10490000C08AF1EE10FA9DD2774880ED008A62E20B
:10491000012C11D19FED730AB4EEC08AF1EE10FAAA
:1049200090DDB2EE040AB4EEC08AF1EE10FA89D23C
:104930006E4880ED008A4EE2022C11D1B0EE080ADA
:10494000B4EEC08AF1EE10FA8DDB9FED690AB4EE89
:10495000C08AF1EE10FA86D8664880ED008A3AE205
:10496000032CBFD1B0EE080AB4EEC08AF1EE10FA03
:10497000B8DB9FED5F0AB4EEC08AF1EE10FAB1D851
:104980005D4880ED008A26E2042D0CD12CB9FEF79B
:1049900037FB0020594908701DE2012CA2D10320E9
:1049A000FEF71AF817E20A2D2CD14A48C0790128DF
:1049B00098D11CB9524880ED008A0CE2012C03D139
:1049C0004F4880ED018A06E2022C03D14C4880ED6D
:1049D000028A00E2032C03D1494880ED078AFAE1FC
:1049E000042C94D1B6EE000A38EE000ABCEEC00AE0
:1049F00010EE100AC0B208B1012000E000204049CA
:104A00008861E8E10B2D54D13248C079012892D158
:104A10001CB93C4880ED008ADDE1012C03D1394806
:104A200080ED018AD7E1022C03D1364880ED028A5D
:104A3000D1E1032C03D1334880ED038ACBE1042C70
:104A400003D1304880ED048AC5E1052C03D12D48FF
:104A500080ED058ABFE1062C10D1B6EE000A38EED3
:104A6000000ABCEEC00A10EE100A26490876084675
:104A7000007E022887D902200876ACE1072C8BD172
:104A8000B6EE000A38EE000ABCEEC00A10EE100ABC
:104A9000C0B2D8B307F096FC01201A4948769FEDC2
:104AA0001A0A084680ED070AFCF7C4FB07F0CEFCA3
:104AB00091E130E0704E012009070020E002002063
:104AC0000000484340490120DC490120784A012088
:104AD000144B0120385001203407002048070020E3
:104AE0004C070020CDCC4C3D380700203C0700206F
:104AF00000007042400700204407002058070020B3
:104B0000040800206450012000000000FFE700209E
:104B1000B74948765FE10C2D49D1B648C0790128E4
:104B200086D11CB9B44880ED008A54E1012C03D130
:104B3000B14880ED018A4EE1022C03D1AE4880EDF0
:104B4000028A48E1032C03D1AB4880ED038A42E19D
:104B5000042C03D1A84880ED048A3CE1052C03D144
:104B6000A54880ED058A36E1062C86D1B6EE000A0E
:104B700038EE000ABCEEC00A10EE100AC0B290B1C6
:104B800007F020FC01209C4908761FED210A084609
:104B900080ED070A1FED240A80ED080AFCF74AFBA6
:104BA00007F054FC17E100209349087613E1112D1A
:104BB0005CD19048C0790128ACD11CB98F4880EDF8
:104BC000008A08E1012C03D18C4880ED018A02E1C2
:104BD000022C03D1894880ED028AFCE0032C03D12A
:104BE000864880ED038AF6E0042C03D1834880EDEB
:104BF000048AF0E0052C03D1804880ED058AEAE0C4
:104C0000062C10D1B6EE000A38EE000ABCEEC00A3F
:104C100010EE100A794908760846007E012801D96D
:104C200001200876D7E0072C1BD1B6EE000A38EE3B
:104C3000000ABCEEC00A10EE100AC0B290B107F034
:104C4000C1FB01206D4948761FED510A084680EDF1
:104C5000070A1FED530A80ED080AFCF7EBFA07F08C
:104C6000F5FBB8E0002065494876B4E0122D10D17C
:104C70008CBBB5EEC08AF1EE10FA02D21FED5E0ACF
:104C800001E0B0EE480A5E4880ED000AFCF7D2FA77
:104C9000A1E00D2D03D1F4B9FEF7B2F99BE00F2D81
:104CA00038D1B6EE000A38EE000ABCEEC00A10EEAB
:104CB000101AC9B209B1012100E0002108460A2CEE
:104CC00025D2DFE804F005090C0F1215181B1E2170
:104CD0004C4908701CE052E04A49487018E04949C4
:104CE000887015E04749C87012E0464908710FE026
:104CF000444948710CE04349887109E04149C87151
:104D000006E04049087203E03E49487200E000BFF7
:104D100000BF60E0102D33D18CBB1FED850A3A48EF
:104D200080ED170A1FED880A80ED180A1FED8A0A28
:104D300080ED190A1FED8C0A80ED1A0A1FED8E0A0C
:104D400080ED150A1FED900A80ED160A1FED920AFC
:104D50002E4880ED910A1FED940A80EDA30A1FED05
:104D6000960A80ED900A1FED980A80EDA20A1FEDC9
:104D70009A0A80EDB40A1FED9C0A80EDC60A2AE06B
:104D80000E2D28D10CBBB6EE000A38EE000ABCEEA0
:104D9000C00A10EE100AC0B2C0B101201C49087050
:104DA0000020FDF719FE012000F0E0F9174890ED12
:104DB0006D0ADFED180AB4EEE00AF1EE10FA0ADD32
:104DC0001FEDAF0A002000F043FA04E00020104974
:104DD000087000F0CBF900BF0F4800780F49097840
:104DE00088427FF46CAC07B0BDEC028B30BD000094
:104DF000645001203850012084500120A850012027
:104E00005407002034490120D04B0120E00200204B
:104E1000580700203333B33E09070020080700205D
:104E200029B1064A12680243044B1A6004E0034A9F
:104E300012688243014B1A6070470000303802400C
:104E400029B1064A12680243044B1A6004E0034A7F
:104E500012688243014B1A607047000040380240DC
:104E600029B1064A12680243044B1A6004E0034A5F
:104E700012688243014B1A607047000020380240DC
:104E800029B1064A12680243044B1A6004E0034A3F
:104E900012688243014B1A60704700004438024098
:104EA00029B1064A12680243044B1A6004E0034A1F
:104EB00012688243014B1A60704700002438024098
:104EC000F0B5002100220024022500260223324FE3
:104ED0003F6807F00C0121B1042905D0082937D11A
:104EE00005E02E4F076036E02D4F076033E02A4F74
:104EF0003F1F3F68C7F38056274F3F1F3F6807F0AB
:104F00003F036EB1264FB7FBF3F7DFF88CC0ACF16F
:104F1000040CDCF800C0CCF3881C07FB0CF40CE09C
:104F20001E4FB7FBF3F7DFF870C0ACF1040CDCF8F0
:104F300000C0CCF3881C07FB0CF4174F3F1F3F68E1
:104F4000C7F301477F1C7D00B4FBF5F7076002E063
:104F5000124F076000BF00BF0F4F3F6807F0F0011E
:104F60000909104F7A5C0768D74047600A4F3F68CD
:104F700007F4E051890A0B4F7A5C4768D740876095
:104F8000054F3F6807F46041490B064F7A5C47685C
:104F9000D740C760F0BD0000083802400024F4008C
:104FA00000127A005907002010B52DED028B04463F
:104FB0003E480078D8B134B1012C08D0022C0AD078
:104FC000032C10D10BE03A4890ED008A0EE03848EF
:104FD00090ED018A0AE0364890ED028A06E03448F6
:104FE00090ED038A02E09FED338A00BF3FE034B1C9
:104FF000012C11D0022C1CD0032C34D126E02E48D9
:10500000C08800EE900AF8EE600AB0EE600A06F082
:10501000D3FEB0EE408A29E02748008800EE900ACF
:10502000F8EE600AB0EE600A06F0C6FEB0EE408A06
:105030001CE02148408800EE900AF8EE600AB0EECD
:10504000600A06F0B9FEB0EE408A0FE01A48808888
:1050500000EE900AF8EE600AB0EE600A06F0ACFED0
:10506000B0EE408A02E09FED138A00BF00BFB7EEAA
:10507000001AFFEE000AB0EE480A06F087FEB0EE16
:10508000408A6CB90D48007850B19FED0D0AB4EE1E
:10509000C08AF1EE10FA03DD9FED090AB0EE408AF6
:1050A000B0EE480ABDEC028B10BD0000D006002017
:1050B000B04B0120000000002850012034070020E0
:1050C0009A9919BF0148007870470000D006002067
:1050D00010B52DED028B04462048007810B3042C47
:1050E0001ED21F4800EB840090ED000A14B9DFEDDA
:1050F0001D0A01E0DFED1C0AB0EE608AB4EEC80ABA
:10510000F1EE10FA06DCF1EE480AB4EEE00AF1EE38
:1051100010FA03D20120BDEC028B10BD0020FAE78B
:105120000020F8E72046FFF73FFF14B9DFED0D0A36
:1051300001E0DFED0D0AB0EE608AB4EEC80AF1EED0
:1051400010FA06DCF1EE480AB4EEE00AF1EE10FACD
:1051500001D20120DFE70020DDE70000D0060020BB
:10516000B04B0120CDCC4C3DCDCCCC3D10B5044650
:10517000F4B3BFEE000A2E4880ED000A2D48C08827
:1051800000EE900AF8EE600AB0EE600A06F014FE37
:10519000294880ED000A2748008800EE900AF8EEC2
:1051A000600AB0EE600A06F007FE234880ED010AAF
:1051B0002048408800EE900AF8EE600AB0EE600ADF
:1051C00006F0FAFD1C4880ED020A1A48808800EEBD
:1051D000900AF8EE600AB0EE600A06F0EDFD16489F
:1051E00080ED030A0A20154908800120144900E0D7
:1051F00001E008701AE00020114908709FED110AC3
:105200000B4880ED000A9FED0F0A80ED010A9FED2B
:105210000D0A80ED020A9FED0B0A80ED030A0020C3
:1052200009490870094908700449088010BD000048
:10523000B04B012028500120C04B0120DA0600208D
:10524000D006002000000000D8060020D90600206B
:1052500010B52DED028B0446B0EE408A042C16D218
:10526000B7EE001AFFEE000AB0EE480A06F08EFD17
:10527000084800EB840080ED000A08F0D1F80649E8
:105280000860012005490870002005490870BDEC40
:10529000028B10BDB04B0120D4060020D8060020A0
:1052A000D906002070B52DED048B6F48007810B939
:1052B000BDEC048B70BD6D48007800287DD16C4832
:1052C000C08800EE900AF8EE600AB0EE600A06F0C0
:1052D00073FDB0EE408A6648008800EE900AF8EE52
:1052E000600AB0EE600A06F067FDF0EE408A6048A2
:1052F000408800EE900AF8EE600AB0EE600A06F010
:105300005BFDB0EE409A5A48808800EE900AF8EEB5
:10531000600AB0EE600A06F04FFDF0EE409A554884
:10532000008870B153480088401E52490880524896
:1053300080ED008AC0ED018A80ED029AC0ED039AEB
:105340006BE04D4890ED002A38EE422AF0EE421A0A
:10535000F5EEC01AF1EE10FA03D2B1EE612AF0EECA
:10536000421A454890ED012A38EEC20AB5EEC00A4D
:10537000F1EE10FA03D2B1EE402AB0EE420A3E48F6
:1053800090ED022A79EE420AF5EEC00AF1EE10FA2B
:1053900003D2B1EE602AF0EE420A374890ED032ABC
:1053A00039EEC21AB5EEC01AF1EE10FA03D2B1EE20
:1053B000412AB0EE421A304800E02FE080ED008A2A
:1053C000C0ED018A80ED029AC0ED039A9FED2B2A71
:1053D000F4EEC21AF1EE10FA14DC9FED282AB4EEB6
:1053E000C20AF1EE10FA0DDC9FED242AF4EEC20A97
:1053F000F1EE10FA06DC9FED212AB4EEC21AF1EEAE
:1054000010FA09DD0020184908701D4908701D496F
:1054100008701D4908704BE700BF00BF18480078AE
:1054200000B945E707F0FCFF044618480068251A54
:10543000B5F5FA7F16D900200B4908709FED140AC4
:10544000144880ED000A9FED120A80ED010A9FEDDD
:10545000100A80ED020A9FED0E0A80ED030A01207A
:105460000849087000BF23E7D00600202C07002061
:1054700028500120DA060020C04B0120CDCC4C3D45
:10548000D8060020D906002058070020D4060020A6
:1054900000000000B04B012008B500BF07F0C0FFBE
:1054A00000900AE006F022FB0448008D401C0349EE
:1054B00008850A21684607F0F9F8F3E7F04F012064
:1054C00010B52DED068B77487749096850F8210013
:1054D000062861D073487449096850F821000828EB
:1054E0005AD070487049096850F82100072853D0F5
:1054F0006C486D49096850F8210002284CD0694871
:105500006949096850F821000C2845D0654866496A
:10551000096850F821000D283ED0624862490968A8
:1055200050F821000E2837D05E485F49096850F8CE
:1055300021000F2830D05B485B49096850F82100F2
:10554000132829D057485849096850F821001228D3
:1055500022D054485449096850F8210010281BD023
:1055600050485149096850F82100032814D04D488B
:105570004D49096850F8210006280DD049484A498C
:10558000096850F82100192806D04648464909689C
:1055900050F8210011282DD14448C088A0F57A7018
:1055A000002804DD4148C088A0F57A7003E03F4838
:1055B000C088C0F57A7064281DDD3D498988A1F650
:1055C000B83008F07EFC41EC1A0B9FED3A0B53EC1F
:1055D000102B08F0C1FA41EC190B9FED380B53EC7E
:1055E000102B08F0D5FC41EC180B08F0C7F9354931
:1055F000C1F8680153E0344890ED000AB5EEC00AE6
:10560000F1EE10FA40D1314890ED000AB5EEC00A33
:10561000F1EE10FA0AD12B4890ED250A80ED240A0C
:10562000B7EE000A294880ED000A38E0274890EDDF
:10563000000AF7EE000AB4EE600AF1EE10FA2ED17D
:10564000204890ED2F0AF3EE0E0AB4EEE00AF1EED8
:1056500010FA04DDB3EE0E0A80ED5A0A1FE0194875
:1056600090ED2F0AFBEE0E0AB4EEE00AF1EE10FA0E
:1056700004D2BBEE0E0A80ED5A0A10E0114890EDFC
:105680002F0A80ED5A0A0AE00F4890ED000A0D48F3
:1056900080ED5A0A9FED0E0A0C4880ED000ABDEC21
:1056A000068B10BD28080020B00000207C4C012093
:1056B000285001200000000000408F400000000042
:1056C00000006940E0020020C8000020AC0000207B
:1056D0000000000010B52DED088BE148E149096894
:1056E00050F8210002285AD0DD48DE49096850F8F8
:1056F0002100042853D0DA48DA49096850F821001B
:105700000C284CD0D648D749096850F821000D28FC
:1057100045D0D348D349096850F821000E283ED01F
:10572000CF48D049096850F821000F2837D0CC481D
:10573000CC49096850F82100132830D0C848C9491D
:10574000096850F82100122829D0C548C5490968C0
:1057500050F82100102822D0C148C249096850F8E9
:10576000210001281BD0BE48BE49096850F821001D
:10577000032814D0BA48BB49096850F8210006280C
:105780000DD0B748B749096850F82100192806D04C
:10579000B348B449096850F82100112873D1B248C0
:1057A0004088A0F57A70002804DDAF484088A0F555
:1057B0007A7003E0AC484088C0F57A70642821DD37
:1057C000AA490988A1F6B83008F07BFB41EC1B0B15
:1057D0009FEDA70B53EC102B08F0BEF941EC1A0B10
:1057E00008F0C0F841EC190B9FEDA30B53EC102B04
:1057F00008F0CEFB41EC180B08F0C0F8A049C1F846
:1058000018037BE09F4890ED000AFFEE000AB4EE1B
:10581000600AF1EE10FA37D19B4890ED000AB5EE20
:10582000C00AF1EE10FA0AD1954890EDA30A80ED76
:10583000A20AB7EE000A944880ED000A5EE09048A4
:1058400090EDAD0ADFED910AB4EEE00AF1EE10FA48
:1058500004DD9FED8E0A80EDC60A4FE0884890ED8A
:10586000AD0ADFED8B0AB4EEE00AF1EE10FA04D2D5
:105870009FED870A80EDC60A40E0814890EDAD0AB1
:1058800080EDC60A3AE0D0E07E4890ED000AFFEED7
:10589000000AB4EE600AF1EE10FA2FD09FED7D0AF7
:1058A000794880ED000A774890ED000A7A4880ED4B
:1058B000010A90ED010ADFED750AB4EEE00AF1EE9F
:1058C00010FA05DD9FED710A6D4880EDC60A15E0FE
:1058D000714890ED010ADFED6E0AB4EEE00AF1EED8
:1058E00010FA05D29FED6A0A654880EDC60A05E008
:1058F000694890ED010A624880EDC60A5A4800885E
:10590000A0F57A70002804DD57480088A0F57A7069
:1059100003E055480088C0F57A70642821DD5349BA
:105920004988A1F6B83008F0CCFA41EC1B0B9FED8A
:10593000500B53EC102B08F00FF941EC1A0B08F048
:1059400011F841EC190B9FED4C0B53EC102B08F0A8
:105950001FFB41EC180B08F011F84949C1F8D002BF
:105960007AE04E4890ED000AFFEE000AB4EE600ABD
:10597000F1EE10FA36D14A4890ED000AB5EEC00AB1
:10598000F1EE10FA0AD13E4890ED910A80ED900AAE
:10599000B7EE000A424880ED000A5DE0384890ED1D
:1059A0009B0ADFED3A0AB4EEE00AF1EE10FA04DDEC
:1059B0009FED360A80EDB40A4EE0314890ED9B0A27
:1059C000DFED330AB4EEE00AF1EE10FA04D29FEDF7
:1059D000300A80EDB40A3FE0294890ED9B0A80ED43
:1059E000B40A39E02D4890ED000AFFEE000AB4EE4B
:1059F000600AF1EE10FA2FD09FED260A284880EDBC
:105A0000000A264890ED000A234880ED000A90ED38
:105A1000000ADFED1E0AB4EEE00AF1EE10FA05DD31
:105A20009FED1A0A164880EDB40A15E01A4890ED69
:105A3000000ADFED170AB4EEE00AF1EE10FA05D223
:105A40009FED130A0E4880EDB40A05E0124890ED70
:105A5000000A0B4880EDB40ABDEC088B10BD0000B5
:105A600028080020B00000207C4C01202850012094
:105A70000000000000408F4000000000000059407E
:105A8000E0020020C4000020A800002000004842DE
:105A9000000048C200000000B84C0120C0000020F7
:105AA000A400002000200549086008460068801E08
:105AB000034908600020014908607047B0000020D9
:105AC000B400002010B57D487D49096850F82100D8
:105AD000042862D003DCE0B301287CD185E00B28E8
