:020000040800F2
:10000000D0AD012031030008390300083B0300088C
:100010003D0300083F030008410300080000000002
:10002000000000000000000000000000790200084D
:100030004503000800000000CD020008B187000859
:100040004B0300084B0300084B0300084B03000858
:100050004B0300084B0300084B0300084B03000848
:100060004B030008D93000084B0300084B0300087D
:100070004B0300084B030008592700084B030008F6
:100080004B030008812700084B0300084B030008BE
:100090004B0300084B0300084B030008F130000835
:1000A0004B0300084B0300084B0300084B030008F8
:1000B0004B0300084B0300084B0300084B030008E8
:1000C0004B0300084B0300084B0300084B030008D8
:1000D0004B0300087D9100086992000859940008BC
:1000E000A53000084B0300084B0300084B03000831
:1000F0004B0300084B0300084B030008AD27000822
:100100004B0300084B0300084B0300084B03000897
:10011000658E0008799000084B0300084B03000827
:100120004B0300084B0300084B0300084B03000877
:100130004B0300084B0300084B0300084B03000867
:100140004B0300084B0300084B0300084B03000857
:100150004B0300084B0300084B0300088194000880
:100160004B0300084B0300084B0300084B03000837
:100170004B0300084B0300084B0300084B03000827
:100180004B0300084B03000800F002F800F064F88D
:100190000AA090E8000C82448344AAF10107DA45E2
:1001A00001D100F059F8AFF2090EBAE80F0013F0D0
:1001B000010F18BFFB1A43F0010318472C1501006B
:1001C0004C1501000A444FF0000C10F8013B13F0ED
:1001D000070408BF10F8014B1D1108BF10F8015BA0
:1001E000641E05D010F8016B641E01F8016BF9D193
:1001F00013F0080F1EBF10F8014BAD1C0C1B09D1EA
:100200006D1E58BF01F801CBFAD505E014F8016B5B
:1002100001F8016B6D1EF9D59142D6D370470000ED
:100220000023002400250026103A28BF78C1FBD8FF
:10023000520728BF30C148BF0B607047642900F0E7
:100240007981732900F0C482002070471FB510F037
:10025000B4FF1FBD10B510BD00F026FB1146FFF71F
:10026000F5FF0DF043F900F044FB03B4FFF7F2FF94
:1002700003BC0CF08BFE00002A4B19680868B0E83C
:10028000F04F80F30988BFF36F8F4FF0000080F3C9
:10029000118870470000000006480068006880F37D
:1002A000088862B661B6BFF34F8FBFF36F8F00DF70
:1002B00000BF00BF08ED00E0DFF80C00016841F46A
:1002C00070010160704700BF88ED00E0EFF3098026
:1002D000BFF36F8F134B1A681EF0100F08BF20ED8D
:1002E000108A20E9F04F106008B44FF0500080F3FE
:1002F0001188BFF34F8FBFF36F8F0FF0B3F94FF03B
:10030000000080F3118808BC19680868B0E8F04F55
:100310001EF0100F08BFB0EC108A80F30988BFF3FD
:100320006F8F704774080020EFF30580704700005E
:100330000948804709480047FEE7FEE7FEE7FEE779
:10034000FEE7FEE7FEE7FEE7FEE7FEE704480549B5
:10035000054A064B70470000E9880008890100083B
:10036000D0A70120D0AD0120D0A90120D0A9012023
:10037000704753EA020C00F069802DE9F04B4FF012
:100380000006002B1FBFB3FA83F503FA05F424FA25
:1003900005F65E4012BF1643B2FA82F502FA05F482
:1003A000C5F120051EBF22FA05FC44EA0C042035E5
:1003B00056EA044C4FEA144418BF641C4FF000087E
:1003C0004FF00009904271EB030C39D3002919BF9B
:1003D000B1FA81F701FA07F6B0FA80F700FA07F6EA
:1003E000C7F120071EBF20FA07FC46EA0C0620379B
:1003F000B6FBF4FCA7EB0507103F07F01F0BCBF192
:1004000020060CFA0BFB2CFA06F644BFB346002676
:10041000202FA4BF5E464FF0000B5BEA060C08BF1E
:100420004FF0010B19EB0B09ABFB027C48EB060804
:10043000C01B06FB02CC0BFB03CC71EB0C01C1E72C
:100440000B46024641464846BDE8F08B13B54FF0D7
:1004500000004FF00001AFF30080BDE81C40704782
:100460000FB4044910B503AA029800F0B5F910BC06
:100470005DF814FB200000202DE9F0410E460446F3
:10048000002020622046E168884730B3252805D047
:10049000D4E901219047206A401CF2E7E168204638
:1004A00000278847050018D0A5F14100192802D877
:1004B00020354FF400673246294620462760FFF773
:1004C000BDFE40B1012804D0F61D26F0070608360F
:1004D000D8E7361DD6E72846DAE7206ABDE8F0817E
:1004E00070B50C460546012A05D02878800600D54F
:1004F000EA69002302E0012305E05B1C934202D27B
:10050000E05C0028F9D1A869E618C01AA861286A39
:10051000184428622846AFF3008004E0D5E90121A1
:1005200014F8010B9047B442F8D32846AFF300808B
:1005300070BD00002DE9F0410646002410687529C1
:10054000314616A510D0AFF30080002802DA4042F1
:1005500013A507E031688A0701D512A502E0490713
:1005600004D511A5012401E0AFF3008000210A2287
:1005700006F1240709E0B0FBF2FCB0FBF2F302FB4A
:100580001C00303078541846491C0028F3D123460B
:100590002A463046BDE8F04100F096B80000000061
:1005A0002D0000002B00000020000000032A40F274
:1005B000308010F0030C00F0158011F8013BBCF105
:1005C000020F624498BF11F801CB00F8013B38BF1D
:1005D00011F8013BA2F1040298BF00F801CB38BF2B
:1005E00000F8013B11F0030300F02580083AC0F049
:1005F000088051F8043B083A51F804CBA0E80810F1
:10060000F5E7121D5CBF51F8043B40F8043BAFF323
:100610000080D20724BF11F8013B11F801CB48BF7D
:1006200011F8012B24BF00F8013B00F801CB48BFB3
:1006300000F8012B704710B5203AC0F00B80B1E8EC
:100640001850203AA0E81850B1E81850A0E8185007
:10065000BFF4F5AF5FEA027C24BFB1E81850A0E810
:10066000185044BF18C918C0BDE810405FEA827C2A
:1006700024BF51F8043B40F8043B08BF7047D20741
:1006800028BF31F8023B48BF11F8012B28BF20F8E2
:10069000023B48BF00F8012B704702F0FF0343EA1A
:1006A000032242EA024200F0ABB87047704770473D
:1006B000704710B500F0C4F8006810BD10B50446CE
:1006C00000F0BEF8046010BD2DE9F0470D469946D4
:1006D0009246044600F124080168880604D5E069C2
:1006E00021F01001216000E00120A84201DD471B3C
:1006F00000E00027A1697A1902EB0900081AA0613D
:100700002078C00602D42046AFF30080002608E01F
:10071000D4E901211AF806009047206A401C761C93
:1007200020624E45F4DB2078C0060AD52046AFF3A0
:10073000008006E0D4E9012130209047206A401C67
:100740002062381EA7F10107F4DC07E0D4E901219B
:1007500018F805009047206A401C2062281EA5F169
:100760000105F3DC2046AFF300802078000602D5B7
:100770000220BDE8F0870120FBE7000001694A1C68
:1007800002610878704700B58FB0CDE901310021D2
:10079000059105497944CDE9031011466846FFF7F4
:1007A0006BFE0FB000BD0000E5FFFFFF10B5436911
:1007B00013B1AFF3008001E0FFF792FE012010BDFE
:1007C000127800F124010A7000224A700122EDE73C
:1007D00011684FF0FF32E9E7074B70B50D467B44D7
:1007E000FFF7D1FF0446284600F02EF810B14FF075
:1007F000FF3070BD204670BDE3CB00004FF000021B
:100800000429C0F0128010F0030C00F02380CCF11A
:10081000040CBCF1020F18BF00F8012BA8BF20F890
:10082000022BA1EB0C0100F015B85FEAC17C24BFDC
:1008300000F8012B00F8012B48BF00F8012B70478E
:100840000048704770A70120007B00F080007047CF
:100850004FF0000200B5134694469646203922BF59
:10086000A0E80C50A0E80C50B1F12001BFF4F7AFA4
:10087000090728BFA0E80C5048BF0CC05DF804EB86
:10088000890028BF40F8042B08BF704748BF20F8F4
:10089000022B11F0804F18BF00F8012B70470000A9
:1008A0000048704770A701207546FFF7F9FFAE4674
:1008B00005006946534620F00700854618B020B56C
:1008C000FFF744FDBDE820404FF000064FF0000761
:1008D0004FF000084FF0000B21F00701AC46ACE8E8
:1008E000C009ACE8C009ACE8C009ACE8C0098D4655
:1008F000704710B50446AFF300802046BDE81040B5
:10090000FFF7B3BC00B58DB00121084605F0B2F980
:100910000121080205F0DEF910200B9003208DF86C
:10092000300000208DF833000BA9154802F0AEFC12
:1009300007A800F04FF8002007904FF4803008908F
:10094000002009900A9007A800F02CF801A800F0F8
:10095000FEF8002001908DF808008DF80900049041
:1009600001A9084800F04AF807230122042105489C
:1009700000F08CF80121034800F009F80DB000BD2B
:100980000000024000200140CA430260704721B1CC
:10099000826842F00102826003E0826822F0010274
:1009A000826070470021084A1168084A1140D0E966
:1009B00000231A4383681A43C3681A431143044A45
:1009C000C2F804137047000004230140E030FCFF2C
:1009D000002001400021016041608160C1607047DA
:1009E0000146C86C80B270470246002013680B4075
:1009F0000BB1012000E000207047000030B5024636
:100A0000002000235068104C20400D790C6844EA07
:100A100005242043506090680C4C2040D1E90354D9
:100A20002C438D682C434D7944EA45042043906063
:100A3000D06A20F470000C7D641EE4B2234340EAC7
:100A40000350D06230BD0000FFFEFFFCFDF7FFC089
:100A500070B50C4800F076F80B4C03E0601E041EE5
:100A600000D170BD02210748FFF7BEFF0028F5D076
:100A70000448FFF7B5FF054602210248FFF784FF4F
:100A80002846EEE700200140A0860100F0B50446AC
:100A90000D4600200021092D11DDE068A5F10A06B0
:100AA00006EB4607072606FA07F18843A5F10A0672
:100AB00006EB460603FA06F10843E0600CE0206905
:100AC00005EB4507072606FA07F1884305EB4506BF
:100AD00003FA06F108432061072A0FDA606B561EFD
:100AE00006EB86071F2606FA07F18843561E06EB1B
:100AF000860605FA06F10843606322E00D2A0FDA44
:100B0000206BD61F06EB86071F2606FA07F18843DF
:100B1000D61F06EB860605FA06F10843206310E0AF
:100B2000E06AA2F10D0606EB86071F2606FA07F11A
:100B30008843A2F10D0606EB860605FA06F1084386
:100B4000E062F0BD816841F0804181607047002122
:100B50000160017141718160C16001610121017514
:100B60007047000030B500220024C5788B1F9D42DD
:100B700000D030BD002306E0C55C1544EAB2A518DC
:100B8000ECB25D1CEBB28D1E9D42F5DC431813F8F0
:100B9000023C934204D1431813F8013CA34200D015
:100BA000E7E78378512B38D103795BB943794B4D13
:100BB0006B7183795BB2AB71C3795BB2EB71037A12
:100BC0002B7189E00379012B12D14379434D2B72AC
:100BD000C3886B810389AB81837A2B719FED400AB7
:100BE000404B83ED010A2B461B785B1C2B7073E096
:100BF0000379022B70D14379384DAB73C3882B82B4
:100C000003896B824389AB828389EB82C3892B83FF
:100C1000038A6B83837C2B715EE08378342B0DD148
:100C2000D0F807302D4DEB619FED2D0A2D4B83ED54
:100C3000020A2B465B785B1C6B704DE08378012BBE
:100C400013D18388254DA5F84830C388A5F84A30CC
:100C50000389A5F84C304389A5F84E308389A5F85F
:100C60005030C389A5F8523036E08378042B33D155
:100C7000B0F9043000EE103AB8EEC00ADFED1A0AFF
:100C800020EE200A154B83ED0E0AB0F9063000EE77
:100C9000103AB8EEC00ADFED140A20EE200A0F4B1E
:100CA00083ED0F0AB0F9083000EE103AB8EEC00A32
:100CB000DFED0D0A20EE200A084B83ED100AB0F993
:100CC0000A3000EE103AB8EEC00ADFED070A20EE57
:100CD000200A024B83ED110A00BF4AE7A84E01200B
:100CE00000000000484F012017B7D13810B5044666
:100CF0003E48007838B9AA2C05D101203B4908703C
:100D00003B48047070E039480078012805D1022082
:100D1000364908703648447066E034480078022846
:100D200005D1032031490870314884705CE02F48B8
:100D3000007803280CD1322C0ADA04202B490870E1
:100D40002B48C4702B48047000202B4908704BE0DE
:100D500026480078042819D126480078002815DD97
:100D600024480078401E234908702348007822490F
:100D70000978491C204A1170001D1D490C541D485A
:100D8000007868BB0520194908702DE017480078E5
:100D900005280DD106201549087017480078164916
:100DA0000978491C144A1170001D11490C541BE0AC
:100DB0000E480078062814D100200C4908700E480F
:100DC0000078001D0A490C549FED0C0A0C4880ED78
:100DD000000A09480078401DC1B20548FFF7C2FE6D
:100DE00002E000200149087010BD0000CC0700207F
:100DF000144F0120CA070020CB070020000000008C
:100E0000484F012010B500F0E7F81E48007E10B1F1
:100E100000F026F90AE01C48407E10B100F04CFAC0
:100E200004E01A48407E08B100F098F9184840895B
:100E3000B0F5E16F0DD116480089B0F5E16F08D12A
:100E40001448007828B914480068401D1249086009
:100E500002E00020104908600F480068B0F5FA6F02
:100E600003D301200D49087002E000200B490870EF
:100E70000A480078012802D105F09CFE01E005F047
:100E8000BBFF10BDDC530120BC53012000540120E6
:100E9000D44F012018080020D0000020D4000020EA
:100EA00010B52DED088BB0EE408AF0EE608AB0EE02
:100EB000419A404890ED000AF0EE409AF5EEC09A53
:100EC000F1EE10FA11D83C4880EDA08AC0EDB48A4A
:100ED00080ED789A0020394908709FED390A394829
:100EE00080ED000ABDEC088B10BD34480078C0B915
:100EF000314880EDA08AC0EDB48A80ED789A3248FE
:100F000080ED008A3148C0ED008A314880ED009ABA
:100F10009FED2B0A2B4880ED000A0120274908701D
:100F2000E0E7294890ED000A38EE400AB0EE40BAFA
:100F3000264890ED000A38EEC00AB0EE40AA2448D8
:100F400090ED000A39EE400ADFED220A20EE200A79
:100F5000F0EE40AA6BEE0B0A4AEE0A0A4AEEAA0A23
:100F6000B0EE600A0BF06DFA1648D0ED000A30EED4
:100F7000200A80ED000A144880ED008A1348C0ED75
:100F8000008A134880ED009A0E4890ED000AB4EEF6
:100F9000E90AF1EE10FA0BDB074880EDA08AC0EDFC
:100FA000B48A80ED789A9FED060A064880ED000A23
:100FB00000BF97E7480800201C0300200401002020
:100FC00000000000F4000020F8000020FC000020D9
:100FD000000100200000C84210B504F09DFF48B990
:100FE00000201B4948761B4908761B4948761B4957
:100FF000886110BD1648407E38B10020154908763A
:1010000015494876154988611FE01248007E38B1BD
:1010100000200F494876104948761049886114E04D
:101020000D48407E38B100200949487609490876C4
:101030000A49886109E00948806930B10020044903
:101040004876044908760449487600BFD1E7000095
:10105000BC530120DC53012000540120F80800207B
:1010600010B52DED048B9FED370AB0EE409A36484F
:10107000C079012805D0002034490876BDEC048BE6
:1010800010BD3248007E00B9F8E7304890ED080AFC
:10109000DFED2C0A30EE200A80ED080A90ED070AF9
:1010A000D0ED040A9FED271A00EE810A80ED070AB1
:1010B000D0ED070AB0EE600A0BF0BEF82348D0ED81
:1010C000010A90ED031A41EE000AB0EE608AD0EDFD
:1010D000070AB0EE600A09F053FD1C48D0ED000A83
:1010E00090ED031A41EE000AF0EE608A90ED020ADC
:1010F000B0EE401AF0EE480AB0EE680AFFF7D0FEF4
:10110000124890ED070ADFED120A20EE200A11487E
:1011100080ED280A0D4890ED050AB5EEC00AF1EE03
:1011200010FA0DDD90ED080AD0ED050AB4EEE00AE4
:10113000F1EE10FA04DB00200449087606498861C4
:1011400000BF9BE70AD7A33B90530120DC5301204B
:10115000ED2E65421C030020F808002010B52DED8F
:10116000088B9FED4F0AB0EE40BA4E48C079012877
:1011700005D000204C494876BDEC088B10BD4A488C
:10118000407E00B9F8E7484890ED080ADFED440AD0
:1011900030EE200A80ED080A90ED070AD0ED040A2F
:1011A0009FED3F1A00EE810A80ED070A90ED078A55
:1011B000007E012822D1F0EE000A68EE200AB0EE8F
:1011C000600A0BF039F83848D0ED000A90ED031AA8
:1011D000F6EE001A21EE211AF0EE608A41EE008A46
:1011E000B0EE480A0BF028F82F48D0ED010A90ED38
:1011F000031AB0EE609A01EE009A29E0B0EE480AB8
:101200000BF01AF8F0EE409AB0EE480A09F0B8FC7C
:10121000B0EE40AAB7EE000A09EEA90AF0EE40AA25
:10122000214890ED030A60EE0A0A80EEAA0AD0ED8A
:10123000000A70EE208A90ED030A20EE290A20EEC3
:101240000A0AC0EE2A0A90ED010A30EE809A00BF29
:10125000154890ED020AB0EE401AF0EE490AB0EEE1
:10126000680AFFF71DFE9FED110A114880ED280A5C
:101270000D4890ED050AB5EEC00AF1EE10FA0DDD4D
:1012800090ED080AD0ED050AB4EEE00AF1EE10FA8E
:1012900004DB0020044948760649886100BF6BE7FB
:1012A0000AD7A33B90530120005401200000000006
:1012B0001C030020F808002010B52DED068B9FEDD3
:1012C000410AB0EE40AA4048C079012805D000206C
:1012D0003E494876BDEC068B10BD3C48407E00B9C7
:1012E000F8E73A4890ED070ADFED360A30EE200ABB
:1012F00080ED070AD0ED040A9FED351A60EE810AF1
:1013000090ED071A60EE810AB0EE600A0AF094FFD1
:101310002E48D0ED030A20EE200AB0EE408A90ED70
:10132000000AF0EE408A90ED010AB0EE409A90ED8E
:10133000020AF0EE409A007E20B101280AD002286D
:1013400018D10FE0214890ED000A30EE080AF0EEC7
:10135000408A10E01D4890ED010A30EE080AB0EE18
:10136000409A08E0194890ED020A30EE080AF0EEC3
:10137000409A00E000BF00BFB0EE691AF0EE490AE3
:10138000B0EE680AFFF78CFD9FED120A124880ED5F
:10139000280A0E4890ED050AB5EEC00AF1EE10FAE3
:1013A0000DDD90ED070AD0ED050AB4EEE00AF1EE8E
:1013B00010FA04DB0020054948760849886100BF1F
:1013C00088E700000AD7A33B90530120BC530120BB
:1013D000D00FC940000000001C030020F8080020C6
:1013E0009FED040A044880ED000A002003490870BC
:1013F0007047000000000000F400002004010020FD
:1014000008B500BF0EF0BAFD00900AE0FFF7FAFC45
:101410000448408E401C03494886052168460DF06B
:10142000F3FEF3E7485301201CB50121022004F02C
:1014300021FC4FF40070009001208DF80400002082
:101440008DF8060003208DF8050001208DF80700B7
:101450006946044801F01AFF4FF40071014801F099
:1014600080FF1CBD0004024070B504460025102119
:101470000A4801F076FFFF2141EA042141F40040CF
:101480000DF02CF900200DF029F9050A1021034870
:1014900001F069FF00BF284670BD0000000802404F
:1014A00070B504462021094801F05BFF002141EAA4
:1014B000042141F400400DF011F9C5B22021034888
:1014C00001F051FF00BF284670BD00000008024037
:1014D00070B504460D461021074801F042FF45EA69
:1014E0000421C1F30E000DF0F9F81021024801F0BB
:1014F0003AFF00BF70BD00000008024070B504460E
:101500000D462021074801F02CFF45EA0421C1F3D4
:101510000E000DF0E3F82021024801F024FF00BF87
:1015200070BD00000008024010B54FF4407003F099
:1015300057FD02F051FE05F001F803F05BFDFFF7E7
:10154000E1F94FF4FA600BF007FF05F06BFC0BF0CC
:1015500043FE07F0B7FD07F02DFE07F0ABFE07F0E6
:10156000BBFB07F0A9FCFFF75FFF4FF400610C48DD
:1015700001F0F7FE4FF48051094801F0F4FE4FF4FA
:101580008071084801F0EFFE4FF4FA600BF0E4FEC2
:1015900003F0CEFD9FED040A044880ED1E0A10BD45
:1015A00000000240000802400000B4424850012000
:1015B00090ED010A80ED000A90ED020A80ED010A2B
:1015C00090ED060ADFED160A80EE201A80ED021A71
:1015D00090ED040A80ED030A90ED050A80ED040AFF
:1015E00090ED000AD0ED020A30EE200AD0ED010A9B
:1015F000B0EE001A01EE200AD0ED030A9FED091AA1
:1016000001EE200AD0ED040A9FED071A01EE200A30
:1016100080ED050A90ED050A80ED070A704700008D
:1016200067BFFF42021944BF7E0BDE3F90ED010A07
:1016300080ED000A90ED020A80ED010A90ED030AA8
:1016400080ED020A90ED080ADFED1D0A80EE201AF7
:1016500080ED031A90ED050A80ED040A90ED060A6C
:1016600080ED050A90ED070A80ED060A90ED000A6C
:10167000D0ED030A30EE200AD0ED010A90ED021AF7
:1016800070EE810AB0EE081A01EE200AD0ED040ACD
:101690009FED0C1A01EE200AD0ED050A9FED0A1A03
:1016A00001EE200AD0ED060A9FED081A01EE200A8D
:1016B00080ED070A90ED070A80ED090A70470000E7
:1016C0006D85AC431736083F20F5F6BF2BF1174068
:1016D00010B500F079F83348408AB0F5FA7F05DCA0
:1016E00031480068401C3049086002E000202E4963
:1016F00008602D4800680A2803DD022001F060FD23
:1017000002E0032001F05CFD2649098940F21452F1
:10171000914201DD012100E00021084660B123492A
:10172000097849B922490978012905D10221204ABD
:10173000117000211F4A91611C4908701948808965
:10174000B0F5FA7F01D9012000E0002004465CB129
:101750001948007840B901F08DFD10B9002001F062
:101760002FFD012015490870134804700D48C089E9
:10177000B0F5FA7F01D9012000E00020044674B1E1
:101780000F48007858B901F075FD28B9002001F024
:1017900017FD012004F014FC01200A4908700848D4
:1017A000047010BDD44F0120240000202800002028
:1017B000C9070020F8080020290000204508002063
:1017C0002A0000204608002010B52DED048B884823
:1017D000C08800EE100AB8EE400ADFED860A30EE4F
:1017E000600ADFED850A80EE201AB0EE418A80485B
:1017F000008800EE100AB8EE400ADFED7E0A30EEF7
:10180000600ADFED7D0A80EE201AF0EE418A78480A
:10181000408800EE100AB8EE400ADFED760A30EE9E
:10182000600ADFED750A80EE201AB0EE419A70482A
:10183000808800EE100AB8EE400ADFED6E0A30EE46
:10184000600ADFED6D0A80EE201AF0EE419ABEEEDE
:10185000080AB4EEC08AF1EE10FA0CD2B6EE080A0D
:10186000F4EEC09AF1EE10FA05DD64488068401C81
:101870006249886002E0002060498860BEEE080A84
:10188000B4EEC08AF1EE10FA0CD2BEEE080AF4EE05
:10189000C09AF1EE10FA05D258480068401C57492A
:1018A000086002E0002055490860B6EE080AB4EE70
:1018B000C08AF1EE10FA0CDDBEEE080AF4EEC09A12
:1018C000F1EE10FA05D24D484068401C4B49486083
:1018D00002E0002049494860B6EE080AB4EEC08A2A
:1018E000F1EE10FA0CDDB6EE080AF4EEC09AF1EE55
:1018F00010FA05DD4148C068401C4049C86002E05C
:1019000000203E49C860BEEE080AF4EEC08AF1EE3F
:1019100010FA0CD2BEEE080AB4EEC09AF1EE10FA3C
:1019200005D236480069401C3449086102E00020B5
:1019300032490861BEEE080AF4EEC08AF1EE10FAF0
:101940000CD2B6EE080AB4EEC09AF1EE10FA05DD3C
:101950002A488069401C2949886102E00020274903
:101960008861B6EE080AF4EEC08AF1EE10FA0CDDDA
:10197000BEEE080AB4EEC09AF1EE10FA05D21F4886
:101980004069401C1D49486102E000201B49486134
:10199000B6EE080AF4EEC08AF1EE10FA0CDDB6EEEF
:1019A000080AB4EEC09AF1EE10FA05DD1348C069DA
:1019B000401C1249C86102E000201049C8610F486C
:1019C0008068962806D3002001F0FAFB00200B491E
:1019D0008860086009480068322806D3012001F0B9
:1019E000EFFB0020054988600860BDEC048B10BD4A
:1019F0008053012000803B4500007A449C53012025
:101A00009FED160A164880ED0A0A9FED140A80ED34
:101A10001E0A9FED120A80ED320A9FED100A80ED3A
:101A2000460A9FED0E0A80ED5A0A9FED0C0A80EDE2
:101A30006E0A9FED0A0A80ED820A9FED080A80ED8A
:101A4000960A90EDA10A80EDA00A90EDB50A80ED0E
:101A5000B40A90ED290A80ED280A704700000000C2
:101A60001C03002090ED000AD0ED010A30EE600A60
:101A700080ED080A816C01297ED190ED0A1AF0EE02
:101A8000410A90ED0A1AD0ED081A31EE211A80EDC4
:101A90000A1A90ED0A1AD0ED101AF1EE611AB4EE9E
:101AA000E11AF1EE10FA05D290ED101AB1EE411ADA
:101AB00080ED0A1A90ED0A1AD0ED101AB4EEE11A70
:101AC000F1EE10FA03DD90ED101A80ED0A1A90ED98
:101AD000031AD0ED0A1A21EE211A80ED061A90EDB4
:101AE000061AD0ED0E1AF1EE611AB4EEE11AF1EE1B
:101AF00010FA05D290ED0E1AB1EE411A80ED061AD9
:101B000090ED061AD0ED0E1AB4EEE11AF1EE10FACD
:101B100003DD90ED0E1A80ED061A90ED021AD0ED5D
:101B2000081A21EE211A80ED051A90ED051AD0ED64
:101B30000D1AF1EE611AB4EEE11AF1EE10FA05D2C7
:101B400090ED0D1AB1EE411A80ED051A90ED051ACF
:101B5000D0ED0D1AB4EEE11AF1EE10FA03DD90EDBE
:101B60000D1A80ED051A90ED081AD0ED091A31EE24
:101B7000611AD0ED041A00E0BDE021EE211A80EDDB
:101B8000071A90ED071AD0ED0F1AF1EE611AB4EEB4
:101B9000E11AF1EE10FA05D290ED0F1AB1EE411AEA
:101BA00080ED071A90ED071AD0ED0F1AB4EEE11A86
:101BB000F1EE10FA03DD90ED0F1A80ED071A90EDAB
:101BC000051AD0ED061A31EE211AD0ED071A31EEC2
:101BD000210A80ED0B0A90ED0B1AD0ED0C1AF1EEF4
:101BE000611AB4EEE11AF1EE10FA05D290ED0C1A7A
:101BF000B1EE411A80ED0B1A90ED0B1AD0ED0C1AD4
:101C0000B4EEE11AF1EE10FA03DD90ED0C1A80ED5E
:101C10000B1A90ED0B1AB4EE401AF1EE10FA69D0DF
:101C2000B5EEC00AF1EE10FA06DD90ED081AB5EE39
:101C3000C01AF1EE10FA0BDCB5EEC00AF1EE10FAA4
:101C400058D290ED081AB5EEC01AF1EE10FA51D242
:101C5000C0ED0A0A90ED031AD0ED0A1A21EE211AFE
:101C600080ED061A90ED061AD0ED0E1AF1EE611A0B
:101C7000B4EEE11AF1EE10FA05D290ED0E1AB1EEC3
:101C8000411A80ED061A90ED061AD0ED0E1AB4EE48
:101C9000E11AF1EE10FA03DD90ED0E1A80ED061A4E
:101CA00090ED051AD0ED061A31EE211AD0ED071A83
:101CB00031EE211A80ED0B1A90ED0B1AD0ED0C1AB3
:101CC000F1EE611AB4EEE11AF1EE10FA05D290EDE0
:101CD0000C1AB1EE411A80ED0B1A90ED0B1AD0EDF3
:101CE0000C1AB4EEE11AF1EE10FA03DD90ED0C1AC5
:101CF00080ED0B1AF2E1816C02297CD1D0ED0A0A49
:101D000090ED081A70EE810AC0ED0A0AD0ED0A0AB9
:101D100090ED101AB1EE411AF4EEC10AF1EE10FA8C
:101D200005D2D0ED100AF1EE600AC0ED0A0AD0ED3E
:101D30000A0A90ED101AF4EEC10AF1EE10FA03DD72
:101D4000D0ED100AC0ED0A0AD0ED030A90ED0A1A90
:101D500060EE810AC0ED060AD0ED060A90ED0E1A7B
:101D6000B1EE411AF4EEC10AF1EE10FA05D2D0ED4F
:101D70000E0AF1EE600AC0ED060AD0ED060A90EDFB
:101D80000E1AF4EEC10AF1EE10FA03DDD0ED0E0AE0
:101D9000C0ED060AD0ED020A90ED081A60EE810A45
:101DA000C0ED050AD0ED050A90ED0D1AB1EE411A0D
:101DB000F4EEC10AF1EE10FA05D2D0ED0D0AF1EE03
:101DC000600AC0ED050AD0ED050A90ED0D1AF4EE9B
:101DD000C10AF1EE10FA03DDD0ED0D0AC0ED050ADF
:101DE000D0ED080A90ED091A70EEC10A90ED041AC0
:101DF00060EE810A00E074E0C0ED070AD0ED070A4A
:101E000090ED0F1AB1EE411AF4EEC10AF1EE10FA9C
:101E100005D2D0ED0F0AF1EE600AC0ED070AD0ED51
:101E2000070A90ED0F1AF4EEC10AF1EE10FA03DD85
:101E3000D0ED0F0AC0ED070AD0ED050A90ED061AA5
:101E400070EE810A90ED071A30EE810A80ED0B0AE0
:101E5000D0ED0B0A90ED0C1AB1EE411AF4EEC10A66
:101E6000F1EE10FA05D2D0ED0C0AF1EE600AC0EDE9
:101E70000B0AD0ED0B0A90ED0C1AF4EEC10AF1EE4C
:101E800010FA03DDD0ED0C0AC0ED0B0AD0ED0A0A02
:101E900090ED131AD0ED0B1A71EEC01A41EE210A23
:101EA000C0ED0A0AD0ED0A0A90ED101AB1EE411AFF
:101EB000F4EEC10AF1EE10FA05D2D0ED100AF1EEFF
:101EC000600AC0ED0A0AD0ED0A0A90ED101AF4EE8D
:101ED000C10AF1EE10FA03DDD0ED100AC0ED0A0AD6
:101EE000FCE090ED0B0AD0ED0C0AB4EEE00AF1EE46
:101EF00010FA06D890ED080AB5EEC00AF1EE10FA15
:101F000011DC90ED0B0AD0ED0C0AF1EE600AB4EE94
:101F1000E00AF1EE10FA23DB90ED080AB5EEC00AF4
:101F2000F1EE10FA1CD290ED080AB5EEC00AF1EEFF
:101F300010FA02DD90ED080A03E090ED080AB1EE18
:101F4000400AD0ED110AB4EEE00AF1EE10FA07D221
:101F500090ED0A0AD0ED080A30EE200A80ED0A0A58
:101F600090ED0A0AD0ED100AF1EE600AB4EEE00A34
:101F7000F1EE10FA05D290ED100AB1EE400A80EDB4
:101F80000A0A90ED0A0AD0ED100AB4EEE00AF1EE6A
:101F900010FA03DD90ED100A80ED0A0A90ED030AB5
:101FA000D0ED0A0A20EE200A80ED060A90ED060A1E
:101FB000D0ED0E0AF1EE600AB4EEE00AF1EE10FA8E
:101FC00005D290ED0E0AB1EE400A80ED060A90EDC2
:101FD000060AD0ED0E0AB4EEE00AF1EE10FA03DDC7
:101FE00090ED0E0A80ED060A90ED020AD0ED080A87
:101FF00020EE200A80ED050A90ED050AD0ED0D0ACD
:10200000F1EE600AB4EEE00AF1EE10FA05D290EDBE
:102010000D0AB1EE400A80ED050A90ED050AD0EDFB
:102020000D0AB4EEE00AF1EE10FA03DD90ED0D0AB0
:1020300080ED050A90ED080AD0ED090A30EE600A3D
:10204000D0ED040A20EE200A80ED070A90ED070A81
:10205000D0ED0F0AF1EE600AB4EEE00AF1EE10FAEC
:1020600005D290ED0F0AB1EE400A80ED070A90ED1F
:10207000070AD0ED0F0AB4EEE00AF1EE10FA03DD24
:1020800090ED0F0A80ED070A90ED050AD0ED060AE3
:1020900030EE200AD0ED070A30EE200A80ED0B0A60
:1020A00090ED0B0AD0ED0C0AF1EE600AB4EEE00AF6
:1020B000F1EE10FA05D290ED0C0AB1EE400A80ED77
:1020C0000B0A90ED0B0AD0ED0C0AB4EEE00AF1EE2B
:1020D00010FA03DD90ED0C0A80ED0B0A90ED080A72
:1020E00080ED090A7047000090ED000AD0ED010A6A
:1020F00030EE600A80ED080A90ED080ADFED900AE4
:10210000B4EEE00AF1EE10FA07DB90ED080ADFED1D
:102110008D0A30EE600A80ED080A90ED080ADFEDC6
:102120008A0AB4EEE00AF1EE10FA07D890ED080A38
:10213000DFED840A30EE200A80ED080A90ED0B0AEC
:10214000D0ED0C0AB4EEE00AF1EE10FA06D890EDEC
:10215000080AB5EEC00AF1EE10FA11DC90ED0B0A98
:10216000D0ED0C0AF1EE600AB4EEE00AF1EE10FADE
:1021700023DB90ED080AB5EEC00AF1EE10FA1CD28E
:1021800090ED080AB5EEC00AF1EE10FA02DD90ED0E
:10219000080A03E090ED080AB1EE400AD0ED110AFA
:1021A000B4EEE00AF1EE10FA07D290ED0A0AD0ED93
:1021B000080A30EE200A80ED0A0A90ED0A0AD0EDF6
:1021C000100AF1EE600AB4EEE00AF1EE10FA05D260
:1021D00090ED100AB1EE400A80ED0A0A90ED0A0A6D
:1021E000D0ED100AB4EEE00AF1EE10FA03DD90ED46
:1021F000100A80ED0A0A90ED030AD0ED0A0A20EEDB
:10220000200A80ED060A90ED060AD0ED0E0AF1EEE6
:10221000600AB4EEE00AF1EE10FA05D290ED0E0A73
:10222000B1EE400A80ED060A90ED060AD0ED0E0AE6
:10223000B4EEE00AF1EE10FA03DD90ED0E0A80ED47
:10224000060A90ED020AD0ED080A20EE200A80ED81
:10225000050A90ED050AD0ED0D0AF1EE600AB4EE24
:10226000E00AF1EE10FA05D290ED0D0AB1EE400A47
:1022700080ED050A90ED050AD0ED0D0AB4EEE00AF6
:10228000F1EE10FA03DD90ED0D0A80ED050A90EDF8
:10229000080AD0ED090A30EE600AD0ED040A20EEFB
:1022A000200A80ED070A90ED070AD0ED0F0AF1EE43
:1022B000600AB4EEE00AF1EE10FA05D290ED0F0AD2
:1022C000B1EE400A80ED070A90ED070AD0ED0F0A43
:1022D000B4EEE00AF1EE10FA03DD90ED0F0A80EDA6
:1022E000070A90ED050AD0ED060A30EE200AD0ED7F
:1022F000070A30EE200A80ED0B0A90ED0B0AD0EDB4
:102300000C0AF1EE600AB4EEE00AF1EE10FA05D222
:1023100090ED0C0AB1EE400A80ED0B0A90ED0B0A2D
:10232000D0ED0C0AB4EEE00AF1EE10FA03DD90ED08
:102330000C0A80ED0B0A90ED080A80ED090A70473F
:10234000000034430000B443000034C310B52DED49
:10235000048B032007F060FDDF480078401CDE4955
:10236000087008460078022805DBDC48FFF77AFB96
:102370000020D9490870042007F04EFDD74850309E
:10238000FFF770FBD6480078401CD5490870084616
:102390000078022819DB012007F03EFDCF48A0306D
:1023A000FFF760FBCD48F030FFF75CFB0020CC4925
:1023B0000870022007F030FD04F004FAC948FFF766
:1023C00051FBC8485030FFF74DFB052007F024FDB6
:1023D000C548FFF747FBC4485030FFF743FB0620D2
:1023E00007F01AFDC048A030FFF77EFE072007F077
:1023F00013FD04F0DDF806F075F9002005F09CFFF0
:1024000048B1002005F08CFFB748D0ED500A30EEFF
:10241000200A80ED500A012005F08EFF48B101200E
:1024200005F07EFFB048D0ED3C0A30EE200A80ED8A
:102430003C0A022005F080FF48B1022005F070FF41
:10244000A948D0ED640A30EE200A80ED640AA34862
:10245000F038FFF707FBA148A038FFF703FB9F48C0
:102460005038FFF7FFFAA04801F010FF40F6863021
:102470009E4908809E48807A002878D09D4890ED3B
:102480006F0A9D48D0ED1F0A20EE200AB0EE408A68
:10249000984890ED350A9948D0ED1F0A20EE200AA1
:1024A000F0EE408A934890ED180A9548D0ED1F0A47
:1024B00020EE200AB0EE409A8E4890ED520A9148E4
:1024C000D0ED1F0A20EE200AF0EE409A18EE100A16
:1024D00008F029F918B99FED8C0AB0EE408A18EE81
:1024E000900A08F020F918B99FED870AF0EE408AAB
:1024F00019EE100A08F017F918B99FED830AB0EE2B
:10250000409A19EE900A08F00EF918B99FED7E0A6C
:10251000F0EE409A7448D0ED970A7448B0F9000084
:1025200000EE100AB8EEC00A30EE800A30EE080A5B
:10253000764880ED000A6C4890ED470A30EE280A94
:10254000734880ED000A684890ED5B0A30EE090A96
:10255000B1EE400A6F4880ED000A634890ED6F0AC3
:1025600030EE290A6C4880ED000A23E0FFE75E4860
:10257000D0ED970A5D48B0F9000000EE100AB8EE01
:10258000C00A30EE800A614880ED000A564890ED9E
:10259000470A5F4880ED000A534890ED5B0AB1EEB0
:1025A000400A5C4880ED000A4F4890ED6F0A5A4897
:1025B00080ED000A5948D0ED000A9FED591A9FEDB1
:1025C000580A00EE810AB0EE402A5648D0ED000AC3
:1025D0009FED531A9FED520A00EE810AF0EE402A59
:1025E000F4EEC22AF1EE10FA06D2B0EE620AF0EE74
:1025F000422AB0EE402A00BFB0EE621AF0EE420A64
:10260000424890ED000A00F091F8404880ED000A41
:1026100090ED000A3F48D0ED000A30EE600A3C48D9
:10262000D0ED000A30EE600A3B48D0ED000A30EEF3
:10263000200ABDEEC00A10EE100A00B23A49088026
:10264000324890ED000A3348D0ED000A30EE200AFF
:102650002F48D0ED000A30EE200A2F48D0ED000AB6
:1026600030EE200ABDEEC00A10EE100A00B248801B
:10267000264890ED000A2748D0ED000A30EE600AA7
:102680002348D0ED000A30EE200A2348D0ED000A9E
:1026900030EE600ABDEEC00A10EE100A00B288806B
:1026A0001A4890ED000A1B48D0ED000A30EE200ACF
:1026B0001748D0ED000A30EE600A1748D0ED000A46
:1026C00030EE600ABDEEC00A10EE100A00B2C880FB
:1026D000BDEC048B10BD00002C000020FC04002089
:1026E0002D0000203C0600201C030020400000209C
:1026F000784A0120A84801208C4C0120344B01204D
:10270000884A0120E04B012000000000300000203A
:1027100034000020380000203C0000203C0800204D
:102720000000FA4440080020CE070020F0EE401AD6
:10273000F4EEE01AF1EE10FA02D2B0EE600A704741
:10274000F4EEC11AF1EE10FA02DDB0EE410AF6E73E
:10275000B0EE610AF3E7000010B50749074800F042
:1027600033F940B14FF0C051044800F033F8002174
:10277000024800F063F810BD008000185860024065
:1027800010B50749074800F01FF938B10649054858
:1027900000F020F80021034800F050F810BD0000C0
:1027A00000802020A06002400000202010B50749D2
:1027B000074800F009F940B14FF02051044800F0FB
:1027C00009F80021024800F039F810BD0080002807
:1027D000B86002400246094B9A4201D2084801E023
:1027E0000648103801F000531BB1064B0B40C36084
:1027F00002E0044B0B40836070470000106402400D
:10280000006002407D0F7D0F0246094B9A4201D2C3
:10281000084801E00648103801F000531BB1064B90
:102820000B40C36002E0044B0B4083607047000024
:1028300010640240006002407D0F7D0F21B10268EC
:1028400042F00102026003E0026822F0010202602D
:1028500070470000016821F0010101600021016062
:1028600041608160C1600161212141614A49884222
:1028700004D13D21484A103A91608CE04649183114
:10288000884205D14FF47461434A103A916082E066
:1028900041493031884205D14FF474113E4A103A13
:1028A000916078E03C494831884205D14FF074612D
:1028B000394A103A91606EE037496031884204D15C
:1028C0003649354A103AD16065E03349783188425B
:1028D00004D13349304A103AD1605CE02E4990313E
:1028E000884204D12F492C4A103AD16053E02A493A
:1028F000A831884205D14FF03D51274A103AD160A6
:1029000049E02949884204D13D21274A083A11600B
:1029100041E025491831884205D14FF47461224ABB
:10292000083A116037E020493031884205D14FF430
:1029300074111D4A083A11602DE01B494831884244
:1029400005D14FF07461184A083A116023E0164926
:102950006031884204D11149134A121F11601AE0F4
:1029600011497831884204D10D490F4A121F116074
:1029700011E00D499031884204D10A490A4A121FD8
:10298000116008E00849A831884204D14FF03D5158
:10299000054A121F11607047106002403D00002080
:1029A000400F002000003D2010640240014600203E
:1029B0000A6802F001020AB1012000E0002070471D
:1029C0000146486880B2704770B502460020002476
:1029D0000025124EB24201D2114B01E00F4B103BC9
:1029E000104E0E4036B11E2606EAD124166806EABD
:1029F000040502E0566906F0800501F000560EB1AC
:102A00005C6800E01C68084E344004EA010616B118
:102A10000DB1012000E0002070BD000010640240F4
:102A2000006002403C0F3C0F7D0F7D0F10B501F0A0
:102A300080034BB122B1436943F08003436103E05B
:102A4000436923F08003436180290BD02AB10368D6
:102A500001F01E042343036004E0036801F01E0438
:102A6000A343036010BD000010B500220268134BA1
:102A70001A40CC680B6823434C6923438C69234379
:102A8000CC6923430C6A23434C6A23438C6A234357
:102A90004C6B23438C6B23431A430260426922F040
:102AA0000702D1E90B3423431A4342610B694360A7
:102AB0004B6883608B68C36010BD00003F801CF0D2
:102AC000F8480078AA287DD1F6484078AA28FAD19B
:102AD000F4488078F4490870F248C0784870F148AA
:102AE00000798870EF484079C870084690ED000A78
:102AF000DFEDEE0AB4EEE00AF1EE10FA11DD90ED32
:102B0000000ADFEDEB0AB4EEE00AF1EE10FA08D2AB
:102B100090ED000ADFEDE70A20EE200AE64880ED9E
:102B2000000AE0488079E0490870DE48C0794870C2
:102B3000DC48007A8870DB48407AC870084690ED1F
:102B4000000ADFEDDA0AB4EEE00AF1EE10FA11DD68
:102B500090ED000ADFEDD60AB4EEE00AF1EE10FACD
:102B600008D290ED000ADFEDD30A20EE200AD24809
:102B700080ED000ACB48807ACB490870C948C07AFA
:102B80004870C848007B8870C648407BC8700846BB
:102B900090ED000ADFEDC50AB4EEE00AF1EE10FA9E
:102BA00013DD90ED000ADFEDC20AB4EEE00AF1EEAB
:102BB00010FA0AD290ED000ADFEDBE0A20EE200ADC
:102BC000BD4800E06CE180ED000AB648807BB64964
:102BD0000870B448C07B4870B248007C8870B14827
:102BE000407CC870084690ED000ADFEDB00AB4EEF4
:102BF000E00AF1EE10FA11DD90ED000ADFEDAC0A0B
:102C0000B4EEE00AF1EE10FA08D290ED000ADFED22
:102C1000A90A20EE200AA84880ED000AA148807C7D
:102C2000A14908709F48C07C48709E48007D88700C
:102C30009C48407DC870084690ED000ADFED9B0A75
:102C4000B4EEE00AF1EE10FA11DD90ED000ADFEDCE
:102C5000980AB4EEE00AF1EE10FA08D290ED000AFC
:102C6000DFED940A20EE200A934880ED000A8D489B
:102C7000807D8D4908708B48C07D48708948007EF2
:102C800088708848407EC870084690ED000ADFEDE5
:102C9000870AB4EEE00AF1EE10FA11DD90ED000AB9
:102CA000DFED830AB4EEE00AF1EE10FA08D290EDFF
:102CB000000ADFED800A20EE200A7F4880ED000A3E
:102CC0007848807E784908707648C07E487075489C
:102CD000007F88707348407FC870084690ED000AF6
:102CE000F9EE040AB4EEE00AF1EE10FA0DDD90ED13
:102CF000000AF1EE040AB4EEE00AF1EE10FA04D292
:102D000090ED000A6C4880ED000A6648807F6649B5
:102D100008706448C07F4870624890F8200088704E
:102D2000604890F82100C870084690ED000AF9EE5E
:102D3000040AB4EEE00AF1EE10FA0DDD90ED000A9F
:102D4000F1EE040AB4EEE00AF1EE10FA04D290EDCE
:102D5000000A594880ED000A524890F82200524972
:102D60000870504890F8230048704E4890F82400AE
:102D700088704C4890F82500C870084690ED000A0D
:102D8000F9EE040AB4EEE00AF1EE10FA0DDD90ED72
:102D9000000AF1EE040AB4EEE00AF1EE10FA04D2F1
:102DA00090ED000A444880ED000A3E4890F8260065
:102DB0003D4908703B4890F827004870394890F822
:102DC00028008870374890F82900C870084690EDB0
:102DD000000ADFED360AB4EEE00AF1EE10FA0DDD7E
:102DE00090ED000ADFED320AB4EEE00AF1EE10FADF
:102DF00004D290ED000A304880ED000A294890F88E
:102E00002A0029490870274890F82B004870254867
:102E100090F82C008870234890F82D00C870084660
:102E200090ED000ADFED210AB4EEE00AF1EE10FAAF
:102E30000DDD90ED000ADFED1E0AB4EEE00AF1EEC2
:102E400010FA04D290ED000A1B4880ED000A1548E4
:102E500090F82E0014490870124890F82F0048701E
:102E6000104890F8300088700E4890F83100C87013
:102E7000084690ED000ADFED0D0AB4EEE00AF1EE2F
:102E800010FA0DDD90ED000ADFED090AB4EEE00A5C
:102E9000F1EE10FA04D290ED000A074880ED000A26
:102EA00070470000485101209C000020002474C994
:102EB000002474490000C842A000002038B5044630
:102EC00072A000680090724801780078401C704A37
:102ED0001070704844541046007819287ED118208C
:102EE000114608706B4800780F2878D16948007E39
:102EF00038B16848017E684A12781DF802008142A4
:102F0000F3D10020624908706248407861498978AD
:102F100001F0070140EA0120604908805D48C0785F
:102F20008006400D5B49897840EAE1005B494880B2
:102F300058484079C007400D5649097940EA810058
:102F40005449C97840EAA110544988805148807991
:102F50000007400D4F49497940EA61004F49C88058
:102F60004C48C0794006400D4A49897940EA211011
:102F70004A4908814748407A8007400D4549097A07
:102F800040EA41004349C97940EAE1104349488198
:102F90004048807AC006400D3E49497A40EAA10087
:102FA0003E4988813B48C07AC0003A49897A40EA64
:102FB00061103A49C8813748007B3649497B01F0A6
:102FC000070140EA0120354908823248807B8006AB
:102FD000400D3049497B40EAE10001E054E049E01E
:102FE0002E4948822B48007CC007400D2949C97BE7
:102FF00040EA81002749897B40EAA110274988825D
:103000002448407C0007400D2249097C40EA6100C9
:103010002249C8821F48807C4006400D1D49497CDA
:1030200040EA21101D4908831A48007D8007400DA1
:103030001849C97C40EA41001649897C40EAE11000
:10304000164948831348407DC006400D1149097D4B
:1030500040EAA100114988830E48807DC0000D49D7
:10306000497D40EA61100D49C8830CF08DFF0C4981
:10307000086009E0002005E0064A411C515C11543B
:10308000411CC8B21828F7DB38BD000004142434F2
:10309000D6070020F44F0120D7070020D44F01208D
:1030A0001C08002010B54FF4806000F033F830B1F8
:1030B000022003F02FF94FF4806000F025F84FF460
:1030C000006000F027F830B1032003F023F94FF43B
:1030D000006000F019F810BD10B5082000F01AF8D3
:1030E00028B1012003F016F9082000F00DF810BDFA
:1030F00010B5202000F00EF828B1002003F00AF9E6
:10310000202000F001F810BD014908607047000060
:10311000143C014001460020034A12680A400AB1EB
:10312000012000E000207047143C014000212349A9
:103130008279002A3AD00A46126803689A430B46FD
:103140001A600A1D126803689A430B1D1A600279FF
:1031500011440A6803681A430A60184A0832126860
:1031600003689A43154B08331A601A1D12680368E6
:103170009A43124B0C331A604279102A0ED11A1F4F
:10318000126803681A430D4B08331A601A1D12683F
:1031900003681A43094B0C331A600DE00749427962
:1031A00011440A6803681A430A6005E00279114471
:1031B0000A6803689A430A6070470000003C0140B7
:1031C00010B504460BF072FE2848007820B10128A3
:1031D00014D0022844D12AE034B9012023490870D0
:1031E000084600780BF060F9022C06D102201F4936
:1031F0000870084600780BF057F932E0012C09D12D
:1032000000201A490870084600780BF04DF900209C
:1032100017490870022C09D1022014490870084689
:1032200000780BF041F900201149087019E0032CD7
:1032300009D100200D490870084600780BF034F9D8
:1032400000200B490870012C09D1002007490870A3
:10325000084600780BF028F900200549087000E0C6
:1032600000BF00BF0BF066FE10BD0000C8070020C5
:10327000C907002010B50BF019FE034804780BF0C5
:1032800059FE204610BD0000C8070020F0B50A46D0
:1032900000210023002400BF3DE0012505FA01F3D1
:1032A000156805EA03049C4234D105684F000326E3
:1032B000BE40B543056015794E00B54006683543FC
:1032C00005601579012D02D01579022D16D185687A
:1032D0004F000326BE40B543856055794E00B5408A
:1032E000866835438560456801268E40B543456054
:1032F000456896798E40B6B235434560C5684F0043
:103300000326BE40B543C560D5794E00B540C668BA
:103310003543C560491C1029BFD3F0BDF0B500236B
:1033200000244D07ED0E02FA05F3CE1000F1200542
:1033300055F826504E07F70E0F26BE40B543CF1066
:1033400000F1200646F82750CE1000F1200555F870
:10335000265045EA0304CE1000F1200545F826402A
:10336000F0BD41837047018370474FF6FF710160E4
:103370000021017141718171C171704710B52DED4E
:10338000028B00F00BF97148008800285ED070486D
:1033900090ED000A6D48008841F28831081A6D49A5
:1033A00001EB800080ED000A6B4890ED000A684850
:1033B000D0ED000A30EE200A674880ED000A674829
:1033C00090ED000A6148008841F28831081A64498A
:1033D00001EB800080ED000A624890ED000A5F4832
:1033E000D0ED000A30EE200A5E4880ED000A5E480B
:1033F00090ED000A5548008841F28831081A5B496F
:1034000001EB800080ED000A594890ED000A564813
:10341000D0ED000A30EE200A554880ED000A4B48F6
:10342000008841F28831081A00EE100AB8EEC00A8E
:1034300046480088081A4F4901EB800080ED000AD9
:1034400042480088401E414908807BE0484890ED92
:10345000000ADFED490A80EE201A484880ED001A84
:1034600000244BE040F2712060433A4A02EB4011E5
:1034700041F288323F4809F0C5FF414800EB840023
:1034800080ED000A3E4800EB840090ED000A10EE4B
:10349000101A08460DF020FE9FED3A0B53EC102B4E
:1034A0000DF022FC12D3364800EB840090ED000AA8
:1034B00010EE101A08460DF00FFE41EC180B9FEDB0
:1034C000330B53EC102B0DF0D5FA16D241F28830A5
:1034D0001E4908809FED2F0A1F4880ED000A9FEDCE
:1034E0002D0A204880ED000A9FED2A0A204880ED31
:1034F000000A0020BDEC028B10BD641C032CB1DB64
:10350000154890ED000ADFED1C0A80EE201A80EDD0
:10351000001A144890ED000ADFED170A80EE201A19
:1035200080ED001A124890ED000ADFED130A80EEDC
:10353000201A80ED001A41F28830044908800120E9
:103540001549086014480068D4E70000A401002071
:10355000B80100201C100020E8010020BC01002060
:103560003C5E0020EC010020C00100205CAC00208B
:10357000F00100207CFA002000409C45FC01002066
:103580009C4801202D431CEBE2360A3F2D431CEBE7
:10359000E2360ABF000000000C0200202DE9F04FC7
:1035A0002DED068B87B01320FDF75EFF0746122036
:1035B000FDF75AFF80461520FDF756FF814614207F
:1035C000FDF752FF82461720FDF74EFF8346162077
:1035D000FDF74AFF06900320FDF762FF05900220E9
:1035E000FDF75EFF04900520FDF75AFF03900420CD
:1035F000FDF756FF02900720FDF752FF01900620CD
:10360000FDF74EFF009048EA072000B200EE100AD6
:10361000B8EEC00ADFED660A80EE201A9FED650A5B
:1036200061EE000A644890ED000AB8EE400A20EE10
:10363000800A624880ED000A4AEA092000B200EEE2
:10364000100AB8EEC00ADFED5A0A80EE201A9FED8C
:10365000590A61EE000A584890ED000AB8EE400A97
:1036600020EE800A564880ED000A069840EA0B20BA
:1036700000B200EE100AF8EEC00A9FED4D1A80EE7F
:10368000810ADFED4C0A60EE200A4B4890ED000AFB
:10369000B8EE400A20EE800A4A4880ED000ADDE9D3
:1036A000040140EA012000B200EE100AB8EEC00AA0
:1036B0009FED3F1AC0EE010A9FED3E0A20EE800A00
:1036C000414880ED000ADDE9020140EA012000B234
:1036D00000EE100AF8EEC00A9FED351A80EE810A5E
:1036E000DFED340A20EE200A384880ED000ADDE9DB
:1036F000000140EA012000B200EE100AF8EEC00A14
:103700009FED2B1A80EE810ADFED2A0A20EE200AB7
:103710002F4880ED000A2220FDF7A6FE0646232052
:10372000FDF7A2FE04462046E11704EBD1614911E2
:1037300001EBC605B5F5806F1BDBA5F500600DF04C
:103740006EF941EC1A0B9FED230B53EC102B0DF08F
:10375000CDF941EC190B9FED210B53EC102B0CF024
:10376000EDFE41EC180B0DF0FDF800B21D4908808C
:1037700019E028460DF06AF941EC1A0B9FED150B84
:1037800053EC102B0DF0B2F941EC190B9FED130B1C
:1037900053EC102B0CF0D2FE41EC180B0DF0E2F8BC
:1037A00000B21049088007B0BDEC068BBDE8F08F71
:1037B00000FEFF4600007A4400020020AC01002019
:1037C000B0010020B4010020B8010020BC0100209D
:1037D000C0010020000000000000C03F0000000009
:1037E00000003740A801002010B5FDF731F910495D
:1037F00008800846008806F05DFF0E4880ED000A4C
:10380000D0ED000A9FED0C0A9FED0C1A01EE200A84
:103810000B4880ED000A90ED000AF2EE0E0AB4EEBD
:10382000E00AF1EE10FA02D2012004F033FC10BDE0
:103830008800002080000020A69B643F211FE240FA
:103840008400002010B500200849886108494876A6
:10385000084908760849487602F0B2FB002007497B
:1038600008700220FFF7ACFC10BD0000F808002033
:10387000BC530120DC530120005401204C080020DF
:103880000146F0EE400A184A12781AB1002901DB0D
:10389000032902DBB0EE600A7047144A02EB4110C4
:1038A00090ED050AD0ED001AB0EE401A01EEA01A14
:1038B00090ED010A20EE200AD0ED031A01EEC10AB4
:1038C000D0ED061A30EE210A80ED050A90ED020ACD
:1038D00020EE200AD0ED041A01EEC10A80ED060A9E
:1038E000B0EE410AD8E70000B8070020284E0120BA
:1038F00010B52DED028BB0EE408AB7EE000AB4EEA3
:10390000C08AF1EE10FA02DDB0EE480A01E09FED48
:10391000120A124880ED000A0020114908700024A4
:1039200015E09FED100A104800EB441080ED050AE9
:103930009FED0C0A0C4800EB441080ED060A0A4982
:1039400001EB44109FED090A09F0B4FB641C032C41
:10395000E7DBBDEC028B10BD00004843B40700203C
:10396000B807002000000000284E0120000020427F
:1039700010B52DED028B0446B0EE408A002C01DB21
:10398000032C02DBBDEC028B10BD044901EB44109B
:10399000B0EE480A09F08EFB00BFF3E7284E012085
:1039A00008B1012100E00021014A117070470000B8
:1039B000B80700202DE9F84140490C8B002077E042
:1039C0003F49095CCC2971D13D4A411C515CDD293C
:1039D0006CD19446831C1CF80350C31C1CF8036074
:1039E000031D1CF803308DF80030431D1CF8033014
:1039F0008DF80130831D1CF803308DF80230C31D93
:103A00001CF803308DF8033000F108031CF8037034
:103A10000022022107E08BB20344DFF8A4C01CF8A7
:103A200003305A40491C0829F5DBBA4239D1DFF886
:103A300094C09CF800C00CF1010C0CF00F03DFF8EF
:103A400088C09CF800C0634520D0DFF880C0DFF854
:103A5000748098F800800CF83850DFF8688098F887
:103A600000800CEBC80C8CF801609DED000ADFF8BB
:103A70005CC0DFF8508098F800800CEBC80C8CED2F
:103A8000010ADFF840C08CF8003009E0DFF840C0E0
:103A9000DCF800C00CF1010CDFF83480C8F800C07D
:103AA00000BF00F1090398B202E0FFE7411C88B2B1
:103AB00000F10901A14283D9BDE8F881D8070020AF
:103AC00048510120F4070020F5070020C8510120CB
:103AD000F80700202DE9F84140490C8B002077E0E1
:103AE0003F49095CCC2971D13D4A411C515CDD291B
:103AF0006CD19446831C1CF80350C31C1CF8036053
:103B0000031D1CF803308DF80030431D1CF80330F2
:103B10008DF80130831D1CF803308DF80230C31D71
:103B20001CF803308DF8033000F108031CF8037013
:103B30000022022107E08BB20344DFF8A4C01CF886
:103B400003305A40491C0829F5DBBA4239D1DFF865
:103B500094C09CF800C00CF1010C0CF00F03DFF8CE
:103B600088C09CF800C0634520D0DFF880C0DFF833
:103B7000748098F800800CF83850DFF8688098F866
:103B800000800CEBC80C8CF801609DED000ADFF89A
:103B90005CC0DFF8508098F800800CEBC80C8CED0E
:103BA000010ADFF840C08CF8003009E0DFF840C0BF
:103BB000DCF800C00CF1010CDFF83480C8F800C05C
:103BC00000BF00F1090398B202E0FFE7411C88B290
:103BD00000F10901A14283D9BDE8F881FC0700206A
:103BE000C8520120F4070020F5070020C851012029
:103BF000F807002008B500BF0CF0C0F900900AE0FB
:103C000004F084F80448408C401C03494884012196
:103C100068460BF0F9FAF3E74853012008B500BFF6
:103C20000CF0ACF900900DE09FED070A074800F09A
:103C300011F80748808C401C05498884012168469A
:103C40000BF0E2FAF0E700006F12833A70020020F6
:103C50004853012010B52DED108B86B00446F0EED0
:103C6000408A0020039004900590B6EE000A28EEEA
:103C7000800AB0EE40FAFE4890ED000AF0EE409A5D
:103C8000FC4890ED000AB0EE40AAFB4890ED000A17
:103C9000F0EE40AAF94890ED000AB0EE40BAF848BC
:103CA00090ED000AB5EEC00AF1EE10FA0FD1F5481A
:103CB00090ED000AB5EEC00AF1EE10FA07D1F24815
:103CC00090ED000AB5EEC00AF1EE10FA7ED0EC4895
:103CD00090ED000A8DED030AEA4890ED000A8DEDA3
:103CE000040AE94890ED000A8DED050ADDED030AAE
:103CF00060EEA00A9DED041ADDED041A41EE210AE2
:103D00009DED051ADDED051A41EE210AB0EE600ABF
:103D100009F05AFBB0EE408ADDED030AB0EE480A26
:103D200020EE800A8DED030ADDED040AB0EE480AAC
:103D300020EE800A8DED040ADDED050AB0EE480A9A
:103D400020EE800A8DED050A9DED040ACF48D0EDE6
:103D5000000A20EE200ADDED050ACD4890ED001A9C
:103D6000F0EE40BA40EEC1BA9DED050AC948D0ED6B
:103D7000000A20EE200ADDED030AC44890ED001A87
:103D8000B0EE40CA00EEC1CA9DED030AC048D0EDB6
:103D9000000A20EE200ADDED040ABE4890ED001A6C
:103DA000F0EE40CA40EEC1CABB4890ED000A60EE9A
:103DB0002B0ABA4890ED000A00EEA80A80ED000A2E
:103DC000B54890ED000A60EE0C0A00E03FE0B44810
:103DD00090ED000A00EEA80A80ED000AAE4890EDD2
:103DE000000A60EE2C0AAF4890ED000A00EEA80A27
:103DF00080ED000AA94890ED000AAB48D0ED000A1A
:103E000000EEAB0AA948D0ED000A30EE200A80EDA2
:103E1000000AA34890ED000AA348D0ED000A00EE86
:103E20008C0AA348D0ED000A30EE200A80ED000A8B
:103E30009C4890ED000A9C48D0ED000A00EEAC0AC8
:103E40009C48D0ED000A30EE200A80ED000A974829
:103E500090ED000A20EE0F0A8DED000A944890EDD7
:103E6000000A20EE0F0A8DED010A924890ED000A3B
:103E700020EE0F0A8DED020A9DED000A20EE000AE9
:103E8000DDED010A9DED011A00EE810ADDED020A69
:103E90009DED021AB0EE409A00EE819AB7EE000A4C
:103EA00030EE490A20EE290ADDED000A0AEE600A2A
:103EB000DDED010A0AEEE00ADDED020A0BEE600A12
:103EC0006B4880ED000AB7EE000A30EE490A20EE9A
:103ED0000A0ADDED000A09EEA00ADDED020A0AEE8B
:103EE000A00ADDED010A0BEE600A624880ED000ACF
:103EF000B7EE000A30EE490A20EE2A0ADDED010A8B
:103F000009EEA00ADDED020A0AEE600ADDED000A04
:103F10000BEE200A584880ED000AB7EE000A30EE9A
:103F2000490A20EE0B0ADDED020A09EEA00ADDEDDA
:103F3000010A0AEE200ADDED000A0AEEE00A4F4807
:103F400080ED000A4A48D0ED000A60EEA00A494818
:103F500090ED001AD0ED001A41EE210A464890ED8E
:103F6000001AD0ED001A41EE210A444890ED001AE3
:103F7000D0ED001A41EE210AB0EE600A09F024FAF1
:103F8000B0EE408A3A4890ED000A20EE080A80ED33
:103F9000000A384890ED000A20EE080A80ED000A79
:103FA000354890ED000A20EE080A80ED000A3348FB
:103FB00090ED000A20EE080A80ED000A2C4890EDF2
:103FC000000A20EE00DA2B4890ED000A60EE00DADD
:103FD000294890ED000A20EE00EA284890ED000AFA
:103FE00060EE00EA3DEE2D0A30EE4E0A30EE6E0A2B
:103FF000314880ED000A1F4890ED000A1E48D0EDC0
:10400000000A20EE200A1A48D0ED000A1B4890ED65
:10401000001A00EE810AF0EE000A20EE200A27487E
:1040200080ED000A134890ED000A1448D0ED000A14
:1040300020EE200A0E48D0ED000A0F4890ED001A3D
:1040400000EEC10AF0EE000A20EE200A114880EDD1
:10405000000A074890ED000A0648D0ED000A20EE5D
:10406000200A0548D0ED000A044890ED001A27E028
:10407000F0020020F4020020F8020020FC020020E0
:10408000C4010020C8010020CC010020180300203A
:104090001403002010030020E0020020E4020020AE
:1040A000E8020020EC020020DC020020D001002009
:1040B000D4010020D8010020080300200C030020B8
:1040C00000EE810AF0EE000A20EE200A374880ED6B
:1040D000000A3DEE6D0A30EE4E0A30EE2E0A3448EC
:1040E00080ED000A334890ED000AF7EE000AB4EEC6
:1040F000E00AF1EE10FA03DDB7EE000A80ED000AE7
:104100002C4890ED000AFFEE000AB4EEE00AF1EE52
:1041100010FA03D2BFEE000A80ED000A254890EDA8
:10412000000A06F009FBB1EE400ADFED230A20EE9B
:10413000200A84ED190A1E48D0ED000A1B4890EDB4
:10414000000A06F08FFBDFED1C0A20EE200A84ED4A
:10415000180A1A48D0ED000A194890ED000A06F036
:1041600081FBDFED150A20EE200A84ED1A0A1548BE
:1041700090ED000A0F48D0ED000A9FED131A01EEF2
:10418000600A124880ED000A114890ED000A0748C5
:10419000D0ED000A9FED0C1A01EE600A0D4880ED8B
:1041A000000A06B0BDEC108B10BD00001403002007
:1041B0001803002010030020ED2E654208030020A4
:1041C0000C030020C401002000007A4400030020FA
:1041D000C8010020040300201CB50121084601F09D
:1041E00049FD0121042001F045FD4FF4C05000902D
:1041F00001208DF8040000208DF8060003208DF8C2
:10420000050001208DF8070069461348FFF73EF8C6
:104210004FF48070009001208DF8040000208DF88C
:10422000060003208DF8050001208DF8070069467F
:104230000A48FFF72BF84FF400610748FFF793F89F
:104240004FF480510448FFF78EF84FF48071034813
:10425000FFF787F81CBD0000000002400008024084
:10426000B0EE401AB4EEE01AF1EE10FA09D2B1EE57
:10427000600AB4EEC01AF1EE10FA02DD9FED020AF8
:104280007047B0EE410AFBE70000000010B52DEDCD
:104290000A8B044694ED510ADFED580A20EE200AFD
:1042A000F0EE408A94ED3D0ADFED540A20EE200A3C
:1042B000B0EE409A94ED650ADFED500A20EE200A38
:1042C000B0EE408A4E48C0ED028A80ED1F9A80ED24
:1042D0003C8A94ED8D0A80ED590A29EE080AF0EE29
:1042E000409A28EE880AB0EE40AA94ED500ADFED1D
:1042F000430A20EE200AF0EE40AA94ED3C0ADFEDDE
:104300003F0A20EE200AB0EE40BA94ED640ADFEDD9
:104310003B0A20EE200AF0EE40BA94ED8C0AB0EE93
:1043200040CA94ED5B0A3748D0ED1F0A80EE201A90
:10433000334880ED171A94ED470A3348D0ED1F0A31
:1043400080EE201A2E4880ED341A94ED6F0A2F4823
:10435000D0ED1F0A80EE201A294880ED511A94ED05
:10436000970A2B48D0ED1F0A80EE201A244880EDD2
:104370006E1A2848C07948B1F0EE6A0AB0EE690AB0
:10438000204A1F49002000F0B1FB04E09FED220A03
:104390001B4880ED180A1F48007A50B1F0EE4B0A16
:1043A000B0EE4A0A184A16497431012000F09EFB0B
:1043B00004E09FED190A124880ED350A1548407A4D
:1043C00050B1F0EE6B0A9FED140A104A0C49E83127
:1043D000022000F08BFB04E09FED0F0A084880EDFF
:1043E000520AF0EE4C0A9FED0C0A094A0B490320D1
:1043F00000F07CFBBDEC0A8B10BD000039FA8E3C4E
:10440000A8480120884A0120344B0120E04B0120BC
:104410008C4C0120784A012000000000044A012051
:1044200070B52DED028B05460C46F0EE408A94EDFA
:10443000020AB0EE408AB7EE000A84ED050A84ED68
:10444000068AB0EE480A08F019F820EE080A84ED52
:10445000070A032D01D0022D04D19FED090A84ED36
:10446000080A01E0C4ED088A94ED170A84ED090AF0
:1044700094ED000A84ED0A0ABDEC028B70BD0000C9
:104480000000000010B5AAB01822E44924A8FCF7E7
:10449000D2F81822E14918311EA8FCF7CCF81822EE
:1044A000DE49303118A8FCF7C6F81822DB4948313C
:1044B00012A8FCF7C0F81822D84960310CA8FCF704
:1044C000BAF81822D549783106A8FCF7B4F81822B2
:1044D000D24990316846FCF7AEF8002488E024A861
:1044E00000EB840090ED000ACD4800EB840080EDE5
:1044F000000A12A800EB840090ED000AC84828309A
:1045000000EB840080ED000A0CA800EB840090ED25
:10451000000AC348403000EB840080ED000A24A864
:1045200000EB840090ED000ABE4800EB840080EDB3
:10453000000A12A800EB840090ED000AB948283068
:1045400000EB840080ED000A0CA800EB840090EDE5
:10455000000AB448403000EB840080ED000A1EA839
:1045600000EB840090ED000AAF4800EB840080ED82
:10457000000A12A800EB840090ED000ADFEDAB0A00
:1045800020EE200AA848283000EB840080ED000AC5
:104590000CA800EB840090ED000ADFEDA40A20EEE9
:1045A000200AA148403000EB840080ED000A18A8E2
:1045B00000EB840090ED000A9D4800EB840080ED44
:1045C000000A06A800EB840090ED000A9848283005
:1045D00000EB840080ED000A684600EB840090ED5B
:1045E000000A9348403000EB840080ED000A641C10
:1045F000062CFFF674AF9FED8F0A894880ED070AFD
:104600009FED8D0A80ED210A9FED8C0A80ED200A36
:104610009FED8B0A80ED250A9FED8A0A80ED260A20
:10462000B3EE0E0A80ED090A9FED870A80ED1E0A9F
:104630009FED860A80ED1F0A9FED820A80ED060A33
:10464000B3EE000A80ED080A9FED810A80ED220A90
:10465000B6EE000A80ED230A9FED770A80ED240A6A
:104660009FED740A6F4880ED070A9FED730A80ED95
:10467000210A9FED720A80ED200A9FED710A80EDFC
:10468000250A9FED700A80ED260AB3EE0E0A80ED32
:10469000090A9FED6D0A80ED1E0A9FED6C0A80ED00
:1046A0001F0A9FED680A80ED060AB3EE000A80ED4E
:1046B000080A9FED670A80ED220AB6EE000A80ED37
:1046C000230A9FED5D0A80ED240A9FED5A0A5648A1
:1046D00080ED070A9FED580A80ED210A9FED5D0AE3
:1046E00080ED200AB3EE0E0A80ED250A9FED550AF3
:1046F00080ED260AB3EE040A80ED090A9FED560A02
:1047000080ED1E0A9FED550A80ED1F0AB7EE000AE4
:1047100080ED060AB3EE000A80ED080AB7EE000A43
:1047200080ED220A9FED4E0A80ED230A9FED420A9A
:1047300080ED240A9FED3F0A3D4880ED070A9FED7A
:104740003E0A80ED210A9FED420A80ED220A9FED8C
:10475000450A80ED230AB7EE080A80ED200AB3EE81
:10476000040A80ED250A9FED370A80ED260AB3EE94
:10477000040A80ED090A9FED3C0A80ED1E0A9FEDB8
:104780003B0A80ED1F0AB7EE000A254880ED280A93
:10479000B7EE000A80ED290AB3EE0E0A80ED2A0A70
:1047A000B7EE000A1F4880ED280AB7EE000A80ED38
:1047B000290AB3EE0E0A80ED2A0AB7EE000A1A485B
:1047C00080ED280AB7EE000A80ED290AB3EE0E0A42
:1047D00080ED2A0AB7EE000A154880ED280AB7EEE8
:1047E000000A80ED290AB3EE0E0A80ED2A0A0120A4
:1047F0001F49087048708870C8700871487100209F
:1048000088710120C8710872487200208872C872CD
:104810000873487300F0CEF82AB010BD00130108E9
:10482000884A0120344B0120E04B01209A99193F1E
:104830008C4C01200AD7233CCDCC4C3D99BB163B78
:1048400000003042CDCC4C3FDBA2D7400040924428
:104850009A99993FA69BC43A5EBA01400000EA4487
:104860003333333FCDCCCC3EDBA2574100005E4317
:10487000784A0120F0B50446DDE90556002092E0B3
:1048800003EB800797ED003AB0EE432A06EB800772
:1048900097ED003AF0EE432A05EB800797ED003ADA
:1048A000F0EE431A04EB800797ED003AF0EE430A6E
:1048B00001EB800797ED003AB0EE430AF5EEC01A1F
:1048C000F1EE10FA1AD8B4EEC20AF1EE10FA04DBD7
:1048D000F5EEC00AF1EE10FA09DCB4EEE20AF1EEF0
:1048E00010FA0AD8F5EEC00AF1EE10FA05D29FEDE3
:1048F000303A04EB800787ED003A53E0F5EEC00A4A
:10490000F1EE10FA22DDB4EEC20AF1EE10FA04DB89
:104910009FED273AF0EE430A3FE032EE613AB4EE03
:10492000C03AF1EE10FA38D232EE403A83EE211A54
:10493000B5EEC01AF1EE10FA03D29FED1D3AB0EEBB
:10494000431A20EE813AF0EE430A26E0F5EEC00A63
:10495000F1EE10FA21D2B4EEE20AF1EE10FA04D828
:104960009FED133AF0EE430A17E032EEA13AB4EEAF
:10497000C03AF1EE10FA10DD30EE623A83EE211A01
:10498000B5EEC01AF1EE10FA03D29FED093AB0EE7F
:10499000431A20EE813AF0EE430A04EB8007C7ED9C
:1049A000000A00BF401C9042FFF66AAFF0BD000055
:1049B0000000000000203EE09FED490A494901EB5C
:1049C000800181ED000A9FED460A4649743101EBF2
:1049D000800181ED000A9FED420A4249E83101EB76
:1049E000800181ED000A9FED3E0A3F4901EB800105
:1049F00081ED000A9FED3A0A3A49183101EB800136
:104A000081ED000A9FED360A36498C3101EB8001B9
:104A100081ED000A9FED320A33495C3901EB8001D8
:104A200081ED000A9FED2E0A2F49183101EB80011C
:104A300081ED000A401C0628BEDB2A492C3991ED85
:104A4000020A81ED000A9FED260A81ED010A91ED2F
:104A50001F0A81ED1D0A9FED220A81ED1E0A91EDCC
:104A60003C0A81ED3A0A9FED1E0A81ED3B0A91ED69
:104A7000590A81ED570A9FED1A0A81ED580A91ED06
:104A8000020A81ED1A0A9FED160A81ED1B0A9FEDBD
:104A9000140A81ED1C0A91ED1F0A81ED370A9FED82
:104AA000100A81ED380A9FED0E0A81ED390A91ED69
:104AB0003C0A81ED540A9FED0A0A81ED550A9FEDEB
:104AC000080A81ED560A91ED590A81ED710A9FEDB0
:104AD000040A81ED720A9FED020A81ED730A7047A4
:104AE00000000000D4480120304A01202DE9F041A7
:104AF0002DED108B88B007460C461546B0EE40DA17
:104B0000B0EE608AB7EE000AF0EE40DA9FEDFE0AE2
:104B1000B0EE40EA9FEDFC0AF0EE40EA84ED038A35
:104B2000FA48407B80B301282FD002284ED195ED62
:104B3000251AB0EE410A20EE001AD4ED001A78EEE4
:104B4000611A21EE211AD5ED261AB0EE002A61EE87
:104B5000821A61EE801A94ED012A01EEC21AF0EE7B
:104B6000410A94ED011ADFEDEA1A01EEA01A84ED74
:104B7000011A94ED001AD4ED011A9FEDE52A02EE18
:104B8000211A84ED001A2DE021E0D5ED250A94EDDF
:104B9000001A38EE411A60EE810AB0EE600AD4EDD8
:104BA000000A9FEDDB1A41EE000AC4ED000A84ED15
:104BB000010AD5ED250AB0EE001A60EE810AB7EEC3
:104BC000001AC1EE201AF0EE61DA0BE000BF84EDAE
:104BD000008A9FEDCD0A84ED010AB7EE000AF0EEDF
:104BE00040DA00BF00BF94ED020AD4ED000A30EEB7
:104BF000600A84ED040A94ED020AD4ED1A0A30EE3C
:104C0000600ADFEDC30AC0EE20AA94ED1B0AD5EDC1
:104C10002A0A9FEDBF1A60EE810A94ED1B1A3AEE44
:104C2000C11A00EE810A84ED1B0A94ED020A84ED9C
:104C30001A0A94ED1B0AD4ED010A30EE600A84EDE5
:104C40001C0AB0EE4D0A21463846FFF7E9FB062163
:104C500004F1140000F06CF9F0EE409AB0EE690A2D
:104C6000F7EE000A30EE20BAA848807850B194EDF3
:104C7000040AB0EEC00AD5ED210AB4EEE00AF1EE66
:104C800010FA01DB012000E0002080469F48C07838
:104C9000D0B195ED220AB5EEC00AF1EE10FA13DD9F
:104CA00094ED040AB0EEC00AD5ED220AB4EEE00A93
:104CB000F1EE10FA08DD9FED940A84ED180A08B0B1
:104CC000BDEC108BBDE8F081D4ED048A8F480079EB
:104CD000B0B195ED230AB5EEC00AF1EE10FA0FDD82
:104CE00095ED230AC8EE800AF0EE60FAB0EE6F0A86
:104CF00007F0C4FBD5ED230A20EE200AF0EE408A2F
:104D00008248407B022834D1D5ED251AB0EE610AE5
:104D100060EE001AF0EE610AD5ED261AB0EE002A18
:104D200061EE821A61EE801AB0EE611AD5ED281A92
:104D3000B0EE002A20EE822AC1EE822AB0EE62EAAC
:104D400095ED282AC2EE201A95ED292A71EE821AD5
:104D5000B0EE002A21EE022AC1EE822AF0EE62EACB
:104D600068EE8E1A94ED1C2AB0EE619A02EE2E9A2D
:104D700001E028EEAD9A6548007800287ED0B8F1B1
:104D8000000F7BD09FED60CA6048407948B194ED38
:104D9000040AB0EEC00AD5ED240A20EE200AB0EED7
:104DA00040CA95ED070A70EE0CCA5848807910B1D8
:104DB00095ED060A01E09FED540AB0EE40FA002698
:104DC00011E004F1140000EB860090ED000AF1EE12
:104DD000490A20EE200AC0EE0B0A02A800EB86006A
:104DE000C0ED000A761C062EEBDB4848407868B11F
:104DF00005F1580005F1400105F128030622CDE92F
:104E0000001004F12C0102A8FFF734FD00265AE03F
:104E100004F12C0000EB860090ED000A04F1440040
:104E200000EB8600D0ED000A70EE600A02A800EBED
:104E3000860090ED000A0FEE600A04F12C0000EBF2
:104E40008600D0ED000A0CEEE00A05EB8600D0EDFE
:104E5000000A60EE20BA04F12C0000EB860090ED11
:104E6000000ADFED2B0A00EEAB0A04F12C0000EB88
:104E7000860080ED000A2548807900E025E008B32F
:104E800004F12C0000EB860090ED000A04F14400D0
:104E900000EB8600D0ED000A70EE600A04F14400D9
:104EA00000EB860090ED000A95ED081ADFED181A68
:104EB00021EE211A01EE200A04F1440000EB8600E5
:104EC00080ED000A761C062EA2DB9FED0FAA0026BD
:104ED00012E004F12C0000EB8600D0ED000A04F192
:104EE000140000EB860090ED001AB0EE4A0A00EEC6
:104EF000810AB0EE40AA761C062EEADB94ED180A71
:104F0000D5ED090A06E0000000000000784A012003
:104F10000AD7A33B1FED021A60EE810A94ED181A1E
:104F20003AEE411A00EE810A84ED180A00BFC6E687
:104F30000246DFED0C0AB0EE600A00200FE002EB43
:104F4000800393ED001A02EB8003D3ED001AF0EE1C
:104F5000400A41EE210AB0EE600A431CD8B28842F2
:104F6000EDDB70470000000070B5002100230F2228
:104F7000C4781CB3174C246804F4E064C4F5E064FE
:104F8000C4F30721C1F10404E3B20A4144789C4010
:104F9000E1B28478144021430C07210E0E4C0578B1
:104FA0006155047804F01F050124AC4005786D11AB
:104FB000AD0005F1E025C5F8004109E0047804F0F2
:104FC0001F050124AC40054D0678761145F82640B2
:104FD00070BD00000CED00E000E400E080E100E0C6
:104FE00002490143024A1160704700000000FA05BF
:104FF0000CED00E000B58BB001A8FEF7B6F908A8EB
:1050000003F060FE03A803F00FFE0121022000F070
:1050100041FE0121032000F02DFEC020019002205E
:105020008DF8080003208DF8090000208DF80A0093
:1050300001208DF80B0001A93A48FEF727F902225A
:1050400006213848FEF76AF9022207213548FEF7A3
:1050500065F90320019002208DF8080003208DF8E7
:10506000090000208DF80A0001208DF80B0001A92D
:105070002D48FEF70BF9022200212B48FEF74EF9CE
:10508000022201212848FEF749F942F20F700990E7
:105090002920ADF820000020ADF82800ADF822004E
:1050A0008DF82A0008A9214803F0CAFD6020ADF858
:1050B0000C000020ADF81000ADF818000820ADF885
:1050C0001A004001ADF81C000020ADF81E000120C0
:1050D000ADF80E000020059003A9144803F070FC01
:1050E0000020059003A9114803F0B2FC00200590B0
:1050F00003A90E4803F00CFD0020059003A90B48FE
:1051000003F056FD0121094803F04AFC012107483C
:1051100003F02EFC0121054803F036FC03F0BCF837
:105120000BB000BD0000024000040240000400403B
:1051300000B58BB001A8FEF718F908A803F0C2FD6E
:1051400003A803F071FD0121042000F0A3FD01215B
:10515000022000F08FFDC020019002208DF8080091
:1051600003208DF8090000208DF80A0001208DF839
:105170000B0001A92948FEF789F8022206212748D9
:10518000FEF7CCF8022207212448FEF7C7F842F2C6
:105190000F7009902920ADF820000020ADF82800FC
:1051A000ADF822008DF82A0008A91D4803F048FD3B
:1051B0006020ADF80C000020ADF81000ADF818002C
:1051C0000820ADF81A004001ADF81C000020ADF831
:1051D0001E000120ADF80E000020059003A9104824
:1051E00003F0EEFB08210E4803F028FC03A90C484D
:1051F00003F02EFC08210A4803F07CFC012108483A
:1052000003F0CEFB0121064803F0B2FB0121044864
:1052100003F0BAFB03F040F80BB000BD00040240FD
:105220000008004030B52DED028B87B0F0E3FD485B
:10523000FD49097810F83150FB49097800EBC100AD
:105240004478F848F849097800EBC10090ED010A6C
:10525000B0EE408AF4490978481CC11700EB11717F
:105260000911A0EB0111F04A1170012D39D103226F
:1052700094FBF2F2D0B2032294FBF2F302FB13424E
:10528000D1B2EA4A00925032019250320292503228
:1052900003925032049250320592A03206920728AF
:1052A0001EDAB5EEC08AF1EE10FA19DB9FEDE00AC6
:1052B000B4EEC08AF1EE10FA12D821B95DF82020C0
:1052C00082ED028A0CE0012904D15DF8202082EDF4
:1052D000038A05E0022903D15DF8202082ED048ACB
:1052E00018E2022D03D0052D01D0082D3DD1200953
:1052F00004F00F01CF4A0392CF4A0492CF4A05929D
:10530000CF4A069204282FDA06292DDA022D0CD175
:10531000B5EEC08AF1EE10FA07DD03AA52F820209C
:1053200002EB810282ED008A1EE0052D0DD1B5EE63
:10533000C08AF1EE10FA08DB03AA52F820202832C6
:1053400002EB810282ED008A0EE0082D0CD1B5EE51
:10535000C08AF1EE10FA07DB03AA52F8202040328F
:1053600002EB810282ED008AD4E1062D23D1B548FB
:10537000C0790128B4D1042CB2DAF0EE488AB7EE35
:10538000000AF4EEC08AF1EE10FA03DDB7EE000A6F
:10539000F0EE408ABFEE000AF4EEC08AF1EE10FA99
:1053A00003D2BFEE000AF0EE408AB0EE680A204653
:1053B00000F078FEAEE1072D0ED1002C90D1B6EEB4
:1053C000000AB4EEC08AF1EE10FA01DB012000E021
:1053D00000209D4908709DE1032D3CD19548039024
:1053E000954804909548059095480690042C05DA58
:1053F00003A850F8240080ED1F8A2BE0082C06DA61
:10540000201F03A951F8200080ED1E8A22E0082CFD
:105410000FD1B5EEC08AF1EE10FA1BDBB7EE000A31
:10542000B4EEC08AF1EE10FA14D8884880ED008AF4
:1054300010E0092C0ED1B5EEC08AF1EE10FA09DBAE
:10544000B7EE000AB4EEC08AF1EE10FA02D8804836
:1054500080ED008AE7E3092D4ED18CB99FED7D0ADE
:10546000B4EEC08AF1EE10FAA4DDB3EE040AB4EE95
:10547000C08AF1EE10FA9DD2774880ED008AD2E31F
:10548000012C11D19FED730AB4EEC08AF1EE10FA2F
:1054900090DDB2EE040AB4EEC08AF1EE10FA89D2C1
:1054A0006E4880ED008ABEE3022C11D1B0EE080AEE
:1054B000B4EEC08AF1EE10FA8DDB9FED690AB4EE0E
:1054C000C08AF1EE10FA86D8664880ED008AAAE319
:1054D000032CBFD1B0EE080AB4EEC08AF1EE10FA88
:1054E000B8DB9FED5F0AB4EEC08AF1EE10FAB1D8D6
:1054F0005D4880ED008A96E3042D0CD12CB9FEF7AF
:10550000A1F90020594908708DE3012CA2D1032094
:10551000FDF756FE87E30A2D2CD14A48C0790128B1
:1055200098D11CB9524880ED008A7CE3012C03D14C
:105530004F4880ED018A76E3022C03D14C4880ED80
:10554000028A70E3032C03D1494880ED078A6AE39D
:10555000042C94D1B6EE000A38EE000ABCEEC00A64
:1055600010EE100AC0B208B1012000E0002040494E
:10557000886158E30B2D54D13248C079012892D16B
:105580001CB93C4880ED008A4DE3012C03D1394819
:1055900080ED018A47E3022C03D1364880ED028A70
:1055A00041E3032C03D1334880ED038A3BE3042C11
:1055B00003D1304880ED048A35E3052C03D12D4812
:1055C00080ED058A2FE3062C10D1B6EE000A38EEE6
:1055D000000ABCEEC00A10EE100A264908760846FA
:1055E000007E022887D9022008761CE3072C8BD185
:1055F000B6EE000A38EE000ABCEEC00A10EE100A41
:10560000C0B2D8B309F052FC01201A4948769FED88
:105610001A0A084680ED070AFBF7E2FE09F08AFC49
:1056200001E330E0C8510120F50700201C030020F1
:1056300000004843884A0120344B0120E04B012000
:105640008C4C012090530120200800203C080020B1
:1056500040080020CDCC4C3D2C0800203008002014
:105660000000704234080020380800204C08002058
:10567000F8080020BC53012000000000FFE70020D4
:10568000F7494876CFE20C2D49D1F648C079012878
:1056900086D11CB9F44880ED008AC4E2012C03D104
:1056A000F14880ED018ABEE2022C03D1EE4880ED84
:1056B000028AB8E2032C03D1EB4880ED038AB2E200
:1056C000042C03D1E84880ED048AACE2052C03D118
:1056D000E54880ED058AA6E2062C86D1B6EE000AE2
:1056E00038EE000ABCEEC00A10EE100AC0B290B14B
:1056F00009F0DCFB0120DC4908761FED210A084691
:1057000080ED070A1FED240A80ED080AFBF768FE0A
:1057100009F010FC87E20020D349087683E2112DBE
:105720005CD1D048C0790128ACD11CB9CF4880EDFC
:10573000008A78E2012C03D1CC4880ED018A72E224
:10574000022C03D1C94880ED028A6CE2032C03D1FC
:10575000C64880ED038A66E2042C03D1C34880ED7D
:10576000048A60E2052C03D1C04880ED058A5AE224
:10577000062C10D1B6EE000A38EE000ABCEEC00AC4
:1057800010EE100AB94908760846007E012884D92F
:105790000120087647E2072C85D1B6EE000A38EEE4
:1057A000000ABCEEC00A10EE100AC0B290B109F0B7
:1057B0007DFB0120AD4948761FED510A084680ED7A
:1057C000070A1FED530A80ED080AFBF709FE09F0EE
:1057D000B1FB28E20020A549487624E2122D11D120
:1057E000002C97D1B5EEC08AF1EE10FA02D21FED6F
:1057F0005E0A01E0B0EE480A9D4880ED000AFBF722
:10580000EFFD10E20D2D04D1002C87D1FEF71AF820
:1058100009E20F2D42D1B6EE000A38EE000ABCEEC6
:10582000C00A10EE101AC9B209B1012100E000212E
:1058300008460D2C2FD2DFE804F0070A0D101316CE
:10584000191C1F2225282B008A49087024E0894949
:10585000487021E0874988701EE08649C8701BE0C7
:105860008449087118E08349487115E081498871BD
:1058700012E08049C8710FE07E4908720CE07D4952
:10588000487209E07B49887206E07A49C87203E0F1
:105890007849087300E000BF00BFC4E1132D31D187
:1058A000002C96D1B6EE000A38EE000ABCEEC00A13
:1058B00010EE101AC8B2022800D902206D494873B0
:1058C0006D4991ED020A81ED000A1FED950A81ED07
:1058D000010A91ED1F0A81ED1D0A1FED990A81ED64
:1058E0001E0A91ED3C0A81ED3A0A1FED9D0A81EDF9
:1058F0003B0A91ED590A81ED570A1FEDA10A81ED8E
:10590000580A90E1142D75D1082C74D2DFE804F008
:10591000040F1A1E22262A81B6EE000A38EE000A6B
:10592000BCEEC00A10EE100A5449087083E0B6EECF
:10593000000A38EE000ABCEEC00A10EE100A504908
:10594000087078E04F4880ED008A74E04E4880EDA2
:10595000008A70E04D4880ED008A6CE04C4880ED94
:10596000008A68E0B6EE000A38EE000ABCEEC00A13
:1059700010EE100AC0B2E0B31FEDC10A454880ED39
:10598000170A1FEDC30A80ED180A1FEDC50A80ED46
:10599000190A1FEDC70A80ED1A0A1FEDC90A80ED2A
:1059A000150A1FEDCB0A80ED160A1FEDCD0A3A4805
:1059B00080EDA10A1FEDD00A80EDB50A1FEDD20AD5
:1059C00080EDA00A1FEDD40A80EDB40A1FEDD60ABF
:1059D00080EDC80A1FEDD80A80EDDC0A2C48D0ED16
:1059E000001A2A4890ED001A2748D0ED000A2548F1
:1059F00002E00AE020E01DE090ED000A2048017876
:105A00001E48007802F0BEFC01E002F071FC12E0DA
:105A10000AE1B6EE000A38EE000ABCEEC00A10EE4B
:105A2000101AC9B209B1012100E00021084602F0B4
:105A30009FFC00E000BFF6E0152D42D174BBB6EE2E
:105A4000000A38EE000ABCEEC00A10EE101AC9B205
:105A500009B1012100E000210846FDF7A1FFE2E0C5
:105A6000BC53012090530120DC530120005401203D
:105A700048080020784A0120A84801201A01002087
:105A80001B0100201C010020200100202401002017
:105A900028010020A84E01201C030020FFE7012C54
:105AA0000ED1B0EE480A0020FDF762FFB0EE480AC2
:105AB0000120FDF75DFFB0EE480A0220FDF758FF18
:105AC000B1E0102D33D18CBB9FED5D0A5D4880EDB8
:105AD000170A9FED5B0A80ED180A9FED590A80EDC9
