:020000040800F2
:1000000040AA012031030008390300083B0300081F
:100010003D0300083F030008410300080000000002
:10002000000000000000000000000000790200084D
:100030004503000800000000CD020008B16600087A
:100040004B0300084B0300084B0300084B03000858
:100050004B0300084B0300084B0300084B03000848
:100060004B0300084B0300084B0300084B03000838
:100070004B0300084B030008791D00084B030008E0
:100080004B030008A11D00084B0300084B030008A8
:100090004B0300084B0300084B0300084B03000808
:1000A0004B0300084B0300084B0300084B030008F8
:1000B0004B0300084B0300084B0300084B030008E8
:1000C0004B0300084B0300084B0300084B030008D8
:1000D0004B03000875700008617100085173000837
:1000E0004B0300084B0300084B0300084B030008B8
:1000F0004B0300084B0300084B030008CD1D00080C
:100100004B0300084B0300084B0300084B03000897
:100110005D6D0008716F00084B0300084B03000879
:100120004B0300084B0300084B0300084B03000877
:100130004B0300084B0300084B0300084B03000867
:100140004B0300084B0300084B0300084B03000857
:100150004B0300084B0300084B03000879730008A9
:100160004B0300084B0300084B0300084B03000837
:100170004B0300084B0300084B0300084B03000827
:100180004B0300084B03000800F002F800F064F88D
:100190000AA090E8000C82448344AAF10107DA45E2
:1001A00001D100F059F8AFF2090EBAE80F0013F0D0
:1001B000010F18BFFB1A43F00103184734E4000095
:1001C00054E400000A444FF0000C10F8013B13F017
:1001D000070408BF10F8014B1D1108BF10F8015BA0
:1001E000641E05D010F8016B641E01F8016BF9D193
:1001F00013F0080F1EBF10F8014BAD1C0C1B09D1EA
:100200006D1E58BF01F801CBFAD505E014F8016B5B
:1002100001F8016B6D1EF9D59142D6D370470000ED
:100220000023002400250026103A28BF78C1FBD8FF
:10023000520728BF30C148BF0B607047642900F0E7
:100240000381732900F04E82002070471FB50DF026
:10025000D6FF1FBD10B510BD00F0B0FA1146FFF774
:10026000F5FF0AF0ABFB00F0CEFA03B4FFF7F2FFA4
:1002700003BC0AF085F900002A4B19680868B0E849
:10028000F04F80F30988BFF36F8F4FF0000080F3C9
:10029000118870470000000006480068006880F37D
:1002A000088862B661B6BFF34F8FBFF36F8F00DF70
:1002B00000BF00BF08ED00E0DFF80C00016841F46A
:1002C00070010160704700BF88ED00E0EFF3098026
:1002D000BFF36F8F134B1A681EF0100F08BF20ED8D
:1002E000108A20E9F04F106008B44FF0500080F3FE
:1002F0001188BFF34F8FBFF36F8F0CF0D5F94FF01C
:10030000000080F3118808BC19680868B0E8F04F55
:100310001EF0100F08BFB0EC108A80F30988BFF3FD
:100320006F8F704764070020EFF30580704700006F
:100330000948804709480047FEE7FEE7FEE7FEE779
:10034000FEE7FEE7FEE7FEE7FEE7FEE704480549B5
:10035000054A064B70470000E9670008890100085C
:1003600040A4012040AA012040A6012040A601206F
:10037000704700000FB4044910B503AA029800F0BA
:10038000B5F910BC5DF814FB200000202DE9F04108
:100390000E460446002020622046E168884730B3BC
:1003A000252805D0D4E901219047206A401CF2E7B6
:1003B000E168204600278847050018D0A5F14100D4
:1003C000192802D820354FF40067324629462046C6
:1003D0002760FFF733FF40B1012804D0F61D26F057
:1003E00007060836D8E7361DD6E72846DAE7206A3A
:1003F000BDE8F08170B50C460546012A05D0287885
:10040000800600D5EA69002302E0012305E05B1CB9
:10041000934202D2E05C0028F9D1A869E618C01A1C
:10042000A861286A184428622846AFF3008004E0D7
:10043000D5E9012114F8010B9047B442F8D32846BE
:10044000AFF3008070BD00002DE9F04106460024A6
:1004500010687529314616A510D0AFF3008000282A
:1004600002DA404213A507E031688A0701D512A5D8
:1004700002E0490704D511A5012401E0AFF3008093
:1004800000210A2206F1240709E0B0FBF2FCB0FBD0
:10049000F2F302FB1C00303078541846491C002847
:1004A000F3D123462A463046BDE8F04100F096B825
:1004B000000000002D0000002B00000020000000C4
:1004C000032A40F2308010F0030C00F0158011F880
:1004D000013BBCF1020F624498BF11F801CB00F858
:1004E000013B38BF11F8013BA2F1040298BF00F8AC
:1004F00001CB38BF00F8013B11F0030300F0258069
:10050000083AC0F0088051F8043B083A51F804CB8F
:10051000A0E80810F5E7121D5CBF51F8043B40F855
:10052000043BAFF30080D20724BF11F8013B11F860
:1005300001CB48BF11F8012B24BF00F8013B00F8A4
:1005400001CB48BF00F8012B704710B5203AC0F02E
:100550000B80B1E81850203AA0E81850B1E81850C4
:10056000A0E81850BFF4F5AF5FEA027C24BFB1E801
:100570001850A0E8185044BF18C918C0BDE8104072
:100580005FEA827C24BF51F8043B40F8043B08BF7B
:100590007047D20728BF31F8023B48BF11F8012B42
:1005A00028BF20F8023B48BF00F8012B704702F03B
:1005B000FF0343EA032242EA024200F0ABB870476D
:1005C00070477047704710B500F0C4F8006810BD60
:1005D00010B5044600F0BEF8046010BD2DE9F047E8
:1005E0000D4699469246044600F1240801688806A3
:1005F00004D5E06921F01001216000E00120A8424B
:1006000001DD471B00E00027A1697A1902EB090010
:10061000081AA0612078C00602D42046AFF30080FB
:10062000002608E0D4E901211AF806009047206A64
:10063000401C761C20624E45F4DB2078C0060AD5AB
:100640002046AFF3008006E0D4E901213020904736
:10065000206A401C2062381EA7F10107F4DC07E085
:10066000D4E9012118F805009047206A401C206257
:10067000281EA5F10105F3DC2046AFF300802078A9
:10068000000602D50220BDE8F0870120FBE700004C
:1006900001694A1C02610878704700B58FB0CDE946
:1006A00001310021059105497944CDE90310114636
:1006B0006846FFF76BFE0FB000BD0000E5FFFFFFCF
:1006C00010B5436913B1AFF3008001E0FFF792FE6C
:1006D000012010BD127800F124010A7000224A7036
:1006E0000122EDE711684FF0FF32E9E7074B70B5E3
:1006F0000D467B44FFF7D1FF0446284600F02EF854
:1007000010B14FF0FF3070BD204670BD9FA10000BA
:100710004FF000020429C0F0128010F0030C00F02A
:100720002380CCF1040CBCF1020F18BF00F8012BA0
:10073000A8BF20F8022BA1EB0C0100F015B85FEA6E
:10074000C17C24BF00F8012B00F8012B48BF00F842
:10075000012B704700487047DCA30120007B00F0AC
:10076000800070474FF0000200B51346944696464D
:10077000203922BFA0E80C50A0E80C50B1F12001B4
:10078000BFF4F7AF090728BFA0E80C5048BF0CC062
:100790005DF804EB890028BF40F8042B08BF7047C0
:1007A00048BF20F8022B11F0804F18BF00F8012B32
:1007B0007047000000487047DCA301207546FFF732
:1007C000F9FFAE4605006946534620F0070085460E
:1007D00018B020B5FFF7BAFDBDE820404FF0000685
:1007E0004FF000074FF000084FF0000B21F0070119
:1007F000AC46ACE8C009ACE8C009ACE8C009ACE85C
:10080000C0098D46704710B50446AFF300802046FE
:10081000BDE81040FFF729BD00B589B001210846A9
:1008200004F0F6F80121080204F022F910200790E4
:1008300003208DF8200000208DF8230007A90E4822
:1008400001F0A6FF01A800F0ADF8002001908DF89E
:1008500008008DF80900049001A9084800F01CF870
:10086000002301220421054800F040F8012103483B
:1008700000F006F809B000BD000002400020014071
:1008800021B1826842F00102826003E0826822F0B6
:10089000010282607047000030B50246002000234C
:1008A0005068104C20400D790C6844EA0524204320
:1008B000506090680C4C2040D1E903542C438D6863
:1008C0002C434D7944EA450420439060D06A20F4DB
:1008D00070000C7D641EE4B2234340EA0350D062F2
:1008E00030BD0000FFFEFFFCFDF7FFC0F0B5044681
:1008F0000D4600200021092D11DDE068A5F10A0652
:1009000006EB4607072606FA07F18843A5F10A0613
:1009100006EB460603FA06F10843E0600CE02069A6
:1009200005EB4507072606FA07F1884305EB450660
:1009300003FA06F108432061072A0FDA606B561E9E
:1009400006EB86071F2606FA07F18843561E06EBBC
:10095000860605FA06F10843606322E00D2A0FDAE5
:10096000206BD61F06EB86071F2606FA07F1884381
:10097000D61F06EB860605FA06F10843206310E051
:10098000E06AA2F10D0606EB86071F2606FA07F1BC
:100990008843A2F10D0606EB860605FA06F1084328
:1009A000E062F0BD00210160017141718160C160B0
:1009B000016101210175704730B500220024C5781E
:1009C0008B1F9D4200D030BD002306E0C55C15445E
:1009D000EAB2A518ECB25D1CEBB28D1E9D42F5DCAF
:1009E000431813F8023C934204D1431813F8013C16
:1009F000A34200D0E7E78378512B38D103795BB964
:100A000043794B4D6B7183795BB2AB71C3795BB248
:100A1000EB71037A2B7189E00379012B12D14379B1
:100A2000434D2B72C3886B810389AB81837A2B7111
:100A30009FED400A404B83ED010A2B461B785B1C5F
:100A40002B7073E00379022B70D14379384DAB736F
:100A5000C3882B8203896B824389AB828389EB82B3
:100A6000C3892B83038A6B83837C2B715EE083783D
:100A7000342B0DD1D0F807302D4DEB619FED2D0AB1
:100A80002D4B83ED020A2B465B785B1C6B704DE0AF
:100A90008378012B13D18388254DA5F84830C3886E
:100AA000A5F84A300389A5F84C304389A5F84E30A3
:100AB0008389A5F85030C389A5F8523036E0837891
:100AC000042B33D1B0F9043000EE103AB8EEC00A6E
:100AD000DFED1A0A20EE200A154B83ED0E0AB0F95D
:100AE000063000EE103AB8EEC00ADFED140A20EE30
:100AF000200A0F4B83ED0F0AB0F9083000EE103AD0
:100B0000B8EEC00ADFED0D0A20EE200A084B83ED97
:100B1000100AB0F90A3000EE103AB8EEC00ADFED64
:100B2000070A20EE200A024B83ED110A00BF4AE7B4
:100B3000B44B012000000000544C012017B7D138FD
:100B400010B504463E48007838B9AA2C05D10120DA
:100B50003B4908703B48047070E039480078012830
:100B600005D10220364908703648447066E03448A2
:100B70000078022805D1032031490870314884707B
:100B80005CE02F48007803280CD1322C0ADA0420CC
:100B90002B4908702B48C4702B48047000202B4947
:100BA00008704BE026480078042819D126480078C0
:100BB000002815DD24480078401E2349087023488A
:100BC000007822490978491C204A1170001D1D49EE
:100BD0000C541D48007868BB0520194908702DE0A9
:100BE0001748007805280DD10620154908701748C8
:100BF000007816490978491C144A1170001D1149E2
:100C00000C541BE00E480078062814D100200C4933
:100C100008700E480078001D0A490C549FED0C0A1C
:100C20000C4880ED000A09480078401DC1B2054813
:100C3000FFF7C2FE02E000200149087010BD00006D
:100C4000CC060020204C0120CA060020CB06002044
:100C500000000000544C012010B500F043F81B4880
:100C6000007E10B100F060F804E01948407E08B141
:100C700000F0D8F817484089B0F5E16F0DD115485C
:100C80000089B0F5E16F08D11348007828B91348FE
:100C90000068401D1149086002E000200F4908600B
:100CA0000E480068B0F5FA6F03D301200C490870B4
:100CB00002E000200A49087009480078012802D1A2
:100CC00004F0FEFC01E004F01DFE10BD6C5001209C
:100CD0004C500120604C012018070020B800002073
:100CE000BC0000200D48407E28B100200C49087649
:100CF0000C49886110E00A48007E28B100200749AD
:100D000048760849886107E00648806920B10020DC
:100D10000249487602490876704700004C5001208D
:100D20006C500120E807002010B52DED028B9FEDDF
:100D3000370AB0EE408A3648C079012805D0002035
:100D400034490876BDEC028B10BD3248007E00B9F4
:100D5000F8E7304890ED080ADFED2C0A30EE200A63
:100D600080ED080A90ED070AD0ED040A9FED271ADE
:100D700000EE810A80ED070AD0ED070AB0EE600AA6
:100D800007F036FD2348D0ED000A90ED031A41EE3E
:100D9000000A2148C0ED900A1E48D0ED070AB0EEC7
:100DA000600A08F04DFD1B48D0ED010A90ED031AD2
:100DB00041EE000A1848C0EDA20A164890ED020A5A
:100DC000154880ED6C0A134890ED070ADFED130A11
:100DD00020EE200A104880ED240A0E4890ED050A06
:100DE000B5EEC00AF1EE10FA0DDD90ED080AD0ED77
:100DF000050AB4EEE00AF1EE10FA04DB0020054922
:100E000008760749886100BF9CE700000AD7A33B2A
:100E1000205001206C500120CC020020ED2E6542B4
:100E2000E807002010B52DED028B9FED3E0AF0EE95
:100E3000408A3D48C079012805D000203B494876CA
:100E4000BDEC028B10BD3948407E00B9F8E7374849
:100E500090ED070ADFED330A30EE200A80ED070A35
:100E6000D0ED040A9FED321A60EE810A90ED071A68
:100E700060EE810AB0EE600A08F0E2FC2B48D0ED8B
:100E8000030A20EE200AB0EE408A007E20B101283D
:100E900011D0022827D11DE0244890ED000A30EE41
:100EA000080A244880ED900A204890ED010A214864
:100EB00080EDA20A18E01D4890ED000A1D4880ED63
:100EC000900A1A4890ED010A30EE080A194880EDA0
:100ED000A20A09E0154890ED020A30EE080A15480A
:100EE00080ED6C0A00E000BF00BF9FED130A1148BF
:100EF00080ED240A0D4890ED050AB5EEC00AF1EE2A
:100F000010FA0DDD90ED070AD0ED050AB4EEE00A07
:100F1000F1EE10FA04DB00200449487607498861A5
:100F200000BF8DE70AD7A33B205001204C50012081
:100F3000D00FC940CC02002000000000E8070020CC
:100F400008B500BF0CF03CF800900AE0FFF784FE03
:100F50000448408E401C03494886052168460BF032
:100F600075F9F3E7D84F01201CB50121022003F0E9
:100F70004FFD4FF40070009001208DF80400002018
:100F80008DF8060003208DF8050001208DF807007C
:100F90006946044801F0FCFB4FF40071014801F080
:100FA00062FC1CBD0004024070B5044600251021FF
:100FB0000A4801F058FCFF2141EA042141F40040B5
:100FC0000AF0F4FD00200AF0F1FD050A10210348A3
:100FD00001F04BFC00BF284670BD00000008024035
:100FE00070B504462021094801F03DFC002141EA8A
:100FF000042141F400400AF0D9FDC5B22021034884
:1010000001F033FC00BF284670BD0000000802401C
:1010100070B504460D461021074801F024FC45EA4E
:101020000421C1F30E000AF0C1FD1021024801F0B5
:101030001CFC00BF70BD00000008024070B50446F3
:101040000D462021074801F00EFC45EA0421C1F3BA
:101050000E000AF0ABFD2021024801F006FC00BFA3
:1010600070BD00000008024010B54FF4407002F05F
:10107000D1FF02F043FA02F0D7FF03F075F8FFF753
:10108000CBFB4FF4FA6009F0CFFB04F051FC09F000
:101090000BFB05F093FF06F009F806F087F805F062
:1010A00097FD05F085FEFFF75FFF4FF400610C48E8
:1010B00001F0D9FB4FF48051094801F0D6FB4FF401
:1010C0008071084801F0D1FB4FF4FA6009F0ACFBE5
:1010D00003F0E8F89FED040A044880ED1E0A10BDF5
:1010E00000000240000802400000B442D44C01203D
:1010F00090ED010A80ED000A90ED020A80ED010AF0
:1011000090ED060ADFED160A80EE201A80ED021A35
:1011100090ED040A80ED030A90ED050A80ED040AC3
:1011200090ED000AD0ED020A30EE200AD0ED010A5F
:10113000B0EE001A01EE200AD0ED030A9FED091A65
:1011400001EE200AD0ED040A9FED071A01EE200AF5
:1011500080ED050A90ED050A80ED070A7047000052
:1011600067BFFF42021944BF7E0BDE3F90ED010ACC
:1011700080ED000A90ED020A80ED010A90ED030A6D
:1011800080ED020A90ED080ADFED1D0A80EE201ABC
:1011900080ED031A90ED050A80ED040A90ED060A31
:1011A00080ED050A90ED070A80ED060A90ED000A31
:1011B000D0ED030A30EE200AD0ED010A90ED021ABC
:1011C00070EE810AB0EE081A01EE200AD0ED040A92
:1011D0009FED0C1A01EE200AD0ED050A9FED0A1AC8
:1011E00001EE200AD0ED060A9FED081A01EE200A52
:1011F00080ED070A90ED070A80ED090A70470000AC
:101200006D85AC431736083F20F5F6BF2BF117402C
:1012100010B500F079F83348408AB0F5FA7F05DC64
:1012200031480068401C3049086002E000202E4927
:1012300008602D4800680A2803DD022001F042FA08
:1012400002E0032001F03EFA2649098940F21452D7
:10125000914201DD012100E00021084660B12349EF
:10126000097849B922490978012905D10221204A82
:10127000117000211F4A91611C490870194880892A
:10128000B0F5FA7F01D9012000E0002004465CB1EE
:101290001948007840B901F06FFA10B9002001F048
:1012A00011FA012015490870134804700D48C089CF
:1012B000B0F5FA7F01D9012000E00020044674B1A6
:1012C0000F48007858B901F057FA28B9002001F00A
:1012D000F9F9012003F042FD01200A49087008488D
:1012E000047010BD604C0120240000202800002064
:1012F000C9060020E8070020290000203D07002043
:101300002A0000203E07002010B52DED048B8848F0
:10131000C08800EE100AB8EE400ADFED860A30EE13
:10132000600ADFED850A80EE201AB0EE418A80481F
:10133000008800EE100AB8EE400ADFED7E0A30EEBB
:10134000600ADFED7D0A80EE201AF0EE418A7848CF
:10135000408800EE100AB8EE400ADFED760A30EE63
:10136000600ADFED750A80EE201AB0EE419A7048EF
:10137000808800EE100AB8EE400ADFED6E0A30EE0B
:10138000600ADFED6D0A80EE201AF0EE419ABEEEA3
:10139000080AB4EEC08AF1EE10FA0CD2B6EE080AD2
:1013A000F4EEC09AF1EE10FA05DD64488068401C46
:1013B0006249886002E0002060498860BEEE080A49
:1013C000B4EEC08AF1EE10FA0CD2BEEE080AF4EECA
:1013D000C09AF1EE10FA05D258480068401C5749EF
:1013E000086002E0002055490860B6EE080AB4EE35
:1013F000C08AF1EE10FA0CDDBEEE080AF4EEC09AD7
:10140000F1EE10FA05D24D484068401C4B49486047
:1014100002E0002049494860B6EE080AB4EEC08AEE
:10142000F1EE10FA0CDDB6EE080AF4EEC09AF1EE19
:1014300010FA05DD4148C068401C4049C86002E020
:1014400000203E49C860BEEE080AF4EEC08AF1EE04
:1014500010FA0CD2BEEE080AB4EEC09AF1EE10FA01
:1014600005D236480069401C3449086102E000207A
:1014700032490861BEEE080AF4EEC08AF1EE10FAB5
:101480000CD2B6EE080AB4EEC09AF1EE10FA05DD01
:101490002A488069401C2949886102E000202749C8
:1014A0008861B6EE080AF4EEC08AF1EE10FA0CDD9F
:1014B000BEEE080AB4EEC09AF1EE10FA05D21F484B
:1014C0004069401C1D49486102E000201B494861F9
:1014D000B6EE080AF4EEC08AF1EE10FA0CDDB6EEB4
:1014E000080AB4EEC09AF1EE10FA05DD1348C0699F
:1014F000401C1249C86102E000201049C8610F4831
:101500008068962806D3002001F0DCF800200B4903
:101510008860086009480068322806D3012001F07D
:10152000D1F80020054988600860BDEC048B10BD2F
:101530001050012000803B4500007A442C500120CF
:101540009FED160A164880ED0A0A9FED140A80EDF9
:101550001C0A9FED120A80ED2E0A9FED100A80ED05
:10156000400A9FED0E0A80ED520A9FED0C0A80EDB5
:10157000640A9FED0A0A80ED760A9FED080A80ED65
:10158000880A90ED910A80ED900A90EDA30A80ED13
:10159000A20A90ED250A80ED240A704700000000A1
:1015A000CC02002090ED000AD0ED010A30EE600A76
:1015B00080ED080A90ED0B0AD0ED0C0AB4EEE00ABB
:1015C000F1EE10FA06D890ED080AB5EEC00AF1EE79
:1015D00010FA11DC90ED0B0AD0ED0C0AF1EE600A66
:1015E000B4EEE00AF1EE10FA23DB90ED080AB5EE56
:1015F000C00AF1EE10FA1CD290ED080AB5EEC00A4E
:10160000F1EE10FA02DD90ED080A03E090ED080A11
:10161000B1EE400AD0ED110AB4EEE00AF1EE10FA94
:1016200007D290ED0A0AD0ED080A30EE200A80EDCC
:101630000A0A90ED0A0AD0ED100AF1EE600AB4EE43
:10164000E00AF1EE10FA05D290ED100AB1EE400A70
:1016500080ED0A0A90ED0A0AD0ED100AB4EEE00A15
:10166000F1EE10FA03DD90ED100A80ED0A0A90ED1C
:10167000030AD0ED0A0A20EE200A80ED060A90ED5A
:10168000060AD0ED0E0AF1EE600AB4EEE00AF1EEC1
:1016900010FA05D290ED0E0AB1EE400A80ED060A6E
:1016A00090ED060AD0ED0E0AB4EEE00AF1EE10FA63
:1016B00003DD90ED0E0A80ED060A90ED020AD0EDF2
:1016C000080A20EE200A80ED050A90ED050AD0ED0B
:1016D0000D0AF1EE600AB4EEE00AF1EE10FA05D25E
:1016E00090ED0D0AB1EE400A80ED050A90ED050A75
:1016F000D0ED0D0AB4EEE00AF1EE10FA03DD90ED44
:101700000D0A80ED050A90ED080AD0ED090A30EEC9
:10171000600AD0ED040A20EE200A80ED070A90ED61
:10172000070AD0ED0F0AF1EE600AB4EEE00AF1EE1E
:1017300010FA05D290ED0F0AB1EE400A80ED070ACB
:1017400090ED070AD0ED0F0AB4EEE00AF1EE10FAC0
:1017500003DD90ED0F0A80ED070A90ED050AD0ED4C
:10176000060A30EE200AD0ED070A30EE200A80ED9E
:101770000B0A90ED0B0AD0ED0C0AF1EE600AB4EE04
:10178000E00AF1EE10FA05D290ED0C0AB1EE400A33
:1017900080ED0B0A90ED0B0AD0ED0C0AB4EEE00AD6
:1017A000F1EE10FA03DD90ED0C0A80ED0B0A90EDDE
:1017B000080A80ED090A704790ED000AD0ED010A91
:1017C00030EE600A80ED080A90ED080ADFED900A1D
:1017D000B4EEE00AF1EE10FA07DB90ED080ADFED57
:1017E0008D0A30EE600A80ED080A90ED080ADFED00
:1017F0008A0AB4EEE00AF1EE10FA07D890ED080A72
:10180000DFED840A30EE200A80ED080A90ED0B0A25
:10181000D0ED0C0AB4EEE00AF1EE10FA06D890ED25
:10182000080AB5EEC00AF1EE10FA11DC90ED0B0AD1
:10183000D0ED0C0AF1EE600AB4EEE00AF1EE10FA17
:1018400023DB90ED080AB5EEC00AF1EE10FA1CD2C7
:1018500090ED080AB5EEC00AF1EE10FA02DD90ED47
:10186000080A03E090ED080AB1EE400AD0ED110A33
:10187000B4EEE00AF1EE10FA07D290ED0A0AD0EDCC
:10188000080A30EE200A80ED0A0A90ED0A0AD0ED2F
:10189000100AF1EE600AB4EEE00AF1EE10FA05D299
:1018A00090ED100AB1EE400A80ED0A0A90ED0A0AA6
:1018B000D0ED100AB4EEE00AF1EE10FA03DD90ED7F
:1018C000100A80ED0A0A90ED030AD0ED0A0A20EE14
:1018D000200A80ED060A90ED060AD0ED0E0AF1EE20
:1018E000600AB4EEE00AF1EE10FA05D290ED0E0AAD
:1018F000B1EE400A80ED060A90ED060AD0ED0E0A20
:10190000B4EEE00AF1EE10FA03DD90ED0E0A80ED80
:10191000060A90ED020AD0ED080A20EE200A80EDBA
:10192000050A90ED050AD0ED0D0AF1EE600AB4EE5D
:10193000E00AF1EE10FA05D290ED0D0AB1EE400A80
:1019400080ED050A90ED050AD0ED0D0AB4EEE00A2F
:10195000F1EE10FA03DD90ED0D0A80ED050A90ED31
:10196000080AD0ED090A30EE600AD0ED040A20EE34
:10197000200A80ED070A90ED070AD0ED0F0AF1EE7C
:10198000600AB4EEE00AF1EE10FA05D290ED0F0A0B
:10199000B1EE400A80ED070A90ED070AD0ED0F0A7C
:1019A000B4EEE00AF1EE10FA03DD90ED0F0A80EDDF
:1019B000070A90ED050AD0ED060A30EE200AD0EDB8
:1019C000070A30EE200A80ED0B0A90ED0B0AD0EDED
:1019D0000C0AF1EE600AB4EEE00AF1EE10FA05D25C
:1019E00090ED0C0AB1EE400A80ED0B0A90ED0B0A67
:1019F000D0ED0C0AB4EEE00AF1EE10FA03DD90ED42
:101A00000C0A80ED0B0A90ED080A80ED090A704778
:101A1000000034430000B443000034C310B52DED82
:101A2000048B032006F08EF8B4480078401CB349BC
:101A3000087008460078022805DBB148FFF7B2FDC0
:101A40000020AE490870042006F07CF8AC4848300D
:101A5000FFF7A8FDAB480078401CAA49087008466B
:101A60000078022819DB012006F06CF8A4489030B9
:101A7000FFF798FDA248D830FFF794FD0020A14958
:101A80000870022006F05EF803F022FC9E48FFF783
:101A900089FD9D484830FFF785FD052006F052F886
:101AA0009A48FFF77FFD99484830FFF77BFD0620F5
:101AB00006F048F895489030FFF77EFE072006F0C4
:101AC00041F803F0FBFA8E48D838FFF76BFD8C48DD
:101AD0009038FFF767FD8A484838FFF763FD8B4869
:101AE00001F066FD40F6863089490880894890ED0E
:101AF0005E0A8948D0ED1F0A20EE200AB0EE408A27
:101B0000844890ED2E0A8548D0ED1F0A20EE200A69
:101B1000F0EE408A7F4890ED160A8148D0ED1F0A0A
:101B200020EE200AB0EE409A7A4890ED460A7D48B1
:101B3000D0ED1F0A20EE200AF0EE409A18EE100AAF
:101B400006F029FC18B99FED780AB0EE408A18EE2D
:101B5000900A06F020FC18B99FED730AF0EE408A57
:101B600019EE100A06F017FC18B99FED6F0AB0EED7
:101B7000409A19EE900A06F00EFC18B99FED6A0A19
:101B8000F0EE409A6148D0ED890A6148B0F9000052
:101B900000EE100AB8EEC00A30EE800A30EE080AF5
:101BA000624880ED000A594890ED410A30EE280A5B
:101BB0005F4880ED000A554890ED530A30EE090A5F
:101BC000B1EE400A5B4880ED000A504890ED650A8E
:101BD00030EE290A584880ED000A5848D0ED000A36
:101BE0009FED571A9FED560A00EE810AB0EE402A8B
:101BF0005448D0ED000A9FED521A9FED510A00EEB5
:101C0000810AF0EE402AF4EEC22AF1EE10FA06D272
:101C1000B0EE620AF0EE422AB0EE402A00BFB0EE0B
:101C2000621AF0EE420A414890ED000A00F08EF888
:101C30003E4880ED000A90ED000A3E48D0ED000AD3
:101C400030EE600A3A48D0ED000A30EE600A3A48B9
:101C5000D0ED000A30EE200ABDEEC00A10EE100AE8
:101C600000B239490880314890ED000A3148D0ED82
:101C7000000A30EE200A2E48D0ED000A30EE200A8D
:101C80002D48D0ED000A30EE200ABDEEC00A10EE5D
:101C9000100A00B24880254890ED000A2548D0ED92
:101CA000000A30EE600A2248D0ED000A30EE200A29
:101CB0002148D0ED000A30EE600ABDEEC00A10EEF9
:101CC000100A00B28880194890ED000A1948D0ED3A
:101CD000000A30EE200A1648D0ED000A30EE600A05
:101CE0001548D0ED000A30EE600ABDEEC00A10EED5
:101CF000100A00B2C880BDEC048B10BD2C0000207F
:101D00007C0400202D0000209C050020CC02002037
:101D10004000002098470120F84A0120C0490120D6
:101D2000244901205C4A012000000000300000200E
:101D300034000020380000203C0000203407002040
:101D40000000FA4438070020CE060020F0EE401ACA
:101D5000F4EEE01AF1EE10FA02D2B0EE600A70472B
:101D6000F4EEC11AF1EE10FA02DDB0EE410AF6E728
:101D7000B0EE610AF3E7000010B50749074800F02C
:101D800033F940B14FF0C051044800F033F800215E
:101D9000024800F063F810BD00800018586002404F
:101DA00010B50749074800F01FF938B10649054842
:101DB00000F020F80021034800F050F810BD0000AA
:101DC00000802020A06002400000202010B50749BC
:101DD000074800F009F940B14FF02051044800F0E5
:101DE00009F80021024800F039F810BD00800028F1
:101DF000B86002400246094B9A4201D2084801E00D
:101E00000648103801F000531BB1064B0B40C3606D
:101E100002E0044B0B4083607047000010640240F6
:101E2000006002407D0F7D0F0246094B9A4201D2AD
:101E3000084801E00648103801F000531BB1064B7A
:101E40000B40C36002E0044B0B408360704700000E
:101E500010640240006002407D0F7D0F21B10268D6
:101E600042F00102026003E0026822F00102026017
:101E700070470000016821F001010160002101604C
:101E800041608160C1600161212141614A4988420C
:101E900004D13D21484A103A91608CE046491831FE
:101EA000884205D14FF47461434A103A916082E050
:101EB00041493031884205D14FF474113E4A103AFD
:101EC000916078E03C494831884205D14FF0746117
:101ED000394A103A91606EE037496031884204D146
:101EE0003649354A103AD16065E033497831884245
:101EF00004D13349304A103AD1605CE02E49903128
:101F0000884204D12F492C4A103AD16053E02A4923
:101F1000A831884205D14FF03D51274A103AD1608F
:101F200049E02949884204D13D21274A083A1160F5
:101F300041E025491831884205D14FF47461224AA5
:101F4000083A116037E020493031884205D14FF41A
:101F500074111D4A083A11602DE01B49483188422E
:101F600005D14FF07461184A083A116023E0164910
:101F70006031884204D11149134A121F11601AE0DE
:101F800011497831884204D10D490F4A121F11605E
:101F900011E00D499031884204D10A490A4A121FC2
:101FA000116008E00849A831884204D14FF03D5142
:101FB000054A121F11607047106002403D0000206A
:101FC000400F002000003D20106402400146002028
:101FD0000A6802F001020AB1012000E00020704707
:101FE0000146486880B2704770B502460020002460
:101FF0000025124EB24201D2114B01E00F4B103BB3
:10200000104E0E4036B11E2606EAD124166806EAA6
:10201000040502E0566906F0800501F000560EB195
:102020005C6800E01C68084E344004EA010616B102
:102030000DB1012000E0002070BD000010640240DE
:10204000006002403C0F3C0F7D0F7D0F10B501F08A
:1020500080034BB122B1436943F08003436103E045
:10206000436923F08003436180290BD02AB10368C0
:1020700001F01E042343036004E0036801F01E0422
:10208000A343036010BD000010B500220268134B8B
:102090001A40CC680B6823434C6923438C69234363
:1020A000CC6923430C6A23434C6A23438C6A234341
:1020B0004C6B23438C6B23431A430260426922F02A
:1020C0000702D1E90B3423431A4342610B69436091
:1020D0004B6883608B68C36010BD00003F801CF0BC
:1020E000F8480078AA287DD1F6484078AA28FAD185
:1020F000F4488078F4490870F248C0784870F14894
:1021000000798870EF484079C870084690ED000A61
:10211000DFEDEE0AB4EEE00AF1EE10FA11DD90ED1B
:10212000000ADFEDEB0AB4EEE00AF1EE10FA08D295
:1021300090ED000ADFEDE70A20EE200AE64880ED88
:10214000000AE0488079E0490870DE48C0794870AC
:10215000DC48007A8870DB48407AC870084690ED09
:10216000000ADFEDDA0AB4EEE00AF1EE10FA11DD52
:1021700090ED000ADFEDD60AB4EEE00AF1EE10FAB7
:1021800008D290ED000ADFEDD30A20EE200AD248F3
:1021900080ED000ACB48807ACB490870C948C07AE4
:1021A0004870C848007B8870C648407BC8700846A5
:1021B00090ED000ADFEDC50AB4EEE00AF1EE10FA88
:1021C00013DD90ED000ADFEDC20AB4EEE00AF1EE95
:1021D00010FA0AD290ED000ADFEDBE0A20EE200AC6
:1021E000BD4800E06CE180ED000AB648807BB6494E
:1021F0000870B448C07B4870B248007C8870B14811
:10220000407CC870084690ED000ADFEDB00AB4EEDD
:10221000E00AF1EE10FA11DD90ED000ADFEDAC0AF4
:10222000B4EEE00AF1EE10FA08D290ED000ADFED0C
:10223000A90A20EE200AA84880ED000AA148807C67
:10224000A14908709F48C07C48709E48007D8870F6
:102250009C48407DC870084690ED000ADFED9B0A5F
:10226000B4EEE00AF1EE10FA11DD90ED000ADFEDB8
:10227000980AB4EEE00AF1EE10FA08D290ED000AE6
:10228000DFED940A20EE200A934880ED000A8D4885
:10229000807D8D4908708B48C07D48708948007EDC
:1022A00088708848407EC870084690ED000ADFEDCF
:1022B000870AB4EEE00AF1EE10FA11DD90ED000AA3
:1022C000DFED830AB4EEE00AF1EE10FA08D290EDE9
:1022D000000ADFED800A20EE200A7F4880ED000A28
:1022E0007848807E784908707648C07E4870754886
:1022F000007F88707348407FC870084690ED000AE0
:10230000F9EE040AB4EEE00AF1EE10FA0DDD90EDFC
:10231000000AF1EE040AB4EEE00AF1EE10FA04D27B
:1023200090ED000A6C4880ED000A6648807F66499F
:1023300008706448C07F4870624890F82000887038
:10234000604890F82100C870084690ED000AF9EE48
:10235000040AB4EEE00AF1EE10FA0DDD90ED000A89
:10236000F1EE040AB4EEE00AF1EE10FA04D290EDB8
:10237000000A594880ED000A524890F8220052495C
:102380000870504890F8230048704E4890F8240098
:1023900088704C4890F82500C870084690ED000AF7
:1023A000F9EE040AB4EEE00AF1EE10FA0DDD90ED5C
:1023B000000AF1EE040AB4EEE00AF1EE10FA04D2DB
:1023C00090ED000A444880ED000A3E4890F826004F
:1023D0003D4908703B4890F827004870394890F80C
:1023E00028008870374890F82900C870084690ED9A
:1023F000000ADFED360AB4EEE00AF1EE10FA0DDD68
:1024000090ED000ADFED320AB4EEE00AF1EE10FAC8
:1024100004D290ED000A304880ED000A294890F877
:102420002A0029490870274890F82B004870254851
:1024300090F82C008870234890F82D00C87008464A
:1024400090ED000ADFED210AB4EEE00AF1EE10FA99
:102450000DDD90ED000ADFED1E0AB4EEE00AF1EEAC
:1024600010FA04D290ED000A1B4880ED000A1548CE
:1024700090F82E0014490870124890F82F00487008
:10248000104890F8300088700E4890F83100C870FD
:10249000084690ED000ADFED0D0AB4EEE00AF1EE19
:1024A00010FA0DDD90ED000ADFED090AB4EEE00A46
:1024B000F1EE10FA04D290ED000A074880ED000A10
:1024C00070470000D44D012084000020002474C90E
:1024D000002474490000C8428800002038B5044632
:1024E00072A000680090724801780078401C704A21
:1024F0001070704844541046007819287ED1182076
:10250000114608706B4800780F2878D16948007E22
:1025100038B16848017E684A12781DF8020081428D
:10252000F3D1002062490870624840786149897897
:1025300001F0070140EA0120604908805D48C07849
:102540008006400D5B49897840EAE1005B4948809C
:1025500058484079C007400D5649097940EA810042
:102560005449C97840EAA11054498880514880797B
:102570000007400D4F49497940EA61004F49C88042
:102580004C48C0794006400D4A49897940EA2110FB
:102590004A4908814748407A8007400D4549097AF1
:1025A00040EA41004349C97940EAE1104349488182
:1025B0004048807AC006400D3E49497A40EAA10071
:1025C0003E4988813B48C07AC0003A49897A40EA4E
:1025D00061103A49C8813748007B3649497B01F090
:1025E000070140EA0120354908823248807B800695
:1025F000400D3049497B40EAE10001E054E049E008
:102600002E4948822B48007CC007400D2949C97BD0
:1026100040EA81002749897B40EAA1102749888246
:102620002448407C0007400D2249097C40EA6100B3
:102630002249C8821F48807C4006400D1D49497CC4
:1026400040EA21101D4908831A48007D8007400D8B
:102650001849C97C40EA41001649897C40EAE110EA
:10266000164948831348407DC006400D1149097D35
:1026700040EAA100114988830E48807DC0000D49C1
:10268000497D40EA61100D49C8830AF09FFC0C495E
:10269000086009E0002005E0064A411C515C115425
:1026A000411CC8B21828F7DB38BD000004142434DC
:1026B000D6060020804C0120D7060020604C012067
:1026C0001C07002010B5044609F04CFC284800788F
:1026D00020B1012814D0022844D12AE034B90120C5
:1026E000234908700846007809F046F9022C06D103
:1026F00002201F4908700846007809F03DF932E0D1
:10270000012C09D100201A4908700846007809F008
:1027100033F9002017490870022C09D1022014490E
:1027200008700846007809F027F900201149087060
:1027300019E0032C09D100200D49087008460078E3
:1027400009F01AF900200B490870012C09D100206A
:10275000074908700846007809F00EF9002005497D
:10276000087000E000BF00BF09F040FC10BD000091
:10277000C8060020C906002010B509F0F3FB034885
:10278000047809F033FC204610BD0000C806002084
:10279000F0B50A4600210023002400BF3DE00125DA
:1027A00005FA01F3156805EA03049C4234D1056873
:1027B0004F000326BE40B543056015794E00B54075
:1027C0000668354305601579012D02D01579022D73
:1027D00016D185684F000326BE40B5438560557904
:1027E0004E00B540866835438560456801268E40B9
:1027F000B5434560456896798E40B6B2354345602D
:10280000C5684F000326BE40B543C560D5794E006C
:10281000B540C6683543C560491C1029BFD3F0BD1B
:10282000F0B5002300244D07ED0E02FA05F3CE109B
:1028300000F1200555F826504E07F70E0F26BE4032
:10284000B543CF1000F1200646F82750CE1000F116
:10285000200555F8265045EA0304CE1000F1200566
:1028600045F82640F0BD41837047018370474FF61D
:10287000FF7101600021017141718171C171704767
:1028800010B52DED028B00F00BF97148008800287F
:102890005ED0704890ED000A6D48008841F28831A2
:1028A000081A6D4901EB800080ED000A6B4890ED3D
:1028B000000A6848D0ED000A30EE200A674880ED33
:1028C000000A674890ED000A6148008841F28831AB
:1028D000081A644901EB800080ED000A624890ED1F
:1028E000000A5F48D0ED000A30EE200A5E4880ED15
:1028F000000A5E4890ED000A5548008841F2883190
:10290000081A5B4901EB800080ED000A594890ED00
:10291000000A5648D0ED000A30EE200A554880EDF6
:10292000000A4B48008841F28831081A00EE100A6C
:10293000B8EEC00A46480088081A4F4901EB8000EB
:1029400080ED000A42480088401E414908807BE033
:10295000484890ED000ADFED490A80EE201A484809
:1029600080ED001A00244BE040F2712060433A4AA7
:1029700002EB401141F288323F4807F0ABFF41487B
:1029800000EB840080ED000A3E4800EB840090EDEF
:10299000000A10EE101A08460BF0C0FB9FED3A0B30
:1029A00053EC102B0BF0C2F912D3364800EB840025
:1029B00090ED000A10EE101A08460BF0AFFB41EC48
:1029C000180B9FED330B53EC102B0BF075F816D250
:1029D00041F288301E4908809FED2F0A1F4880ED84
:1029E000000A9FED2D0A204880ED000A9FED2A0A7B
:1029F000204880ED000A0020BDEC028B10BD641C55
:102A0000032CB1DB154890ED000ADFED1C0A80EEC7
:102A1000201A80ED001A144890ED000ADFED170A25
:102A200080EE201A80ED001A124890ED000ADFEDCA
:102A3000130A80EE201A80ED001A41F28830044912
:102A4000088001201549086014480068D4E7000098
:102A50005C010020700100200C0F0020A00100206C
:102A6000740100202C5D0020A401002078010020CA
:102A70004CAB0020A80100206CF9002000409C45D0
:102A8000B40100208C4701202D431CEBE2360A3FA5
:102A90002D431CEBE2360ABF00000000C4010020F9
:102AA0002DE9F04F2DED068B87B01320FEF77CFA51
:102AB00007461220FEF778FA80461520FEF774FAD2
:102AC00081461420FEF770FA82461720FEF76CFA52
:102AD00083461620FEF768FA06900320FEF780FA78
:102AE00005900220FEF77CFA04900520FEF778FAA4
:102AF00003900420FEF774FA02900720FEF770FAA4
:102B000001900620FEF76CFA009048EA072000B218
:102B100000EE100AB8EEC00ADFED660A80EE201A59
:102B20009FED650A61EE000A644890ED000AB8EE78
:102B3000400A20EE800A624880ED000A4AEA092035
:102B400000B200EE100AB8EEC00ADFED5A0A80EEBD
:102B5000201A9FED590A61EE000A584890ED000ACC
:102B6000B8EE400A20EE800A564880ED000A06982A
:102B700040EA0B2000B200EE100AF8EEC00A9FED0A
:102B80004D1A80EE810ADFED4C0A60EE200A4B48B8
:102B900090ED000AB8EE400A20EE800A4A4880ED27
:102BA000000ADDE9040140EA012000B200EE100A4B
:102BB000B8EEC00A9FED3F1AC0EE010A9FED3E0A33
:102BC00020EE800A414880ED000ADDE9020140EA7A
:102BD000012000B200EE100AF8EEC00A9FED351A8F
:102BE00080EE810ADFED340A20EE200A384880EDBD
:102BF000000ADDE9000140EA012000B200EE100AFF
:102C0000F8EEC00A9FED2B1A80EE810ADFED2A0A4A
:102C100020EE200A2F4880ED000A2220FEF7C4F99A
:102C200006462320FEF7C0F904462046E11704EBD0
:102C3000D161491101EBC605B5F5806F1BDBA5F528
:102C400000600AF00EFF41EC1A0B9FED230B53ECD2
:102C5000102B0AF06DFF41EC190B9FED210B53EC8B
:102C6000102B0AF08DFC41EC180B0AF09DFE00B20F
:102C70001D49088019E028460AF00AFF41EC1A0BAA
:102C80009FED150B53EC102B0AF052FF41EC190B82
:102C90009FED130B53EC102B0AF072FC41EC180B58
:102CA0000AF082FE00B21049088007B0BDEC068B26
:102CB000BDE8F08F00FEFF4600007A44B801002016
:102CC00064010020680100206C01002070010020D8
:102CD0007401002078010020000000000000C03FC7
:102CE00000000000000037406001002010B5002007
:102CF00007498861074948760749087602F02EF8A7
:102D00000020064908700220FFF7DCFC10BD00001F
:102D1000E80700204C5001206C5001203F070020A4
:102D20002DE9F84140490C8B002077E03F49095CD0
:102D3000CC2971D13D4A411C515CDD296CD19446AE
:102D4000831C1CF80350C31C1CF80360031D1CF8F3
:102D500003308DF80030431D1CF803308DF801302E
:102D6000831D1CF803308DF80230C31D1CF803309E
:102D70008DF8033000F108031CF8037000220221D3
:102D800007E08BB20344DFF8A4C01CF803305A40BC
:102D9000491C0829F5DBBA4239D1DFF894C09CF808
:102DA00000C00CF1010C0CF00F03DFF888C09CF898
:102DB00000C0634520D0DFF880C0DFF8748098F849
:102DC00000800CF83850DFF8688098F800800CEB31
:102DD000C80C8CF801609DED000ADFF85CC0DFF8DC
:102DE000508098F800800CEBC80C8CED010ADFF8DD
:102DF00040C08CF8003009E0DFF840C0DCF800C0CB
:102E00000CF1010CDFF83480C8F800C000BF00F1FD
:102E1000090398B202E0FFE7411C88B200F1090102
:102E2000A14283D9BDE8F881D8060020D44D012005
:102E3000F4060020F5060020544E0120F80600207C
:102E40002DE9F84140490C8B002077E03F49095CAF
:102E5000CC2971D13D4A411C515CDD296CD194468D
:102E6000831C1CF80350C31C1CF80360031D1CF8D2
:102E700003308DF80030431D1CF803308DF801300D
:102E8000831D1CF803308DF80230C31D1CF803307D
:102E90008DF8033000F108031CF8037000220221B2
:102EA00007E08BB20344DFF8A4C01CF803305A409B
:102EB000491C0829F5DBBA4239D1DFF894C09CF8E7
:102EC00000C00CF1010C0CF00F03DFF888C09CF877
:102ED00000C0634520D0DFF880C0DFF8748098F828
:102EE00000800CF83850DFF8688098F800800CEB10
:102EF000C80C8CF801609DED000ADFF85CC0DFF8BB
:102F0000508098F800800CEBC80C8CED010ADFF8BB
:102F100040C08CF8003009E0DFF840C0DCF800C0A9
:102F20000CF1010CDFF83480C8F800C000BF00F1DC
:102F3000090398B202E0FFE7411C88B200F10901E1
:102F4000A14283D9BDE8F881FC060020544F01203E
:102F5000F4060020F5060020544E0120F80600205B
:102F600008B500BF0AF02CF800900AE003F0C4F89E
:102F70000448408C401C034948840121684609F0FC
:102F800065F9F3E7D84F012008B500BF0AF018F83B
:102F900000900DE09FED070A074800F011F8074880
:102FA000808C401C054988840121684609F04EF94F
:102FB000F0E700006F12833A28020020D84F01206A
:102FC00010B52DED108B86B00446F0EE408A00203F
:102FD000039004900590B6EE000A28EE800AB0EE49
:102FE00040FAFE4890ED000AF0EE409AFC4890ED61
:102FF000000AB0EE40AAFB4890ED000AF0EE40AAAD
:10300000F94890ED000AB0EE40BAF84890ED000A99
:10301000B5EEC00AF1EE10FA0FD1F54890ED000AB6
:10302000B5EEC00AF1EE10FA07D1F24890ED000AB1
:10303000B5EEC00AF1EE10FA7ED0EC4890ED000A31
:103040008DED030AEA4890ED000A8DED040AE94887
:1030500090ED000A8DED050ADDED030A60EEA00A91
:103060009DED041ADDED041A41EE210A9DED051ACD
:10307000DDED051A41EE210AB0EE600A07F00CFC06
:10308000B0EE408ADDED030AB0EE480A20EE800A79
:103090008DED030ADDED040AB0EE480A20EE800A49
:1030A0008DED040ADDED050AB0EE480A20EE800A37
:1030B0008DED050A9DED040ACF48D0ED000A20EE03
:1030C000200ADDED050ACD4890ED001AF0EE40BA79
:1030D00040EEC1BA9DED050AC948D0ED000A20EEC8
:1030E000200ADDED030AC44890ED001AB0EE40CA94
:1030F00000EEC1CA9DED030AC048D0ED000A20EEE3
:10310000200ADDED040ABE4890ED001AF0EE40CA38
:1031100040EEC1CABB4890ED000A60EE2B0ABA48E7
:1031200090ED000A00EEA80A80ED000AB54890ED87
:10313000000A60EE0C0A00E03FE0B44890ED000A9F
:1031400000EEA80A80ED000AAE4890ED000A60EE9D
:103150002C0AAF4890ED000A00EEA80A80ED000AA4
:10316000A94890ED000AAB48D0ED000A00EEAB0A8A
:10317000A948D0ED000A30EE200A80ED000AA348ED
:1031800090ED000AA348D0ED000A00EE8C0AA34897
:10319000D0ED000A30EE200A80ED000A9C4890ED48
:1031A000000A9C48D0ED000A00EEAC0A9C48D0ED25
:1031B000000A30EE200A80ED000A974890ED000AE0
:1031C00020EE0F0A8DED000A944890ED000A20EEE3
:1031D0000F0A8DED010A924890ED000A20EE0F0AC9
:1031E0008DED020A9DED000A20EE000ADDED010AD8
:1031F0009DED011A00EE810ADDED020A9DED021A35
:10320000B0EE409A00EE819AB7EE000A30EE490A1D
:1032100020EE290ADDED000A0AEE600ADDED010A62
:103220000AEEE00ADDED020A0BEE600A6B4880ED63
:10323000000AB7EE000A30EE490A20EE0A0ADDED78
:10324000000A09EEA00ADDED020A0AEEA00ADDED91
:10325000010A0BEE600A624880ED000AB7EE000A30
:1032600030EE490A20EE2A0ADDED010A09EEA00A35
:10327000DDED020A0AEE600ADDED000A0BEE200A1F
:10328000584880ED000AB7EE000A30EE490A20EEF9
:103290000B0ADDED020A09EEA00ADDED010A0AEED5
:1032A000200ADDED000A0AEEE00A4F4880ED000A30
:1032B0004A48D0ED000A60EEA00A494890ED001A95
:1032C000D0ED001A41EE210A464890ED001AD0EDEB
:1032D000001A41EE210A444890ED001AD0ED001A80
:1032E00041EE210AB0EE600A07F0D6FAB0EE408A4D
:1032F0003A4890ED000A20EE080A80ED000A3848AE
:1033000090ED000A20EE080A80ED000A354890EDA5
:10331000000A20EE080A80ED000A334890ED000A0A
:1033200020EE080A80ED000A2C4890ED000A20EEFD
:1033300000DA2B4890ED000A60EE00DA294890EDA3
:10334000000A20EE00EA284890ED000A60EE00EA4C
:103350003DEE2D0A30EE4E0A30EE6E0A314880ED19
:10336000000A1F4890ED000A1E48D0ED000A20EE2A
:10337000200A1A48D0ED000A1B4890ED001A00EE12
:10338000810AF0EE000A20EE200A274880ED000AAC
:10339000134890ED000A1448D0ED000A20EE200AF0
:1033A0000E48D0ED000A0F4890ED001A00EEC10A59
:1033B000F0EE000A20EE200A114880ED000A0748CE
:1033C00090ED000A0648D0ED000A20EE200A0548DC
:1033D000D0ED000A044890ED001A27E0A802002072
:1033E000AC020020B0020020B40200207C010020CA
:1033F0008001002084010020C8020020C4020020B7
:10340000C0020020980200209C020020A0020020A0
:10341000A402002094020020880100208C010020DA
:1034200090010020B8020020BC02002000EE810ABA
:10343000F0EE000A20EE200A2A4880ED000A3DEE58
:103440006D0A30EE4E0A30EE2E0A274880ED000A53
:10345000264890ED000AF7EE000AB4EEE00AF1EE1D
:1034600010FA03DDB7EE000A80ED000A1F4890ED68
:10347000000AFFEE000AB4EEE00AF1EE10FA03D201
:10348000BFEE000A80ED000A184890ED000A04F033
:103490008BFFB1EE400ADFED160A20EE200A84ED24
:1034A000190A1148D0ED000A0E4890ED000A05F007
:1034B00011F8DFED0F0A20EE200A84ED180A0D48FE
:1034C000D0ED000A0C4890ED000A05F003F8DFED9E
:1034D000080A20EE200A84ED1A0A06B0BDEC108B13
:1034E00010BD0000C4020020C8020020C00200205D
:1034F000ED2E6542B8020020BC0200201CB501215F
:10350000084601F085FA0121042001F081FA4FF408
:10351000C050009001208DF8040000208DF80600B6
:1035200003208DF8050001208DF807006946134837
:10353000FFF72EF94FF48070009001208DF8040001
:1035400000208DF8060003208DF8050001208DF87D
:10355000070069460A48FFF71BF94FF40061074866
:10356000FFF783F94FF480510448FFF77EF94FF4D9
:1035700080710348FFF777F91CBD0000000002408E
:1035800000080240B0EE401AB4EEE01AF1EE10FA74
:1035900009D2B1EE600AB4EEC01AF1EE10FA02DD03
:1035A0009FED020A7047B0EE410AFBE70000000001
:1035B00010B52DED0A8B044694ED490ADFED580A4B
:1035C00020EE200AF0EE408A94ED370ADFED540A2F
:1035D00020EE200AB0EE409A94ED5B0ADFED500A2F
:1035E00020EE200AB0EE408A4E48C0ED018A80ED00
:1035F000199A80ED318A94ED7F0A80ED490A29EE0F
:10360000080AF0EE409A28EE880AB0EE40AA94ED3F
:10361000480ADFED430A20EE200AF0EE40AA94EDBE
:10362000360ADFED3F0A20EE200AB0EE40BA94EDF4
:103630005A0ADFED3B0A20EE200AF0EE40BA94ED84
:103640007E0AB0EE40CA94ED530A3748D0ED1F0A07
:1036500080EE201A334880ED151A94ED410A334864
:10366000D0ED1F0A80EE201A2E4880ED2D1A94ED21
:10367000650A2F48D0ED1F0A80EE201A294880EDF8
:10368000451A94ED890A2B48D0ED1F0A80EE201AC6
:10369000244880ED5D1A2848C07948B1F0EE6A0AE6
:1036A000B0EE690A204A1F49002000F00BFB04E03D
:1036B0009FED220A1B4880ED160A1F48007A50B180
:1036C000F0EE4B0AB0EE4A0A184A16496031012062
:1036D00000F0F8FA04E09FED190A124880ED2E0A76
:1036E0001548407A50B1F0EE6B0A9FED140A104A6B
:1036F0000C49C031022000F0E5FA04E09FED0F0A0A
:10370000084880ED460AF0EE4C0A9FED0C0A094A83
:103710000B49032000F0D6FABDEC0A8B10BD000067
:1037200039FA8E3C9847012024490120C0490120E4
:103730005C4A0120F84A01201849012000000000DD
:10374000B848012070B52DED028B05460C46F0EE11
:10375000408A94ED010AB0EE408AB7EE000A84ED8B
:10376000030A84ED048AB0EE480A06F08BF920EED5
:10377000080A84ED050A032D01D0022D04D19FED26
:10378000090A84ED060A01E0C4ED068A94ED150AE3
:1037900084ED070A94ED000A84ED080ABDEC028B63
:1037A00070BD00000000000010B5AAB01822B44996
:1037B00024A8FCF7CAFE1822B14918311EA8FCF74C
:1037C000C4FE1822AE49303118A8FCF7BEFE1822FC
:1037D000AB49483112A8FCF7B8FE1822A84960315D
:1037E0000CA8FCF7B2FE1822A549783106A8FCF710
:1037F000ACFE1822A24990316846FCF7A6FE0024D0
:1038000088E024A800EB840090ED000A9D4800EBBE
:10381000840080ED000A12A800EB840090ED000AFD
:103820009848283000EB840080ED000A0CA800EBDB
:10383000840090ED000A9348403000EB840080ED56
:10384000000A24A800EB840090ED000A8E4800EBEB
:10385000840080ED000A12A800EB840090ED000ABD
:103860008948283000EB840080ED000A0CA800EBAA
:10387000840090ED000A8448403000EB840080ED25
:10388000000A1EA800EB840090ED000A7F4800EBC0
:10389000840080ED000A12A800EB840090ED000A7D
:1038A000DFED7B0A20EE200A7848283000EB840008
:1038B00080ED000A0CA800EB840090ED000ADFED1B
:1038C000740A20EE200A7148403000EB840080ED3D
:1038D000000A18A800EB840090ED000A6D4800EB88
:1038E000840080ED000A06A800EB840090ED000A39
:1038F0006848283000EB840080ED000A684600EB41
:10390000840090ED000A6348403000EB840080EDB5
:10391000000A641C062CFFF674AF9FED5F0A59483D
:1039200080ED070A9FED5D0A80ED210A9FED5C0A9C
:1039300080ED200A9FED5B0A80ED250A9FED5A0A73
:1039400080ED1E0A9FED590A80ED1F0A9FED580A6F
:1039500080ED060AB3EE000A80ED080AB1EE040A13
:1039600080ED220AB0EE0C0A80ED230A9FED4B0A8F
:1039700080ED240A9FED480A434880ED070A9FED39
:10398000470A80ED210A9FED460A80ED200A9FED4F
:10399000450A80ED250A9FED440A80ED1E0A9FED41
:1039A000430A80ED1F0A9FED420A80ED060AB3EE3E
:1039B000000A80ED080AB1EE040A80ED220AB0EE9A
:1039C0000C0A80ED230A9FED350A80ED240A9FED55
:1039D000320A2E4880ED070A9FED300A80ED210A59
:1039E0009FED340A80ED200AB3EE0E0A80ED250A21
:1039F0009FED310A80ED1E0A9FED300A80ED1F0A0F
:103A0000B7EE000A80ED060AB3EE000A80ED080A60
:103A1000B7EE000A80ED220AB0EE000A80ED230A1C
:103A20009FED1E0A80ED240A9FED1B0A194880EDC8
:103A3000070A9FED1A0A80ED210AB7EE080A80ED09
:103A4000200AB3EE040A80ED250A9FED1D0A80EDE1
:103A50001E0A9FED1C0A80ED1F0A01201A490870FA
:103A600048708870C8700871487100208871012002
:103A7000C8710872487200F0C9F82AB010BD000081
:103A800044E3000824490120C04901205C4A012088
:103A90009A99193FF84A01200AD7233CCDCC4C3DD6
:103AA00099BB163B00004842DBA2D740004092443D
:103AB000CDCC4C3FA69BC43A5EBA01400000EA441C
:103AC000DBA2574100005E4318490120F0B50446CF
:103AD000DDE90556002092E003EB800797ED003A00
:103AE000B0EE432A06EB800797ED003AF0EE432A4A
:103AF00005EB800797ED003AF0EE431A04EB8007E0
:103B000097ED003AF0EE430A01EB800797ED003A9B
:103B1000B0EE430AF5EEC01AF1EE10FA1AD8B4EE80
:103B2000C20AF1EE10FA04DBF5EEC00AF1EE10FA6B
:103B300009DCB4EEE20AF1EE10FA0AD8F5EEC00A9A
:103B4000F1EE10FA05D29FED303A04EB800787EDD5
:103B5000003A53E0F5EEC00AF1EE10FA22DDB4EEC1
:103B6000C20AF1EE10FA04DB9FED273AF0EE430AA9
:103B70003FE032EE613AB4EEC03AF1EE10FA38D2DC
:103B800032EE403A83EE211AB5EEC01AF1EE10FA89
:103B900003D29FED1D3AB0EE431A20EE813AF0EECB
:103BA000430A26E0F5EEC00AF1EE10FA21D2B4EE97
:103BB000E20AF1EE10FA04D89FED133AF0EE430A50
:103BC00017E032EEA13AB4EEC03AF1EE10FA10DD91
:103BD00030EE623A83EE211AB5EEC01AF1EE10FA19
:103BE00003D29FED093AB0EE431A20EE813AF0EE8F
:103BF000430A04EB8007C7ED000A00BF401C904257
:103C0000FFF66AAFF0BD00000000000000203EE0BB
:103C10009FED290A294901EB800181ED000A9FED02
:103C2000260A2649603101EB800181ED000A9FEDF3
:103C3000220A2249C03101EB800181ED000A9FED8B
:103C40001E0A1F4901EB800181ED000A9FED1A0A4F
:103C50001A49183101EB800181ED000A9FED160A27
:103C60001649783101EB800181ED000A9FED120ABF
:103C70001349483901EB800181ED000A9FED0E0ADE
:103C80000F49183101EB800181ED000A401C062824
:103C9000BEDB0A49243991ED010A81ED000A91ED5C
:103CA000190A81ED180A91ED310A81ED300A91ED82
:103CB000490A81ED480A704700000000BC47012016
:103CC000DC4801202DE9F0412DED0C8B88B0074632
:103CD0000C461646B0EE40BAB0EE609AB7EE000A57
:103CE000F0EE40BA84ED009A94ED010AD4ED000A9A
:103CF00030EE600A84ED020AB0EE4B0A21463846E7
:103D0000FFF720FD062104F10C0000F02BF9B0EEC6
:103D100040CAB7EE000A3CEE000AB0EE408A8E4878
:103D2000807850B194ED020AB0EEC00AD6ED210AB7
:103D3000B4EEE00AF1EE10FA01DB012000E0002011
:103D400080468548C078D0B196ED220AB5EEC00A0B
:103D5000F1EE10FA13DD94ED020AB0EEC00AD6EDD2
:103D6000220AB4EEE00AF1EE10FA08DD9FED7B0ABC
:103D700084ED160A08B0BDEC0C8BBDE8F081D4EDE3
:103D8000028A75480079B0B196ED230AB5EEC00AF3
:103D9000F1EE10FA0FDD96ED230AC8EE800AB0EEC0
:103DA00060DAB0EE4D0A05F06DFED6ED230A20EE86
:103DB000200AF0EE408A6848007800287ED0B8F1EA
:103DC000000F7BD09FED65AA6348407948B194ED20
:103DD000020AB0EEC00AD6ED240A20EE200AB0EEA8
:103DE00040AA96ED070A70EE0AAA5B48807910B1E6
:103DF00096ED060A01E09FED590AF0EE40CA002553
:103E000013E0B1EE680A20EE2B0A04F10C0000EB7F
:103E10008500D0ED000A20EE200AC0EE080A02A8B4
:103E200000EB8500C0ED000A6D1C062DE9DB4A4859
:103E3000407868B106F1580006F1400106F1280308
:103E40000622CDE9001004F1240102A8FFF73EFE8E
:103E5000002562E004F1240000EB850090ED000AEB
:103E600004F13C0000EB8500D0ED000A30EE600A62
:103E700060EE2C0A80EE880A02A800EB8500D0EDE7
:103E8000000A30EEC00A04F1240000EB8500D0EDFA
:103E9000000A60EEAA0A80EE881A30EE410A06EBAC
:103EA0008500D0ED000A60EE209A04F1240000EBBA
:103EB000850090ED000ADFED2A0A00E02FE000EE19
:103EC000A90A04F1240000EB850080ED000A2248D5
:103ED000807908B304F1240000EB850090ED000A1E
:103EE00004F13C0000EB8500D0ED000A70EE600AA2
:103EF00004F13C0000EB850090ED000A96ED081AF5
:103F0000DFED171A21EE211A01EE200A04F13C0020
:103F100000EB850080ED000A6D1C062D9ADB9FEDFD
:103F20000F0A84ED160A002512E094ED160A04F13A
:103F3000240000EB8500D0ED000A04F10C0000EB3A
:103F4000850090ED001A00EE810A84ED160A6D1CC2
:103F5000062DEADB00BF0DE7184901200000000034
:103F60000AD7A33B0246DFED0C0AB0EE600A002040
:103F70000FE002EB800393ED001A02EB8003D3ED18
:103F8000001AF0EE400A41EE210AB0EE600A431C2E
:103F9000D8B28842EDDB70470000000070B5002108
:103FA00000230F22C4781CB3174C246804F4E06487
:103FB000C4F5E064C4F30721C1F10404E3B20A418B
:103FC00044789C40E1B28478144021430C07210ED0
:103FD0000E4C05786155047804F01F050124AC40AF
:103FE00005786D11AD0005F1E025C5F8004109E047
:103FF000047804F01F050124AC40054D06787611C5
:1040000045F8264070BD00000CED00E000E400E043
:1040100080E100E002490143024A1160704700005C
:104020000000FA050CED00E000B58BB001A8FEF72A
:104030001EFC08A802F0C2FD03A802F073FD0121D6
:10404000084600F0F5FC0121032000F0E1FC2020EF
:10405000019002208DF8080003208DF8090000204F
:104060008DF80A0001208DF80B0001A93C48FEF7ED
:104070008FFB012205213A48FEF7D2FB40F60840AB
:10408000019002208DF8080003208DF8090000201F
:104090008DF80A0001208DF80B0001A93148FEF7C8
:1040A00077FB012203212F48FEF7BAFB01220A21E8
:1040B0002C48FEF7B5FB01220B212A48FEF7B0FB86
:1040C00042F20F7009901B20ADF820000020ADF8DF
:1040D0002800ADF822008DF82A0008A94FF0804092
:1040E00002F02AFD6020ADF80C000020ADF81000B1
:1040F000ADF818000820ADF81A004001ADF81C001A
:104100000020ADF81E000120ADF80E000020059043
:1041100003A94FF0804002F0D1FB0020059003A9D5
:104120004FF0804002F012FC0020059003A94FF0F0
:10413000804002F06BFC0020059003A94FF0804006
:1041400002F0B4FC0121880702F0A8FB01218807D6
:1041500002F08CFB0121880702F094FB0BB000BD3C
:10416000000002400004024000B58BB001A8FEF739
:104170007EFB08A802F022FD03A802F0D3FC012177
:10418000022000F055FC0121032000F041FCC0207A
:10419000019002208DF8080003208DF8090000200E
:1041A0008DF80A0001208DF80B0001A93A48FEF7AE
:1041B000EFFA022206213848FEF732FB02220721DD
:1041C0003548FEF72DFB0320019002208DF80800F2
:1041D00003208DF8090000208DF80A0001208DF8D9
:1041E0000B0001A92D48FEF7D3FA022200212B482B
:1041F000FEF716FB022201212848FEF711FB42F2CE
:104200000F7009902920ADF820000020ADF828009B
:10421000ADF822008DF82A0008A9214802F08CFC94
:104220006020ADF80C000020ADF81000ADF81800CB
:104230000820ADF81A004001ADF81C000020ADF8D0
:104240001E000120ADF80E000020059003A91448BF
:1042500002F034FB0020059003A9114802F076FB20
:104260000020059003A90E4802F0D0FB0020059025
:1042700003A90B4802F01AFC0121094802F00EFBC9
:104280000121074802F0F2FA0121054802F0FAFA8A
:1042900002F0E8F90BB000BD00000240000402404B
:1042A0000004004000B58BB001A8FEF7E0FA08A8B2
:1042B00002F084FC03A802F035FC0121042000F088
:1042C000B7FB0121022000F0A3FBC02001900220D7
:1042D0008DF8080003208DF8090000208DF80A00F1
:1042E00001208DF80B0001A92948FEF751FA02229E
:1042F00006212748FEF794FA022207212448FEF7F8
:104300008FFA42F20F7009902920ADF820000020AA
:10431000ADF82800ADF822008DF82A0008A91D4844
:1043200002F00AFC6020ADF80C000020ADF810008F
:10433000ADF818000820ADF81A004001ADF81C00D7
:104340000020ADF81E000120ADF80E000020059001
:1043500003A9104802F0B2FA08210E4802F0ECFA64
:1043600003A90C4802F0F2FA08210A4802F040FBC7
:104370000121084802F092FA0121064802F076FA7B
:104380000121044802F07EFA02F06CF90BB000BD86
:10439000000402400008004030B52DED028B87B0CC
:1043A00016E3FC48FC49097810F83150FA490978BD
:1043B00000EBC1004478F748F749097800EBC100E9
:1043C00090ED010AB0EE408AF3490978481CC11704
:1043D00000EB11710911A0EB0111EF4A1170012DD1
:1043E00039D1032294FBF2F2D0B2032294FBF2F310
:1043F00002FB1342D1B2E94A00924832019248329C
:104400000292483203924832049248320592903226
:10441000069207281EDAB5EEC08AF1EE10FA19DB13
:104420009FEDDF0AB4EEC08AF1EE10FA12D821B97E
:104430005DF8202082ED028A0CE0012904D15DF8AC
:10444000202082ED038A05E0022903D15DF82020B7
:1044500082ED048ABBE2022D03D0052D01D0082D88
:104460003DD1200904F00F01CE4A0392CE4A0492B6
:10447000CE4A0592CE4A069204282FDA06292DDA72
:10448000022D0CD1B5EEC08AF1EE10FA07DD03AAB9
:1044900052F8202002EB810282ED008A1EE0052DF9
:1044A0000DD1B5EEC08AF1EE10FA08DB03AA52F87E
:1044B0002020283202EB810282ED008A0EE0082DD6
:1044C0000CD1B5EEC08AF1EE10FA07DB03AA52F860
:1044D0002020403202EB810282ED008A77E2062D35
:1044E00023D1B448C0790128B4D1042CB2DAF0EE5B
:1044F000488AB7EE000AF4EEC08AF1EE10FA03DD46
:10450000B7EE000AF0EE408ABFEE000AF4EEC08A71
:10451000F1EE10FA03D2BFEE000AF0EE408AB0EEE0
:10452000680A204600F08CFC51E2072D0ED1002CC9
:1045300090D1B6EE000AB4EEC08AF1EE10FA01DBBB
:10454000012000E000209C49087040E2032D3CD18E
:104550009448039094480490944805909448069099
:10456000042C05DA03A850F8240080ED1F8A2BE004
:10457000082C06DA201F03A951F8200080ED1E8ABE
:1045800022E0082C0FD1B5EEC08AF1EE10FA1BDB49
:10459000B7EE000AB4EEC08AF1EE10FA14D88748DC
:1045A00080ED008A10E0092C0ED1B5EEC08AF1EE44
:1045B00010FA09DBB7EE000AB4EEC08AF1EE10FA89
:1045C00002D87F4880ED008A01E2092D4ED18CB9D6
:1045D0009FED7C0AB4EEC08AF1EE10FAA4DDB3EED2
:1045E000040AB4EEC08AF1EE10FA9DD2764880ED4E
:1045F000008AECE1012C11D19FED720AB4EEC08A61
:10460000F1EE10FA90DDB2EE040AB4EEC08AF1EEDB
:1046100010FA89D26D4880ED008AD8E1022C11D1C0
:10462000B0EE080AB4EEC08AF1EE10FA8DDB9FED11
:10463000680AB4EEC08AF1EE10FA86D8654880EDBB
:10464000008AC4E1032CBFD1B0EE080AB4EEC08AE0
:10465000F1EE10FAB8DB9FED5E0AB4EEC08AF1EE1F
:1046600010FAB1D85C4880ED008AB0E1042D0CD17D
:104670002CB9FEF73BFB002058490870A7E1012C3C
:10468000A2D10320FEF71EF8A1E10A2D2CD1494842
:10469000C079012898D11CB9514880ED008A96E173
:1046A000012C03D14E4880ED018A90E1022C03D108
:1046B0004B4880ED028A8AE1032C03D1484880ED03
:1046C000078A84E1042C94D1B6EE000A38EE000A81
:1046D000BCEEC00A10EE100AC0B208B1012000E022
:1046E00000203F49886172E10B2D52D13148C079D9
:1046F000012892D11CB93B4880ED008A67E1012C6A
:1047000003D1384880ED018A61E1022C03D135489C
:1047100080ED028A5BE1032C03D1324880ED038AED
:1047200055E1042C03D12F4880ED048A4FE1052C7C
:1047300003D12C4880ED058A49E1062C10D1B6EE54
:10474000000A38EE000ABCEEC00A10EE100A254935
:1047500008760846007E022887D90220087636E1CE
:10476000072C8BD1B6EE000A38EE000ABCEEC00A68
:1047700010EE100AC0B2C8B307F0F4FB01201949CB
:1047800048769FED190A084680ED070A07F02EFCCF
:104790001DE130E0544E0120F5060020CC0200203F
:1047A0000000484324490120C04901205C4A0120FF
:1047B000F84A012020500120200700203407002063
:1047C00038070020CDCC4C3D2407002028070020CE
:1047D000000070422C070020300700203F07002017
:1047E000E80700204C50012000000000FFE70020F7
:1047F0007D494876EBE00C2D47D17C48C0790128F3
:1048000088D11CB97A4880ED008AE0E0012C03D100
:10481000774880ED018ADAE0022C03D1744880EDFC
:10482000028AD4E0032C03D1714880ED038ACEE0E4
:10483000042C03D16E4880ED048AC8E0052C03D116
:104840006B4880ED058AC2E0062C19D1B6EE000A4D
:1048500038EE000ABCEEC00A10EE100AC0B280B1F9
:1048600007F080FB0120624908761FED210A084607
:1048700080ED070A1FED240A80ED080A07F0B6FB59
:10488000A5E000205A490876A1E00D2D03D184BB94
:10489000FEF72CFA9BE00F2D38D1B6EE000A38EE69
:1048A000000ABCEEC00A10EE101AC9B209B101210B
:1048B00000E0002108460A2C25D2DFE804F00508B4
:1048C0000B0E1114171B1E214A4908701CE04949A0
:1048D000487019E04749887016E04649C87013E0EF
:1048E0004449087110E0434948710DE0414988711D
:1048F0000AE040E03F49C87106E03E49087203E023
:104900003C49487200E000BF00BF60E0102D33D189
:104910008CBB1FED4B0A384880ED170A1FED4E0A7D
:1049200080ED180A1FED500A80ED190A1FED520A9A
:1049300080ED1A0A1FED540A80ED150A1FED560A84
:1049400080ED160A1FED580A2C4880ED910A1FEDE4
:104950005A0A80EDA30A1FED5C0A80ED900A1FED54
:104960005E0A80EDA20A1FED600A80EDB40A1FED19
:10497000620A80EDC60A2AE00E2D28D10CBBB6EEE5
:10498000000A38EE000ABCEEC00A10EE100AC0B2EF
:10499000C0B101201A4908700020FDF793FE0120E4
:1049A00000F0DCF9154890ED6D0ADFED160AB4EE63
:1049B000E00AF1EE10FA0ADD1FED750A002000F0A2
:1049C0003FFA04E000200E49087000F0C7F900BF6C
:1049D0000D4800780D49097888427FF4E2AC07B0B1
:1049E000BDEC028B30BD00004C5001202050012056
:1049F0006C50012018490120B44B0120CC0200204A
:104A00003F0700203333B33EF5060020F4060020B4
:104A100029B1064A12680243044B1A6004E0034AB3
:104A200012688243014B1A60704700003038024020
:104A300029B1064A12680243044B1A6004E0034A93
:104A400012688243014B1A607047000040380240F0
:104A500029B1064A12680243044B1A6004E0034A73
:104A600012688243014B1A607047000020380240F0
:104A700029B1064A12680243044B1A6004E0034A53
:104A800012688243014B1A607047000044380240AC
:104A900029B1064A12680243044B1A6004E0034A33
:104AA00012688243014B1A607047000024380240AC
:104AB000F0B5002100220024022500260223324FF7
:104AC0003F6807F00C0121B1042905D0082937D12E
:104AD00005E02E4F076036E02D4F076033E02A4F88
:104AE0003F1F3F68C7F38056274F3F1F3F6807F0BF
:104AF0003F036EB1264FB7FBF3F7DFF88CC0ACF184
:104B0000040CDCF800C0CCF3881C07FB0CF40CE0B0
:104B10001E4FB7FBF3F7DFF870C0ACF1040CDCF804
:104B200000C0CCF3881C07FB0CF4174F3F1F3F68F5
:104B3000C7F301477F1C7D00B4FBF5F7076002E077
:104B4000124F076000BF00BF0F4F3F6807F0F00132
:104B50000909104F7A5C0768D74047600A4F3F68E1
:104B600007F4E051890A0B4F7A5C4768D7408760A9
:104B7000054F3F6807F46041490B064F7A5C476870
:104B8000D740C760F0BD0000083802400024F400A0
:104B900000127A004007002010B52DED028B04466C
:104BA0003E480078D8B134B1012C08D0022C0AD08C
:104BB000032C10D10BE03A4890ED008A0EE0384803
:104BC00090ED018A0AE0364890ED028A06E034480A
:104BD00090ED038A02E09FED338A00BF3FE034B1DD
:104BE000012C11D0022C1CD0032C34D126E02E48ED
:104BF000C08800EE900AF8EE600AB0EE600A06F097
:104C0000ABFEB0EE408A29E02748008800EE900A0B
:104C1000F8EE600AB0EE600A06F09EFEB0EE408A42
:104C20001CE02148408800EE900AF8EE600AB0EEE1
:104C3000600A06F091FEB0EE408A0FE01A488088C4
:104C400000EE900AF8EE600AB0EE600A06F084FE0C
:104C5000B0EE408A02E09FED138A00BF00BFB7EEBE
:104C6000001AFFEE000AB0EE480A06F05FFEB0EE52
:104C7000408A6CB90D48007850B19FED0D0AB4EE32
:104C8000C08AF1EE10FA03DD9FED090AB0EE408A0A
:104C9000B0EE480ABDEC028B10BD0000BC0600203F
:104CA000944B01200000000010500120200700203C
:104CB0009A9919BF0148007870470000BC0600208F
:104CC00010B52DED028B04462048007810B3042C5B
:104CD0001ED21F4800EB840090ED000A14B9DFEDEE
:104CE0001D0A01E0DFED1C0AB0EE608AB4EEC80ACE
:104CF000F1EE10FA06DCF1EE480AB4EEE00AF1EE4D
:104D000010FA03D20120BDEC028B10BD0020FAE79F
:104D10000020F8E72046FFF73FFF14B9DFED0D0A4A
:104D200001E0DFED0D0AB0EE608AB4EEC80AF1EEE4
:104D300010FA06DCF1EE480AB4EEE00AF1EE10FAE1
:104D400001D20120DFE70020DDE70000BC060020E3
:104D5000944B0120CDCC4C3DCDCCCC3D10B5044680
:104D6000F4B3BFEE000A2E4880ED000A2D48C0883B
:104D700000EE900AF8EE600AB0EE600A06F0ECFD74
:104D8000294880ED000A2748008800EE900AF8EED6
:104D9000600AB0EE600A06F0DFFD234880ED010AEC
:104DA0002048408800EE900AF8EE600AB0EE600AF3
:104DB00006F0D2FD1C4880ED020A1A48808800EEF9
:104DC000900AF8EE600AB0EE600A06F0C5FD1648DB
:104DD00080ED030A0A20154908800120144900E0EB
:104DE00001E008701AE00020114908709FED110AD7
:104DF0000B4880ED000A9FED0F0A80ED010A9FED40
:104E00000D0A80ED020A9FED0B0A80ED030A0020D7
:104E100009490870094908700449088010BD00005C
:104E2000944B012010500120A44B0120C606002005
:104E3000BC06002000000000C4060020C5060020BB
:104E400010B52DED028B0446B0EE408A042C16D22C
:104E5000B7EE001AFFEE000AB0EE480A06F066FD53
:104E6000084800EB840080ED000A08F0A9F8064924
:104E70000860012005490870002005490870BDEC54
:104E8000028B10BD944B0120C0060020C4060020F8
:104E9000C506002070B52DED048B7248007810B95E
:104EA000BDEC048B70BD7048007800287DD16F4840
:104EB00000780028FAD16E4800780028F6D16D48B5
:104EC000C08800EE900AF8EE600AB0EE600A06F0C4
:104ED00043FDB0EE408A6748008800EE900AF8EE85
:104EE000600AB0EE600A06F037FDF0EE408A6148D5
:104EF000408800EE900AF8EE600AB0EE600A06F014
:104F00002BFDB0EE409A5B48808800EE900AF8EEE8
:104F1000600AB0EE600A06F01FFDF0EE409A5648B7
:104F2000008870B154480088401E53490880534897
:104F300080ED008AC0ED018A80ED029AC0ED039AEF
:104F400069E04E4890ED002A38EE422AF0EE421A0F
:104F5000F5EEC01AF1EE10FA03D2B1EE612AF0EECE
:104F6000421A464890ED012A38EEC20AB5EEC00A50
:104F7000F1EE10FA03D2B1EE402AB0EE420A3F48F9
:104F800090ED022A79EE420AF5EEC00AF1EE10FA2F
:104F900003D2B1EE602AF0EE420A384890ED032ABF
:104FA00039EEC21AB5EEC01A00E035E0F1EE10FAA3
:104FB00003D2B1EE412AB0EE421A304880ED008AA9
:104FC000C0ED018A80ED029AC0ED039A9FED2C2A74
:104FD000F4EEC21AF1EE10FA14DC9FED292AB4EEB9
:104FE000C20AF1EE10FA0DDC9FED252AF4EEC20A9A
:104FF000F1EE10FA06DC9FED222AB4EEC21AF1EEB1
:1050000010FA07DD002017490870184908701D497B
:10501000087045E700BF00BF1448007800B93FE7BB
:1050200007F0CEFF044618480068251AB5F5FA7F48
:1050300016D900200B4908709FED140A144880ED22
:10504000000A9FED120A80ED010A9FED100A80ED23
:10505000020A9FED0E0A80ED030A0120094908703B
:1050600000BF1DE7BC0600203F070020C40600204B
:105070001807002010500120C6060020A44B012074
:10508000CDCC4C3DC5060020C0060020000000002D
:10509000944B012008B500BF07F092FF00900AE092
:1050A00006F0F4FA0448008D401C034908850A21E3
:1050B000684607F0CBF8F3E7D84F012010B52DED87
:1050C000068B77487749096850F82100062861D097
:1050D00073487449096850F8210008285AD070486C
:1050E0007049096850F82100072853D06C486D4971
:1050F000096850F8210002284CD0694869490968BC
:1051000050F821000C2845D065486649096850F8D8
:1051100021000D283ED062486249096850F82100FC
:105120000E2837D05E485F49096850F821000F28E3
:1051300030D05B485B49096850F82100132829D01A
:1051400057485849096850F82100122822D054487D
:105150005449096850F8210010281BD05048514983
:10516000096850F82100032814D04D484D490968BA
:1051700050F8210006280DD049484A49096850F8DE
:105180002100192806D046484649096850F82100F0
:1051900011282DD14448C088A0F57A70002804DD7C
:1051A0004148C088A0F57A7003E03F48C088C0F548
:1051B0007A7064281DDD3D498988A1F6B83008F071
:1051C00050FC41EC1A0B9FED3A0B53EC102B08F0FE
:1051D00093FA41EC190B9FED380B53EC102B08F0B0
:1051E000A7FC41EC180B08F099F93549C1F86801A2
:1051F00053E0344890ED000AB5EEC00AF1EE10FA23
:1052000040D1314890ED000AB5EEC00AF1EE10FA37
:105210000AD12B4890ED250A80ED240AB7EE000A4A
:10522000294880ED000A38E0274890ED000AF7EEA3
:10523000000AB4EE600AF1EE10FA2ED1204890ED8B
:105240002F0AF3EE0E0AB4EEE00AF1EE10FA04DDD6
:10525000B3EE0E0A80ED5A0A1FE0194890ED2F0AAE
:10526000FBEE0E0AB4EEE00AF1EE10FA04D2BBEE49
:105270000E0A80ED5A0A10E0114890ED2F0A80EDD9
:105280005A0A0AE00F4890ED000A0D4880ED5A0ACC
:105290009FED0E0A0C4880ED000ABDEC068B10BD98
:1052A0000C080020B0000020604C012010500120AC
:1052B0000000000000408F40000000000000694036
:1052C000CC020020C8000020AC000020000000003C
:1052D00010B52DED088BE148E149096850F821002F
:1052E00002285AD0DD48DE49096850F82100042818
:1052F00053D0DA48DA49096850F821000C284CD01C
:10530000D648D749096850F821000D2845D0D34820
:10531000D349096850F821000E283ED0CF48D04923
:10532000096850F821000F2837D0CC48CC490968CB
:1053300050F82100132830D0C848C949096850F8EE
:105340002100122829D0C548C549096850F8210014
:10535000102822D0C148C249096850F8210001280C
:105360001BD0BE48BE49096850F82100032814D05C
:10537000BA48BB49096850F8210006280DD0B74843
:10538000B749096850F82100192806D0B348B44934
:10539000096850F82100112873D1B2484088A0F55F
:1053A0007A70002804DDAF484088A0F57A7003E0E9
:1053B000AC484088C0F57A70642821DDAA49098884
:1053C000A1F6B83008F04DFB41EC1B0B9FEDA70B8D
:1053D00053EC102B08F090F941EC1A0B08F092F8FE
:1053E00041EC190B9FEDA30B53EC102B08F0A0FB25
:1053F00041EC180B08F092F8A049C1F818037BE0C3
:105400009F4890ED000AFFEE000AB4EE600AF1EE4C
:1054100010FA37D19B4890ED000AB5EEC00AF1EEC4
:1054200010FA0AD1954890EDA30A80EDA20AB7EED2
:10543000000A944880ED000A5EE0904890EDAD0AC5
:10544000DFED910AB4EEE00AF1EE10FA04DD9FED13
:105450008E0A80EDC60A4FE0884890EDAD0ADFED78
:105460008B0AB4EEE00AF1EE10FA04D29FED870A3F
:1054700080EDC60A40E0814890EDAD0A80EDC60A95
:105480003AE0D0E07E4890ED000AFFEE000AB4EE6C
:10549000600AF1EE10FA2FD09FED7D0A794880ED79
:1054A000000A774890ED000A7A4880ED010A90EDF5
:1054B000010ADFED750AB4EEE00AF1EE10FA05DD3F
:1054C0009FED710A6D4880EDC60A15E0714890EDB8
:1054D000010ADFED6E0AB4EEE00AF1EE10FA05D231
:1054E0009FED6A0A654880EDC60A05E0694890EDBF
:1054F000010A624880EDC60A5A480088A0F57A7011
:10550000002804DD57480088A0F57A7003E055486C
:105510000088C0F57A70642821DD53494988A1F6D6
:10552000B83008F09EFA41EC1B0B9FED500B53EC8A
:10553000102B08F0E1F841EC1A0B07F0E3FF41EC07
:10554000190B9FED4C0B53EC102B08F0F1FA41ECCA
:10555000180B07F0E3FF4949C1F8D0027AE04E4842
:1055600090ED000AFFEE000AB4EE600AF1EE10FAC8
:1055700036D14A4890ED000AB5EEC00AF1EE10FAB5
:105580000AD13E4890ED910A80ED900AB7EE000AEC
:10559000424880ED000A5DE0384890ED9B0ADFED5F
:1055A0003A0AB4EEE00AF1EE10FA04DD9FED360A95
:1055B00080EDB40A4EE0314890ED9B0ADFED330AEE
:1055C000B4EEE00AF1EE10FA04D29FED300A80ED5D
:1055D000B40A3FE0294890ED9B0A80EDB40A39E017
:1055E0002D4890ED000AFFEE000AB4EE600AF1EEDD
:1055F00010FA2FD09FED260A284880ED000A264891
:1056000090ED000A234880ED000A90ED000ADFEDDE
:105610001E0AB4EEE00AF1EE10FA05DD9FED1A0A5B
:10562000164880EDB40A15E01A4890ED000ADFED47
:10563000170AB4EEE00AF1EE10FA05D29FED130A54
:105640000E4880EDB40A05E0124890ED000A0B48C0
:1056500080EDB40ABDEC088B10BD00000C080020E2
:10566000B0000020604C012010500120000000001C
:1056700000408F400000000000005940CC02002094
:10568000C4000020A800002000004842000048C2DA
:10569000000000009C4C0120C0000020A40000205D
:1056A00000200549086008460068801E034908601C
:1056B0000020014908607047B0000020B4000020BD
:1056C00010B57D487D49096850F82100042862D052
:1056D00003DCE0B301287CD185E00B2802D00C2844
:1056E000F9D17FE0764800680B2824D0754890ED0A
:1056F000910A80ED900A90EDA30A80EDA20A90ED48
:10570000250A80ED240A90ED6D0A80ED6C0ABFEE4B
:10571000000A6D4880ED000ABFEE000A6B4880ED7C
:10572000000A9FED6B0A6B4880ED000A9FED680A46
:10573000694880ED000A604960480068401C51F8E3
:105740002000142804D301206449087003E003E01A
:1057500000206249087067E09FED610A594880EDBA
:105760006C0A90ED6D0ADFED5F0AB4EEE00AF1EE2F
:1057700010FA0FDB90ED6D0AF6EE080AB4EEE00ABF
:10578000F1EE10FA06D800214B4A4C480068401C44
:1057900042F8201048E04A480068042808D04948E8
:1057A00090EDA30A80EDA20A90ED910A80ED900A97
:1057B0009FED470A4C4880ED040A01204B490860E0
:1057C000BFEE000A404880ED000ABFEE000A3F48E5
:1057D00000E028E080ED000A9FED3D0A3E4880EDA4
:1057E000000A21E020E09FED3A0A364880ED6C0A7D
:1057F00001203F490870334890ED6D0ADFED3D0A06
:10580000B4EEE00AF1EE10FA0CD800212A4A2B4837
:105810000068401C42F82010002037490870022020
:10582000FCF750FF00E000BF00BF23482349096890
:1058300050F82100224908601F4920480068401C98
:1058400051F82000B0F57A7F0AD81C480068401C47
:1058500051F820000A2803D301202849087002E0EB
:10586000002026490870144914480068401C51F86B
:10587000200005280BD311480068401C51F8200077
:10588000401F0A460D490968491C42F821000A498F
:105890000A480068401C51F820000A280AD8074826
:1058A000006817490968884204D204480068801CCF
:1058B0000249086010BD00000C080020B000002064
:1058C000DC000020CC020020C0000020C40000202A
:1058D00000000000CC000020C8000020BE00002016
:1058E0003333333F6666263F2C0B0020D400002064
:1058F000BF000020CDCC4C3EBC000020BD000020ED
:10590000B400002000B5002002490860FFF7C8FE7F
:1059100000BD0000B000002021B1028842F040022A
:10592000028004E002884FF6BF731A40028070477D
:1059300000B587B001210620FFF76AF8012188032E
:10594000FFF776F805220D213B48FCF769FF052299
:1059500002213A48FCF764FF052203213748FCF78F
:105960005FFF4FF40050009002208DF804000320E8
:105970008DF8050000208DF8060001208DF8070045
:1059800069462D48FCF704FF0420009069462B4827
:10599000FCF7FEFE0820009069462848FCF7F8FE58
:1059A000274800F04FF80820ADF814000020ADF8AB
:1059B0001000ADF80E000720ADF818004FF400609D
:1059C000ADF80C000020ADF80800ADF816004FF45B
:1059D0008270ADF80A004FF40070ADF8120002A911
:1059E000174800F087F801211548FFF795FF0121BE
:1059F0000420FFF70DF801210420FFF709F810201B
:105A0000009001208DF8040000208DF80600694602
:105A10000A48FCF7BDFE2020009069460748FCF7C5
:105A2000B7FE10210548FCF720FF20210348FCF7B2
:105A30001CFF07B000BD0000000402400008024047
:105A40000038004010B504462448844208D10121A2
:105A50008014FFF71DF80021A014FFF719F83CE0AF
:105A60001F48844208D101210014FEF7F1FF0021F4
:105A70002014FEF7EDFF30E01A48844208D10121DE
:105A8000C013FEF7E5FF0021E013FEF7E1FF24E07D
:105A90001548844208D101214014FEF7F9FF002186
:105AA0006014FEF7F5FF18E01048844209D1012187
:105AB0000805FEF7EDFF00214FF48010FEF7E8FF28
:105AC0000BE00B48844208D101214805FEF7E0FFB6
:105AD00000214FF40010FEF7DBFF10BD0030014045
