:020000040800F2
:10000000C0A8012031030008390300083B030008A1
:100010003D0300083F030008410300080000000002
:10002000000000000000000000000000790200084D
:100030004503000800000000CD0200084D5E0008E6
:100040004B0300084B0300084B0300084B03000858
:100050004B0300084B0300084B0300084B03000848
:100060004B0300084B0300084B0300084B03000838
:100070004B0300084B030008A11D00084B030008B8
:100080004B030008C91D00084B0300084B03000880
:100090004B0300084B0300084B0300084B03000808
:1000A0004B0300084B0300084B0300084B030008F8
:1000B0004B0300084B0300084B0300084B030008E8
:1000C0004B0300084B0300084B0300084B030008D8
:1000D0004B0300081968000805690008F56A000864
:1000E0004B0300084B0300084B0300084B030008B8
:1000F0004B0300084B0300084B030008F51D0008E4
:100100004B0300084B0300084B0300084B03000897
:1001100001650008156700084B0300084B03000841
:100120004B0300084B0300084B0300084B03000877
:100130004B0300084B0300084B0300084B03000867
:100140004B0300084B0300084B0300084B03000857
:100150004B0300084B0300084B0300081D6B00080D
:100160004B0300084B0300084B0300084B03000837
:100170004B0300084B0300084B0300084B03000827
:100180004B0300084B03000800F002F800F064F88D
:100190000AA090E8000C82448344AAF10107DA45E2
:1001A00001D100F059F8AFF2090EBAE80F0013F0D0
:1001B000010F18BFFB1A43F0010318472CDB0000A6
:1001C0004CDB00000A444FF0000C10F8013B13F028
:1001D000070408BF10F8014B1D1108BF10F8015BA0
:1001E000641E05D010F8016B641E01F8016BF9D193
:1001F00013F0080F1EBF10F8014BAD1C0C1B09D1EA
:100200006D1E58BF01F801CBFAD505E014F8016B5B
:1002100001F8016B6D1EF9D59142D6D370470000ED
:100220000023002400250026103A28BF78C1FBD8FF
:10023000520728BF30C148BF0B607047642900F0E7
:100240000381732900F04E82002070471FB50DF026
:1002500052FB1FBD10B510BD00F0B0FA1146FFF7FC
:10026000F5FF09F065FF00F0CEFA03B4FFF7F2FFE7
:1002700003BC09F0BDFB00002A4B19680868B0E810
:10028000F04F80F30988BFF36F8F4FF0000080F3C9
:10029000118870470000000006480068006880F37D
:1002A000088862B661B6BFF34F8FBFF36F8F00DF70
:1002B00000BF00BF08ED00E0DFF80C00016841F46A
:1002C00070010160704700BF88ED00E0EFF3098026
:1002D000BFF36F8F134B1A681EF0100F08BF20ED8D
:1002E000108A20E9F04F106008B44FF0500080F3FE
:1002F0001188BFF34F8FBFF36F8F0BF051FD4FF09D
:10030000000080F3118808BC19680868B0E8F04F55
:100310001EF0100F08BFB0EC108A80F30988BFF3FD
:100320006F8F704758070020EFF30580704700007B
:100330000948804709480047FEE7FEE7FEE7FEE779
:10034000FEE7FEE7FEE7FEE7FEE7FEE704480549B5
:10035000054A064B70470000855F000889010008C8
:10036000C0A20120C0A80120C0A40120C0A4012077
:10037000704700000FB4044910B503AA029800F0BA
:10038000B5F910BC5DF814FB200000202DE9F04108
:100390000E460446002020622046E168884730B3BC
:1003A000252805D0D4E901219047206A401CF2E7B6
:1003B000E168204600278847050018D0A5F14100D4
:1003C000192802D820354FF40067324629462046C6
:1003D0002760FFF733FF40B1012804D0F61D26F057
:1003E00007060836D8E7361DD6E72846DAE7206A3A
:1003F000BDE8F08170B50C460546012A05D0287885
:10040000800600D5EA69002302E0012305E05B1CB9
:10041000934202D2E05C0028F9D1A869E618C01A1C
:10042000A861286A184428622846AFF3008004E0D7
:10043000D5E9012114F8010B9047B442F8D32846BE
:10044000AFF3008070BD00002DE9F04106460024A6
:1004500010687529314616A510D0AFF3008000282A
:1004600002DA404213A507E031688A0701D512A5D8
:1004700002E0490704D511A5012401E0AFF3008093
:1004800000210A2206F1240709E0B0FBF2FCB0FBD0
:10049000F2F302FB1C00303078541846491C002847
:1004A000F3D123462A463046BDE8F04100F096B825
:1004B000000000002D0000002B00000020000000C4
:1004C000032A40F2308010F0030C00F0158011F880
:1004D000013BBCF1020F624498BF11F801CB00F858
:1004E000013B38BF11F8013BA2F1040298BF00F8AC
:1004F00001CB38BF00F8013B11F0030300F0258069
:10050000083AC0F0088051F8043B083A51F804CB8F
:10051000A0E80810F5E7121D5CBF51F8043B40F855
:10052000043BAFF30080D20724BF11F8013B11F860
:1005300001CB48BF11F8012B24BF00F8013B00F8A4
:1005400001CB48BF00F8012B704710B5203AC0F02E
:100550000B80B1E81850203AA0E81850B1E81850C4
:10056000A0E81850BFF4F5AF5FEA027C24BFB1E801
:100570001850A0E8185044BF18C918C0BDE8104072
:100580005FEA827C24BF51F8043B40F8043B08BF7B
:100590007047D20728BF31F8023B48BF11F8012B42
:1005A00028BF20F8023B48BF00F8012B704702F03B
:1005B000FF0343EA032242EA024200F0ABB870476D
:1005C00070477047704710B500F0C4F8006810BD60
:1005D00010B5044600F0BEF8046010BD2DE9F047E8
:1005E0000D4699469246044600F1240801688806A3
:1005F00004D5E06921F01001216000E00120A8424B
:1006000001DD471B00E00027A1697A1902EB090010
:10061000081AA0612078C00602D42046AFF30080FB
:10062000002608E0D4E901211AF806009047206A64
:10063000401C761C20624E45F4DB2078C0060AD5AB
:100640002046AFF3008006E0D4E901213020904736
:10065000206A401C2062381EA7F10107F4DC07E085
:10066000D4E9012118F805009047206A401C206257
:10067000281EA5F10105F3DC2046AFF300802078A9
:10068000000602D50220BDE8F0870120FBE700004C
:1006900001694A1C02610878704700B58FB0CDE946
:1006A00001310021059105497944CDE90310114636
:1006B0006846FFF76BFE0FB000BD0000E5FFFFFFCF
:1006C00010B5436913B1AFF3008001E0FFF792FE6C
:1006D000012010BD127800F124010A7000224A7036
:1006E0000122EDE711684FF0FF32E9E7074B70B5E3
:1006F0000D467B44FFF7D1FF0446284600F02EF854
:1007000010B14FF0FF3070BD204670BD139900004E
:100710004FF000020429C0F0128010F0030C00F02A
:100720002380CCF1040CBCF1020F18BF00F8012BA0
:10073000A8BF20F8022BA1EB0C0100F015B85FEA6E
:10074000C17C24BF00F8012B00F8012B48BF00F842
:10075000012B7047004870475CA20120007B00F02D
:10076000800070474FF0000200B51346944696464D
:10077000203922BFA0E80C50A0E80C50B1F12001B4
:10078000BFF4F7AF090728BFA0E80C5048BF0CC062
:100790005DF804EB890028BF40F8042B08BF7047C0
:1007A00048BF20F8022B11F0804F18BF00F8012B32
:1007B00070470000004870475CA201207546FFF7B3
:1007C000F9FFAE4605006946534620F0070085460E
:1007D00018B020B5FFF7BAFDBDE820404FF0000685
:1007E0004FF000074FF000084FF0000B21F0070119
:1007F000AC46ACE8C009ACE8C009ACE8C009ACE85C
:10080000C0098D46704710B50446AFF300802046FE
:10081000BDE81040FFF729BD00B589B001210846A9
:1008200003F0F6FE0121080203F022FF10200790DA
:1008300003208DF8200000208DF8230007A90E4822
:1008400001F054FF01A800F0ADF8002001908DF8F0
:1008500008008DF80900049001A9084800F01CF870
:10086000002301220421054800F040F8012103483B
:1008700000F006F809B000BD000002400020014071
:1008800021B1826842F00102826003E0826822F0B6
:10089000010282607047000030B50246002000234C
:1008A0005068104C20400D790C6844EA0524204320
:1008B000506090680C4C2040D1E903542C438D6863
:1008C0002C434D7944EA450420439060D06A20F4DB
:1008D00070000C7D641EE4B2234340EA0350D062F2
:1008E00030BD0000FFFEFFFCFDF7FFC0F0B5044681
:1008F0000D4600200021092D11DDE068A5F10A0652
:1009000006EB4607072606FA07F18843A5F10A0613
:1009100006EB460603FA06F10843E0600CE02069A6
:1009200005EB4507072606FA07F1884305EB450660
:1009300003FA06F108432061072A0FDA606B561E9E
:1009400006EB86071F2606FA07F18843561E06EBBC
:10095000860605FA06F10843606322E00D2A0FDAE5
:10096000206BD61F06EB86071F2606FA07F1884381
:10097000D61F06EB860605FA06F10843206310E051
:10098000E06AA2F10D0606EB86071F2606FA07F1BC
:100990008843A2F10D0606EB860605FA06F1084328
:1009A000E062F0BD00210160017141718160C160B0
:1009B000016101210175704730B500220024C5781E
:1009C0008B1F9D4200D030BD002306E0C55C15445E
:1009D000EAB2A518ECB25D1CEBB28D1E9D42F5DCAF
:1009E000431813F8023C934204D1431813F8013C16
:1009F000A34200D0E7E78378512B38D103795BB964
:100A000043794B4D6B7183795BB2AB71C3795BB248
:100A1000EB71037A2B7189E00379012B12D14379B1
:100A2000434D2B72C3886B810389AB81837A2B7111
:100A30009FED400A404B83ED010A2B461B785B1C5F
:100A40002B7073E00379022B70D14379384DAB736F
:100A5000C3882B8203896B824389AB828389EB82B3
:100A6000C3892B83038A6B83837C2B715EE083783D
:100A7000342B0DD1D0F807302D4DEB619FED2D0AB1
:100A80002D4B83ED020A2B465B785B1C6B704DE0AF
:100A90008378012B13D18388254DA5F84830C3886E
:100AA000A5F84A300389A5F84C304389A5F84E30A3
:100AB0008389A5F85030C389A5F8523036E0837891
:100AC000042B33D1B0F9043000EE103AB8EEC00A6E
:100AD000DFED1A0A20EE200A154B83ED0E0AB0F95D
:100AE000063000EE103AB8EEC00ADFED140A20EE30
:100AF000200A0F4B83ED0F0AB0F9083000EE103AD0
:100B0000B8EEC00ADFED0D0A20EE200A084B83ED97
:100B1000100AB0F90A3000EE103AB8EEC00ADFED64
:100B2000070A20EE200A024B83ED110A00BF4AE7B4
:100B3000884B012000000000284C012017B7D13855
:100B400010B504463E48007838B9AA2C05D10120DA
:100B50003B4908703B48047070E039480078012830
:100B600005D10220364908703648447066E03448A2
:100B70000078022805D1032031490870314884707B
:100B80005CE02F48007803280CD1322C0ADA0420CC
:100B90002B4908702B48C4702B48047000202B4947
:100BA00008704BE026480078042819D126480078C0
:100BB000002815DD24480078401E2349087023488A
:100BC000007822490978491C204A1170001D1D49EE
:100BD0000C541D48007868BB0520194908702DE0A9
:100BE0001748007805280DD10620154908701748C8
:100BF000007816490978491C144A1170001D1149E2
:100C00000C541BE00E480078062814D100200C4933
:100C100008700E480078001D0A490C549FED0C0A1C
:100C20000C4880ED000A09480078401DC1B2054813
:100C3000FFF7C2FE02E000200149087010BD00006D
:100C4000AE060020F44B0120AC060020AD060020CB
:100C500000000000284C012010B500F043F81B48AC
:100C6000007E10B100F060F804E01948407E08B141
:100C700000F0D8F817484089B0F5E16F0DD115485C
:100C80000089B0F5E16F08D11348007828B91348FE
:100C90000068401D1149086002E000200F4908600B
:100CA0000E480068B0F5FA6F03D301200C490870B4
:100CB00002E000200A49087009480078012802D1A2
:100CC00004F080F801E004F09FF910BDEC4E012023
:100CD000CC4E0120344C0120FC060020A80000204E
:100CE000AC0000200D48407E28B100200C49087659
:100CF0000C49886110E00A48007E28B100200749AD
:100D000048760849886107E00648806920B10020DC
:100D1000024948760249087670470000CC4E01200F
:100D2000EC4E0120DC07002010B52DED028B9FED6D
:100D3000370AB0EE408A3648C079012805D0002035
:100D400034490876BDEC028B10BD3248007E00B9F4
:100D5000F8E7304890ED080ADFED2C0A30EE200A63
:100D600080ED080A90ED070AD0ED040A9FED271ADE
:100D700000EE810A80ED070AD0ED070AB0EE600AA6
:100D800006F06EFF2348D0ED000A90ED031A41EE05
:100D9000000A2148C0ED900A1E48D0ED070AB0EEC7
:100DA000600A07F085FF1B48D0ED010A90ED031A99
:100DB00041EE000A1848C0EDA20A164890ED020A5A
:100DC000154880ED6C0A134890ED070ADFED130A11
:100DD00020EE200A104880ED240A0E4890ED050A06
:100DE000B5EEC00AF1EE10FA0DDD90ED080AD0ED77
:100DF000050AB4EEE00AF1EE10FA04DB0020054922
:100E000008760749886100BF9CE700000AD7A33B2A
:100E1000A04E0120EC4E0120BC020020ED2E6542C8
:100E2000DC07002010B52DED028B9FED3E0AF0EEA1
:100E3000408A3D48C079012805D000203B494876CA
:100E4000BDEC028B10BD3948407E00B9F8E7374849
:100E500090ED070ADFED330A30EE200A80ED070A35
:100E6000D0ED040A9FED321A60EE810A90ED071A68
:100E700060EE810AB0EE600A07F01AFF2B48D0ED51
:100E8000030A20EE200AB0EE408A007E20B101283D
:100E900011D0022827D11DE0244890ED000A30EE41
:100EA000080A244880ED900A204890ED010A214864
:100EB00080EDA20A18E01D4890ED000A1D4880ED63
:100EC000900A1A4890ED010A30EE080A194880EDA0
:100ED000A20A09E0154890ED020A30EE080A15480A
:100EE00080ED6C0A00E000BF00BF9FED130A1148BF
:100EF00080ED240A0D4890ED050AB5EEC00AF1EE2A
:100F000010FA0DDD90ED070AD0ED050AB4EEE00A07
:100F1000F1EE10FA04DB00200449487607498861A5
:100F200000BF8DE70AD7A33BA04E0120CC4E012085
:100F3000D00FC940BC02002000000000DC070020E8
:100F400008B500BF0BF0B8FB00900AE0FFF784FE85
:100F50000448408E401C03494886052168460AF033
:100F6000F1FCF3E7584E01201CB50121022003F0EB
:100F70004FFB4FF40070009001208DF8040000201A
:100F80008DF8060003208DF8050001208DF807007C
:100F90006946044801F0AAFB4FF40071014801F0D2
:100FA00010FC1CBD0004024070B504460025102151
:100FB0000A4801F006FCFF2141EA042141F4004007
:100FC0000AF070F900200AF06DF9050A10210348B3
:100FD00001F0F9FB00BF284670BD00000008024088
:100FE00070B504462021094801F0EBFB002141EADD
:100FF000042141F400400AF055F9C5B2202103480C
:1010000001F0E1FB00BF284670BD0000000802406F
:1010100070B504460D461021074801F0D2FB45EAA1
:101020000421C1F30E000AF03DF91021024801F03D
:10103000CAFB00BF70BD00000008024070B5044646
:101040000D462021074801F0BCFB45EA0421C1F30D
:101050000E000AF027F92021024801F0B4FB00BF7E
:1010600070BD00000008024010B54FF4407002F05F
:1010700025FF02F097F902F02BFFFFF7CDFB4FF4AD
:10108000FA6008F009FE03F0D5FF08F045FD05F011
:1010900067FB05F0DDFB05F05BFC05F06BF905F087
:1010A00059FAFFF761FF4FF400610C4801F089FB2A
:1010B0004FF48051094801F086FB4FF480710848D5
:1010C00001F081FB4FF4FA6008F0E6FD02F09EFFAC
:1010D0009FED040A044880ED1E0A10BD0000024086
:1010E000000802400000B442A84C012090ED010A23
:1010F00080ED000A90ED020A80ED010A90ED060AEB
:10110000DFED160A80EE201A80ED021A90ED040A37
:1011100080ED030A90ED050A80ED040A90ED000AC7
:10112000D0ED020A30EE200AD0ED010AB0EE001A2E
:1011300001EE200AD0ED030A9FED091A01EE200A04
:10114000D0ED040A9FED071A01EE200A80ED050A92
:1011500090ED050A80ED070A7047000067BFFF4267
:10116000021944BF7E0BDE3F90ED010A80ED000ABC
:1011700090ED020A80ED010A90ED030A80ED020A6B
:1011800090ED080ADFED1D0A80EE201A80ED031AAB
:1011900090ED050A80ED040A90ED060A80ED050A3F
:1011A00090ED070A80ED060A90ED000AD0ED030AE3
:1011B00030EE200AD0ED010A90ED021A70EE810A9D
:1011C000B0EE081A01EE200AD0ED040A9FED0C1AC9
:1011D00001EE200AD0ED050A9FED0A1A01EE200A61
:1011E000D0ED060A9FED081A01EE200A80ED070AED
:1011F00090ED070A80ED090A704700006D85AC4349
:101200001736083F20F5F6BF2BF1174000B500F068
:101210001FF80C480089C82805D10B480068401CFD
:101220000949086002E00020074908600648006894
:101230000A2803DD00200549C87102E001200349A6
:10124000C87100BD344C012024000020A04E0120B4
:10125000BC48007818B1BC4890ED002A05E0BB48B6
:10126000C08802EE100AB8EE422AB0EE420AB54833
:10127000007818B1B44890ED012A05E0B348008821
:1012800002EE100AB8EE422AF0EE420AAD480078AB
:1012900018B1AD4890ED022A05E0AC48408802EE56
:1012A000100AB8EE422AB0EE421AA648007818B1E9
:1012B000A54890ED032A05E0A448808802EE100AB4
:1012C000B8EE422AF0EE421A9FEDA12AB4EEC20A0D
:1012D000F1EE10FA1ADD9FED9F2AB4EEC20AF1EE8C
:1012E00010FA13D29FED9C2AF4EEC21AF1EE10FA16
:1012F0000CDD9FED9A2AF4EEC21AF1EE10FA05D237
:1013000097488068401C9649886002E00020944914
:1013100088609FED8F2AB4EEC20AF1EE10FA1ADD52
:101320009FED8C2AB4EEC20AF1EE10FA13D29FEDB3
:10133000882AF4EEC21AF1EE10FA0CDD9FED852A30
:10134000F4EEC21AF1EE10FA05D285480068401C8E
:101350008349086002E00020814908609FED7E2AF1
:10136000B4EEC20AF1EE10FA1ADD9FED7C2AB4EE5B
:10137000C20AF1EE10FA13D29FED752AF4EEC21AEA
:10138000F1EE10FA0CDD9FED732AF4EEC21AF1EEC5
:1013900010FA05D272484068401C7149486002E06A
:1013A00000206F4948609FED6C2AB4EEC20AF1EE4E
:1013B00010FA1ADD9FED692AB4EEC20AF1EE10FAB6
:1013C00013D29FED652AF4EEC21AF1EE10FA0CDD8D
:1013D0009FED622AF4EEC21AF1EE10FA05D26048CF
:1013E000C068401C5E49C86002E000205C49C860DB
:1013F0009FED572AF4EEC20AF1EE10FA1ADD9FEDC6
:10140000552AF4EEC20AF1EE10FA13D29FED502ADB
:10141000B4EEC21AF1EE10FA0CDD9FED4E2AB4EED6
:10142000C21AF1EE10FA05D24D480069401C4C4931
:10143000086102E000204A4908619FED452AF4EE68
:10144000C20AF1EE10FA1ADD9FED422AF4EEC20A4A
:10145000F1EE10FA13D29FED402AB4EEC21AF1EE6B
:1014600010FA0CDD9FED3D2AB4EEC21AF1EE10FA2F
:1014700005D23B488069401C3949886102E0002060
:10148000374988619FED342AF4EEC20AF1EE10FA72
:101490001ADD9FED322AF4EEC20AF1EE10FA13D2F1
:1014A0009FED2B2AB4EEC21AF1EE10FA0CDD9FED7F
:1014B000292AB4EEC21AF1EE10FA05D22848406982
:1014C000401C2749486102E00020254948619FED02
:1014D000222AF4EEC20AF1EE10FA1ADD9FED1F2A5D
:1014E000F4EEC20AF1EE10FA13D29FED1B2AB4EE0D
:1014F000C21AF1EE10FA0CDD9FED182AB4EEC21AF2
:10150000F1EE10FA05D21648C069401C1449C861B2
:1015100002E000201249C86111488068962806D36D
:1015200001201049887100200D49886008600C482E
:101530000068322805D300200A498871084988606C
:1015400008607047FC06002004070020904E012030
:101550000080ED440040034500C0734500208045F5
:10156000AC4E0120A04E01209FED160A164880EDDA
:101570000A0A9FED140A80ED1C0A9FED120A80ED05
:101580002E0A9FED100A80ED400A9FED0E0A80EDB5
:10159000520A9FED0C0A80ED640A9FED0A0A80ED65
:1015A000760A9FED080A80ED880A90ED910A80ED99
:1015B000900A90EDA30A80EDA20A90ED250A80ED35
:1015C000240A704700000000BC02002090ED000AD1
:1015D000D0ED010A30EE600A80ED080A90ED0B0AAA
:1015E000D0ED0C0AB4EEE00AF1EE10FA06D890ED58
:1015F000080AB5EEC00AF1EE10FA11DC90ED0B0A04
:10160000D0ED0C0AF1EE600AB4EEE00AF1EE10FA49
:1016100023DB90ED080AB5EEC00AF1EE10FA1CD2F9
:1016200090ED080AB5EEC00AF1EE10FA02DD90ED79
:10163000080A03E090ED080AB1EE400AD0ED110A65
:10164000B4EEE00AF1EE10FA07D290ED0A0AD0EDFE
:10165000080A30EE200A80ED0A0A90ED0A0AD0ED61
:10166000100AF1EE600AB4EEE00AF1EE10FA05D2CB
:1016700090ED100AB1EE400A80ED0A0A90ED0A0AD8
:10168000D0ED100AB4EEE00AF1EE10FA03DD90EDB1
:10169000100A80ED0A0A90ED030AD0ED0A0A20EE46
:1016A000200A80ED060A90ED060AD0ED0E0AF1EE52
:1016B000600AB4EEE00AF1EE10FA05D290ED0E0ADF
:1016C000B1EE400A80ED060A90ED060AD0ED0E0A52
:1016D000B4EEE00AF1EE10FA03DD90ED0E0A80EDB3
:1016E000060A90ED020AD0ED080A20EE200A80EDED
:1016F000050A90ED050AD0ED0D0AF1EE600AB4EE90
:10170000E00AF1EE10FA05D290ED0D0AB1EE400AB2
:1017100080ED050A90ED050AD0ED0D0AB4EEE00A61
:10172000F1EE10FA03DD90ED0D0A80ED050A90ED63
:10173000080AD0ED090A30EE600AD0ED040A20EE66
:10174000200A80ED070A90ED070AD0ED0F0AF1EEAE
:10175000600AB4EEE00AF1EE10FA05D290ED0F0A3D
:10176000B1EE400A80ED070A90ED070AD0ED0F0AAE
:10177000B4EEE00AF1EE10FA03DD90ED0F0A80ED11
:10178000070A90ED050AD0ED060A30EE200AD0EDEA
:10179000070A30EE200A80ED0B0A90ED0B0AD0ED1F
:1017A0000C0AF1EE600AB4EEE00AF1EE10FA05D28E
:1017B00090ED0C0AB1EE400A80ED0B0A90ED0B0A99
:1017C000D0ED0C0AB4EEE00AF1EE10FA03DD90ED74
:1017D0000C0A80ED0B0A90ED080A80ED090A7047AB
:1017E00090ED000AD0ED010A30EE600A80ED080AA3
:1017F00090ED080ADFED900AB4EEE00AF1EE10FA7F
:1018000007DB90ED080ADFED8D0A30EE600A80ED0F
:10181000080A90ED080ADFED8A0AB4EEE00AF1EE5C
:1018200010FA07D890ED080ADFED840A30EE200A9E
:1018300080ED080A90ED0B0AD0ED0C0AB4EEE00A38
:10184000F1EE10FA06D890ED080AB5EEC00AF1EEF6
:1018500010FA11DC90ED0B0AD0ED0C0AF1EE600AE3
:10186000B4EEE00AF1EE10FA23DB90ED080AB5EED3
:10187000C00AF1EE10FA1CD290ED080AB5EEC00ACB
:10188000F1EE10FA02DD90ED080A03E090ED080A8F
:10189000B1EE400AD0ED110AB4EEE00AF1EE10FA12
:1018A00007D290ED0A0AD0ED080A30EE200A80ED4A
:1018B0000A0A90ED0A0AD0ED100AF1EE600AB4EEC1
:1018C000E00AF1EE10FA05D290ED100AB1EE400AEE
:1018D00080ED0A0A90ED0A0AD0ED100AB4EEE00A93
:1018E000F1EE10FA03DD90ED100A80ED0A0A90ED9A
:1018F000030AD0ED0A0A20EE200A80ED060A90EDD8
:10190000060AD0ED0E0AF1EE600AB4EEE00AF1EE3E
:1019100010FA05D290ED0E0AB1EE400A80ED060AEB
:1019200090ED060AD0ED0E0AB4EEE00AF1EE10FAE0
:1019300003DD90ED0E0A80ED060A90ED020AD0ED6F
:10194000080A20EE200A80ED050A90ED050AD0ED88
:101950000D0AF1EE600AB4EEE00AF1EE10FA05D2DB
:1019600090ED0D0AB1EE400A80ED050A90ED050AF2
:10197000D0ED0D0AB4EEE00AF1EE10FA03DD90EDC1
:101980000D0A80ED050A90ED080AD0ED090A30EE47
:10199000600AD0ED040A20EE200A80ED070A90EDDF
:1019A000070AD0ED0F0AF1EE600AB4EEE00AF1EE9C
:1019B00010FA05D290ED0F0AB1EE400A80ED070A49
:1019C00090ED070AD0ED0F0AB4EEE00AF1EE10FA3E
:1019D00003DD90ED0F0A80ED070A90ED050AD0EDCA
:1019E000060A30EE200AD0ED070A30EE200A80ED1C
:1019F0000B0A90ED0B0AD0ED0C0AF1EE600AB4EE82
:101A0000E00AF1EE10FA05D290ED0C0AB1EE400AB0
:101A100080ED0B0A90ED0B0AD0ED0C0AB4EEE00A53
:101A2000F1EE10FA03DD90ED0C0A80ED0B0A90ED5B
:101A3000080A80ED090A7047000034430000B443EF
:101A4000000034C310B52DED048B032005F04CFCD1
:101A5000B4480078401CB349087008460078022852
:101A600005DBB148FFF7B2FD0020AE490870042045
:101A700005F03AFCAC484830FFF7A8FDAB480078C9
:101A8000401CAA49087008460078022819DB01208A
:101A900005F02AFCA4489030FFF798FDA248D83002
:101AA000FFF794FD0020A1490870022005F01CFCFE
:101AB00002F090FF9E48FFF789FD9D484830FFF7F0
:101AC00085FD052005F010FC9A48FFF77FFD994839
:101AD0004830FFF77BFD062005F006FC9548903066
:101AE000FFF77EFE072005F0FFFB02F069FE8E483F
:101AF000D838FFF76BFD8C489038FFF767FD8A48B0
:101B00004838FFF763FD8B4801F0A6FC4FF42F60C7
:101B100089490880894890ED5E0A8948D0ED1F0AFE
:101B200020EE200AB0EE408A844890ED2E0A8548C7
:101B3000D0ED1F0A20EE200AF0EE408A7F4890ED9B
:101B4000160A8148D0ED1F0A20EE200AB0EE409A16
:101B50007A4890ED460A7D48D0ED1F0A20EE200A13
:101B6000F0EE409A18EE100A05F04DFE18B99FED00
:101B7000780AB0EE408A18EE900A05F044FE18B9D3
:101B80009FED730AF0EE408A19EE100A05F03BFE55
:101B900018B99FED6F0AB0EE409A19EE900A05F061
:101BA00032FE18B99FED6A0AF0EE409A6148D0ED16
:101BB000890A6148B0F9000000EE100AB8EEC00AC8
:101BC00030EE800A30EE080A624880ED000A59487B
:101BD00090ED410A30EE280A5F4880ED000A554832
:101BE00090ED530A30EE090AB1EE400A5B4880EDF1
:101BF000000A504890ED650A30EE290A584880EDF9
:101C0000000A5848D0ED000A9FED571A9FED560A7A
:101C100000EE810AB0EE402A5448D0ED000A9FED54
:101C2000521A9FED510A00EE810AF0EE402AF4EEBE
:101C3000C22AF1EE10FA06D2B0EE620AF0EE422AA3
:101C4000B0EE402A00BFB0EE621AF0EE420A414800
:101C500090ED000A00F08EF83E4880ED000A90ED0D
:101C6000000A3E48D0ED000A30EE600A3A48D0ED56
:101C7000000A30EE600A3A48D0ED000A30EE200A41
:101C8000BDEEC00A10EE100A00B239490880314892
:101C900090ED000A3148D0ED000A30EE200A2E48BF
:101CA000D0ED000A30EE200A2D48D0ED000A30EECB
:101CB000200ABDEEC00A10EE100A00B24880254886
:101CC00090ED000A2548D0ED000A30EE600A224867
:101CD000D0ED000A30EE200A2148D0ED000A30EEA7
:101CE000600ABDEEC00A10EE100A00B288801948E2
:101CF00090ED000A1948D0ED000A30EE200A16488F
:101D0000D0ED000A30EE600A1548D0ED000A30EE42
:101D1000600ABDEEC00A10EE100A00B2C880BDEC29
:101D2000048B10BD280000206C0400202900002036
:101D30008C050020BC0200203C0000208C470120C4
:101D4000EC4A0120B449012018490120504A0120E1
:101D5000000000002C000020300000203400002093
:101D600038000020280700200000FA442C0700203B
:101D7000B0060020F0EE401AF4EEE01AF1EE10FA90
:101D800002D2B0EE600A7047F4EEC11AF1EE10FA1A
:101D900002DDB0EE410AF6E7B0EE610AF3E70000BB
:101DA00010B50749074800F033F940B14FF0C05172
:101DB000044800F033F80021024800F063F810BD39
:101DC000008000185860024010B50749074800F02D
:101DD0001FF938B10649054800F020F800210348F2
:101DE00000F050F810BD000000802020A0600240EC
:101DF0000000202010B50749074800F009F940B15C
:101E00004FF02051044800F009F80021024800F08A
:101E100039F810BD00800028B86002400246094B26
:101E20009A4201D2084801E00648103801F00053F8
:101E30001BB1064B0B40C36002E0044B0B408360B8
:101E40007047000010640240006002407D0F7D0F6B
:101E50000246094B9A4201D2084801E00648103870
:101E600001F000531BB1064B0B40C36002E0044B72
:101E70000B40836070470000106402400060024025
:101E80007D0F7D0F21B1026842F00102026003E084
:101E9000026822F00102026070470000016821F030
:101EA000010101600021016041608160C160016148
:101EB000212141614A49884204D13D21484A103AD2
:101EC00091608CE046491831884205D14FF4746125
:101ED000434A103A916082E041493031884205D14D
:101EE0004FF474113E4A103A916078E03C49483111
:101EF000884205D14FF07461394A103A91606EE022
:101F000037496031884204D13649354A103AD160A8
:101F100065E033497831884204D13349304A103A78
:101F2000D1605CE02E499031884204D12F492C4A7F
:101F3000103AD16053E02A49A831884205D14FF0C8
:101F40003D51274A103AD16049E02949884204D1DD
:101F50003D21274A083A116041E02549183188425D
:101F600005D14FF47461224A083A116037E02049E4
:101F70003031884205D14FF474111D4A083A11607E
:101F80002DE01B494831884205D14FF07461184A51
:101F9000083A116023E016496031884204D11149A2
:101FA000134A121F11601AE011497831884204D196
:101FB0000D490F4A121F116011E00D4990318842FE
:101FC00004D10A490A4A121F116008E00849A831E1
:101FD000884204D14FF03D51054A121F11607047ED
:101FE000106002403D000020400F002000003D2016
:101FF00010640240014600200A6802F001020AB1A2
:10200000012000E0002070470146486880B2704718
:1020100070B50246002000240025124EB24201D2C3
:10202000114B01E00F4B103B104E0E4036B11E26F7
:1020300006EAD124166806EA040502E0566906F0AD
:10204000800501F000560EB15C6800E01C68084E87
:10205000344004EA010616B10DB1012000E0002071
:1020600070BD000010640240006002403C0F3C0F55
:102070007D0F7D0F10B501F080034BB122B1436994
:1020800043F08003436103E0436923F0800343612D
:1020900080290BD02AB1036801F01E04234303609A
:1020A00004E0036801F01E04A343036010BD0000B8
:1020B00010B500220268134B1A40CC680B6823430A
:1020C0004C6923438C692343CC6923430C6A234323
:1020D0004C6A23438C6A23434C6B23438C6B23430E
:1020E0001A430260426922F00702D1E90B3423430C
:1020F0001A4342610B6943604B6883608B68C3601D
:1021000010BD00003F801CF0F8480078AA287DD15F
:10211000F6484078AA28FAD1F4488078F449087043
:10212000F248C0784870F14800798870EF484079EB
:10213000C870084690ED000ADFEDEE0AB4EEE00A42
:10214000F1EE10FA11DD90ED000ADFEDEB0AB4EECE
:10215000E00AF1EE10FA08D290ED000ADFEDE70A8E
:1021600020EE200AE64880ED000AE0488079E04948
:102170000870DE48C0794870DC48007A8870DB4817
:10218000407AC870084690ED000ADFEDDA0AB4EE36
:10219000E00AF1EE10FA11DD90ED000ADFEDD60A4B
:1021A000B4EEE00AF1EE10FA08D290ED000ADFED8D
:1021B000D30A20EE200AD24880ED000ACB48807A6C
:1021C000CB490870C948C07A4870C848007B8870FD
:1021D000C648407BC870084690ED000ADFEDC50A8E
:1021E000B4EEE00AF1EE10FA13DD90ED000ADFED37
:1021F000C20AB4EEE00AF1EE10FA0AD290ED000A3B
:10220000DFEDBE0A20EE200ABD4800E06CE180ED63
:10221000000AB648807BB6490870B448C07B487055
:10222000B248007C8870B148407CC870084690ED88
:10223000000ADFEDB00AB4EEE00AF1EE10FA11DDAB
:1022400090ED000ADFEDAC0AB4EEE00AF1EE10FA10
:1022500008D290ED000ADFEDA90A20EE200AA84876
:1022600080ED000AA148807CA14908709F48C07C8D
:1022700048709E48007D88709C48407DC870084624
:1022800090ED000ADFED9B0AB4EEE00AF1EE10FAE1
:1022900011DD90ED000ADFED980AB4EEE00AF1EEF0
:1022A00010FA08D290ED000ADFED940A20EE200A21
:1022B000934880ED000A8D48807D8D4908708B48D9
:1022C000C07D48708948007E88708848407EC8700C
:1022D000084690ED000ADFED870AB4EEE00AF1EE61
:1022E00010FA11DD90ED000ADFED830AB4EEE00A8A
:1022F000F1EE10FA08D290ED000ADFED800A20EE30
:10230000200A7F4880ED000A7848807E784908706E
:102310007648C07E48707548007F88707348407F5B
:10232000C870084690ED000AF9EE040AB4EEE00A1F
:10233000F1EE10FA0DDD90ED000AF1EE040AB4EEB4
:10234000E00AF1EE10FA04D290ED000A6C4880ED3C
:10235000000A6648807F664908706448C07F4870FC
:10236000624890F820008870604890F82100C8709A
:10237000084690ED000AF9EE040AB4EEE00AF1EE28
:1023800010FA0DDD90ED000AF1EE040AB4EEE00A59
:10239000F1EE10FA04D290ED000A594880ED000ADF
:1023A000524890F8220052490870504890F8230093
:1023B00048704E4890F8240088704C4890F82500EA
:1023C000C870084690ED000AF9EE040AB4EEE00A7F
:1023D000F1EE10FA0DDD90ED000AF1EE040AB4EE14
:1023E000E00AF1EE10FA04D290ED000A444880EDC4
:1023F000000A3E4890F826003D4908703B4890F896
:1024000027004870394890F828008870374890F8BD
:102410002900C870084690ED000ADFED360AB4EED8
:10242000E00AF1EE10FA0DDD90ED000ADFED320A60
:10243000B4EEE00AF1EE10FA04D290ED000A304852
:1024400080ED000A294890F82A0029490870274899
:1024500090F82B004870254890F82C00887023488D
:1024600090F82D00C870084690ED000ADFED210AB3
:10247000B4EEE00AF1EE10FA0DDD90ED000ADFEDAA
:102480001E0AB4EEE00AF1EE10FA04D290ED000A52
:102490001B4880ED000A154890F82E00144908707A
:1024A000124890F82F004870104890F8300088705B
:1024B0000E4890F83100C870084690ED000ADFED34
:1024C0000D0AB4EEE00AF1EE10FA0DDD90ED000A0F
:1024D000DFED090AB4EEE00AF1EE10FA04D290ED55
:1024E000000A074880ED000A704700008C4D01206B
:1024F00074000020002474C9002474490000C842FC
:102500007800002038B5044672A000680090724838
:1025100001780078401C704A10707048445410468E
:10252000007819287ED11820114608706B48007871
:102530000F2878D16948007E38B16848017E684A22
:1025400012781DF802008142F3D100206249087020
:10255000624840786149897801F0070140EA01202A
:10256000604908805D48C0788006400D5B498978E5
:1025700040EAE1005B49488058484079C007400D77
:102580005649097940EA81005449C97840EAA110C6
:1025900054498880514880790007400D4F49497956
:1025A00040EA61004F49C8804C48C0794006400D60
:1025B0004A49897940EA21104A4908814748407AC6
:1025C0008007400D4549097A40EA41004349C979ED
:1025D00040EAE110434948814048807AC006400DF6
:1025E0003E49497A40EAA1003E4988813B48C07A89
:1025F000C0003A49897A40EA61103A49C8813748AF
:10260000007B3649497B01F0070140EA012035494A
:1026100008823248807B8006400D3049497B40EA81
:10262000E10001E054E049E02E4948822B48007C5B
:10263000C007400D2949C97B40EA81002749897BB1
:1026400040EAA110274988822448407C0007400DB9
:102650002249097C40EA61002249C8821F48807CE7
:102660004006400D1D49497C40EA21101D49088360
:102670001A48007D8007400D1849C97C40EA410096
:102680001649897C40EAE110164948831348407D89
:10269000C006400D1149097D40EAA1001149888317
:1026A0000E48807DC0000D49497D40EA61100D490A
:1026B000C8830AF007F80C49086009E0002005E02B
:1026C000064A411C515C1154411CC8B21828F7DB62
:1026D00038BD000004142434B8060020544C0120F6
:1026E000B9060020344C012000070020F0B50A464E
:1026F00000210023002400BF3DE0012505FA01F37D
:10270000156805EA03049C4234D105684F0003268E
:10271000BE40B543056015794E00B54006683543A7
:1027200005601579012D02D01579022D16D1856825
:102730004F000326BE40B543856055794E00B54035
:10274000866835438560456801268E40B5434560FF
:10275000456896798E40B6B235434560C5684F00EE
:102760000326BE40B543C560D5794E00B540C66866
:102770003543C560491C1029BFD3F0BDF0B5002317
:1027800000244D07ED0E02FA05F3CE1000F12005EE
:1027900055F826504E07F70E0F26BE40B543CF1012
:1027A00000F1200646F82750CE1000F1200555F81C
:1027B000265045EA0304CE1000F1200545F82640D6
:1027C000F0BD41837047018370474FF6FF71016090
:1027D0000021017141718171C171704710B52DEDFA
:1027E000028B00F00BF97148008800285ED0704819
:1027F00090ED000A6D48008841F28831081A6D4951
:1028000001EB800080ED000A6B4890ED000A6848FB
:10281000D0ED000A30EE200A674880ED000A6748D4
:1028200090ED000A6148008841F28831081A644935
:1028300001EB800080ED000A624890ED000A5F48DD
:10284000D0ED000A30EE200A5E4880ED000A5E48B6
:1028500090ED000A5548008841F28831081A5B491A
:1028600001EB800080ED000A594890ED000A5648BF
:10287000D0ED000A30EE200A554880ED000A4B48A2
:10288000008841F28831081A00EE100AB8EEC00A3A
:1028900046480088081A4F4901EB800080ED000A85
:1028A00042480088401E414908807BE0484890ED3E
:1028B000000ADFED490A80EE201A484880ED001A30
:1028C00000244BE040F2712060433A4A02EB401191
:1028D00041F288323F4807F0B7FB414800EB8400E3
:1028E00080ED000A3E4800EB840090ED000A10EEF7
:1028F000101A08460AF08EFF9FED3A0B53EC102B8E
:102900000AF090FD12D3364800EB840090ED000AE7
:1029100010EE101A08460AF07DFF41EC180B9FEDEF
:10292000330B53EC102B0AF043FC16D241F28830E3
:102930001E4908809FED2F0A1F4880ED000A9FED79
:102940002D0A204880ED000A9FED2A0A204880EDDC
:10295000000A0020BDEC028B10BD641C032CB1DB0F
:10296000154890ED000ADFED1C0A80EE201A80ED7C
:10297000001A144890ED000ADFED170A80EE201AC5
:1029800080ED001A124890ED000ADFED130A80EE88
:10299000201A80ED001A41F2883004490880012095
:1029A0001549086014480068D4E700004C01002075
:1029B00060010020000F0020900100206401002031
:1029C000205D0020940100206801002040AB002021
:1029D0009801002060F9002000409C45A4010020DF
:1029E000804701202D431CEBE2360A3F2D431CEBB0
:1029F000E2360ABF00000000B40100202DE9F04FCC
:102A00002DED068B87B01320FEF7CEFA0746122075
:102A1000FEF7CAFA80461520FEF7C6FA8146142052
:102A2000FEF7C2FA82461720FEF7BEFA834616204A
:102A3000FEF7BAFA06900320FEF7D2FA05900220BC
:102A4000FEF7CEFA04900520FEF7CAFA03900420A0
:102A5000FEF7C6FA02900720FEF7C2FA01900620A0
:102A6000FEF7BEFA009048EA072000B200EE100A16
:102A7000B8EEC00ADFED660A80EE201A9FED650A07
:102A800061EE000A644890ED000AB8EE400A20EEBC
:102A9000800A624880ED000A4AEA092000B200EE8E
:102AA000100AB8EEC00ADFED5A0A80EE201A9FED38
:102AB000590A61EE000A584890ED000AB8EE400A43
:102AC00020EE800A564880ED000A069840EA0B2066
:102AD00000B200EE100AF8EEC00A9FED4D1A80EE2B
:102AE000810ADFED4C0A60EE200A4B4890ED000AA7
:102AF000B8EE400A20EE800A4A4880ED000ADDE97F
:102B0000040140EA012000B200EE100AB8EEC00A4B
:102B10009FED3F1AC0EE010A9FED3E0A20EE800AAB
:102B2000414880ED000ADDE9020140EA012000B2DF
:102B300000EE100AF8EEC00A9FED351A80EE810A09
:102B4000DFED340A20EE200A384880ED000ADDE986
:102B5000000140EA012000B200EE100AF8EEC00ABF
:102B60009FED2B1A80EE810ADFED2A0A20EE200A63
:102B70002F4880ED000A2220FEF716FA0646232091
:102B8000FEF712FA04462046E11704EBD161491121
:102B900001EBC605B5F5806F1BDBA5F500600AF0FB
:102BA000DCFA41EC1A0B9FED230B53EC102B0AF0CF
:102BB0003BFB41EC190B9FED210B53EC102B0AF062
:102BC0005BF841EC180B0AF06BFA00B21D49088063
:102BD00019E028460AF0D8FA41EC1A0B9FED150BC4
:102BE00053EC102B0AF020FB41EC190B9FED130B5B
:102BF00053EC102B0AF040F841EC180B0AF050FA95
:102C000000B21049088007B0BDEC068BBDE8F08F1C
:102C100000FEFF4600007A44A80100205401002075
:102C2000580100205C0100206001002064010020A8
:102C300068010020000000000000C03F000000000C
:102C4000000037405001002000200E4988610E49E5
:102C500048760E4908769FED0E0A0E4880ED000A70
:102C60009FED0B0A80ED010A9FED090A80ED020A33
:102C70009FED070A80ED030A002007490870074905
:102C8000C8717047DC070020CC4E0120EC4E0120BB
:102C900000803B450407002031070020A04E0120A2
:102CA000F8B527480078CC2848D125484078DD2859
:102CB00044D1234A9378D47812798DF80020204AA1
:102CC00052798DF801201E4A92798DF802201C4A13
:102CD000D2798DF803201A4A157A0021022003E0E8
:102CE000174A125C5140401C0828F9DBA94224D144
:102CF000144E3678761C06F00702134E3678B24230
:102D000015D0124E0F4F3F7806F837300D4F3F78F1
:102D100006EBC70674709DED000A0C4E094F3F7814
:102D200006EBC70686ED010A064E327004E0084E37
:102D30003668761C064F3E6000BF00BFF8BD00003D
:102D40008C4D0120D8060020D9060020C04D01205E
:102D5000DC060020F8B527480078CC2848D1254863
:102D60004078DD2844D123488378C47800798DF8F1
:102D70000000204840798DF801001E4880798DF8C8
:102D800002001C48C0798DF803001A4A157A002108
:102D9000022003E0174A125C5140401C0828F9DB6E
:102DA000A94224D1144E3678761C06F00702134E41
:102DB0003678B24215D0124E0F4F3F7806F83730B2
:102DC0000D4F3F7806EBC70674709DED000A0C4E60
:102DD000094F3F7806EBC70686ED010A064E3270B2
:102DE00004E0084E3668761C064F3E6000BF00BF08
:102DF000F8BD0000384E0120D8060020D90600207A
:102E0000C04D0120DC06002008B500BF09F054FCCD
:102E100000900AE002F0E6FC0448408C401C0349A4
:102E200048840121684608F08DFDF3E7584E0120E3
:102E300008B500BF09F040FC00900DE09FED070AC7
:102E4000074800F011F80748808C401C0549888429
:102E50000121684608F076FDF0E700006F12833A22
:102E600018020020584E012010B52DED108B86B0B1
:102E70000446F0EE408A0020039004900590B6EEE0
:102E8000000A28EE800AB0EE40FAFE4890ED000AF3
:102E9000F0EE409AFC4890ED000AB0EE40AAFB48E4
:102EA00090ED000AF0EE40AAF94890ED000AB0EE6D
:102EB00040BAF84890ED000AB5EEC00AF1EE10FAFB
:102EC0000FD1F54890ED000AB5EEC00AF1EE10FA08
:102ED00007D1F24890ED000AB5EEC00AF1EE10FA03
:102EE0007ED0EC4890ED000A8DED030AEA4890EDA3
:102EF000000A8DED040AE94890ED000A8DED050AFF
:102F0000DDED030A60EEA00A9DED041ADDED041A62
:102F100041EE210A9DED051ADDED051A41EE210A6B
:102F2000B0EE600A07F072F8B0EE408ADDED030AF9
:102F3000B0EE480A20EE800A8DED030ADDED040AAA
:102F4000B0EE480A20EE800A8DED040ADDED050A98
:102F5000B0EE480A20EE800A8DED050A9DED040AC8
:102F6000CF48D0ED000A20EE200ADDED050ACD485D
:102F700090ED001AF0EE40BA40EEC1BA9DED050AA0
:102F8000C948D0ED000A20EE200ADDED030AC4484E
:102F900090ED001AB0EE40CA00EEC1CA9DED030AE2
:102FA000C048D0ED000A20EE200ADDED040ABE483C
:102FB00090ED001AF0EE40CA40EEC1CABB4890ED59
:102FC000000A60EE2B0ABA4890ED000A00EEA80A4B
:102FD00080ED000AB54890ED000A60EE0C0A00E0B2
:102FE0003FE0B44890ED000A00EEA80A80ED000A28
:102FF000AE4890ED000A60EE2C0AAF4890ED000A52
:1030000000EEA80A80ED000AA94890ED000AAB483E
:10301000D0ED000A00EEAB0AA948D0ED000A30EE70
:10302000200A80ED000AA34890ED000AA348D0EDE5
:10303000000A00EE8C0AA348D0ED000A30EE200A08
:1030400080ED000A9C4890ED000A9C48D0ED000AF3
:1030500000EEAC0A9C48D0ED000A30EE200A80ED6C
:10306000000A974890ED000A20EE0F0A8DED000A45
:10307000944890ED000A20EE0F0A8DED010A924867
:1030800090ED000A20EE0F0A8DED020A9DED000A78
:1030900020EE000ADDED010A9DED011A00EE810A25
:1030A000DDED020A9DED021AB0EE409A00EE819A23
:1030B000B7EE000A30EE490A20EE290ADDED000ADB
:1030C0000AEE600ADDED010A0AEEE00ADDED020A11
:1030D0000BEE600A6B4880ED000AB7EE000A30EE96
:1030E000490A20EE0A0ADDED000A09EEA00ADDED2C
:1030F000020A0AEEA00ADDED010A0BEE600A624840
:1031000080ED000AB7EE000A30EE490A20EE2A0AE6
:10311000DDED010A09EEA00ADDED020A0AEE600A01
:10312000DDED000A0BEE200A584880ED000AB7EEEC
:10313000000A30EE490A20EE0B0ADDED020A09EE24
:10314000A00ADDED010A0AEE200ADDED000A0AEE12
:10315000E00A4F4880ED000A4A48D0ED000A60EED0
:10316000A00A494890ED001AD0ED001A41EE210A5C
:10317000464890ED001AD0ED001A41EE210A44486D
:1031800090ED001AD0ED001A41EE210AB0EE600A6F
:1031900006F03CFFB0EE408A3A4890ED000A20EE7F
:1031A000080A80ED000A384890ED000A20EE080A6F
:1031B00080ED000A354890ED000A20EE080A80ED07
:1031C000000A334890ED000A20EE080A80ED000A5C
:1031D0002C4890ED000A20EE00DA2B4890ED000A12
:1031E00060EE00DA294890ED000A20EE00EA284857
:1031F00090ED000A60EE00EA3DEE2D0A30EE4E0A38
:1032000030EE6E0A314880ED000A1F4890ED000A4A
:103210001E48D0ED000A20EE200A1A48D0ED000A20
:103220001B4890ED001A00EE810AF0EE000A20EE35
:10323000200A274880ED000A134890ED000A144840
:10324000D0ED000A20EE200A0E48D0ED000A0F480B
:1032500090ED001A00EEC10AF0EE000A20EE200AFE
:10326000114880ED000A074890ED000A0648D0EDAD
:10327000000A20EE200A0548D0ED000A044890ED2F
:10328000001A27E0980200209C020020A0020020E3
:10329000A40200206C0100207001002074010020B5
:1032A000B8020020B4020020B002002088020020F2
:1032B0008C02002090020020940200208402002052
:1032C000780100207C01002080010020A80200205D
:1032D000AC02002000EE810AF0EE000A20EE200A87
:1032E0002A4880ED000A3DEE6D0A30EE4E0A30EEBF
:1032F0002E0A274880ED000A264890ED000AF7EED6
:10330000000AB4EEE00AF1EE10FA03DDB7EE000AAF
:1033100080ED000A1F4890ED000AFFEE000AB4EEAF
:10332000E00AF1EE10FA03D2BFEE000A80ED000AC7
:10333000184890ED000A04F06FFAB1EE400ADFED94
:10334000160A20EE200A84ED190A1148D0ED000A71
:103350000E4890ED000A04F0F5FADFED0F0A20EEBA
:10336000200A84ED180A0D48D0ED000A0C4890EDB3
:10337000000A04F0E7FADFED080A20EE200A84EDE7
:103380001A0A06B0BDEC108B10BD0000B40200207C
:10339000B8020020B0020020ED2E6542A8020020F5
:1033A000AC0200201CB50121084601F031F90121D1
:1033B000042001F02DF94FF4C050009001208DF849
:1033C000040000208DF8060003208DF80500012080
:1033D0008DF8070069461348FFF788F94FF48070AD
:1033E000009001208DF8040000208DF806000320D5
:1033F0008DF8050001208DF8070069460A48FFF79F
:1034000075F94FF400610748FFF7DDF94FF480517B
:103410000448FFF7D8F94FF480710348FFF7D1F95A
:103420001CBD00000000024000080240B0EE401A3F
:10343000B4EEE01AF1EE10FA09D2B1EE600AB4EE81
:10344000C01AF1EE10FA02DD9FED020A7047B0EEED
:10345000410AFBE70000000010B52DED0A8B044681
:1034600094ED490ADFED580A20EE200AF0EE408A7A
:1034700094ED370ADFED540A20EE200AB0EE409AB0
:1034800094ED5B0ADFED500A20EE200AB0EE408A90
:103490004E48C0ED018A80ED199A80ED318A94ED95
:1034A0007F0A80ED490A29EE080AF0EE409A28EEDC
:1034B000880AB0EE40AA94ED480ADFED430A20EEF8
:1034C000200AF0EE40AA94ED360ADFED3F0A20EE26
:1034D000200AB0EE40BA94ED5A0ADFED3B0A20EE26
:1034E000200AF0EE40BA94ED7E0AB0EE40CA94EDA8
:1034F000530A3748D0ED1F0A80EE201A334880ED7A
:10350000151A94ED410A3348D0ED1F0A80EE201AB7
:103510002E4880ED2D1A94ED650A2F48D0ED1F0A34
:1035200080EE201A294880ED451A94ED890A2B482F
:10353000D0ED1F0A80EE201A244880ED5D1A28483D
:10354000C07948B1F0EE6A0AB0EE690A204A1F4914
:10355000002000F00BFB04E09FED220A1B4880EDE9
:10356000160A1F48007A50B1F0EE4B0AB0EE4A0A34
:10357000184A16496031012000F0F8FA04E09FED86
:10358000190A124880ED2E0A1548407A50B1F0EE23
:103590006B0A9FED140A104A0C49C031022000F05A
:1035A000E5FA04E09FED0F0A084880ED460AF0EEC8
:1035B0004C0A9FED0C0A094A0B49032000F0D6FA89
:1035C000BDEC0A8B10BD000039FA8E3C8C470120FF
:1035D00018490120B4490120504A0120EC4A012039
:1035E0000C49012000000000AC48012070B52DED11
:1035F000028B05460C46F0EE408A94ED010AB0EECF
:10360000408AB7EE000A84ED030A84ED048AB0EE26
:10361000480A05F06FFC20EE080A84ED050A032D28
:1036200001D0022D04D19FED090A84ED060A01E0C4
:10363000C4ED068A94ED150A84ED070A94ED000A9C
:1036400084ED080ABDEC028B70BD00000000000094
:1036500010B5AAB01822B44924A8FCF776FF1822A6
:10366000B14918311EA8FCF770FF1822AE4930315D
:1036700018A8FCF76AFF1822AB49483112A8FCF7DA
:1036800064FF1822A84960310CA8FCF75EFF1822DD
:10369000A549783106A8FCF758FF1822A2499031B5
:1036A0006846FCF752FF002488E024A800EB840061
:1036B00090ED000A9D4800EB840080ED000A12A8FE
:1036C00000EB840090ED000A9848283000EB84005D
:1036D00080ED000A0CA800EB840090ED000A9348EE
:1036E000403000EB840080ED000A24A800EB840049
:1036F00090ED000A8E4800EB840080ED000A12A8CD
:1037000000EB840090ED000A8948283000EB84002B
:1037100080ED000A0CA800EB840090ED000A8448BC
:10372000403000EB840080ED000A1EA800EB84000E
:1037300090ED000A7F4800EB840080ED000A12A89B
:1037400000EB840090ED000ADFED7B0A20EE200AFA
:103750007848283000EB840080ED000A0CA800EBCC
:10376000840090ED000ADFED740A20EE200A714813
:10377000403000EB840080ED000A18A800EB8400C4
:1037800090ED000A6D4800EB840080ED000A06A869
:1037900000EB840090ED000A6848283000EB8400BC
:1037A00080ED000A684600EB840090ED000A634853
:1037B000403000EB840080ED000A641C062CFFF60C
:1037C00074AF9FED5F0A594880ED070A9FED5D0ACF
:1037D00080ED210A9FED5C0A80ED200A9FED5B0AD7
:1037E00080ED250A9FED5A0A80ED1E0A9FED590AC9
:1037F00080ED1F0A9FED580A80ED060AB3EE000A1D
:1038000080ED080AB1EE040A80ED220AB0EE0C0A3F
:1038100080ED230A9FED4B0A80ED240A9FED480AB4
:10382000434880ED070A9FED470A80ED210A9FED8E
:10383000460A80ED200A9FED450A80ED250A9FED9E
:10384000440A80ED1E0A9FED430A80ED1F0A9FED9A
:10385000420A80ED060AB3EE000A80ED080AB1EED6
:10386000040A80ED220AB0EE0C0A80ED230A9FEDD7
:10387000350A80ED240A9FED320A2E4880ED070AB2
:103880009FED300A80ED210A9FED340A80ED200A79
:10389000B3EE0E0A80ED250A9FED310A80ED1E0A77
:1038A0009FED300A80ED1F0AB7EE000A80ED060A90
:1038B000B3EE000A80ED080AB7EE000A80ED220A96
:1038C000B0EE000A80ED230A9FED1E0A80ED240A67
:1038D0009FED1B0A194880ED070A9FED1A0A80ED3B
:1038E000210AB7EE080A80ED200AB3EE040A80ED43
:1038F000250A9FED1D0A80ED1E0A9FED1C0A80ED32
:103900001F0A01201A49087048708870C870087131
:103910004871002088710120C8710872487200F057
:10392000C9F82AB010BD00003CDA0008184901208F
:10393000B4490120504A01209A99193FEC4A0120CC
:103940000AD7233CCDCC4C3D99BB163B00004842E6
:10395000DBA2D74000409244CDCC4C3FA69BC43A5A
:103960005EBA01400000EA44DBA2574100005E431A
:103970000C490120F0B50446DDE90556002092E02F
:1039800003EB800797ED003AB0EE432A06EB800781
:1039900097ED003AF0EE432A05EB800797ED003AE9
:1039A000F0EE431A04EB800797ED003AF0EE430A7D
:1039B00001EB800797ED003AB0EE430AF5EEC01A2E
:1039C000F1EE10FA1AD8B4EEC20AF1EE10FA04DBE6
:1039D000F5EEC00AF1EE10FA09DCB4EEE20AF1EEFF
:1039E00010FA0AD8F5EEC00AF1EE10FA05D29FEDF2
:1039F000303A04EB800787ED003A53E0F5EEC00A59
:103A0000F1EE10FA22DDB4EEC20AF1EE10FA04DB98
:103A10009FED273AF0EE430A3FE032EE613AB4EE12
:103A2000C03AF1EE10FA38D232EE403A83EE211A63
:103A3000B5EEC01AF1EE10FA03D29FED1D3AB0EECA
:103A4000431A20EE813AF0EE430A26E0F5EEC00A72
:103A5000F1EE10FA21D2B4EEE20AF1EE10FA04D837
:103A60009FED133AF0EE430A17E032EEA13AB4EEBE
:103A7000C03AF1EE10FA10DD30EE623A83EE211A10
:103A8000B5EEC01AF1EE10FA03D29FED093AB0EE8E
:103A9000431A20EE813AF0EE430A04EB8007C7EDAB
:103AA000000A00BF401C9042FFF66AAFF0BD000064
:103AB0000000000000203EE09FED290A294901EBAB
:103AC000800181ED000A9FED260A2649603101EB55
:103AD000800181ED000A9FED220A2249C03101EBED
:103AE000800181ED000A9FED1E0A1F4901EB800154
:103AF00081ED000A9FED1A0A1A49183101EB800185
:103B000081ED000A9FED160A1649783101EB80011C
:103B100081ED000A9FED120A1349483901EB80013B
:103B200081ED000A9FED0E0A0F49183101EB80016B
:103B300081ED000A401C0628BEDB0A49243991EDBC
:103B4000010A81ED000A91ED190A81ED180A91ED43
:103B5000310A81ED300A91ED490A81ED480A70473A
:103B600000000000B0470120D04801202DE9F041BD
:103B70002DED0C8B88B007460C461646B0EE40BAC9
:103B8000B0EE609AB7EE000AF0EE40BA84ED009A0B
:103B900094ED010AD4ED000A30EE600A84ED020AC9
:103BA000B0EE4B0A21463846FFF720FD062104F10E
:103BB0000C0000F02BF9B0EE40CAB7EE000A3CEE64
:103BC000000AB0EE408A8E48807850B194ED020A27
:103BD000B0EEC00AD6ED210AB4EEE00AF1EE10FA1A
:103BE00001DB012000E0002080468548C078D0B18C
:103BF00096ED220AB5EEC00AF1EE10FA13DD94ED4F
:103C0000020AB0EEC00AD6ED220AB4EEE00AF1EEE6
:103C100010FA08DD9FED7B0A84ED160A08B0BDECB2
:103C20000C8BBDE8F081D4ED028A75480079B0B103
:103C300096ED230AB5EEC00AF1EE10FA0FDD96ED0F
:103C4000230AC8EE800AB0EE60DAB0EE4D0A05F045
:103C500051F9D6ED230A20EE200AF0EE408A68489A
:103C6000007800287ED0B8F1000F7BD09FED65AAC8
:103C70006348407948B194ED020AB0EEC00AD6ED2F
:103C8000240A20EE200AB0EE40AA96ED070A70EE54
:103C90000AAA5B48807910B196ED060A01E09FED13
:103CA000590AF0EE40CA002513E0B1EE680A20EE92
:103CB0002B0A04F10C0000EB8500D0ED000A20EE89
:103CC000200AC0EE080A02A800EB8500C0ED000A39
:103CD0006D1C062DE9DB4A48407868B106F15800B2
:103CE00006F1400106F128030622CDE9001004F197
:103CF000240102A8FFF73EFE002562E004F1240043
:103D000000EB850090ED000A04F13C0000EB85001B
:103D1000D0ED000A30EE600A60EE2C0A80EE880AD0
:103D200002A800EB8500D0ED000A30EEC00A04F1D5
:103D3000240000EB8500D0ED000A60EEAA0A80EEB8
:103D4000881A30EE410A06EB8500D0ED000A60EEDD
:103D5000209A04F1240000EB850090ED000ADFEDCD
:103D60002A0A00E02FE000EEA90A04F1240000EB8B
:103D7000850080ED000A2248807908B304F1240010
:103D800000EB850090ED000A04F13C0000EB85009B
:103D9000D0ED000A70EE600A04F13C0000EB8500F3
:103DA00090ED000A96ED081ADFED171A21EE211AA0
:103DB00001EE200A04F13C0000EB850080ED000AD2
:103DC0006D1C062D9ADB9FED0F0A84ED160A002567
:103DD00012E094ED160A04F1240000EB8500D0ED0A
:103DE000000A04F10C0000EB850090ED001A00EED3
:103DF000810A84ED160A6D1C062DEADB00BF0DE773
:103E00000C490120000000000AD7A33B0246DFED69
:103E10000C0AB0EE600A00200FE002EB800393ED85
:103E2000001A02EB8003D3ED001AF0EE400A41EED7
:103E3000210AB0EE600A431CD8B28842EDDB70471D
:103E40000000000070B5002100230F22C4781CB3CD
:103E5000174C246804F4E064C4F5E064C4F307215B
:103E6000C1F10404E3B20A4144789C40E1B2847891
:103E7000144021430C07210E0E4C0578615504783F
:103E800004F01F050124AC4005786D11AD0005F16B
:103E9000E025C5F8004109E0047804F01F0501247D
:103EA000AC40054D0678761145F8264070BD0000FF
:103EB0000CED00E000E400E080E100E00249014395
:103EC000024A1160704700000000FA050CED00E0A6
:103ED00000B58BB001A8FEF778FC08A802F040FA04
:103EE00003A802F0EDF90121022000F0A1FB01215D
:103EF000032000F08DFBC020019002208DF8080007
:103F000003208DF8090000208DF80A0001208DF8AB
:103F10000B0001A93A48FEF7E9FB022206213848C6
:103F2000FEF72CFC022207213548FEF727FC032070
:103F3000019002208DF8080003208DF80900002070
:103F40008DF80A0001208DF80B0001A92D48FEF71D
:103F5000CDFB022200212B48FEF710FC022201219A
:103F60002848FEF70BFC42F20F7009902920ADF8AB
:103F700020000020ADF82800ADF822008DF82A00BE
:103F800008A9214802F0AAF96020ADF80C00002031
:103F9000ADF81000ADF818000820ADF81A00400187
:103FA000ADF81C000020ADF81E000120ADF80E0099
:103FB0000020059003A9144802F04EF80020059057
:103FC00003A9114802F090F80020059003A90E48BB
:103FD00002F0EAF80020059003A90B4802F034F93A
:103FE0000121094802F028F80121074802F00CF8E5
:103FF0000121054802F014F801F002FF0BB000BDEA
:1040000000000240000402400004004000B58BB0F4
:1040100001A8FEF7DAFB08A802F0A2F903A802F053
:104020004FF90121042000F003FB0121022000F0E0
:10403000EFFAC020019002208DF8080003208DF8CF
:10404000090000208DF80A0001208DF80B0001A95D
:104050002D48FEF74BFB022206212B48FEF78EFB74
:10406000022207212848FEF789FB44F61F600990C9
:104070005320ADF820000020ADF82800ADF8220054
:104080008DF82A0008A9214802F028F96020ADF82F
:104090000C000020ADF81000ADF818000820ADF8B5
:1040A0001A004001ADF81C000020ADF81E000120F0
:1040B000ADF80E0040F6B830059003A9134801F0A2
:1040C000CBFF0821114802F005F803A90F4802F0C0
:1040D0000BF808210D4802F059F801210B4801F0B6
:1040E000ABFF0121094801F08FFF0121074801F0D2
:1040F00097FF9FED070A01F039FD9FED060A01F0D9
:1041000061FD0BB000BD000000040240000800404B
:10411000000020420000B44230B52DED028B87B084
:1041200061E2F748F749097810F83150F549097804
:1041300000EBC1004478F248F249097800EBC10075
:1041400090ED010AB0EE408AEE490978481CC1178B
:1041500000EB5171C910A0EBC101EA4A1170012DA9
:104160002DD1032294FBF2F2D0B2032294FBF2F39E
:1041700002FB1342D1B2E44A009248320192483223
:1041800002924832039248320492483205929032A9
:104190000692072812DA21B95DF8202082ED028A02
:1041A0000CE0012904D15DF8202082ED038A05E0AE
:1041B000022903D15DF8202082ED048A12E2022D4B
:1041C00003D0052D01D0082D2ED1200904F00F01B8
:1041D000CE4A0392CE4A0492CE4A0592CE4A069225
:1041E000042820DA06291EDA022D07D103AA52F884
:1041F000202002EB810282ED008A14E0052D08D117
:1042000003AA52F82020283202EB810282ED008AB4
:1042100009E0082D07D103AA52F82020403202EB12
:10422000810282ED008ADDE1062D0FD1BB480078C6
:104230000128C3D1BA48C0790128BFD1042CBDDA06
:10424000B84800EB840080ED008ACBE1072D0ED149
:10425000002CB3D1B6EE000AB4EEC08AF1EE10FA2B
:1042600001DB012000E00020AF490870BAE1032D16
:104270003CD1A6480390A6480490A6480590A648BD
:104280000690042C05DA03A850F8240080ED1F8A5C
:104290002BE0082C06DA201F03A951F8200080ED3E
:1042A0001E8A22E0082C0FD1B5EEC08AF1EE10FA7A
:1042B0001BDBB7EE000AB4EEC08AF1EE10FA14D898
:1042C0009A4880ED008A10E0092C0ED1B5EEC08A24
:1042D000F1EE10FA09DBB7EE000AB4EEC08AF1EE97
:1042E00010FA02D8924880ED008A7BE1092D4ED168
:1042F0008CB99FED900AB4EEC08AF1EE10FA92DD0F
:10430000B3EE040AB4EEC08AF1EE10FA8BD28A48FA
:1043100080ED008A66E1012C11D19FED860AB4EE92
:10432000C08AF1EE10FA90DDB2EE040AB4EEC08A53
:10433000F1EE10FA89D2814880ED008A52E1022C18
:1043400011D1B0EE080AB4EEC08AF1EE10FA8DDB9E
:104350009FED7B0AB4EEC08AF1EE10FA86D8794858
:1043600080ED008A3EE1032CBFD1B0EE080AB4EE26
:10437000C08AF1EE10FAB8DB9FED710AB4EEC08A84
:10438000F1EE10FAB1D8704880ED008A2AE1042DD0
:104390000FD144B9FEF758FC002061498871C871FB
:1043A0006A4908701EE1012C9FD101205C49C87147
:1043B00018E10A2D2CD15A48C079012895D11CB991
:1043C000634880ED008A0DE1012C03D1604880ED47
:1043D000018A07E1022C03D15D4880ED028A01E1E8
:1043E000032C03D15A4880ED078AFBE0042C91D1BD
:1043F000B6EE000A38EE000ABCEEC00A10EE100A53
:10440000C0B208B1012000E0002051498861E9E014
:104410000B2D52D14248C079012803D11CB94D4817
:1044200080ED008ADEE0012C03D14A4880ED018A4C
:10443000D8E0022C03D1474880ED028AD2E0032C59
:1044400003D1444880ED038ACCE0042C03D14148D9
:1044500080ED048AC6E0052C03D13E4880ED058A34
:10446000C0E0062C10D1B6EE000A38EE000ABCEE11
:10447000C00A10EE100A374908760846007E022866
:1044800001D902200876ADE0072C11D1B6EE000A62
:1044900038EE000ABCEEC00A10EE100AC0B240B1FD
:1044A00001202C4948769FED2C0A084680ED070A2A
:1044B00098E000202749487694E00C2D74D11848E4
:1044C000C079012803D11CB9244880ED008A89E015
:1044D000012C03D1214880ED018A83E0022C03D115
:1044E0001E4880ED028A7DE0032C03D11B4880ED3D
:1044F000038A77E0042C33D1184880ED048A71E0F8
:10450000C04D0120D9060020BC020020184901201E
:10451000B4490120504A0120EC4A0120FC06002049
:10452000A04E0120040700201407002028070020C7
:104530002C070020CDCC4C3D180700201C07002084
:1045400000007042200700202407002031070020CF
:10455000DC070020CC4E012000000000EC4E0120C2
:10456000052C03D1254880ED058A3BE0062C39D186
:10457000B6EE000A38EE000ABCEEC00A10EE100AD1
:10458000C0B268B101201D4908761FED0D0A08462A
:1045900080ED070A1FED100A80ED080A22E003E013
:1045A0000020164908761DE00D2D03D1D4B9FEF781
:1045B0004BFB17E00E2D15D1A4B9B6EE000A38EE6C
:1045C000000ABCEEC00A10EE100AC0B228B10120E9
:1045D0000B4908700B49887104E0002008490870F5
:1045E0000849887100BF084800780849097888425E
:1045F0007FF497AD07B0BDEC028B30BDEC4E0120CF
:1046000031070020A04E0120D9060020D806002046
:1046100029B1064A12680243044B1A6004E0034AB7
:1046200012688243014B1A60704700003038024024
:1046300029B1064A12680243044B1A6004E0034A97
:1046400012688243014B1A607047000040380240F4
:1046500029B1064A12680243044B1A6004E0034A77
:1046600012688243014B1A607047000020380240F4
:1046700029B1064A12680243044B1A6004E0034A57
:1046800012688243014B1A607047000044380240B0
:1046900029B1064A12680243044B1A6004E0034A37
:1046A00012688243014B1A607047000024380240B0
:1046B000F0B5002100220024022500260223324FFB
:1046C0003F6807F00C0121B1042905D0082937D132
:1046D00005E02E4F076036E02D4F076033E02A4F8C
:1046E0003F1F3F68C7F38056274F3F1F3F6807F0C3
:1046F0003F036EB1264FB7FBF3F7DFF88CC0ACF188
:10470000040CDCF800C0CCF3881C07FB0CF40CE0B4
:104710001E4FB7FBF3F7DFF870C0ACF1040CDCF808
:1047200000C0CCF3881C07FB0CF4174F3F1F3F68F9
:10473000C7F301477F1C7D00B4FBF5F7076002E07B
:10474000124F076000BF00BF0F4F3F6807F0F00136
:104750000909104F7A5C0768D74047600A4F3F68E5
:1047600007F4E051890A0B4F7A5C4768D7408760AD
:10477000054F3F6807F46041490B064F7A5C476874
:10478000D740C760F0BD0000083802400024F400A4
:1047900000127A003207002008B500BF07F08CFF36
:1047A00000900AE006F02CFB0448008D401C0349F1
:1047B00008850A21684607F0C5F8F3E7584E01203E
:1047C00010B52DED068B77487749096850F8210020
:1047D000062861D073487449096850F821000828F8
:1047E0005AD070487049096850F82100072853D002
:1047F0006C486D49096850F8210002284CD069487E
:104800006949096850F821000C2845D06548664977
:10481000096850F821000D283ED0624862490968B5
:1048200050F821000E2837D05E485F49096850F8DB
:1048300021000F2830D05B485B49096850F82100FF
:10484000132829D057485849096850F821001228E0
:1048500022D054485449096850F8210010281BD030
:1048600050485149096850F82100032814D04D4898
:104870004D49096850F8210006280DD049484A4999
:10488000096850F82100192806D0464846490968A9
:1048900050F8210011282DD14448C088A0F57A7025
:1048A000002804DD4148C088A0F57A7003E03F4845
:1048B000C088C0F57A7064281DDD3D498988A1F65D
:1048C000B83008F04AFC41EC1A0B9FED3A0B53EC60
:1048D000102B08F08DFA41EC190B9FED380B53ECBF
:1048E000102B08F0A1FC41EC180B08F093F93549A6
:1048F000C1F8680153E0344890ED000AB5EEC00AF3
:10490000F1EE10FA40D1314890ED000AB5EEC00A40
:10491000F1EE10FA0AD12B4890ED250A80ED240A19
:10492000B7EE000A294880ED000A38E0274890EDEC
:10493000000AF7EE000AB4EE600AF1EE10FA2ED18A
:10494000204890ED2F0AF3EE0E0AB4EEE00AF1EEE5
:1049500010FA04DDB3EE0E0A80ED5A0A1FE0194882
:1049600090ED2F0AFBEE0E0AB4EEE00AF1EE10FA1B
:1049700004D2BBEE0E0A80ED5A0A10E0114890ED09
:104980002F0A80ED5A0A0AE00F4890ED000A0D4800
:1049900080ED5A0A9FED0E0A0C4880ED000ABDEC2E
:1049A000068B10BD00080020A0000020344C012020
:1049B000904E01200000000000408F4000000000E9
:1049C00000006940BC020020B80000209C000020CC
:1049D0000000000010B52DED088BE148E1490968A1
:1049E00050F8210002285AD0DD48DE49096850F805
:1049F0002100042853D0DA48DA49096850F8210028
:104A00000C284CD0D648D749096850F821000D2809
:104A100045D0D348D349096850F821000E283ED02C
:104A2000CF48D049096850F821000F2837D0CC482A
:104A3000CC49096850F82100132830D0C848C9492A
:104A4000096850F82100122829D0C548C5490968CD
:104A500050F82100102822D0C148C249096850F8F6
:104A6000210001281BD0BE48BE49096850F821002A
:104A7000032814D0BA48BB49096850F82100062819
:104A80000DD0B748B749096850F82100192806D059
:104A9000B348B449096850F82100112873D1B248CD
:104AA0004088A0F57A70002804DDAF484088A0F562
:104AB0007A7003E0AC484088C0F57A70642821DD44
:104AC000AA490988A1F6B83008F047FB41EC1B0B56
:104AD0009FEDA70B53EC102B08F08AF941EC1A0B51
:104AE00008F08CF841EC190B9FEDA30B53EC102B45
:104AF00008F09AFB41EC180B08F08CF8A049C1F8BB
:104B000018037BE09F4890ED000AFFEE000AB4EE28
:104B1000600AF1EE10FA37D19B4890ED000AB5EE2D
:104B2000C00AF1EE10FA0AD1954890EDA30A80ED83
:104B3000A20AB7EE000A944880ED000A5EE09048B1
:104B400090EDAD0ADFED910AB4EEE00AF1EE10FA55
:104B500004DD9FED8E0A80EDC60A4FE0884890ED97
:104B6000AD0ADFED8B0AB4EEE00AF1EE10FA04D2E2
:104B70009FED870A80EDC60A40E0814890EDAD0ABE
:104B800080EDC60A3AE0D0E07E4890ED000AFFEEE4
:104B9000000AB4EE600AF1EE10FA2FD09FED7D0A04
:104BA000794880ED000A774890ED000A7A4880ED58
:104BB000010A90ED010ADFED750AB4EEE00AF1EEAC
:104BC00010FA05DD9FED710A6D4880EDC60A15E00B
:104BD000714890ED010ADFED6E0AB4EEE00AF1EEE5
:104BE00010FA05D29FED6A0A654880EDC60A05E015
:104BF000694890ED010A624880EDC60A5A4800886B
:104C0000A0F57A70002804DD57480088A0F57A7076
:104C100003E055480088C0F57A70642821DD5349C7
:104C20004988A1F6B83008F098FA41EC1B0B9FEDCB
:104C3000500B53EC102B08F0DBF841EC1A0B07F08B
:104C4000DDFF41EC190B9FED4C0B53EC102B08F0E2
:104C5000EBFA41EC180B07F0DDFF4949C1F8D0022F
:104C60007AE04E4890ED000AFFEE000AB4EE600ACA
:104C7000F1EE10FA36D14A4890ED000AB5EEC00ABE
:104C8000F1EE10FA0AD13E4890ED910A80ED900ABB
:104C9000B7EE000A424880ED000A5DE0384890ED2A
:104CA0009B0ADFED3A0AB4EEE00AF1EE10FA04DDF9
:104CB0009FED360A80EDB40A4EE0314890ED9B0A34
:104CC000DFED330AB4EEE00AF1EE10FA04D29FED04
:104CD000300A80EDB40A3FE0294890ED9B0A80ED50
:104CE000B40A39E02D4890ED000AFFEE000AB4EE58
:104CF000600AF1EE10FA2FD09FED260A284880EDC9
:104D0000000A264890ED000A234880ED000A90ED45
:104D1000000ADFED1E0AB4EEE00AF1EE10FA05DD3E
:104D20009FED1A0A164880EDB40A15E01A4890ED76
:104D3000000ADFED170AB4EEE00AF1EE10FA05D230
:104D40009FED130A0E4880EDB40A05E0124890ED7D
:104D5000000A0B4880EDB40ABDEC088B10BD0000C2
:104D600000080020A0000020344C0120904E0120BB
:104D70000000000000408F4000000000000059408B
:104D8000BC020020B400002098000020000048422F
:104D9000000048C200000000704C0120B00000205C
:104DA0009400002000200549086008460068801E25
:104DB000034908600020014908607047A0000020F6
:104DC000A40000207C487D49096850F8210004288F
:104DD00062D003DCE0B301287ED185E00B2802D04D
:104DE0000C28F9D17FE0764800680B2824D075485C
:104DF00090ED910A80ED900A90EDA30A80EDA20A51
:104E000090ED250A80ED240A90ED6D0A80ED6C0A84
:104E1000BFEE000A6C4880ED000ABFEE000A6B4846
:104E200080ED000A9FED6A0A6A4880ED000A9FED56
:104E3000680A694880ED000A5F4960480068401CC4
:104E400051F82000142804D301206449087003E0BD
:104E500003E000206149087067E09FED610A59484E
:104E600080ED6C0A90ED6D0ADFED5E0AB4EEE00AAB
:104E7000F1EE10FA0FDB90ED6D0AF6EE080AB4EED3
:104E8000E00AF1EE10FA06D800214B4A4B480068C0
:104E9000401C42F8201048E049480068042808D027
:104EA000484890EDA30A80EDA20A90ED910A80EDAA
:104EB000900A9FED470A4C4880ED040A01204B49B7
:104EC0000860BFEE000A404880ED000ABFEE000A0D
:104ED0003E4880ED000A00E026E09FED3D0A3E4896
:104EE00080ED000A21E020E09FED390A354880ED91
:104EF0006C0A01203E490870324890ED6D0ADFEDE2
:104F00003D0AB4EEE00AF1EE10FA0CD800212A4A6C
:104F10002A480068401C42F82010002036490870DA
:104F200036498871C87100E000BF00BF224823499C
:104F3000096850F82100224908601F491F4800688D
:104F4000401C51F82000B0F57A7F0AD81B48006851
:104F5000401C51F820000A2803D30120284908707A
:104F600002E0002026490870134914480068401CDC
:104F700051F8200005280BD310480068401C51F858
:104F80002000401F0A460D490968491C42F82100CB
:104F900009490A480068401C51F820000A280AD82C
:104FA0000648006817490968884204D20348006827
:104FB000801C02490860704700080020A000002003
:104FC000CC000020BC020020B0000020B400002073
:104FD00000000000BC000020B8000020AE0000204F
:104FE0003333333F6666263F200B0020C400002089
:104FF000AF000020CDCC4C3EAC000020A04E0120E4
:10500000AD000020A400002000B500200249086087
:10501000FFF7C8FE00BD0000A000002021B10288FB
:1050200042F04002028004E002884FF6BF731A404B
:105030000280704700B587B001210620FFF7E8FA2B
:1050400001218803FFF7F4FA05220D213B48FDF703
:1050500095FB052202213A48FDF790FB052203212A
:105060003748FDF78BFB4FF40050009002208DF87D
:10507000040003208DF8050000208DF806000120B3
:105080008DF8070069462D48FDF730FB042000909D
:1050900069462B48FDF72AFB0820009069462848FE
:1050A000FDF724FB274800F04FF80820ADF8140066
:1050B0000020ADF81000ADF80E000720ADF8180084
:1050C0004FF40060ADF80C000020ADF80800ADF81A
:1050D00016004FF48270ADF80A004FF40070ADF87E
:1050E000120002A9174800F087F801211548FFF7C0
:1050F00095FF01210420FFF78BFA01210420FFF71F
:1051000087FA1020009001208DF8040000208DF80F
:10511000060069460A48FDF7E9FA20200090694632
:105120000748FDF7E3FA10210548FDF74CFB202165
:105130000348FDF748FB07B000BD00000004024033
:10514000000802400038004010B50446244884425C
:1051500008D101218014FFF79BFA0021A014FFF76A
:1051600097FA3CE01F48844208D101210014FFF760
:105170006FFA00212014FFF76BFA30E01A488442DE
:1051800008D10121C013FFF763FA0021E013FFF7F4
:105190005FFA24E01548844208D101214014FFF74A
:1051A00077FA00216014FFF773FA18E01048844280
:1051B00009D101210805FFF76BFA00214FF4801097
:1051C000FFF766FA0BE00B48844208D1012148053D
:1051D000FFF75EFA00214FF40010FFF759FA10BDF7
:1051E0000030014000380040003C004000340140E5
:1051F000005001400054014010B50022028802F422
:1052000041520B884C8823438C882343CC8823430A
:105210000C8923434C8923438C892343CC89234322
:105220001A430280838B4FF2FF74234083830B8ADF
:10523000038210BD2DE9F04192B000240026AA207F
:10524000FE490870BB204870FD480078052190FB9E
:10525000F1F201FB120000287CD025200121F74A41
:1052600091700112D1701146087106215171062406
:10527000F44890ED020A8DED0A0A90ED160A8DEDC4
:105280000B0A90ED1A0A8DED0C0A90ED2E0A8DEDA9
:105290000D0A90ED320A8DED0E0A90ED460A8DED65
:1052A0000F0A90ED4A0A8DED100A90ED5E0A8DED21
:1052B000110A002523E00AA810F825202046611CC9
:1052C0008CB2DE490A540AA800EB850042782046D9
:1052D000611C8CB2D9490A540AA800EB8500827877
:1052E0002046611C8CB2D5490A540AA800EB8500FF
:1052F000C2782046611C8CB2D0490A546D1C082D1E
:10530000D9DBD14882792046611C8CB2CB490A5442
:10531000CD48C2792046611C8CB2C8490A54CB489A
:1053200002782046611C8CB2C4490A54C84880697E
:1053300008B1012200E000222146601C84B2BF486F
:105340004254C44802782046611C8CB2BB490A54BE
:10535000F0E1FFE74427162000EB87080220B74959
:1053600088704FEA2820C87081F8048006204871B0
:105370000624B94BD3E901021968DB68CDE9102393
:10538000CDE90E10002080E000252FE00EA951F895
:105390002010243111F825302146621C94B2A74A0E
:1053A00053540EA951F82010243101EB85014B789C
:1053B0002146621C94B2A14A53540EA951F8201000
:1053C000243101EB85018B782146621C94B29B4A03
:1053D00053540EA951F82010243101EB8501CB78EC
:1053E0002146621C94B2954A53546D1C062DCDDBA8
:1053F0000EA951F8201091F854302146621C94B245
:105400008E4A53540EA951F8201091F85530214678
:10541000621C94B2894A53540EA951F8201091F895
:1054200056302146621C94B2844A53540EA951F856
:10543000201091F857302146621C94B27F4A535491
:105440000EA951F820100B782146621C94B27B4AB9
:1054500053540EA951F820104B782146621C94B287
:10546000764A53540EA951F820108B782146621CBD
:1054700094B2724A53540EA951F82010CB782146A9
:10548000621C94B26D4A5354401C0428FFF67CAF52
:1054900030227149103102A8FBF757F8002570E05F
:1054A00002A850F8250002792046611C8CB263499D
:1054B0000A5402A850F8250042792046611C8CB29B
:1054C0005E490A5402A850F8250082792046611CE2
:1054D0008CB25A490A5402A850F82500C2792046D5
:1054E000611C8CB255490A5402A850F82500027874
:1054F0002046611C8CB251490A5402A850F825007C
:1055000042782046611C8CB24C490A5402A850F8DB
:10551000250082782046611C8CB248490A5402A8B2
:1055200050F82500C2782146601C84B2434842549A
:1055300002A850F8250090F82C202046611C8CB25F
:105540003E490A5402A850F8250090F82D20214623
:10555000601C84B23948425402A850F8250090F8E3
:105560002E202046611C8CB234490A5402A850F8FF
:10557000250090F82F202046611C8CB22F490A5438
:105580006D1C0C2D8CDB00203449497E09B10220B2
:1055900008E03349097E09B1032003E02C498969F9
:1055A00001B101202146621C94B2244A505428497A
:1055B00091ED000A8DED010A9DF804302146621C30
:1055C00094B21E4A53549DF805302146621C94B291
:1055D0001A4A53549DF806302146621C94B2174A69
:1055E00053549DF807302146621C94B2134A535419
:1055F000174991ED010A8DED010A9DF8043021460D
:10560000621C94B20D4A53549DF805302146621C29
:1056100094B20A4A53549DF806302146621C94B253
:10562000064A53549DF807302146621C94B2034A3F
:105630005354074991ED020A14E00000740B002056
:10564000D00000208C470120A04E0120FC06002045
:10565000DC07002030070020FCD90008CC4E0120D8
:10566000EC4E01208DED010A9DF804302146621CAC
:1056700094B2484A53549DF805302146621C94B2B6
:10568000444A53549DF806302146621C94B2414A64
:1056900053549DF807302146621C94B23D4A53543E
:1056A0003D4991ED070A8DED010A9DF80430214630
:1056B000621C94B2374A53549DF805302146621C4F
:1056C00094B2344A53549DF806302146621C94B279
:1056D000304A53549DF807302146621C94B22D4A3B
:1056E00053542E4991ED070A8DED010A9DF80430BF
:1056F0002146621C94B2274A53549DF80530214636
:10570000621C94B2234A53549DF806302146621C11
:1057100094B2204A53549DF807302146621C94B23B
:105720001C4A53541E490B782146621C94B2194AF4
:10573000535400BF0026022503E01648405D464052
:105740006D1CA542F9DB2046611C8CB211490E5438
:1057500014480078401C1349087000BF1248FCF739
:1057600053FC0028FAD111490F48FCF771FB0021C6
:105770000D48FCF787FB07480B490C3108600A48C5
:10578000B838C0F8BC4001210748FCF77BFB12B0D9
:10579000BDE8F081740B0020CC4E0120EC4E0120BE
:1057A00030070020D0000020B860024000800028B0
:1057B00008B500BF06F080FF009010E005F06EFC19
:1057C000FFF738FDFEF7A8FC05F094FE0448808D35
:1057D000401C034988850A21684606F0B3F8EDE7C6
:1057E000584E012010B52DED048BFDF707F9BF4889
:1057F00090ED000ABE48D0ED000A30EE600AF7EEE8
:10580000000A20EE200AB94880ED000AB94890ED60
:10581000000AB948D0ED000A30EE600AF7EE000A3F
:1058200020EE200AB34880ED000AB44890ED000A4B
:10583000B348D0ED000A30EE600AF7EE000A20EE21
:10584000200AAE4880ED000AAE4890ED000AAE484E
:10585000D0ED000A30EE600AF7EE000A20EE200AD2
:10586000A84880ED000AA94890ED000AA848D0EDAC
:10587000000A30EE600AF7EE000A20EE200AA34884
:1058800080ED000AA34890ED000AA348D0ED000A7D
:1058900030EE600AF7EE000A20EE200A9D4880ED07
:1058A000000A984890ED000A9C4880ED000A97484D
:1058B00090ED000A9A4880ED000A964890ED000AA3
:1058C000984880ED000A894890ED000A964880EDDE
:1058D000000A884890ED000A944880ED000A874845
:1058E00090ED000A924880ED000A864890ED000A8B
:1058F000904880ED080A854890ED000A8D4880EDBB
:10590000120A844890ED000A8A4880ED1C0AFBF7D1
:105910002BFC88482830FBF727FC86485030FBF7E3
:1059200023FC844890ED090A764880ED000A8148FE
:1059300090ED130A754880ED000A7E4890ED1D0A2F
:10594000744880ED000A694890ED000A794880EDBE
:10595000240A684890ED000A764880ED2C0A6748D2
:1059600090ED000A734880ED340A7830FBF7BEFBF7
:1059700070489830FBF7BAFB6E48B830FBF7B6FBBF
:105980006C4890ED250A594880ED000A694890ED71
:105990002D0A584880ED000A664890ED350A5748B0
:1059A00080ED000ADFED640A564890ED000AFDF72D
:1059B0003DFD544880ED000ADFED5F0A534890ED4D
:1059C000000AFDF733FD514880ED000ADFED5A0A69
:1059D000504890ED000AFDF729FD4E4880ED000A81
:1059E000484890ED000ADFED550A20EE200A5448A1
:1059F00080ED000A454890ED000ADFED500A20EEE8
:105A0000200A504880ED000A424890ED000ADFED80
:105A10004B0A20EE200A4C4880ED000A334890EDF6
:105A2000000A4A4880ED000A324890ED000A4848D2
:105A300080ED000A314890ED000A464880ED000AEA
:105A4000424890ED000A20EE000A4148D0ED000ADD
:105A500090ED001A00EE810A3E48D0ED000A90ED6C
:105A6000001A00EE810A10EE101A084607F0D2FE66
:105A700041EC190BB0EE490AF0EE690A03F0E0F9C7
:105A8000B0EE408AF0EE608A51EC180B07F0C2F8D5
:105A900031490860084690ED000ADFED300AB4EEA7
:105AA000E00AF1EE10FA03DD01202D49087019E03B
:105AB000234890ED000ADFED2B0AB4EEE00AF1EE88
:105AC00010FA08D290ED000ADFED270AB4EEE00AE2
:105AD000F1EE10FA03DC01202149087002E00020F9
