:020000040800F2
:10000000C0AC012031030008390300083B0300089D
:100010003D0300083F030008410300080000000002
:10002000000000000000000000000000790200084D
:100030004503000800000000CD020008897B00088D
:100040004B0300084B0300084B0300084B03000858
:100050004B0300084B0300084B0300084B03000848
:100060004B0300084B0300084B0300084B03000838
:100070004B0300084B030008FD2100084B03000858
:100080004B030008252200084B0300084B0300081F
:100090004B0300084B0300084B0300084B03000808
:1000A0004B0300084B0300084B0300084B030008F8
:1000B0004B0300084B0300084B0300084B030008E8
:1000C0004B0300084B0300084B0300084B030008D8
:1000D0004B03000855850008418600083188000858
:1000E0004B0300084B0300084B0300084B030008B8
:1000F0004B0300084B0300084B0300085122000883
:100100004B0300084B0300084B0300084B03000897
:100110003D820008518400084B0300084B0300088F
:100120004B0300084B0300084B0300084B03000877
:100130004B0300084B0300084B0300084B03000867
:100140004B0300084B0300084B0300084B03000857
:100150004B0300084B0300084B03000859880008B4
:100160004B0300084B0300084B0300084B03000837
:100170004B0300084B0300084B0300084B03000827
:100180004B0300084B03000800F002F800F064F88D
:100190000AA090E8000C82448344AAF10107DA45E2
:1001A00001D100F059F8AFF2090EBAE80F0013F0D0
:1001B000010F18BFFB1A43F0010318475407010051
:1001C000740701000A444FF0000C10F8013B13F0D3
:1001D000070408BF10F8014B1D1108BF10F8015BA0
:1001E000641E05D010F8016B641E01F8016BF9D193
:1001F00013F0080F1EBF10F8014BAD1C0C1B09D1EA
:100200006D1E58BF01F801CBFAD505E014F8016B5B
:1002100001F8016B6D1EF9D59142D6D370470000ED
:100220000023002400250026103A28BF78C1FBD8FF
:10023000520728BF30C148BF0B607047642900F0E7
:100240000381732900F04E82002070471FB510F023
:10025000C8F81FBD10B510BD00F0B0FA1146FFF789
:10026000F5FF0CF057FA00F0CEFA03B4FFF7F2FFF7
:1002700003BC0BF09FFF00002A4B19680868B0E828
:10028000F04F80F30988BFF36F8F4FF0000080F3C9
:10029000118870470000000006480068006880F37D
:1002A000088862B661B6BFF34F8FBFF36F8F00DF70
:1002B00000BF00BF08ED00E0DFF80C00016841F46A
:1002C00070010160704700BF88ED00E0EFF3098026
:1002D000BFF36F8F134B1A681EF0100F08BF20ED8D
:1002E000108A20E9F04F106008B44FF0500080F3FE
:1002F0001188BFF34F8FBFF36F8F0EF0C7FA4FF027
:10030000000080F3118808BC19680868B0E8F04F55
:100310001EF0100F08BFB0EC108A80F30988BFF3FD
:100320006F8F7047E4070020EFF3058070470000EF
:100330000948804709480047FEE7FEE7FEE7FEE779
:10034000FEE7FEE7FEE7FEE7FEE7FEE704480549B5
:10035000054A064B70470000C17C0008890100086F
:10036000C0A60120C0AC0120C0A80120C0A8012067
:10037000704700000FB4044910B503AA029800F0BA
:10038000B5F910BC5DF814FB200000202DE9F04108
:100390000E460446002020622046E168884730B3BC
:1003A000252805D0D4E901219047206A401CF2E7B6
:1003B000E168204600278847050018D0A5F14100D4
:1003C000192802D820354FF40067324629462046C6
:1003D0002760FFF733FF40B1012804D0F61D26F057
:1003E00007060836D8E7361DD6E72846DAE7206A3A
:1003F000BDE8F08170B50C460546012A05D0287885
:10040000800600D5EA69002302E0012305E05B1CB9
:10041000934202D2E05C0028F9D1A869E618C01A1C
:10042000A861286A184428622846AFF3008004E0D7
:10043000D5E9012114F8010B9047B442F8D32846BE
:10044000AFF3008070BD00002DE9F04106460024A6
:1004500010687529314616A510D0AFF3008000282A
:1004600002DA404213A507E031688A0701D512A5D8
:1004700002E0490704D511A5012401E0AFF3008093
:1004800000210A2206F1240709E0B0FBF2FCB0FBD0
:10049000F2F302FB1C00303078541846491C002847
:1004A000F3D123462A463046BDE8F04100F096B825
:1004B000000000002D0000002B00000020000000C4
:1004C000032A40F2308010F0030C00F0158011F880
:1004D000013BBCF1020F624498BF11F801CB00F858
:1004E000013B38BF11F8013BA2F1040298BF00F8AC
:1004F00001CB38BF00F8013B11F0030300F0258069
:10050000083AC0F0088051F8043B083A51F804CB8F
:10051000A0E80810F5E7121D5CBF51F8043B40F855
:10052000043BAFF30080D20724BF11F8013B11F860
:1005300001CB48BF11F8012B24BF00F8013B00F8A4
:1005400001CB48BF00F8012B704710B5203AC0F02E
:100550000B80B1E81850203AA0E81850B1E81850C4
:10056000A0E81850BFF4F5AF5FEA027C24BFB1E801
:100570001850A0E8185044BF18C918C0BDE8104072
:100580005FEA827C24BF51F8043B40F8043B08BF7B
:100590007047D20728BF31F8023B48BF11F8012B42
:1005A00028BF20F8023B48BF00F8012B704702F03B
:1005B000FF0343EA032242EA024200F0ABB870476D
:1005C00070477047704710B500F0C4F8006810BD60
:1005D00010B5044600F0BEF8046010BD2DE9F047E8
:1005E0000D4699469246044600F1240801688806A3
:1005F00004D5E06921F01001216000E00120A8424B
:1006000001DD471B00E00027A1697A1902EB090010
:10061000081AA0612078C00602D42046AFF30080FB
:10062000002608E0D4E901211AF806009047206A64
:10063000401C761C20624E45F4DB2078C0060AD5AB
:100640002046AFF3008006E0D4E901213020904736
:10065000206A401C2062381EA7F10107F4DC07E085
:10066000D4E9012118F805009047206A401C206257
:10067000281EA5F10105F3DC2046AFF300802078A9
:10068000000602D50220BDE8F0870120FBE700004C
:1006900001694A1C02610878704700B58FB0CDE946
:1006A00001310021059105497944CDE90310114636
:1006B0006846FFF76BFE0FB000BD0000E5FFFFFFCF
:1006C00010B5436913B1AFF3008001E0FFF792FE6C
:1006D000012010BD127800F124010A7000224A7036
:1006E0000122EDE711684FF0FF32E9E7074B70B5E3
:1006F0000D467B44FFF7D1FF0446284600F02EF854
:1007000010B14FF0FF3070BD204670BDF7BE000045
:100710004FF000020429C0F0128010F0030C00F02A
:100720002380CCF1040CBCF1020F18BF00F8012BA0
:10073000A8BF20F8022BA1EB0C0100F015B85FEA6E
:10074000C17C24BF00F8012B00F8012B48BF00F842
:10075000012B70470048704760A60120007B00F025
:10076000800070474FF0000200B51346944696464D
:10077000203922BFA0E80C50A0E80C50B1F12001B4
:10078000BFF4F7AF090728BFA0E80C5048BF0CC062
:100790005DF804EB890028BF40F8042B08BF7047C0
:1007A00048BF20F8022B11F0804F18BF00F8012B32
:1007B000704700000048704760A601207546FFF7AB
:1007C000F9FFAE4605006946534620F0070085460E
:1007D00018B020B5FFF7BAFDBDE820404FF0000685
:1007E0004FF000074FF000084FF0000B21F0070119
:1007F000AC46ACE8C009ACE8C009ACE8C009ACE85C
:10080000C0098D46704710B50446AFF300802046FE
:10081000BDE81040FFF729BD00B58DB001210846A5
:1008200004F062FF0121080204F08EFF10200B90FB
:1008300003208DF8300000208DF833000BA91548F7
:1008400002F0E8F907A800F04FF8002007904FF4F5
:1008500080300890002009900A9007A800F02CF83A
:1008600001A800F0FEF8002001908DF808008DF836
:100870000900049001A9084800F04AF80723012262
:100880000421054800F08CF80121034800F009F824
:100890000DB000BD0000024000200140CA430260CC
:1008A000704721B1826842F00102826003E08268F1
:1008B00022F00102826070470021084A1168084A4C
:1008C0001140D0E900231A4383681A43C3681A43CE
:1008D0001143044AC2F80413704700000423014086
:1008E000E030FCFF00200140002101604160816098
:1008F000C16070470146C86C80B270470246002054
:1009000013680B400BB1012000E00020704700008D
:1009100030B50246002000235068104C20400D796D
:100920000C6844EA05242043506090680C4C204039
:10093000D1E903542C438D682C434D7944EA450496
:1009400020439060D06A20F470000C7D641EE4B2F5
:10095000234340EA0350D06230BD0000FFFEFFFC9D
:10096000FDF7FFC070B50C4800F076F80B4C03E0C3
:10097000601E041E00D170BD02210748FFF7BEFFB4
:100980000028F5D00448FFF7B5FF054602210248CC
:10099000FFF784FF2846EEE700200140A086010013
:1009A000F0B504460D4600200021092D11DDE06858
:1009B000A5F10A0606EB4607072606FA07F1884363
:1009C000A5F10A0606EB460603FA06F10843E060C5
:1009D0000CE0206905EB4507072606FA07F1884376
:1009E00005EB450603FA06F108432061072A0FDAF2
:1009F000606B561E06EB86071F2606FA07F1884332
:100A0000561E06EB860605FA06F10843606322E0EF
:100A10000D2A0FDA206BD61F06EB86071F2606FA73
:100A200007F18843D61F06EB860605FA06F1084350
:100A3000206310E0E06AA2F10D0606EB86071F2690
:100A400006FA07F18843A2F10D0606EB860605FAC1
:100A500006F10843E062F0BD816841F080418160A9
:100A6000704700210160017141718160C1600161C5
:100A7000012101757047000030B500220024C578BF
:100A80008B1F9D4200D030BD002306E0C55C15449D
:100A9000EAB2A518ECB25D1CEBB28D1E9D42F5DCEE
:100AA000431813F8023C934204D1431813F8013C55
:100AB000A34200D0E7E78378512B38D103795BB9A3
:100AC00043794B4D6B7183795BB2AB71C3795BB288
:100AD000EB71037A2B7189E00379012B12D14379F1
:100AE000434D2B72C3886B810389AB81837A2B7151
:100AF0009FED400A404B83ED010A2B461B785B1C9F
:100B00002B7073E00379022B70D14379384DAB73AE
:100B1000C3882B8203896B824389AB828389EB82F2
:100B2000C3892B83038A6B83837C2B715EE083787C
:100B3000342B0DD1D0F807302D4DEB619FED2D0AF0
:100B40002D4B83ED020A2B465B785B1C6B704DE0EE
:100B50008378012B13D18388254DA5F84830C388AD
:100B6000A5F84A300389A5F84C304389A5F84E30E2
:100B70008389A5F85030C389A5F8523036E08378D0
:100B8000042B33D1B0F9043000EE103AB8EEC00AAD
:100B9000DFED1A0A20EE200A154B83ED0E0AB0F99C
:100BA000063000EE103AB8EEC00ADFED140A20EE6F
:100BB000200A0F4B83ED0F0AB0F9083000EE103A0F
:100BC000B8EEC00ADFED0D0A20EE200A084B83EDD7
:100BD000100AB0F90A3000EE103AB8EEC00ADFEDA4
:100BE000070A20EE200A024B83ED110A00BF4AE7F4
:100BF000184E012000000000B84E012017B7D13870
:100C000010B504463E48007838B9AA2C05D1012019
:100C10003B4908703B48047070E03948007801286F
:100C200005D10220364908703648447066E03448E1
:100C30000078022805D103203149087031488470BA
:100C40005CE02F48007803280CD1322C0ADA04200B
:100C50002B4908702B48C4702B48047000202B4986
:100C600008704BE026480078042819D126480078FF
:100C7000002815DD24480078401E234908702348C9
:100C8000007822490978491C204A1170001D1D492D
:100C90000C541D48007868BB0520194908702DE0E8
:100CA0001748007805280DD1062015490870174807
:100CB000007816490978491C144A1170001D114921
:100CC0000C541BE00E480078062814D100200C4973
:100CD00008700E480078001D0A490C549FED0C0A5C
:100CE0000C4880ED000A09480078401DC1B2054853
:100CF000FFF7C2FE02E000200149087010BD0000AD
:100D00003C070020844E01203A0700203B070020CA
:100D100000000000B84E012010B500F0E7F81E48B2
:100D2000007E10B100F026F90AE01C48407E10B1A8
:100D300000F04CFA04E01A48407E08B100F098F93F
:100D400018484089B0F5E16F0DD116480089B0F51B
:100D5000E16F08D11448007828B914480068401D94
:100D60001249086002E00020104908600F4800683E
:100D7000B0F5FA6F03D301200D49087002E000209E
:100D80000B4908700A480078012802D105F0FEFAE4
:100D900001E005F01DFC10BDCC520120AC52012039
:100DA000F0520120C44E012088070020B800002026
:100DB000BC00002010B52DED088BB0EE408AF0EE9F
:100DC000608AB0EE419A404890ED000AF0EE409AF9
:100DD000F5EEC09AF1EE10FA11D83C4880ED908AF9
:100DE000C0EDA28A80ED6C9A0020394908709FED11
:100DF000390A394880ED000ABDEC088B10BD344833
:100E00000078C0B9314880ED908AC0EDA28A80EDAB
:100E10006C9A324880ED008A3148C0ED008A314832
:100E200080ED009A9FED2B0A2B4880ED000A0120EF
:100E300027490870E0E7294890ED000A38EE400A9B
:100E4000B0EE40BA264890ED000A38EEC00AB0EE87
:100E500040AA244890ED000A39EE400ADFED220A4C
:100E600020EE200AF0EE40AA6BEE0B0A4AEE0A0AC8
:100E70004AEEAA0AB0EE600A0AF0F7FB1648D0ED77
:100E8000000A30EE200A80ED000A144880ED008A46
:100E90001348C0ED008A134880ED009A0E4890ED8B
:100EA000000AB4EEE90AF1EE10FA0BDB074880ED18
:100EB000908AC0EDA28A80ED6C9A9FED060A0648E2
:100EC00080ED000A00BF97E7B8070020FC02002071
:100ED000EC00002000000000DC000020E00000200A
:100EE000E4000020E80000200000C84210B504F033
:100EF0004DFD48B900201B4948761B4908761B491F
:100F000048761B49886110BD1648407E38B10020E4
:100F10001549087615494876154988611FE0124839
:100F2000007E38B100200F494876104948761049B4
:100F3000886114E00D48407E38B1002009494876A8
:100F4000094908760A49886109E00948806930B191
:100F5000002004494876044908760449487600BFD1
:100F6000D1E70000AC520120CC520120F052012008
:100F70006808002010B52DED048B9FED370AB0EE08
:100F8000409A3648C079012805D0002034490876B7
:100F9000BDEC048B10BD3248007E00B9F8E7304844
:100FA00090ED080ADFED2C0A30EE200A80ED080AE9
:100FB00090ED070AD0ED040A9FED271A00EE810A92
:100FC00080ED070AD0ED070AB0EE600A0AF048FA91
:100FD0002348D0ED010A90ED031A41EE000AB0EE6D
:100FE000608AD0ED070AB0EE600A08F0DDFE1C480A
:100FF000D0ED000A90ED031A41EE000AF0EE608A8F
:1010000090ED020AB0EE401AF0EE480AB0EE680A1F
:10101000FFF7D0FE124890ED070ADFED120A20EE2E
:10102000200A114880ED240A0D4890ED050AB5EE1E
:10103000C00AF1EE10FA0DDD90ED080AD0ED050AB8
:10104000B4EEE00AF1EE10FA04DB00200449087661
:101050000649886100BF9BE70AD7A33B8052012065
:10106000CC520120ED2E6542FC02002068080020D1
:1010700010B52DED088B9FED4F0AB0EE40BA4E48EB
:10108000C079012805D000204C494876BDEC088B7A
:1010900010BD4A48407E00B9F8E7484890ED080A7C
:1010A000DFED440A30EE200A80ED080A90ED070AD1
:1010B000D0ED040A9FED3F1A00EE810A80ED070A89
:1010C00090ED078A007E012822D1F0EE000A68EE3A
:1010D000200AB0EE600A0AF0C3F93848D0ED000AE1
:1010E00090ED031AF6EE001A21EE211AF0EE608A56
:1010F00041EE008AB0EE480A0AF0B2F92F48D0ED6E
:10110000010A90ED031AB0EE609A01EE009A29E010
:10111000B0EE480A0AF0A4F9F0EE409AB0EE480AA0
:1011200008F042FEB0EE40AAB7EE000A09EEA90AA6
:10113000F0EE40AA214890ED030A60EE0A0A80EE24
:10114000AA0AD0ED000A70EE208A90ED030A20EE84
:10115000290A20EE0A0AC0EE2A0A90ED010A30EEB2
:10116000809A00BF154890ED020AB0EE401AF0EEEA
:10117000490AB0EE680AFFF71DFE9FED110A1148FB
:1011800080ED240A0D4890ED050AB5EEC00AF1EE97
:1011900010FA0DDD90ED080AD0ED050AB4EEE00A74
:1011A000F1EE10FA04DB0020044948760649886114
:1011B00000BF6BE70AD7A33B80520120F052012009
:1011C00000000000FC0200206808002010B52DED92
:1011D000068B9FED410AB0EE40AA4048C079012835
:1011E00005D000203E494876BDEC068B10BD3C483A
:1011F000407E00B9F8E73A4890ED070ADFED360A7D
:1012000030EE200A80ED070AD0ED040A9FED351A72
:1012100060EE810A90ED071A60EE810AB0EE600A76
:101220000AF01EF92E48D0ED030A20EE200AB0EE97
:10123000408A90ED000AF0EE408A90ED010AB0EE8F
:10124000409A90ED020AF0EE409A007E20B101280B
:101250000AD0022818D10FE0214890ED000A30EEA4
:10126000080AF0EE408A10E01D4890ED010A30EEC9
:10127000080AB0EE409A08E0194890ED020A30EEF4
:10128000080AF0EE409A00E000BF00BFB0EE691A15
:10129000F0EE490AB0EE680AFFF78CFD9FED120AE6
:1012A000124880ED240A0E4890ED050AB5EEC00AFA
:1012B000F1EE10FA0DDD90ED070AD0ED050AB4EE5F
:1012C000E00AF1EE10FA04DB0020054948760849EF
:1012D000886100BF88E700000AD7A33B8052012045
:1012E000AC520120D00FC94000000000FC020020D9
:1012F000680800209FED040A044880ED000A0020E1
:10130000034908707047000000000000DC00002066
:10131000EC00002008B500BF0DF044FF00900AE08B
:10132000FFF7FAFC0448408E401C0349488605211B
:1013300068460DF07DF8F3E7385201201CB5012115
:10134000022004F0D1F94FF40070009001208DF8D4
:10135000040000208DF8060003208DF80500012010
:101360008DF807006946044801F054FC4FF4007101
:10137000014801F0BAFC1CBD0004024070B50446EF
:10138000002510210A4801F0B0FCFF2141EA0421A8
:1013900041F400400CF0B6FA00200CF0B3FA050A54
:1013A0001021034801F0A3FC00BF284670BD0000D7
:1013B0000008024070B504462021094801F095FC60
:1013C000002141EA042141F400400CF09BFAC5B22F
:1013D0002021034801F08BFC00BF284670BD0000AF
:1013E0000008024070B504460D461021074801F080
:1013F0007CFC45EA0421C1F30E000CF083FA1021B5
:10140000024801F074FC00BF70BD000000080240FB
:1014100070B504460D462021074801F066FC45EAF8
:101420000421C1F30E000CF06DFA2021024801F0F6
:101430005EFC00BF70BD00000008024010B54FF414
:10144000407003F06DFA02F067FB03F073FA03F0EB
:1014500011FBFFF7E1F94FF4FA600BF091F805F09A
:10146000CDF80AF0CDFF07F019F807F08FF807F074
:101470000DF906F01DFE06F00BFFFFF75FFF4FF4BE
:1014800000610C4801F031FC4FF48051094801F033
:101490002EFC4FF48071084801F029FC4FF4FA60EB
:1014A0000BF06EF803F084FB9FED040A044880ED16
:1014B0001E0A10BD00000240000802400000B442B5
:1014C000384F012090ED010A80ED000A90ED020AEC
:1014D00080ED010A90ED060ADFED160A80EE201A73
:1014E00080ED021A90ED040A80ED030A90ED050AE2
:1014F00080ED040A90ED000AD0ED020A30EE200AD9
:10150000D0ED010AB0EE001A01EE200AD0ED030A78
:101510009FED091A01EE200AD0ED040A9FED071A8B
:1015200001EE200A80ED050A90ED050A80ED070A1C
:101530007047000067BFFF42021944BF7E0BDE3FC9
:1015400090ED010A80ED000A90ED020A80ED010A9B
:1015500090ED030A80ED020A90ED080ADFED1D0A06
:1015600080EE201A80ED031A90ED050A80ED040A42
:1015700090ED060A80ED050A90ED070A80ED060A57
:1015800090ED000AD0ED030A30EE200AD0ED010AFA
:1015900090ED021A70EE810AB0EE081A01EE200AF0
:1015A000D0ED040A9FED0C1A01EE200AD0ED050AD9
:1015B0009FED0A1A01EE200AD0ED060A9FED081AE7
:1015C00001EE200A80ED070A90ED070A80ED090A76
:1015D000704700006D85AC431736083F20F5F6BF15
:1015E0002BF1174010B500F079F83348408AB0F578
:1015F000FA7F05DC31480068401C3049086002E091
:1016000000202E4908602D4800680A2803DD0220CA
:1016100001F09AFA02E0032001F096FA26490989BE
:1016200040F21452914201DD012100E00021084600
:1016300060B12349097849B922490978012905D1BE
:101640000221204A117000211F4A91611C49087033
:1016500019488089B0F5FA7F01D9012000E0002007
:1016600004465CB11948007840B901F0C7FA10B9D6
:10167000002001F069FA0120154908701348047030
:101680000D48C089B0F5FA7F01D9012000E00020A3
:10169000044674B10F48007858B901F0AFFA28B980
:1016A000002001F051FA012004F0C4F901200A4998
:1016B00008700848047010BDC44E012024000020AA
:1016C0002800002039070020680800202900002099
:1016D000B50700202A000020B607002010B52DED28
:1016E000048B8848C08800EE100AB8EE400ADFED8F
:1016F000860A30EE600ADFED850A80EE201AB0EE31
:10170000418A8048008800EE100AB8EE400ADFEDFA
:101710007E0A30EE600ADFED7D0A80EE201AF0EEE0
:10172000418A7848408800EE100AB8EE400ADFEDA2
:10173000760A30EE600ADFED750A80EE201AB0EE10
:10174000419A7048808800EE100AB8EE400ADFED3A
:101750006E0A30EE600ADFED6D0A80EE201AF0EEC0
:10176000419ABEEE080AB4EEC08AF1EE10FA0CD22D
:10177000B6EE080AF4EEC09AF1EE10FA05DD644800
:101780008068401C6249886002E0002060498860EF
:10179000BEEE080AB4EEC08AF1EE10FA0CD2BEEE2C
:1017A000080AF4EEC09AF1EE10FA05D25848006823
:1017B000401C5749086002E0002055490860B6EE19
:1017C000080AB4EEC08AF1EE10FA0CDDBEEE080A8B
:1017D000F4EEC09AF1EE10FA05D24D484068401C74
:1017E0004B49486002E0002049494860B6EE080ACB
:1017F000B4EEC08AF1EE10FA0CDDB6EE080AF4EE93
:10180000C09AF1EE10FA05DD4148C068401C40491D
:10181000C86002E000203E49C860BEEE080AF4EE4F
:10182000C08AF1EE10FA0CD2BEEE080AB4EEC09AED
:10183000F1EE10FA05D236480069401C34490861BF
:1018400002E0002032490861BEEE080AF4EEC08AC8
:10185000F1EE10FA0CD2B6EE080AB4EEC09AF1EE30
:1018600010FA05DD2A488069401C2949886102E098
:10187000002027498861B6EE080AF4EEC08AF1EE2E
:1018800010FA0CDDBEEE080AB4EEC09AF1EE10FAC2
:1018900005D21F484069401C1D49486102E00020F4
:1018A0001B494861B6EE080AF4EEC08AF1EE10FA60
:1018B0000CDDB6EE080AB4EEC09AF1EE10FA05DDC2
:1018C0001348C069401C1249C86102E00020104959
:1018D000C8610F488068962806D3002001F034F9CB
:1018E00000200B498860086009480068322806D348
:1018F000012001F029F90020054988600860BDEC4D
:10190000048B10BD7052012000803B4500007A44DA
:101910008C5201209FED160A164880ED0A0A9FEDB1
:10192000140A80ED1C0A9FED120A80ED2E0A9FED2D
:10193000100A80ED400A9FED0E0A80ED520A9FEDDD
:101940000C0A80ED640A9FED0A0A80ED760A9FED8D
:10195000080A80ED880A90ED910A80ED900A90EDDA
:10196000A30A80EDA20A90ED250A80ED240A7047B3
:1019700000000000FC02002090ED000AD0ED010AFA
:1019800030EE600A80ED080A90ED0B0AD0ED0C0AEB
:10199000B4EEE00AF1EE10FA06D890ED080AB5EEC2
:1019A000C00AF1EE10FA11DC90ED0B0AD0ED0C0A32
:1019B000F1EE600AB4EEE00AF1EE10FA23DB90EDEE
:1019C000080AB5EEC00AF1EE10FA1CD290ED080A32
:1019D000B5EEC00AF1EE10FA02DD90ED080A03E060
:1019E00090ED080AB1EE400AD0ED110AB4EEE00A1B
:1019F000F1EE10FA07D290ED0A0AD0ED080A30EEA7
:101A0000200A80ED0A0A90ED0A0AD0ED100AF1EEE4
:101A1000600AB4EEE00AF1EE10FA05D290ED100A79
:101A2000B1EE400A80ED0A0A90ED0A0AD0ED100AE4
:101A3000B4EEE00AF1EE10FA03DD90ED100A80ED4D
:101A40000A0A90ED030AD0ED0A0A20EE200A80ED82
:101A5000060A90ED060AD0ED0E0AF1EE600AB4EE29
:101A6000E00AF1EE10FA05D290ED0E0AB1EE400A4E
:101A700080ED060A90ED060AD0ED0E0AB4EEE00AFB
:101A8000F1EE10FA03DD90ED0E0A80ED060A90EDFE
:101A9000020AD0ED080A20EE200A80ED050A90ED3A
:101AA000050AD0ED0D0AF1EE600AB4EEE00AF1EE9F
:101AB00010FA05D290ED0D0AB1EE400A80ED050A4C
:101AC00090ED050AD0ED0D0AB4EEE00AF1EE10FA41
:101AD00003DD90ED0D0A80ED050A90ED080AD0EDCA
:101AE000090A30EE600AD0ED040A20EE200A80EDEB
:101AF000070A90ED070AD0ED0F0AF1EE600AB4EE86
:101B0000E00AF1EE10FA05D290ED0F0AB1EE400AAC
:101B100080ED070A90ED070AD0ED0F0AB4EEE00A57
:101B2000F1EE10FA03DD90ED0F0A80ED070A90ED5B
:101B3000050AD0ED060A30EE200AD0ED070A30EE95
:101B4000200A80ED0B0A90ED0B0AD0ED0C0AF1EEA5
:101B5000600AB4EEE00AF1EE10FA05D290ED0C0A3C
:101B6000B1EE400A80ED0B0A90ED0B0AD0ED0C0AA5
:101B7000B4EEE00AF1EE10FA03DD90ED0C0A80ED10
:101B80000B0A90ED080A80ED090A704790ED000AF3
:101B9000D0ED010A30EE600A80ED080A90ED080AE7
:101BA000DFED900AB4EEE00AF1EE10FA07DB90EDFB
:101BB000080ADFED8D0A30EE600A80ED080A90ED2C
:101BC000080ADFED8A0AB4EEE00AF1EE10FA07D84F
:101BD00090ED080ADFED840A30EE200A80ED080A55
:101BE00090ED0B0AD0ED0C0AB4EEE00AF1EE10FA1B
:101BF00006D890ED080AB5EEC00AF1EE10FA11DC35
:101C000090ED0B0AD0ED0C0AF1EE600AB4EEE00A9A
:101C1000F1EE10FA23DB90ED080AB5EEC00AF1EE02
:101C200010FA1CD290ED080AB5EEC00AF1EE10FAD7
:101C300002DD90ED080A03E090ED080AB1EE400ADB
:101C4000D0ED110AB4EEE00AF1EE10FA07D290EDF1
:101C50000A0AD0ED080A30EE200A80ED0A0A90ED5B
:101C60000A0AD0ED100AF1EE600AB4EEE00AF1EED5
:101C700010FA05D290ED100AB1EE400A80ED0A0A82
:101C800090ED0A0AD0ED100AB4EEE00AF1EE10FA77
:101C900003DD90ED100A80ED0A0A90ED030AD0ED05
:101CA0000A0A20EE200A80ED060A90ED060AD0ED21
:101CB0000E0AF1EE600AB4EEE00AF1EE10FA05D277
:101CC00090ED0E0AB1EE400A80ED060A90ED060A8C
:101CD000D0ED0E0AB4EEE00AF1EE10FA03DD90ED5D
:101CE0000E0A80ED060A90ED020AD0ED080A20EEF9
:101CF000200A80ED050A90ED050AD0ED0D0AF1EEFF
:101D0000600AB4EEE00AF1EE10FA05D290ED0D0A89
:101D1000B1EE400A80ED050A90ED050AD0ED0D0AFE
:101D2000B4EEE00AF1EE10FA03DD90ED0D0A80ED5D
:101D3000050A90ED080AD0ED090A30EE600AD0EDF0
:101D4000040A20EE200A80ED070A90ED070AD0ED84
:101D50000F0AF1EE600AB4EEE00AF1EE10FA05D2D5
:101D600090ED0F0AB1EE400A80ED070A90ED070AE8
:101D7000D0ED0F0AB4EEE00AF1EE10FA03DD90EDBB
:101D80000F0A80ED070A90ED050AD0ED060A30EE45
:101D9000200AD0ED070A30EE200A80ED0B0A90ED04
:101DA0000B0AD0ED0C0AF1EE600AB4EEE00AF1EE97
:101DB00010FA05D290ED0C0AB1EE400A80ED0B0A44
:101DC00090ED0B0AD0ED0C0AB4EEE00AF1EE10FA39
:101DD00003DD90ED0C0A80ED0B0A90ED080A80ED12
:101DE000090A7047000034430000B443000034C3C4
:101DF00010B52DED048B032007F024F9DF4800789F
:101E0000401CDE49087008460078022805DBDC48E3
:101E1000FFF7B2FD0020D9490870042007F012F93D
:101E2000D7484830FFF7A8FDD6480078401CD54970
:101E3000087008460078022819DB012007F002F933
:101E4000CF489030FFF798FDCD48D830FFF794FD8C
:101E50000020CC490870022007F0F4F804F09EF846
:101E6000C948FFF789FDC8484830FFF785FD0520C0
:101E700007F0E8F8C548FFF77FFDC4484830FFF792
:101E80007BFD062007F0DEF8C0489030FFF77EFEAD
:101E9000072007F0D7F803F077FF05F00FFE0020CA
:101EA00005F036FC48B1002005F026FCB748D0ED1F
:101EB000480A30EE200A80ED480A012005F028FC8F
:101EC00048B1012005F018FCB048D0ED360A30EEDC
:101ED000200A80ED360A022005F01AFC48B10220E3
:101EE00005F00AFCA948D0ED5A0A30EE200A80ED30
:101EF0005A0AA348D838FFF73FFDA1489038FFF7AA
:101F00003BFD9F484838FFF737FDA04801F05EFED3
:101F100040F686309E4908809E48807A002878D016
:101F20009D4890ED6F0A9D48D0ED1F0A20EE200AD3
:101F3000B0EE408A984890ED350A9948D0ED1F0AD6
:101F400020EE200AF0EE408A934890ED180A95485A
:101F5000D0ED1F0A20EE200AB0EE409A8E4890ED98
:101F6000520A9148D0ED1F0A20EE200AF0EE409A66
:101F700018EE100A07F0EDFC18B99FED8C0AB0EED0
:101F8000408A18EE900A07F0E4FC18B99FED870A22
:101F9000F0EE408A19EE100A07F0DBFC18B99FED4D
:101FA000830AB0EE409A19EE900A07F0D2FC18B9F5
:101FB0009FED7E0AF0EE409A7448D0ED890A74488D
:101FC000B0F9000000EE100AB8EEC00A30EE800A48
:101FD00030EE080A764880ED000A6C4890ED410A20
:101FE00030EE280A734880ED000A684890ED530AE5
:101FF00030EE090AB1EE400A6F4880ED000A6348EE
:1020000090ED650A30EE290A6C4880ED000A23E065
:10201000FFE75E48D0ED890A5D48B0F9000000EEA8
:10202000100AB8EEC00A30EE800A614880ED000A5E
:10203000564890ED410A5F4880ED000A534890ED04
:10204000530AB1EE400A5C4880ED000A4F4890ED1B
:10205000650A5A4880ED000A5948D0ED000A9FED04
:10206000591A9FED580A00EE810AB0EE402A5648F0
:10207000D0ED000A9FED531A9FED520A00EE810A3F
:10208000F0EE402AF4EEC22AF1EE10FA06D2B0EEDB
:10209000620AF0EE422AB0EE402A00BFB0EE621AA9
:1020A000F0EE420A424890ED000A00F091F84048F4
:1020B00080ED000A90ED000A3F48D0ED000A30EEB6
:1020C000600A3C48D0ED000A30EE600A3B48D0ED93
:1020D000000A30EE200ABDEEC00A10EE100A00B26F
:1020E0003A490880324890ED000A3348D0ED000AA2
:1020F00030EE200A2F48D0ED000A30EE200A2F489B
:10210000D0ED000A30EE200ABDEEC00A10EE100A33
:1021100000B24880264890ED000A2748D0ED000A1A
:1021200030EE600A2348D0ED000A30EE200A234842
:10213000D0ED000A30EE600ABDEEC00A10EE100AC3
:1021400000B288801A4890ED000A1B48D0ED000AC2
:1021500030EE200A1748D0ED000A30EE600A17482A
:10216000D0ED000A30EE600ABDEEC00A10EE100A93
:1021700000B2C880BDEC048B10BD00002C00002014
:10218000AC0400202D000020CC050020FC02002023
:1021900040000020E849012018480120FC4B0120A4
:1021A000A44A0120F8490120504B01200000000002
:1021B0003000002034000020380000203C000020C7
:1021C000AC0700200000FA44B00700203E070020C2
:1021D000F0EE401AF4EEE01AF1EE10FA02D2B0EE90
:1021E000600A7047F4EEC11AF1EE10FA02DDB0EEAB
:1021F000410AF6E7B0EE610AF3E7000010B50749BF
:10220000074800F033F940B14FF0C051044800F0E6
:1022100033F80021024800F063F810BD0080001878
:102220005860024010B50749074800F01FF938B15F
:102230000649054800F020F80021034800F050F856
:1022400010BD000000802020A0600240000020207F
:1022500010B50749074800F009F940B14FF0205187
:10226000044800F009F80021024800F039F810BDD8
:1022700000800028B86002400246094B9A4201D211
:10228000084801E00648103801F000531BB1064B26
:102290000B40C36002E0044B0B40836070470000BA
:1022A00010640240006002407D0F7D0F0246094B22
:1022B0009A4201D2084801E00648103801F0005364
:1022C0001BB1064B0B40C36002E0044B0B40836024
:1022D0007047000010640240006002407D0F7D0FD7
:1022E00021B1026842F00102026003E0026822F0BC
:1022F0000102026070470000016821F001010160E5
:102300000021016041608160C16001612121416162
:102310004A49884204D13D21484A103A91608CE0F4
:1023200046491831884205D14FF47461434A103A46
:10233000916082E041493031884205D14FF47411F7
:102340003E4A103A916078E03C494831884205D1D4
:102350004FF07461394A103A91606EE0374960314C
:10236000884204D13649354A103AD16065E0334994
:102370007831884204D13349304A103AD1605CE068
:102380002E499031884204D12F492C4A103AD1600D
:1023900053E02A49A831884205D14FF03D51274AE0
:1023A000103AD16049E02949884204D13D21274AA9
:1023B000083A116041E025491831884205D14FF4AF
:1023C0007461224A083A116037E02049303188426E
:1023D00005D14FF474111D4A083A11602DE01B49D4
:1023E0004831884205D14FF07461184A083A1160AB
:1023F00023E016496031884204D11149134A121F63
:1024000011601AE011497831884204D10D490F4A10
:10241000121F116011E00D499031884204D10A4920
:102420000A4A121F116008E00849A831884204D105
:102430004FF03D51054A121F116070471060024075
:102440003D000020400F002000003D2010640240AD
:10245000014600200A6802F001020AB1012000E0F2
:10246000002070470146486880B2704770B5024648
:10247000002000240025124EB24201D2114B01E08F
:102480000F4B103B104E0E4036B11E2606EAD124EB
:10249000166806EA040502E0566906F0800501F0B8
:1024A00000560EB15C6800E01C68084E344004EA37
:1024B000010616B10DB1012000E0002070BD000042
:1024C00010640240006002403C0F3C0F7D0F7D0F06
:1024D00010B501F080034BB122B1436943F0800392
:1024E000436103E0436923F08003436180290BD0FB
:1024F0002AB1036801F01E042343036004E003686B
:1025000001F01E04A343036010BD000010B50022BB
:102510000268134B1A40CC680B6823434C69234371
:102520008C692343CC6923430C6A23434C6A2343BD
:102530008C6A23434C6B23438C6B23431A43026006
:10254000426922F00702D1E90B3423431A43426166
:102550000B6943604B6883608B68C36010BD0000EB
:102560003F801CF0F8480078AA287DD1F6484078D2
:10257000AA28FAD1F4488078F4490870F248C07863
:102580004870F14800798870EF484079C870084673
:1025900090ED000ADFEDEE0AB4EEE00AF1EE10FA7B
:1025A00011DD90ED000ADFEDEB0AB4EEE00AF1EE8A
:1025B00010FA08D290ED000ADFEDE70A20EE200ABB
:1025C000E64880ED000AE0488079E0490870DE487E
:1025D000C0794870DC48007A8870DB48407AC8705F
:1025E000084690ED000ADFEDDA0AB4EEE00AF1EEFB
:1025F00010FA11DD90ED000ADFEDD60AB4EEE00A24
:10260000F1EE10FA08D290ED000ADFEDD30A20EEC9
:10261000200AD24880ED000ACB48807ACB49087066
:10262000C948C07A4870C848007B8870C648407B5B
:10263000C870084690ED000ADFEDC50AB4EEE00A66
:10264000F1EE10FA13DD90ED000ADFEDC20AB4EEF0
:10265000E00AF1EE10FA0AD290ED000ADFEDBE0AB0
:1026600020EE200ABD4800E06CE180ED000AB6488B
:10267000807BB6490870B448C07B4870B248007C83
:102680008870B148407CC870084690ED000ADFEDC4
:10269000B00AB4EEE00AF1EE10FA11DD90ED000A96
:1026A000DFEDAC0AB4EEE00AF1EE10FA08D290EDDC
:1026B000000ADFEDA90A20EE200AA84880ED000AF2
:1026C000A148807CA14908709F48C07C48709E4802
:1026D000007D88709C48407DC870084690ED000AD7
:1026E000DFED9B0AB4EEE00AF1EE10FA11DD90ED99
:1026F000000ADFED980AB4EEE00AF1EE10FA08D213
:1027000090ED000ADFED940A20EE200A934880ED58
:10271000000A8D48807D8D4908708B48C07D4870C7
:102720008948007E88708848407EC870084690EDD1
:10273000000ADFED870AB4EEE00AF1EE10FA11DDCF
:1027400090ED000ADFED830AB4EEE00AF1EE10FA34
:1027500008D290ED000ADFED800A20EE200A7F48C3
:1027600080ED000A7848807E784908707648C07EFF
:1027700048707548007F88707348407FC87008466D
:1027800090ED000AF9EE040AB4EEE00AF1EE10FA58
:102790000DDD90ED000AF1EE040AB4EEE00AF1EE70
:1027A00010FA04D290ED000A6C4880ED000A6648E9
:1027B000807F664908706448C07F4870624890F81E
:1027C00020008870604890F82100C870084690ED9D
:1027D000000AF9EE040AB4EEE00AF1EE10FA0DDD9B
:1027E00090ED000AF1EE040AB4EEE00AF1EE10FA00
:1027F00004D290ED000A594880ED000A524890F842
:10280000220052490870504890F8230048704E4802
:1028100090F8240088704C4890F82500C87008464D
:1028200090ED000AF9EE040AB4EEE00AF1EE10FAB7
:102830000DDD90ED000AF1EE040AB4EEE00AF1EECF
:1028400010FA04D290ED000A444880ED000A3E4898
:1028500090F826003D4908703B4890F827004870E2
:10286000394890F828008870374890F82900C870D7
:10287000084690ED000ADFED360AB4EEE00AF1EE0C
:1028800010FA0DDD90ED000ADFED320AB4EEE00A39
:10289000F1EE10FA04D290ED000A304880ED000A03
:1028A000294890F82A0029490870274890F82B00F9
:1028B0004870254890F82C008870234890F82D0027
:1028C000C870084690ED000ADFED210AB4EEE00A78
:1028D000F1EE10FA0DDD90ED000ADFED1E0AB4EE08
:1028E000E00AF1EE10FA04D290ED000A1B4880EDE8
:1028F000000A154890F82E0014490870124890F804
:102900002F004870104890F8300088700E4890F8FA
:102910003100C870084690ED000ADFED0D0AB4EEF4
:10292000E00AF1EE10FA0DDD90ED000ADFED090A84
:10293000B4EEE00AF1EE10FA04D290ED000A074876
:1029400080ED000A7047000038500120840000200C
:10295000002474C9002474490000C8428800002083
:1029600038B5044672A0006800907248017800787B
:10297000401C704A10707048445410460078192862
:102980007ED11820114608706B4800780F2878D146
:102990006948007E38B16848017E684A12781DF89F
:1029A00002008142F3D100206249087062484078F9
:1029B0006149897801F0070140EA012060490880F7
:1029C0005D48C0788006400D5B49897840EAE100A7
:1029D0005B49488058484079C007400D56490979FD
:1029E00040EA81005449C97840EAA11054498880DE
:1029F000514880790007400D4F49497940EA61000C
:102A00004F49C8804C48C0794006400D4A498979F1
:102A100040EA21104A4908814748407A8007400D22
:102A20004549097A40EA41004349C97940EAE11041
:102A3000434948814048807AC006400D3E49497A62
:102A400040EAA1003E4988813B48C07AC0003A492B
:102A5000897A40EA61103A49C8813748007B364993
:102A6000497B01F0070140EA0120354908823248DC
:102A7000807B8006400D3049497B40EAE10001E05F
:102A800054E049E02E4948822B48007CC007400DA5
:102A90002949C97B40EA81002749897B40EAA11086
:102AA000274988822448407C0007400D2249097C40
:102AB00040EA61002249C8821F48807C4006400DE0
:102AC0001D49497C40EA21101D4908831A48007DB0
:102AD0008007400D1849C97C40EA41001649897CAD
:102AE00040EAE110164948831348407DC006400D76
:102AF0001149097D40EAA100114988830E48807D73
:102B0000C0000D49497D40EA61100D49C8830CF0B1
:102B10004FFB0C49086009E0002005E0064A411C13
:102B2000515C1154411CC8B21828F7DB38BD0000B5
:102B30000414243446070020E44E012047070020F7
:102B4000C44E01208C07002010B504460BF0C2FAD9
:102B50002848007820B1012814D0022844D12AE066
:102B600034B9012023490870084600780AF0B0FD06
:102B7000022C06D102201F490870084600780AF08E
:102B8000A7FD32E0012C09D100201A49087008463F
:102B900000780AF09DFD002017490870022C09D129
:102BA000022014490870084600780AF091FD0020C0
:102BB0001149087019E0032C09D100200D49087053
:102BC000084600780AF084FD00200B490870012CAB
:102BD00009D1002007490870084600780AF078FDFE
:102BE00000200549087000E000BF00BF0BF0B6FAF6
:102BF00010BD0000380700203907002010B50BF089
:102C000069FA034804780BF0A9FA204610BD0000C9
:102C100038070020F0B50A4600210023002400BF39
:102C20003DE0012505FA01F3156805EA03049C421D
:102C300034D105684F000326BE40B54305601579C1
:102C40004E00B5400668354305601579012D02D068
:102C50001579022D16D185684F000326BE40B54375
:102C6000856055794E00B540866835438560456876
:102C700001268E40B5434560456896798E40B6B2D0
:102C800035434560C5684F000326BE40B543C56067
:102C9000D5794E00B540C6683543C560491C10293A
:102CA000BFD3F0BDF0B5002300244D07ED0E02FAAE
:102CB00005F3CE1000F1200555F826504E07F70E0B
:102CC0000F26BE40B543CF1000F1200646F827502E
:102CD000CE1000F1200555F8265045EA0304CE1029
:102CE00000F1200545F82640F0BD4183704701837F
:102CF00070474FF6FF7101600021017141718171D0
:102D0000C171704710B52DED028B00F00BF97148C1
:102D1000008800285ED0704890ED000A6D48008859
:102D200041F28831081A6D4901EB800080ED000AFC
:102D30006B4890ED000A6848D0ED000A30EE200A9A
:102D4000674880ED000A674890ED000A61480088F6
:102D500041F28831081A644901EB800080ED000AD5
:102D6000624890ED000A5F48D0ED000A30EE200A7C
:102D70005E4880ED000A5E4890ED000A55480088E4
:102D800041F28831081A5B4901EB800080ED000AAE
:102D9000594890ED000A5648D0ED000A30EE200A5E
:102DA000554880ED000A4B48008841F28831081AE6
:102DB00000EE100AB8EEC00A46480088081A4F49CB
:102DC00001EB800080ED000A42480088401E414926
:102DD00008807BE0484890ED000ADFED490A80EE6C
:102DE000201A484880ED001A00244BE040F2712080
:102DF00060433A4A02EB401141F288323F4809F001
:102E000015FC414800EB840080ED000A3E4800EBD1
:102E1000840090ED000A10EE101A08460DF070FACA
:102E20009FED3A0B53EC102B0DF072F812D336488D
:102E300000EB840090ED000A10EE101A08460DF029
:102E40005FFA41EC180B9FED330B53EC102B0CF099
:102E500025FF16D241F288301E4908809FED2F0AC7
:102E60001F4880ED000A9FED2D0A204880ED000AE2
:102E70009FED2A0A204880ED000A0020BDEC028B5D
:102E800010BD641C032CB1DB154890ED000ADFED8A
:102E90001C0A80EE201A80ED001A144890ED000AFA
:102EA000DFED170A80EE201A80ED001A124890ED2F
:102EB000000ADFED130A80EE201A80ED001A41F2BD
:102EC00088300449088001201549086014480068CA
:102ED000D4E700008C010020A00100208C0F00200E
:102EE000D0010020A4010020AC5D0020D40100200E
:102EF000A8010020CCAB0020D8010020ECF9002074
:102F000000409C45E40100200C4801202D431CEBAF
:102F1000E2360A3F2D431CEBE2360ABF00000000F8
:102F2000F40100202DE9F04F2DED068B87B0132022
:102F3000FEF724FA07461220FEF720FA80461520F5
:102F4000FEF71CFA81461420FEF718FA8246172075
:102F5000FEF714FA83461620FEF710FA06900320B7
:102F6000FEF728FA05900220FEF724FA04900520C7
:102F7000FEF720FA03900420FEF71CFA02900720C7
:102F8000FEF718FA01900620FEF714FA009048EABE
:102F9000072000B200EE100AB8EEC00ADFED660AA4
:102FA00080EE201A9FED650A61EE000A644890EDFC
:102FB000000AB8EE400A20EE800A624880ED000A5E
:102FC0004AEA092000B200EE100AB8EEC00ADFEDAE
:102FD0005A0A80EE201A9FED590A61EE000A5848FD
:102FE00090ED000AB8EE400A20EE800A564880EDC7
:102FF000000A069840EA0B2000B200EE100AF8EE34
:10300000C00A9FED4D1A80EE810ADFED4C0A60EE9A
:10301000200A4B4890ED000AB8EE400A20EE800AE4
:103020004A4880ED000ADDE9040140EA012000B2CF
:1030300000EE100AB8EEC00A9FED3F1AC0EE010A7A
:103040009FED3E0A20EE800A414880ED000ADDE94E
:10305000020140EA012000B200EE100AF8EEC00AB8
:103060009FED351A80EE810ADFED340A20EE200A4A
:10307000384880ED000ADDE9000140EA012000B295
:1030800000EE100AF8EEC00A9FED2B1A80EE810ABE
:10309000DFED2A0A20EE200A2F4880ED000A2220C8
:1030A000FEF76CF906462320FEF768F90446204631
:1030B000E11704EBD161491101EBC605B5F5806F4D
:1030C0001BDBA5F500600CF0BEFD41EC1A0B9FED7B
:1030D000230B53EC102B0CF01DFE41EC190B9FED54
:1030E000210B53EC102B0CF03DFB41EC180B0CF0BA
:1030F0004DFD00B21D49088019E028460CF0BAFDCC
:1031000041EC1A0B9FED150B53EC102B0CF002FE4B
:1031100041EC190B9FED130B53EC102B0CF022FB21
:1031200041EC180B0CF032FD00B21049088007B0DA
:10313000BDEC068BBDE8F08F00FEFF4600007A4430
:10314000E801002094010020980100209C0100204B
:10315000A0010020A4010020A80100200000000020
:103160000000C03F00000000000037409001002038
:1031700010B5FDF7F7FB104908800846008806F0F7
:10318000AFFB0E4880ED000AD0ED000A9FED0C0A5F
:103190009FED0C1A01EE200A0B4880ED000A90ED1D
:1031A000000AF2EE0E0AB4EEE00AF1EE10FA02D2D4
:1031B000012004F05BF910BD7000002068000020C1
:1031C000A69B643F211FE2406C00002010B5002048
:1031D00008498861084948760849087608494876C8
:1031E00002F028FC0020074908700220FFF7ACFC21
:1031F00010BD000068080020AC520120CC52012014
:10320000F0520120BC0700200146F0EE400A184AA7
:1032100012781AB1002901DB032902DBB0EE600A43
:103220007047144A02EB411090ED050AD0ED001AE8
:10323000B0EE401A01EEA01A90ED010A20EE200A2D
:10324000D0ED031A01EEC10AD0ED061A30EE210AC4
:1032500080ED050A90ED020A20EE200AD0ED041A56
:1032600001EEC10A80ED060AB0EE410AD8E700007F
:1032700028070020984D012010B52DED028BB0EEEF
:10328000408AB7EE000AB4EEC08AF1EE10FA02DD11
:10329000B0EE480A01E09FED120A124880ED000AE4
:1032A000002011490870002415E09FED100A104815
:1032B00000EB441080ED050A9FED0C0A0C4800EB72
:1032C000441080ED060A0A4901EB44109FED090AFB
:1032D00009F004F8641C032CE7DBBDEC028B10BD85
:1032E00000004843240700202807002000000000B9
:1032F000984D01200000204210B52DED028B0446B0
:10330000B0EE408A002C01DB032C02DBBDEC028B0B
:1033100010BD044901EB4410B0EE480A08F0DEFF8E
:1033200000BFF3E7984D012008B1012100E0002122
:10333000014A117070470000280700202DE9F8416C
:1033400040490C8B002077E03F49095CCC2971D1C2
:103350003D4A411C515CDD296CD19446831C1CF80C
:103360000350C31C1CF80360031D1CF803308DF8C8
:103370000030431D1CF803308DF80130831D1CF80C
:1033800003308DF80230C31D1CF803308DF8033074
:1033900000F108031CF803700022022107E08BB241
:1033A0000344DFF8A4C01CF803305A40491C082924
:1033B000F5DBBA4239D1DFF894C09CF800C00CF1BB
:1033C000010C0CF00F03DFF888C09CF800C06345C7
:1033D00020D0DFF880C0DFF8748098F800800CF807
:1033E0003850DFF8688098F800800CEBC80C8CF837
:1033F00001609DED000ADFF85CC0DFF8508098F8AE
:1034000000800CEBC80C8CED010ADFF840C08CF892
:10341000003009E0DFF840C0DCF800C00CF1010C1E
:10342000DFF83480C8F800C000BF00F1090398B28B
:1034300002E0FFE7411C88B200F10901A14283D9F3
:10344000BDE8F881480700203850012064070020BB
:1034500065070020B8500120680700202DE9F841D9
:1034600040490C8B002077E03F49095CCC2971D1A1
:103470003D4A411C515CDD296CD19446831C1CF8EB
:103480000350C31C1CF80360031D1CF803308DF8A7
:103490000030431D1CF803308DF80130831D1CF8EB
:1034A00003308DF80230C31D1CF803308DF8033053
:1034B00000F108031CF803700022022107E08BB220
:1034C0000344DFF8A4C01CF803305A40491C082903
:1034D000F5DBBA4239D1DFF894C09CF800C00CF19A
:1034E000010C0CF00F03DFF888C09CF800C06345A6
:1034F00020D0DFF880C0DFF8748098F800800CF8E6
:103500003850DFF8688098F800800CEBC80C8CF815
:1035100001609DED000ADFF85CC0DFF8508098F88C
:1035200000800CEBC80C8CED010ADFF840C08CF871
:10353000003009E0DFF840C0DCF800C00CF1010CFD
:10354000DFF83480C8F800C000BF00F1090398B26A
:1035500002E0FFE7411C88B200F10901A14283D9D2
:10356000BDE8F8816C070020B851012064070020F5
:1035700065070020B85001206807002008B500BF8B
:103580000BF010FE00900AE003F0ACFD0448408C04
:10359000401C03494884012168460AF049FFF3E7CB
:1035A0003852012008B500BF0BF0FCFD00900DE083
:1035B0009FED070A074800F011F80748808C401C6F
:1035C00005498884012168460AF032FFF0E70000CF
:1035D0006F12833A580200203852012010B52DEDA9
:1035E000108B86B00446F0EE408A002003900490D1
:1035F0000590B6EE000A28EE800AB0EE40FAFE48CA
:1036000090ED000AF0EE409AFC4890ED000AB0EE12
:1036100040AAFB4890ED000AF0EE40AAF94890ED70
:10362000000AB0EE40BAF84890ED000AB5EEC00AC4
:10363000F1EE10FA0FD1F54890ED000AB5EEC00A90
:10364000F1EE10FA07D1F24890ED000AB5EEC00A8B
:10365000F1EE10FA7ED0EC4890ED000A8DED030AF1
:10366000EA4890ED000A8DED040AE94890ED000A61
:103670008DED050ADDED030A60EEA00A9DED041A4A
:10368000DDED041A41EE210A9DED051ADDED051A66
:1036900041EE210AB0EE600A08F0AAFFB0EE408ABF
:1036A000DDED030AB0EE480A20EE800A8DED030A34
:1036B000DDED040AB0EE480A20EE800A8DED040A22
:1036C000DDED050AB0EE480A20EE800A8DED050A10
:1036D0009DED040ACF48D0ED000A20EE200ADDED72
:1036E000050ACD4890ED001AF0EE40BA40EEC1BA9E
:1036F0009DED050AC948D0ED000A20EE200ADDED57
:10370000030AC44890ED001AB0EE40CA00EEC1CAE8
:103710009DED030AC048D0ED000A20EE200ADDED41
:10372000040ABE4890ED001AF0EE40CA40EEC1CA4D
:10373000BB4890ED000A60EE2B0ABA4890ED000AF3
:1037400000EEA80A80ED000AB54890ED000A60EE90
:103750000C0A00E03FE0B44890ED000A00EEA80A31
:1037600080ED000AAE4890ED000A60EE2C0AAF48EA
:1037700090ED000A00EEA80A80ED000AA94890ED3D
:10378000000AAB48D0ED000A00EEAB0AA948D0ED24
:10379000000A30EE200A80ED000AA34890ED000AEE
:1037A000A348D0ED000A00EE8C0AA348D0ED000A31
:1037B00030EE200A80ED000A9C4890ED000A9C48FB
:1037C000D0ED000A00EEAC0A9C48D0ED000A30EEC5
:1037D000200A80ED000A974890ED000A20EE0F0ABB
:1037E0008DED000A944890ED000A20EE0F0A8DED51
:1037F000010A924890ED000A20EE0F0A8DED020AB0
:103800009DED000A20EE000ADDED010A9DED011A92
:1038100000EE810ADDED020A9DED021AB0EE409A3B
:1038200000EE819AB7EE000A30EE490A20EE290A2E
:10383000DDED000A0AEE600ADDED010A0AEEE00A9B
:10384000DDED020A0BEE600A6B4880ED000AB7EE70
:10385000000A30EE490A20EE0A0ADDED000A09EE00
:10386000A00ADDED020A0AEEA00ADDED010A0BEE68
:10387000600A624880ED000AB7EE000A30EE490A9D
:1038800020EE2A0ADDED010A09EEA00ADDED020AAA
:103890000AEE600ADDED000A0BEE200A584880EDC2
:1038A000000AB7EE000A30EE490A20EE0B0ADDED01
:1038B000020A09EEA00ADDED010A0AEE200ADDED9A
:1038C000000A0AEEE00A4F4880ED000A4A48D0EDAF
:1038D000000A60EEA00A494890ED001AD0ED001AE7
:1038E00041EE210A464890ED001AD0ED001A41EE53
:1038F000210A444890ED001AD0ED001A41EE210A49
:10390000B0EE600A08F074FEB0EE408A3A4890EDDE
:10391000000A20EE080A80ED000A384890ED000AFF
:1039200020EE080A80ED000A354890ED000A20EEEE
:10393000080A80ED000A334890ED000A20EE080ADC
:1039400080ED000A2C4890ED000A20EE00DA2B48AA
:1039500090ED000A60EE00DA294890ED000A20EEB2
:1039600000EA284890ED000A60EE00EA3DEE2D0ADC
:1039700030EE4E0A30EE6E0A314880ED000A1F48E4
:1039800090ED000A1E48D0ED000A20EE200A1A48E9
:10399000D0ED000A1B4890ED001A00EE810AF0EE0F
:1039A000000A20EE200A274880ED000A134890ED17
:1039B000000A1448D0ED000A20EE200A0E48D0ED8F
:1039C000000A0F4890ED001A00EEC10AF0EE000A5E
:1039D00020EE200A114880ED000A074890ED000A09
:1039E0000648D0ED000A20EE200A0548D0ED000A76
:1039F000044890ED001A27E0D8020020DC020020E5
:103A0000E0020020E4020020AC010020B001002010
:103A1000B4010020F8020020F4020020F00200208F
:103A2000C8020020CC020020D0020020D4020020D6
:103A3000C4020020B8010020BC010020C001002009
:103A4000E8020020EC02002000EE810AF0EE000AFD
:103A500020EE200A2A4880ED000A3DEE6D0A30EE85
:103A60004E0A30EE2E0A274880ED000A264890EDD7
:103A7000000AF7EE000AB4EEE00AF1EE10FA03DDF8
:103A8000B7EE000A80ED000A1F4890ED000AFFEE35
:103A9000000AB4EEE00AF1EE10FA03D2BFEE000A1B
:103AA00080ED000A184890ED000A05F05BFFB1EECA
:103AB000400ADFED160A20EE200A84ED190A1148AB
:103AC000D0ED000A0E4890ED000A05F0E1FFDFEDB1
:103AD0000F0A20EE200A84ED180A0D48D0ED000AE6
:103AE0000C4890ED000A05F0D3FFDFED080A20EE48
:103AF000200A84ED1A0A06B0BDEC108B10BD000040
:103B0000F4020020F8020020F0020020ED2E6542B1
:103B1000E8020020EC0200201CB50121084601F05B
:103B2000E3FD0121042001F0DFFD4FF4C0500090BF
:103B300001208DF8040000208DF8060003208DF888
:103B4000050001208DF8070069461348FFF762F869
:103B50004FF48070009001208DF8040000208DF853
:103B6000060003208DF8050001208DF80700694646
:103B70000A48FFF74FF84FF400610748FFF7B7F81E
:103B80004FF480510448FFF7B2F84FF480710348B6
:103B9000FFF7ABF81CBD0000000002400008024027
:103BA000B0EE401AB4EEE01AF1EE10FA09D2B1EE1E
:103BB000600AB4EEC01AF1EE10FA02DD9FED020ABF
:103BC0007047B0EE410AFBE70000000010B52DED94
:103BD0000A8B044694ED490ADFED580A20EE200ACC
:103BE000F0EE408A94ED370ADFED540A20EE200A09
:103BF000B0EE409A94ED5B0ADFED500A20EE200A09
:103C0000B0EE408A4E48C0ED028A80ED1F9A80EDEA
:103C10003C8A94ED7F0A80ED590A29EE080AF0EEFD
:103C2000409A28EE880AB0EE40AA94ED480ADFEDEB
:103C3000430A20EE200AF0EE40AA94ED360ADFEDAA
:103C40003F0A20EE200AB0EE40BA94ED5A0ADFEDAA
:103C50003B0A20EE200AF0EE40BA94ED7E0AB0EE68
:103C600040CA94ED530A3748D0ED1F0A80EE201A5F
:103C7000334880ED171A94ED410A3348D0ED1F0AFE
:103C800080EE201A2E4880ED341A94ED650A2F48F4
:103C9000D0ED1F0A80EE201A294880ED511A94EDCC
:103CA000890A2B48D0ED1F0A80EE201A244880EDA7
:103CB0006E1A2848C07948B1F0EE6A0AB0EE690A77
:103CC000204A1F49002000F0B1FB04E09FED220ACA
:103CD0001B4880ED180A1F48007A50B1F0EE4B0ADD
:103CE000B0EE4A0A184A16497431012000F09EFBD2
:103CF00004E09FED190A124880ED350A1548407A14
:103D000050B1F0EE6B0A9FED140A104A0C49E831ED
:103D1000022000F08BFB04E09FED0F0A084880EDC5
:103D2000520AF0EE4C0A9FED0C0A094A0B49032097
:103D300000F07CFBBDEC0A8B10BD000039FA8E3C14
:103D400018480120F8490120A44A0120504B0120C5
:103D5000FC4B0120E84901200000000074490120CB
:103D600070B52DED028B05460C46F0EE408A94EDC1
:103D7000020AB0EE408AB7EE000A84ED050A84ED2F
:103D8000068AB0EE480A07F08DFC20EE080A84EDA2
:103D9000070A032D01D0022D04D19FED090A84EDFD
:103DA000080A01E0C4ED088A94ED170A84ED090AB7
:103DB00094ED000A84ED0A0ABDEC028B70BD000090
:103DC0000000000010B5AAB01822E44924A8FCF7AE
:103DD000BCFB1822E14918311EA8FCF7B6FB1822DB
:103DE000DE49303118A8FCF7B0FB1822DB49483116
:103DF00012A8FCF7AAFB1822D84960310CA8FCF7DE
:103E0000A4FB1822D549783106A8FCF79EFB18229E
:103E1000D24990316846FCF798FB002488E024A83A
:103E200000EB840090ED000ACD4800EB840080EDAB
:103E3000000A12A800EB840090ED000AC848283060
:103E400000EB840080ED000A0CA800EB840090EDEC
:103E5000000AC348403000EB840080ED000A24A82B
:103E600000EB840090ED000ABE4800EB840080ED7A
:103E7000000A12A800EB840090ED000AB94828302F
:103E800000EB840080ED000A0CA800EB840090EDAC
:103E9000000AB448403000EB840080ED000A1EA800
:103EA00000EB840090ED000AAF4800EB840080ED49
:103EB000000A12A800EB840090ED000ADFEDAB0AC7
:103EC00020EE200AA848283000EB840080ED000A8C
:103ED0000CA800EB840090ED000ADFEDA40A20EEB0
:103EE000200AA148403000EB840080ED000A18A8A9
:103EF00000EB840090ED000A9D4800EB840080ED0B
:103F0000000A06A800EB840090ED000A98482830CB
:103F100000EB840080ED000A684600EB840090ED21
:103F2000000A9348403000EB840080ED000A641CD6
:103F3000062CFFF674AF9FED8F0A894880ED070AC3
:103F40009FED8D0A80ED210A9FED8C0A80ED200AFD
:103F50009FED8B0A80ED250A9FED8A0A80ED260AE7
:103F6000B3EE0E0A80ED090A9FED870A80ED1E0A66
:103F70009FED860A80ED1F0A9FED820A80ED060AFA
:103F8000B3EE000A80ED080A9FED810A80ED220A57
:103F9000B6EE000A80ED230A9FED770A80ED240A31
:103FA0009FED740A6F4880ED070A9FED730A80ED5C
:103FB000210A9FED720A80ED200A9FED710A80EDC3
:103FC000250A9FED700A80ED260AB3EE0E0A80EDF9
:103FD000090A9FED6D0A80ED1E0A9FED6C0A80EDC7
:103FE0001F0A9FED680A80ED060AB3EE000A80ED15
:103FF000080A9FED670A80ED220AB6EE000A80EDFE
:10400000230A9FED5D0A80ED240A9FED5A0A564867
:1040100080ED070A9FED580A80ED210A9FED5D0AA9
:1040200080ED200AB3EE0E0A80ED250A9FED550AB9
:1040300080ED260AB3EE040A80ED090A9FED560AC8
:1040400080ED1E0A9FED550A80ED1F0AB7EE000AAB
:1040500080ED060AB3EE000A80ED080AB7EE000A0A
:1040600080ED220A9FED4E0A80ED230A9FED420A61
:1040700080ED240A9FED3F0A3D4880ED070A9FED41
:104080003E0A80ED210A9FED420A80ED220A9FED53
:10409000450A80ED230AB7EE080A80ED200AB3EE48
:1040A000040A80ED250A9FED370A80ED260AB3EE5B
:1040B000040A80ED090A9FED3C0A80ED1E0A9FED7F
:1040C0003B0A80ED1F0AB7EE000A254880ED280A5A
:1040D000B7EE000A80ED290AB3EE0E0A80ED2A0A37
:1040E000B7EE000A1F4880ED280AB7EE000A80EDFF
:1040F000290AB3EE0E0A80ED2A0AB7EE000A1A4822
:1041000080ED280AB7EE000A80ED290AB3EE0E0A08
:1041100080ED2A0AB7EE000A154880ED280AB7EEAE
:10412000000A80ED290AB3EE0E0A80ED2A0A01206A
:104130001F49087048708870C87008714871002065
:1041400088710120C8710872487200208872C87294
:10415000087300F0CFF82AB010BD00002805010850
:10416000F8490120A44A0120504B01209A99193F97
:10417000FC4B01200AD7233CCDCC4C3D99BB163BD0
:1041800000003042CDCC4C3FDBA2D74000409244EF
:104190009A99993FA69BC43A5EBA01400000EA444E
:1041A0003333333FCDCCCC3EDBA2574100005E43DE
:1041B000E8490120F0B50446DDE90556002092E00B
:1041C00003EB800797ED003AB0EE432A06EB800739
:1041D00097ED003AF0EE432A05EB800797ED003AA1
:1041E000F0EE431A04EB800797ED003AF0EE430A35
:1041F00001EB800797ED003AB0EE430AF5EEC01AE6
:10420000F1EE10FA1AD8B4EEC20AF1EE10FA04DB9D
:10421000F5EEC00AF1EE10FA09DCB4EEE20AF1EEB6
:1042200010FA0AD8F5EEC00AF1EE10FA05D29FEDA9
:10423000303A04EB800787ED003A53E0F5EEC00A10
:10424000F1EE10FA22DDB4EEC20AF1EE10FA04DB50
:104250009FED273AF0EE430A3FE032EE613AB4EECA
:10426000C03AF1EE10FA38D232EE403A83EE211A1B
:10427000B5EEC01AF1EE10FA03D29FED1D3AB0EE82
:10428000431A20EE813AF0EE430A26E0F5EEC00A2A
:10429000F1EE10FA21D2B4EEE20AF1EE10FA04D8EF
:1042A0009FED133AF0EE430A17E032EEA13AB4EE76
:1042B000C03AF1EE10FA10DD30EE623A83EE211AC8
:1042C000B5EEC01AF1EE10FA03D29FED093AB0EE46
:1042D000431A20EE813AF0EE430A04EB8007C7ED63
:1042E000000A00BF401C9042FFF66AAFF0BD00001C
:1042F0000000000000203EE09FED490A494901EB23
:10430000800181ED000A9FED460A4649743101EBB8
:10431000800181ED000A9FED420A4249E83101EB3C
:10432000800181ED000A9FED3E0A3F4901EB8001CB
:1043300081ED000A9FED3A0A3A49183101EB8001FC
:1043400081ED000A9FED360A36498C3101EB800180
:1043500081ED000A9FED320A33495C3901EB80019F
:1043600081ED000A9FED2E0A2F49183101EB8001E3
:1043700081ED000A401C0628BEDB2A492C3991ED4C
:10438000020A81ED000A9FED260A81ED010A91EDF6
:104390001F0A81ED1D0A9FED220A81ED1E0A91ED93
:1043A0003C0A81ED3A0A9FED1E0A81ED3B0A91ED30
:1043B000590A81ED570A9FED1A0A81ED580A91EDCD
:1043C000020A81ED1A0A9FED160A81ED1B0A9FED84
:1043D000140A81ED1C0A91ED1F0A81ED370A9FED49
:1043E000100A81ED380A9FED0E0A81ED390A91ED30
:1043F0003C0A81ED540A9FED0A0A81ED550A9FEDB2
:10440000080A81ED560A91ED590A81ED710A9FED76
:10441000040A81ED720A9FED020A81ED730A70476A
:104420000000000044480120A04901202DE9F0418E
:104430002DED108B88B007460C461546B0EE40DADD
:10444000B0EE608AB7EE000AF0EE40DA9FEDFE0AA9
:10445000B0EE40EA9FEDFC0AF0EE40EA84ED038AFC
:10446000FA48007B80B301282FD002284ED195ED69
:10447000251AB0EE410A20EE001AD4ED001A78EEAB
:10448000611A21EE211AD5ED261AB0EE002A61EE4E
:10449000821A61EE801A94ED012A01EEC21AF0EE42
:1044A000410A94ED011ADFEDEA1A01EEA01A84ED3B
:1044B000011A94ED001AD4ED011A9FEDE52A02EEDF
:1044C000211A84ED001A2DE021E0D5ED250A94EDA6
:1044D000001A38EE411A60EE810AB0EE600AD4ED9F
:1044E000000A9FEDDB1A41EE000AC4ED000A84EDDC
:1044F000010AD5ED250AB0EE001A60EE810AB7EE8A
:10450000001AC1EE201AF0EE61DA0BE000BF84ED74
:10451000008A9FEDCD0A84ED010AB7EE000AF0EEA5
:1045200040DA00BF00BF94ED020AD4ED000A30EE7D
:10453000600A84ED040A94ED020AD4ED1A0A30EE02
:10454000600ADFEDC30AC0EE20AA94ED1B0AD5ED88
:104550002A0A9FEDBF1A60EE810A94ED1B1A3AEE0B
:10456000C11A00EE810A84ED1B0A94ED020A84ED63
:104570001A0A94ED1B0AD4ED010A30EE600A84EDAC
:104580001C0AB0EE4D0A21463846FFF7E9FB06212A
:1045900004F1140000F06CF9F0EE409AB0EE690AF4
:1045A000F7EE000A30EE20BAA848807850B194EDBA
:1045B000040AB0EEC00AD5ED210AB4EEE00AF1EE2D
:1045C00010FA01DB012000E0002080469F48C078FF
:1045D000D0B195ED220AB5EEC00AF1EE10FA13DD66
:1045E00094ED040AB0EEC00AD5ED220AB4EEE00A5A
:1045F000F1EE10FA08DD9FED940A84ED180A08B078
:10460000BDEC108BBDE8F081D4ED048A8F480079B1
:10461000B0B195ED230AB5EEC00AF1EE10FA0FDD48
:1046200095ED230AC8EE800AF0EE60FAB0EE6F0A4C
:1046300007F038F8D5ED230A20EE200AF0EE408A84
:104640008248007B022834D1D5ED251AB0EE610AEC
:1046500060EE001AF0EE610AD5ED261AB0EE002ADF
:1046600061EE821A61EE801AB0EE611AD5ED281A59
:10467000B0EE002A20EE822AC1EE822AB0EE62EA73
:1046800095ED282AC2EE201A95ED292A71EE821A9C
:10469000B0EE002A21EE022AC1EE822AF0EE62EA92
:1046A00068EE8E1A94ED1C2AB0EE619A02EE2E9AF4
:1046B00001E028EEAD9A6548007800287ED0B8F178
:1046C000000F7BD09FED60CA6048407948B194EDFF
:1046D000040AB0EEC00AD5ED240A20EE200AB0EE9E
:1046E00040CA95ED070A70EE0CCA5848807910B19F
:1046F00095ED060A01E09FED540AB0EE40FA00265F
:1047000011E004F1140000EB860090ED000AF1EED8
:10471000490A20EE200AC0EE0B0A02A800EB860030
:10472000C0ED000A761C062EEBDB4848407868B1E5
:1047300005F1580005F1400105F128030622CDE9F5
:10474000001004F12C0102A8FFF734FD00265AE006
:1047500004F12C0000EB860090ED000A04F1440007
:1047600000EB8600D0ED000A70EE600A02A800EBB4
:10477000860090ED000A0FEE600A04F12C0000EBB9
:104780008600D0ED000A0CEEE00A05EB8600D0EDC5
:10479000000A60EE20BA04F12C0000EB860090EDD8
:1047A000000ADFED2B0A00EEAB0A04F12C0000EB4F
:1047B000860080ED000A2548807900E025E008B3F6
:1047C00004F12C0000EB860090ED000A04F1440097
:1047D00000EB8600D0ED000A70EE600A04F14400A0
:1047E00000EB860090ED000A95ED081ADFED181A2F
:1047F00021EE211A01EE200A04F1440000EB8600AC
:1048000080ED000A761C062EA2DB9FED0FAA002683
:1048100012E004F12C0000EB8600D0ED000A04F158
:10482000140000EB860090ED001AB0EE4A0A00EE8C
:10483000810AB0EE40AA761C062EEADB94ED180A37
:10484000D5ED090A06E0000000000000E84901205B
:104850000AD7A33B1FED021A60EE810A94ED181AE5
:104860003AEE411A00EE810A84ED180A00BFC6E64E
:104870000246DFED0C0AB0EE600A00200FE002EB0A
:10488000800393ED001A02EB8003D3ED001AF0EEE3
:10489000400A41EE210AB0EE600A431CD8B28842B9
:1048A000EDDB70470000000070B5002100230F22EF
:1048B000C4781CB3174C246804F4E064C4F5E064C5
:1048C000C4F30721C1F10404E3B20A4144789C40D7
:1048D000E1B28478144021430C07210E0E4C057878
:1048E0006155047804F01F050124AC4005786D1172
:1048F000AD0005F1E025C5F8004109E0047804F0B9
:104900001F050124AC40054D0678761145F8264078
:1049100070BD00000CED00E000E400E080E100E08C
:1049200002490143024A1160704700000000FA0585
:104930000CED00E000B58BB001A8FEF7DAF908A88D
:1049400003F0ACFB03A803F05BFB0121084600F079
:10495000DBFE0121032000F0C7FE20200190022091
:104960008DF8080003208DF8090000208DF80A005A
:1049700001208DF80B0001A93C48FEF74BF90122FC
:1049800005213A48FEF78EF940F6084001900220D2
:104990008DF8080003208DF8090000208DF80A002A
:1049A00001208DF80B0001A93148FEF733F90122EF
:1049B00003212F48FEF776F901220A212C48FEF741
:1049C00071F901220B212A48FEF76CF942F20F70AF
:1049D00009901B20ADF820000020ADF82800ADF8AC
:1049E00022008DF82A0008A94FF0804003F014FB44
:1049F0006020ADF80C000020ADF81000ADF81800F4
:104A00000820ADF81A004001ADF81C000020ADF8F8
:104A10001E000120ADF80E000020059003A94FF004
:104A2000804003F0B9F90020059003A94FF08040C1
:104A300003F0FAF90020059003A94FF0804003F03D
:104A400053FA0020059003A94FF0804003F09CFA30
:104A50000121880703F090F90121880703F074F918
:104A60000121880703F07CF90BB000BD0000024073
:104A70000004024000B58BB001A8FEF73AF908A87F
:104A800003F00CFB03A803F0BBFA0121022000F0A5
:104A90003BFE0121032000F027FEC02001900220F0
:104AA0008DF8080003208DF8090000208DF80A0019
:104AB00001208DF80B0001A93A48FEF7ABF802225D
:104AC00006213848FEF7EEF8022207213548FEF7A6
:104AD000E9F80320019002208DF8080003208DF8EA
:104AE000090000208DF80A0001208DF80B0001A9B3
:104AF0002D48FEF78FF8022200212B48FEF7D2F84E
:104B0000022201212848FEF7CDF842F20F700990E9
:104B10002920ADF820000020ADF82800ADF82200D3
:104B20008DF82A0008A9214803F076FA6020ADF834
:104B30000C000020ADF81000ADF818000820ADF80A
:104B40001A004001ADF81C000020ADF81E00012045
:104B5000ADF80E000020059003A9144803F01CF9DD
:104B60000020059003A9114803F05EF9002005908C
:104B700003A90E4803F0B8F90020059003A90B48DB
:104B800003F002FA0121094803F0F6F80121074871
:104B900003F0DAF80121054803F0E2F802F068FDBD
:104BA0000BB000BD000002400004024000040040C1
:104BB00000B58BB001A8FEF79CF808A803F06EFAC8
:104BC00003A803F01DFA0121042000F09DFD01213E
:104BD000022000F089FDC020019002208DF808001D
:104BE00003208DF8090000208DF80A0001208DF8BF
:104BF0000B0001A92948FEF70DF8022206212748DB
:104C0000FEF750F8022207212448FEF74BF842F243
:104C10000F7009902920ADF820000020ADF8280081
:104C2000ADF822008DF82A0008A91D4803F0F4F918
:104C30006020ADF80C000020ADF81000ADF81800B1
:104C40000820ADF81A004001ADF81C000020ADF8B6
:104C50001E000120ADF80E000020059003A91048A9
:104C600003F09AF808210E4803F0D4F803A90C4881
:104C700003F0DAF808210A4803F028F9012108486E
:104C800003F07AF80121064803F05EF80121044898
:104C900003F066F802F0ECFC0BB000BD000402402B
:104CA0000008004030B52DED028B87B0F8E3FD48D9
:104CB000FD49097810F83150FB49097800EBC10033
:104CC0004478F848F849097800EBC10090ED010AF2
:104CD000B0EE408AF4490978481CC11700EB117105
:104CE0000911A0EB0111F04A1170012D39D10322F5
:104CF00094FBF2F2D0B2032294FBF2F302FB1342D4
:104D0000D1B2EA4A009248320192483202924832C5
:104D10000392483204924832059290320692072854
:104D20001EDAB5EEC08AF1EE10FA19DB9FEDE00A4B
:104D3000B4EEC08AF1EE10FA12D821B95DF8202045
:104D400082ED028A0CE0012904D15DF8202082ED79
:104D5000038A05E0022903D15DF8202082ED048A50
:104D600018E2022D03D0052D01D0082D3DD12009D8
:104D700004F00F01CF4A0392CF4A0492CF4A059222
:104D8000CF4A069204282FDA06292DDA022D0CD1FB
:104D9000B5EEC08AF1EE10FA07DD03AA52F8202022
:104DA00002EB810282ED008A1EE0052D0DD1B5EEE9
:104DB000C08AF1EE10FA08DB03AA52F8202028324C
:104DC00002EB810282ED008A0EE0082D0CD1B5EED7
:104DD000C08AF1EE10FA07DB03AA52F82020403215
:104DE00002EB810282ED008AD4E1062D23D1B54881
:104DF000C0790128B4D1042CB2DAF0EE488AB7EEBB
:104E0000000AF4EEC08AF1EE10FA03DDB7EE000AF4
:104E1000F0EE408ABFEE000AF4EEC08AF1EE10FA1E
:104E200003D2BFEE000AF0EE408AB0EE680A2046D8
:104E300000F072FEAEE1072D0ED1002C90D1B6EE3F
:104E4000000AB4EEC08AF1EE10FA01DB012000E0A6
:104E500000209D4908709DE1032D3CD195480390A9
:104E6000954804909548059095480690042C05DADD
:104E700003A850F8240080ED1F8A2BE0082C06DAE6
:104E8000201F03A951F8200080ED1E8A22E0082C83
:104E90000FD1B5EEC08AF1EE10FA1BDBB7EE000AB7
:104EA000B4EEC08AF1EE10FA14D8884880ED008A7A
:104EB00010E0092C0ED1B5EEC08AF1EE10FA09DB34
:104EC000B7EE000AB4EEC08AF1EE10FA02D88048BC
:104ED00080ED008AE2E3092D4ED18CB99FED7D0A69
:104EE000B4EEC08AF1EE10FAA4DDB3EE040AB4EE1B
:104EF000C08AF1EE10FA9DD2774880ED008ACDE3AA
:104F0000012C11D19FED730AB4EEC08AF1EE10FAB4
:104F100090DDB2EE040AB4EEC08AF1EE10FA89D246
:104F20006E4880ED008AB9E3022C11D1B0EE080A78
:104F3000B4EEC08AF1EE10FA8DDB9FED690AB4EE93
:104F4000C08AF1EE10FA86D8664880ED008AA5E3A3
:104F5000032CBFD1B0EE080AB4EEC08AF1EE10FA0D
:104F6000B8DB9FED5F0AB4EEC08AF1EE10FAB1D85B
:104F70005D4880ED008A91E3042D0CD12CB9FEF739
:104F800025F900205949087088E3012CA2D103209B
:104F9000FDF7DAFD82E30A2D2CD14A48C0790128B9
:104FA00098D11CB9524880ED008A77E3012C03D1D7
:104FB0004F4880ED018A71E3022C03D14C4880ED0B
:104FC000028A6BE3032C03D1494880ED078A65E32D
:104FD000042C94D1B6EE000A38EE000ABCEEC00AEA
:104FE00010EE100AC0B208B1012000E000204049D4
:104FF000886153E30B2D54D13248C079012892D1F6
:105000001CB93C4880ED008A48E3012C03D13948A3
:1050100080ED018A42E3022C03D1364880ED028AFA
:105020003CE3032C03D1334880ED038A36E3042CA0
:1050300003D1304880ED048A30E3052C03D12D489C
:1050400080ED058A2AE3062C10D1B6EE000A38EE70
:10505000000ABCEEC00A10EE100A2649087608467F
:10506000007E022887D90220087617E3072C8BD10F
:10507000B6EE000A38EE000ABCEEC00A10EE100AC6
:10508000C0B2D8B309F026F801201A4948769FED3E
:105090001A0A084680ED070AFCF72CF909F05EF8B9
:1050A000FCE230E0B850012065070020FC0200203F
:1050B00000004843F8490120A44A0120504B012038
:1050C000FC4B01208052012090070020AC070020FB
:1050D000B0070020CDCC4C3D9C070020A00700204D
:1050E00000007042A4070020A8070020BC07002091
:1050F00068080020AC52012000000000FFE70020FB
:10510000FE494876CAE20C2D49D1FD48C0790128F4
:1051100086D11CB9FB4880ED008ABFE2012C03D187
:10512000F84880ED018AB9E2022C03D1F54880ED00
:10513000028AB3E2032C03D1F24880ED038AADE288
:10514000042C03D1EF4880ED048AA7E2052C03D19B
:10515000EC4880ED058AA1E2062C86D1B6EE000A65
:1051600038EE000ABCEEC00A10EE100AC0B290B1D0
:1051700008F0B0FF0120E34908761FED210A084638
:1051800080ED070A1FED240A80ED080AFCF7B2F84B
:1051900008F0E4FF82E20020DA4908767EE2112D71
:1051A0005CD1D748C0790128ACD11CB9D64880ED74
:1051B000008A73E2012C03D1D34880ED018A6DE2AD
:1051C000022C03D1D04880ED028A67E2032C03D180
:1051D000CD4880ED038A61E2042C03D1CA4880EDFA
:1051E000048A5BE2052C03D1C74880ED058A55E2AD
:1051F000062C10D1B6EE000A38EE000ABCEEC00A4A
:1052000010EE100AC04908760846007E012884D9AD
:105210000120087642E2072C85D1B6EE000A38EE6E
:10522000000ABCEEC00A10EE100AC0B290B108F03D
:1052300051FF0120B44948761FED510A084680ED20
:10524000070A1FED530A80ED080AFCF753F808F02F
:1052500085FF23E20020AC4948761FE2122D11D1D0
:10526000002C97D1B5EEC08AF1EE10FA02D21FEDF4
:105270005E0A01E0B0EE480AA44880ED000AFCF79F
:1052800039F80BE20D2D04D1002C87D1FDF79EFFDC
:1052900004E20F2D3ED1B6EE000A38EE000ABCEE55
:1052A000C00A10EE101AC9B209B1012100E00021B4
:1052B00008460C2C2BD2DFE804F006090C0F12155F
:1052C000181B1E2124279249087021E0904948703C
:1052D0001EE08F4988701BE08D49C87018E08C492A
:1052E000087115E08A49487112E0894988710FE018
:1052F0008749C8710CE08649087209E08449487200
:1053000006E08349887203E08149C87200E000BF6B
:1053100000BFC3E1132D31D1002C9AD1B6EE000AA3
:1053200038EE000ABCEEC00A10EE101AC8B202280D
:1053300000D9022076490873764991ED020A81ED81
:10534000000A1FED930A81ED010A91ED1F0A81ED1C
:105350001D0A1FED970A81ED1E0A91ED3C0A81EDB1
:105360003A0A1FED9B0A81ED3B0A91ED590A81ED46
:10537000570A1FED9F0A81ED580A8FE1142D75D150
:10538000082C74D2DFE804F0040F1A1E22262A80AB
:10539000B6EE000A38EE000ABCEEC00A10EE100AA3
:1053A0005D49087083E0B6EE000A38EE000ABCEEF4
:1053B000C00A10EE100A5949087078E0584880ED8C
:1053C000008A74E0574880ED008A70E0564880ED0E
:1053D000008A6CE0554880ED008A68E0B6EE000A6D
:1053E00038EE000ABCEEC00A10EE100AC0B2E0B3FC
:1053F0001FEDBF0A4E4880ED170A1FEDC10A80ED70
:10540000180A1FEDC30A80ED190A1FEDC50A80EDC9
:105410001A0A1FEDC70A80ED150A1FEDC90A80EDB3
:10542000160A1FEDCB0A434880ED910A1FEDCE0A04
:1054300080EDA30A1FEDD00A80ED900A1FEDD20A7D
:1054400080EDA20A1FEDD40A80EDB40A1FEDD60A42
:1054500080EDC60A3548D0ED001A334890ED001AA9
:105460003048D0ED000A2E4802E00AE020E01DE0BE
:1054700090ED000A294801782748007802F06EF97B
:1054800001E002F021F912E0B6EE000A38EE000A5F
:10549000BCEEC00A10EE101AC9B211B1012101E030
:1054A000FDE00021084602F04FF900E000BFF5E002
:1054B000152D41D184B9B6EE000A38EE000ABCEED3
:1054C000C00A10EE101AC9B209B1012100E0002192
:1054D0000846FDF729FFE1E0012C0ED1B0EE480AA5
:1054E0000020FDF709FFB0EE480A0120FDF704FF98
:1054F000B0EE480A0220FDF7FFFECFE0AC520120DB
:1055000080520120CC520120F0520120B807002027
:10551000E849012018480120000100200101002075
:1055200004010020080100200C01002010010020CF
:10553000184E0120FC020020102D33D18CBB9FEDB2
:105540005D0A5D4880ED170A9FED5A0A80ED180A42
:105550009FED580A80ED190A9FED560A80ED1A0A50
:105560009FED540A80ED150A9FED520A80ED160A50
:105570009FED500A514880ED910A9FED4E0A80ED53
:10558000A30A9FED4C0A80ED900A9FED4A0A80ED38
:10559000A20A9FED480A80EDB40A9FED460A80ED0D
:1055A000C60A7BE00E2D29D10CBBB6EE000A38EE00
:1055B000000ABCEEC00A10EE100AC0B2C0B1012051
:1055C0003F4908700020FDF7BFFA012000F032FAD1
:1055D0003A4890ED6D0ADFED3B0AB4EEE00AF1EED9
:1055E00010FA5BDD9FED330A002000F095FA55E0DC
:1055F00000203349087000F01DFA4FE0162D4DD100
:10560000A4B9B6EE000A38EE000ABCEEC00A10EEED
:10561000100AC0B230B101202B49087000202B497C
:1056200008603BE000202849087037E0012C10D1C9
:10563000B6EE000A38EE000ABCEEC00A10EE101AF0
:10564000C8B2042801D8014600E00021204A1170A8
:1056500024E0022C22D1B0EE480ADFED1E0AB4EE9F
:10566000E00AF1EE10FA03D2DFED1A0AB0EE600A9A
:10567000DFED190AB4EEE00AF1EE10FA03DDDFED1A
:10568000160AB0EE600AF6EE000A70EE200AFCEE92
:10569000E00A10EE900A1149088000BF00BF1048D0
:1056A00000781049097888427FF401AB07B0BDEC5F
:1056B000028B30BD00000000184E0120FC020020CB
:1056C000BC0700203333B33E910700209807002029
:1056D000920700200000FA4400007A459407002059
:1056E000650700206407002029B1064A12680243BA
:1056F000044B1A6004E0034A12688243014B1A60AB
:10570000704700003038024029B1064A126802434F
:10571000044B1A6004E0034A12688243014B1A608A
:10572000704700004038024029B1064A126802431F
:10573000044B1A6004E0034A12688243014B1A606A
:10574000704700002038024029B1064A126802431F
:10575000044B1A6004E0034A12688243014B1A604A
:10576000704700004438024029B1064A12680243DB
:10577000044B1A6004E0034A12688243014B1A602A
:105780007047000024380240F0B5002100220024B8
:10579000022500260223324F3F6807F00C0121B199
:1057A000042905D0082937D105E02E4F076036E0DF
:1057B0002D4F076033E02A4F3F1F3F68C7F38056E5
:1057C000274F3F1F3F6807F03F036EB1264FB7FBDF
:1057D000F3F7DFF88CC0ACF1040CDCF800C0CCF3BC
:1057E000881C07FB0CF40CE01E4FB7FBF3F7DFF847
:1057F00070C0ACF1040CDCF800C0CCF3881C07FBD3
:105800000CF4174F3F1F3F68C7F301477F1C7D0013
:10581000B4FBF5F7076002E0124F076000BF00BF5E
:105820000F4F3F6807F0F0010909104F7A5C0768D5
:10583000D74047600A4F3F6807F4E051890A0B4F91
:105840007A5C4768D7408760054F3F6807F460413E
:10585000490B064F7A5C4768D740C760F0BD00002F
:10586000083802400024F40000127A00BD0700202E
:1058700010B52DED028B04463E480078D8B134B106
:10588000012C08D0022C0AD0032C10D10BE03A488E
:1058900090ED008A0EE0384890ED018A0AE0364823
:1058A00090ED028A06E0344890ED038A02E09FED15
:1058B000338A00BF3FE034B1012C11D0022C1CD040
:1058C000032C34D126E02E48C08800EE900AF8EE72
:1058D000600AB0EE600A07F0EBFEB0EE408A29E005
:1058E0002748008800EE900AF8EE600AB0EE600AE1
:1058F00007F0DEFEB0EE408A1CE02148408800EE52
:10590000900AF8EE600AB0EE600A07F0D1FEB0EE41
:10591000408A0FE01A48808800EE900AF8EE600A8C
:10592000B0EE600A07F0C4FEB0EE408A02E09FEDE0
:10593000138A00BF00BFB7EE001AFFEE000AB0EEF8
:10594000480A07F09FFEB0EE408A6CB90D48007817
:1059500050B19FED0D0AB4EEC08AF1EE10FA03DDEE
:105960009FED090AB0EE408AB0EE480ABDEC028B0A
:1059700010BD00002C070020F84D012000000000A1
:1059800070520120900700209A9919BF01480078B1
:10599000704700002C07002010B52DED028B044647
:1059A0002048007810B3042C1ED21F4800EB84005E
:1059B00090ED000A14B9DFED1D0A01E0DFED1C0ACD
:1059C000B0EE608AB4EEC80AF1EE10FA06DCF1EE31
:1059D000480AB4EEE00AF1EE10FA03D20120BDEC61
:1059E000028B10BD0020FAE70020F8E72046FFF701
:1059F0003FFF14B9DFED0D0A01E0DFED0D0AB0EE57
:105A0000608AB4EEC80AF1EE10FA06DCF1EE480A3C
:105A1000B4EEE00AF1EE10FA01D20120DFE7002037
:105A2000DDE700002C070020F84D0120CDCC4C3DD7
:105A3000CDCCCC3D10B50446F4B3BFEE000A2E48E1
:105A400080ED000A2D48C08800EE900AF8EE600A4A
:105A5000B0EE600A07F02CFE294880ED000A2748C6
:105A6000008800EE900AF8EE600AB0EE600A07F0D7
:105A70001FFE234880ED010A2048408800EE900A6E
:105A8000F8EE600AB0EE600A07F012FE1C4880EDE6
:105A9000020A1A48808800EE900AF8EE600AB0EE1A
:105AA000600A07F005FE164880ED030A0A20154932
:105AB00008800120144900E001E008701AE000208D
:105AC000114908709FED110A0B4880ED000A9FED07
:105AD0000F0A80ED010A9FED0D0A80ED020A9FED8D
