:020000040800F2
:1000000008A8012031030008390300083B03000859
:100010003D0300083F030008410300080000000002
:10002000000000000000000000000000790200084D
:100030004503000800000000CD02000881590008B7
:100040004B0300084B0300084B0300084B03000858
:100050004B0300084B0300084B0300084B03000848
:100060004B0300084B0300084B0300084B03000838
:100070004B0300084B030008791F00084B030008DE
:100080004B030008A11F00084B0300084B030008A6
:100090004B0300084B0300084B0300084B03000808
:1000A0004B0300084B0300084B0300084B030008F8
:1000B0004B0300084B0300084B0300084B030008E8
:1000C0004B0300084B0300084B0300084B030008D8
:1000D0004B0300082D630008196400080966000836
:1000E0004B0300084B0300084B0300084B030008B8
:1000F0004B0300084B0300084B030008CD1F00080A
:100100004B0300084B0300084B0300084B03000897
:10011000396000084D6200084B0300084B030008DB
:100120004B0300084B0300084B0300084B03000877
:100130004B0300084B0300084B0300084B03000867
:100140004B0300084B0300084B0300084B03000857
:100150004B0300084B0300084B03000831660008FE
:100160004B0300084B0300084B0300084B03000837
:100170004B0300084B0300084B0300084B03000827
:100180004B0300084B03000800F002F800F064F88D
:100190000AA090E8000C82448344AAF10107DA45E2
:1001A00001D100F059F8AFF2090EBAE80F0013F0D0
:1001B000010F18BFFB1A43F0010318479CD200003F
:1001C000BCD200000A444FF0000C10F8013B13F0C1
:1001D000070408BF10F8014B1D1108BF10F8015BA0
:1001E000641E05D010F8016B641E01F8016BF9D193
:1001F00013F0080F1EBF10F8014BAD1C0C1B09D1EA
:100200006D1E58BF01F801CBFAD505E014F8016B5B
:1002100001F8016B6D1EF9D59142D6D370470000ED
:100220000023002400250026103A28BF78C1FBD8FF
:10023000520728BF30C148BF0B607047642900F0E7
:100240000381732900F04E82002070471FB50CF027
:1002500076FF1FBD10B510BD00F0B0FA1146FFF7D4
:10026000F5FF09F089FB00F0CEFA03B4FFF7F2FFC7
:1002700003BC08F0E1FF00002A4B19680868B0E8E9
:10028000F04F80F30988BFF36F8F4FF0000080F3C9
:10029000118870470000000006480068006880F37D
:1002A000088862B661B6BFF34F8FBFF36F8F00DF70
:1002B00000BF00BF08ED00E0DFF80C00016841F46A
:1002C00070010160704700BF88ED00E0EFF3098026
:1002D000BFF36F8F134B1A681EF0100F08BF20ED8D
:1002E000108A20E9F04F106008B44FF0500080F3FE
:1002F0001188BFF34F8FBFF36F8F0BF075F94FF07D
:10030000000080F3118808BC19680868B0E8F04F55
:100310001EF0100F08BFB0EC108A80F30988BFF3FD
:100320006F8F704738070020EFF30580704700009B
:100330000948804709480047FEE7FEE7FEE7FEE779
:10034000FEE7FEE7FEE7FEE7FEE7FEE704480549B5
:10035000054A064B70470000B95A00088901000899
:1003600008A2012008A8012008A4012008A4012057
:10037000704700000FB4044910B503AA029800F0BA
:10038000B5F910BC5DF814FB200000202DE9F04108
:100390000E460446002020622046E168884730B3BC
:1003A000252805D0D4E901219047206A401CF2E7B6
:1003B000E168204600278847050018D0A5F14100D4
:1003C000192802D820354FF40067324629462046C6
:1003D0002760FFF733FF40B1012804D0F61D26F057
:1003E00007060836D8E7361DD6E72846DAE7206A3A
:1003F000BDE8F08170B50C460546012A05D0287885
:10040000800600D5EA69002302E0012305E05B1CB9
:10041000934202D2E05C0028F9D1A869E618C01A1C
:10042000A861286A184428622846AFF3008004E0D7
:10043000D5E9012114F8010B9047B442F8D32846BE
:10044000AFF3008070BD00002DE9F04106460024A6
:1004500010687529314616A510D0AFF3008000282A
:1004600002DA404213A507E031688A0701D512A5D8
:1004700002E0490704D511A5012401E0AFF3008093
:1004800000210A2206F1240709E0B0FBF2FCB0FBD0
:10049000F2F302FB1C00303078541846491C002847
:1004A000F3D123462A463046BDE8F04100F096B825
:1004B000000000002D0000002B00000020000000C4
:1004C000032A40F2308010F0030C00F0158011F880
:1004D000013BBCF1020F624498BF11F801CB00F858
:1004E000013B38BF11F8013BA2F1040298BF00F8AC
:1004F00001CB38BF00F8013B11F0030300F0258069
:10050000083AC0F0088051F8043B083A51F804CB8F
:10051000A0E80810F5E7121D5CBF51F8043B40F855
:10052000043BAFF30080D20724BF11F8013B11F860
:1005300001CB48BF11F8012B24BF00F8013B00F8A4
:1005400001CB48BF00F8012B704710B5203AC0F02E
:100550000B80B1E81850203AA0E81850B1E81850C4
:10056000A0E81850BFF4F5AF5FEA027C24BFB1E801
:100570001850A0E8185044BF18C918C0BDE8104072
:100580005FEA827C24BF51F8043B40F8043B08BF7B
:100590007047D20728BF31F8023B48BF11F8012B42
:1005A00028BF20F8023B48BF00F8012B704702F03B
:1005B000FF0343EA032242EA024200F0ABB870476D
:1005C00070477047704710B500F0C4F8006810BD60
:1005D00010B5044600F0BEF8046010BD2DE9F047E8
:1005E0000D4699469246044600F1240801688806A3
:1005F00004D5E06921F01001216000E00120A8424B
:1006000001DD471B00E00027A1697A1902EB090010
:10061000081AA0612078C00602D42046AFF30080FB
:10062000002608E0D4E901211AF806009047206A64
:10063000401C761C20624E45F4DB2078C0060AD5AB
:100640002046AFF3008006E0D4E901213020904736
:10065000206A401C2062381EA7F10107F4DC07E085
:10066000D4E9012118F805009047206A401C206257
:10067000281EA5F10105F3DC2046AFF300802078A9
:10068000000602D50220BDE8F0870120FBE700004C
:1006900001694A1C02610878704700B58FB0CDE946
:1006A00001310021059105497944CDE90310114636
:1006B0006846FFF76BFE0FB000BD0000E5FFFFFFCF
:1006C00010B5436913B1AFF3008001E0FFF792FE6C
:1006D000012010BD127800F124010A7000224A7036
:1006E0000122EDE711684FF0FF32E9E7074B70B5E3
:1006F0000D467B44FFF7D1FF0446284600F02EF854
:1007000010B14FF0FF3070BD204670BD5B9100000E
:100710004FF000020429C0F0128010F0030C00F02A
:100720002380CCF1040CBCF1020F18BF00F8012BA0
:10073000A8BF20F8022BA1EB0C0100F015B85FEA6E
:10074000C17C24BF00F8012B00F8012B48BF00F842
:10075000012B704700487047A4A10120007B00F0E6
:10076000800070474FF0000200B51346944696464D
:10077000203922BFA0E80C50A0E80C50B1F12001B4
:10078000BFF4F7AF090728BFA0E80C5048BF0CC062
:100790005DF804EB890028BF40F8042B08BF7047C0
:1007A00048BF20F8022B11F0804F18BF00F8012B32
:1007B0007047000000487047A4A101207546FFF76C
:1007C000F9FFAE4605006946534620F0070085460E
:1007D00018B020B5FFF7BAFDBDE820404FF0000685
:1007E0004FF000074FF000084FF0000B21F0070119
:1007F000AC46ACE8C009ACE8C009ACE8C009ACE85C
:10080000C0098D46704710B50446AFF300802046FE
:10081000BDE81040FFF729BD00B589B001210846A9
:1008200003F082FC0121080203F0AEFC10200790C7
:1008300003208DF8200000208DF8230007A90E4822
:1008400002F040F801A800F0DAF8002001908DF8DD
:1008500008008DF80900049001A9084800F02CF860
:10086000002301220421054800F068F80121034813
:1008700000F009F809B000BD00000240002001406E
:10088000CA430260704721B1826842F0010282606F
:1008900003E0826822F00102826070470146C86C62
:1008A00080B270470246002013680B400BB1012054
:1008B00000E000207047000030B502460020002311
:1008C0005068104C20400D790C6844EA0524204300
:1008D000506090680C4C2040D1E903542C438D6843
:1008E0002C434D7944EA450420439060D06A20F4BB
:1008F00070000C7D641EE4B2234340EA0350D062D2
:1009000030BD0000FFFEFFFCFDF7FFC010B50A4838
:1009100000F070F800BF02210748FFF7C3FF00286E
:10092000F9D00548FFF7BAFF044602210248FFF755
:10093000A7FF204610BD000000200140F0B504468E
:100940000D4600200021092D11DDE068A5F10A0601
:1009500006EB4607072606FA07F18843A5F10A06C3
:1009600006EB460603FA06F10843E0600CE0206956
:1009700005EB4507072606FA07F1884305EB450610
:1009800003FA06F108432061072A0FDA606B561E4E
:1009900006EB86071F2606FA07F18843561E06EB6C
:1009A000860605FA06F10843606322E00D2A0FDA95
:1009B000206BD61F06EB86071F2606FA07F1884331
:1009C000D61F06EB860605FA06F10843206310E001
:1009D000E06AA2F10D0606EB86071F2606FA07F16C
:1009E0008843A2F10D0606EB860605FA06F10843D8
:1009F000E062F0BD816841F0804181607047002174
:100A00000160017141718160C16001610121017565
:100A10007047000000B591B002F002FAA54890EDD1
:100A2000000A8DED010AA44890ED890A8DED020AB5
:100A300090ED910A8DED030A90EDA30A8DED040A65
:100A400090ED6D0A8DED050A9C4890ED190A8DED2B
:100A5000060AB7EE000A8DED070AB2EE000A8DED28
:100A6000080AB2EE020A8DED090AB2EE040A8DED13
:100A70000A0AB2EE060A8DED0B0AB2EE080A8DEDF7
:100A80000C0AB2EE0A0A8DED0D0AB2EE0C0A8DEDDB
:100A90000E0AB2EE0E0A8DED0F0AB3EE000A8DEDCE
:100AA000100A9DF80400864908709DF805004870FA
:100AB0009DF8060088709DF80700C8709DF8080032
:100AC00008719DF8090048719DF80A0088719DF829
:100AD0000B00C8719DF80C0008729DF80D0048725B
:100AE0009DF80E0088729DF80F00C8729DF81000E6
:100AF00008739DF8110048739DF8120088739DF8E3
:100B00001300C8739DF8140008749DF8150048740C
:100B10009DF8160088749DF81700C8749DF8180099
:100B200008759DF8190048759DF81A0088759DF89C
:100B30001B00C8759DF81C0008769DF81D004876BE
:100B40009DF81E0088769DF81F00C8769DF820004D
:100B5000087701A8407F487701A8807F887701A89F
:100B6000C07FC8779DF8240081F820009DF82500FB
:100B700081F821009DF8260081F822009DF82700C9
:100B800081F823009DF8280081F824009DF82900B1
:100B900081F825009DF82A0081F826009DF82B0099
:100BA00081F827009DF82C0081F828009DF82D0081
:100BB00081F829009DF82E0081F82A009DF82F0069
:100BC00081F82B009DF8300081F82C009DF8310051
:100BD00081F82D009DF8320081F82E009DF8330039
:100BE00081F82F009DF8340081F830009DF8350021
:100BF00081F831009DF8360081F832009DF8370009
:100C000081F833009DF8380081F834009DF83900F0
:100C100081F835009DF83A0081F836009DF83B00D8
:100C200081F837009DF83C0081F838009DF83D00C0
:100C300081F839009DF83E0081F83A009DF83F00A8
:100C400081F83B009DF8400081F83C009DF8410090
:100C500081F83D009DF8420081F83E009DF8430078
:100C600081F83F00002081F8400081F84100802099
:100C700081F842007F2081F8430000BF114801F055
:100C8000AFFA0028FAD110490E4801F0CDF9002141
:100C90000C4801F0E3F90A480A490C310860442085
:100CA0000849B839C1F8BC000121064801F0D6F95D
:100CB00011B000BD64000020BC020020180200201A
:100CC000594D0120B86002400080002830B5002254
:100CD0000024C5788B1F9D4200D030BD002306E064
:100CE000C55C1544EAB2A518ECB25D1CEBB28D1ED2
:100CF0009D42F5DC431813F8023C934204D143189B
:100D000013F8013CA34200D0E7E78378512B38D198
:100D100003795BB943794B4D6B7183795BB2AB71EE
:100D2000C3795BB2EB71037A2B7189E00379012BF4
:100D300012D14379434D2B72C3886B810389AB81F8
:100D4000837A2B719FED400A404B83ED010A2B46BD
:100D50001B785B1C2B7073E00379022B70D14379F5
:100D6000384DAB73C3882B8203896B824389AB8276
:100D70008389EB82C3892B83038A6B83837C2B71EA
:100D80005EE08378342B0DD1D0F807302D4DEB6128
:100D90009FED2D0A2D4B83ED020A2B465B785B1CE1
:100DA0006B704DE08378012B13D18388254DA5F816
:100DB0004830C388A5F84A300389A5F84C304389E8
:100DC000A5F84E308389A5F85030C389A5F8523074
:100DD00036E08378042B33D1B0F9043000EE103ABA
:100DE000B8EEC00ADFED1A0A20EE200A154B83ED9B
:100DF0000E0AB0F9063000EE103AB8EEC00ADFED88
:100E0000140A20EE200A0F4B83ED0F0AB0F90830C8
:100E100000EE103AB8EEC00ADFED0D0A20EE200A0F
:100E2000084B83ED100AB0F90A3000EE103AB8EE24
:100E3000C00ADFED070A20EE200A024B83ED110AFB
:100E400000BF4AE76C4A0120000000000C4B012063
:100E500017B7D13810B504463E48007838B9AA2CE7
:100E600005D101203B4908703B48047070E03948C7
:100E70000078012805D102203649087036484470B0
:100E800066E034480078022805D103203149087013
:100E9000314884705CE02F48007803280CD1322C54
:100EA0000ADA04202B4908702B48C4702B480470C0
:100EB00000202B4908704BE026480078042819D1FF
:100EC00026480078002815DD24480078401E234974
:100ED00008702348007822490978491C204A11707B
:100EE000001D1D490C541D48007868BB0520194998
:100EF00008702DE01748007805280DD10620154907
:100F000008701748007816490978491C144A11706E
:100F1000001D11490C541BE00E480078062814D11E
:100F200000200C4908700E480078001D0A490C5436
:100F30009FED0C0A0C4880ED000A09480078401D1E
:100F4000C1B20548FFF7C2FE02E000200149087067
:100F500010BD0000AE060020D84A0120AC060020DB
:100F6000AD060020000000000C4B012010B500F081
:100F700049F81D48007E10B100F066F804E01B48F7
:100F8000407E08B100F0DEF819484089B0F5E16F05
:100F900007D117480089B0F5E16F02D115480078F4
:100FA00010B11548007828B114480068401D134955
:100FB000086002E000201149086010480068B0F5A0
:100FC000FA6F03D301200E49087002E000200C499B
:100FD00008700B480078012802D103F07FFC01E083
:100FE00003F09EFD10BD0000344E0120144E012080
:100FF000184B0120DC06002011070020A80000206B
:10100000AC0000200D48407E28B100200C49087635
:101010000C49886110E00A48007E28B10020074989
:1010200048760849886107E00648806920B10020B9
:10103000024948760249087670470000144E0120A4
:10104000344E0120BC07002010B52DED028B9FED22
:10105000370AB0EE408A3648C079012805D0002012
:1010600034490876BDEC028B10BD3248007E00B9D1
:10107000F8E7304890ED080ADFED2C0A30EE200A40
:1010800080ED080A90ED070AD0ED040A9FED271ABB
:1010900000EE810A80ED070AD0ED070AB0EE600A83
:1010A00006F06EFB2348D0ED000A90ED031A41EEE6
:1010B000000A2148C0ED900A1E48D0ED070AB0EEA4
:1010C000600A07F091FA1B48D0ED010A90ED031A6F
:1010D00041EE000A1848C0EDA20A164890ED020A37
:1010E000154880ED6C0A134890ED070ADFED130AEE
:1010F00020EE200A104880ED240A0E4890ED050AE3
:10110000B5EEC00AF1EE10FA0DDD90ED080AD0ED53
:10111000050AB4EEE00AF1EE10FA04DB00200549FE
:1011200008760749886100BF9CE700000AD7A33B07
:10113000E84D0120344E0120BC020020ED2E654216
:10114000BC07002010B52DED028B9FED3E0AF0EE9E
:10115000408A3D48C079012805D000203B494876A7
:10116000BDEC028B10BD3948407E00B9F8E7374826
:1011700090ED070ADFED330A30EE200A80ED070A12
:10118000D0ED040A9FED321A60EE810A90ED071A45
:1011900060EE810AB0EE600A07F026FA2B48D0ED27
:1011A000030A20EE200AB0EE408A007E20B101281A
:1011B00011D0022827D11DE0244890ED000A30EE1E
:1011C000080A244880ED900A204890ED010A214841
:1011D00080EDA20A18E01D4890ED000A1D4880ED40
:1011E000900A1A4890ED010A30EE080A194880ED7D
:1011F000A20A09E0154890ED020A30EE080A1548E7
:1012000080ED6C0A00E000BF00BF9FED130A11489B
:1012100080ED240A0D4890ED050AB5EEC00AF1EE06
:1012200010FA0DDD90ED070AD0ED050AB4EEE00AE4
:10123000F1EE10FA04DB0020044948760749886182
:1012400000BF8DE70AD7A33BE84D0120144E0120D3
:10125000D00FC940BC02002000000000BC070020E5
:1012600008B500BF0AF04CFE00900AE0FFF77EFED2
:101270000448408E401C034948860521684609F011
:1012800085FFF3E7A04D01201CB50121022002F0EB
:101290004BFF4FF40070009001208DF804000020F7
:1012A0008DF8060003208DF8050001208DF8070059
:1012B0006946044801F006FB4FF40071014801F053
:1012C0006CFB1CBD0004024070B5044600251021D3
:1012D0000A4801F062FBFF2141EA042141F4004089
:1012E00009F004FC002009F001FC050A1021034864
:1012F00001F055FB00BF284670BD00000008024009
:1013000070B504462021094801F047FB002141EA5D
:10131000042141F4004009F0E9FBC5B22021034853
:1013200001F03DFB00BF284670BD000000080240F0
:1013300070B504460D461021074801F02EFB45EA22
:101340000421C1F30E0009F0D1FB1021024801F085
:1013500026FB00BF70BD00000008024070B50446C7
:101360000D462021074801F018FB45EA0421C1F38E
:101370000E0009F0BBFB2021024801F010FB00BF6A
:1013800070BD00000008024010B54FF4407002F03C
:1013900031FB02F0BDF802F037FBFFF73DFA4FF4E6
:1013A000FA6008F09DF803F0D1FB07F0D9FF04F0D4
:1013B00061FF04F0D7FF05F055F804F077FD04F065
:1013C00065FEFFF761FF4FF400610C4801F0E5FA9C
:1013D0004FF48051094801F0E2FA4FF48071084857
:1013E00001F0DDFA4FF4FA6008F07AF802F0AAFB97
:1013F0009FED040A044880ED1E0A10BD0000024063
:10140000000802400000B4428C4B012090ED010A1C
:1014100080ED000A90ED020A80ED010A90ED060AC7
:10142000DFED160A80EE201A80ED021A90ED040A14
:1014300080ED030A90ED050A80ED040A90ED000AA4
:10144000D0ED020A30EE200AD0ED010AB0EE001A0B
:1014500001EE200AD0ED030A9FED091A01EE200AE1
:10146000D0ED040A9FED071A01EE200A80ED050A6F
:1014700090ED050A80ED070A7047000067BFFF4244
:10148000021944BF7E0BDE3F90ED010A80ED000A99
:1014900090ED020A80ED010A90ED030A80ED020A48
:1014A00090ED080ADFED1D0A80EE201A80ED031A88
:1014B00090ED050A80ED040A90ED060A80ED050A1C
:1014C00090ED070A80ED060A90ED000AD0ED030AC0
:1014D00030EE200AD0ED010A90ED021A70EE810A7A
:1014E000B0EE081A01EE200AD0ED040A9FED0C1AA6
:1014F00001EE200AD0ED050A9FED0A1A01EE200A3E
:10150000D0ED060A9FED081A01EE200A80ED070AC9
:1015100090ED070A80ED090A704700006D85AC4325
:101520001736083F20F5F6BF2BF1174000B500F045
:101530001FF80C480089C82805D10B480068401CDA
:101540000949086002E00020074908600648006871
:101550000A2803DD00200549C87102E00120034983
:10156000C87100BD184B012024000020E84D012067
:101570008E48C08840F26C71884217DD8B48C08865
:1015800040F63401884211DA8848808840F63C7180
:1015900088420BDD8548808841F20401884205DAE3
:1015A00083488068401C8249886002E000208049AE
:1015B00088607E48C08840F26C71884217DD7B48A5
:1015C000C08840F63401884211DA7848808840F2B9
:1015D0006C7188420BDD7548808840F63401884282
:1015E00005DA73480068401C7149086002E0002079
:1015F0006F4908606D48C08840F63C71884217DD2D
:101600006A48C08841F20401884211DA674880883C
:1016100040F26C7188420BDD6448808840F63401EA
:10162000884205DA62484068401C6149486002E02F
:1016300000205F4948605D48C08840F63C718842A0
:1016400017DD5A48C08841F20401884211DA574830
:10165000808840F63C7188420BDD5448808841F216
:101660000401884205DA5248C068401C5049C860ED
:1016700002E000204E49C8604C48008840F26C717E
:10168000884217DD4948008840F63401884211DA63
:101690004648408840F26C7188420BDD43484088E0
:1016A00040F63401884205DA41480069401C40494F
:1016B000086102E000203E4908613C48008840F291
:1016C0006C71884217DD3948008840F63401884241
:1016D00011DA3648408840F63C7188420BDD3348C9
:1016E000408841F20401884205DA31488069401C93
:1016F0002F49886102E000202D4988612B4800882D
:1017000040F63C71884217DD2848008841F2040108
:10171000884211DA2548408840F26C7188420BDD1E
:101720002248408840F63401884205DA2048406962
:10173000401C1F49486102E000201D4948611B48C8
:10174000008840F63C71884217DD1848008841F255
:101750000401884211DA1548408840F63C718842FD
:101760000BDD1248408841F20401884205DA104836
:10177000C069401C0E49C86102E000200C49C861E4
:101780000B488068962806D301200A4988710020FA
:1017900007498860086006480068322805D30020A1
:1017A000044988710249886008607047D84D01205B
:1017B000F44D0120E84D01209FED160A164880EDFA
:1017C0000A0A9FED140A80ED1C0A9FED120A80EDB3
:1017D0002E0A9FED100A80ED400A9FED0E0A80ED63
:1017E000520A9FED0C0A80ED640A9FED0A0A80ED13
:1017F000760A9FED080A80ED880A90ED910A80ED47
:10180000900A90EDA30A80EDA20A90ED250A80EDE2
:10181000240A704700000000BC02002090ED000A7E
:10182000D0ED010A30EE600A80ED080A90ED0B0A57
:10183000D0ED0C0AB4EEE00AF1EE10FA06D890ED05
:10184000080AB5EEC00AF1EE10FA11DC90ED0B0AB1
:10185000D0ED0C0AF1EE600AB4EEE00AF1EE10FAF7
:1018600023DB90ED080AB5EEC00AF1EE10FA1CD2A7
:1018700090ED080AB5EEC00AF1EE10FA02DD90ED27
:10188000080A03E090ED080AB1EE400AD0ED110A13
:10189000B4EEE00AF1EE10FA07D290ED0A0AD0EDAC
:1018A000080A30EE200A80ED0A0A90ED0A0AD0ED0F
:1018B000100AF1EE600AB4EEE00AF1EE10FA05D279
:1018C00090ED100AB1EE400A80ED0A0A90ED0A0A86
:1018D000D0ED100AB4EEE00AF1EE10FA03DD90ED5F
:1018E000100A80ED0A0A90ED030AD0ED0A0A20EEF4
:1018F000200A80ED060A90ED060AD0ED0E0AF1EE00
:10190000600AB4EEE00AF1EE10FA05D290ED0E0A8C
:10191000B1EE400A80ED060A90ED060AD0ED0E0AFF
:10192000B4EEE00AF1EE10FA03DD90ED0E0A80ED60
:10193000060A90ED020AD0ED080A20EE200A80ED9A
:10194000050A90ED050AD0ED0D0AF1EE600AB4EE3D
:10195000E00AF1EE10FA05D290ED0D0AB1EE400A60
:1019600080ED050A90ED050AD0ED0D0AB4EEE00A0F
:10197000F1EE10FA03DD90ED0D0A80ED050A90ED11
:10198000080AD0ED090A30EE600AD0ED040A20EE14
:10199000200A80ED070A90ED070AD0ED0F0AF1EE5C
:1019A000600AB4EEE00AF1EE10FA05D290ED0F0AEB
:1019B000B1EE400A80ED070A90ED070AD0ED0F0A5C
:1019C000B4EEE00AF1EE10FA03DD90ED0F0A80EDBF
:1019D000070A90ED050AD0ED060A30EE200AD0ED98
:1019E000070A30EE200A80ED0B0A90ED0B0AD0EDCD
:1019F0000C0AF1EE600AB4EEE00AF1EE10FA05D23C
:101A000090ED0C0AB1EE400A80ED0B0A90ED0B0A46
:101A1000D0ED0C0AB4EEE00AF1EE10FA03DD90ED21
:101A20000C0A80ED0B0A90ED080A80ED090A704758
:101A300090ED000AD0ED010A30EE600A80ED080A50
:101A400090ED080ADFED900AB4EEE00AF1EE10FA2C
:101A500007DB90ED080ADFED8D0A30EE600A80EDBD
:101A6000080A90ED080ADFED8A0AB4EEE00AF1EE0A
:101A700010FA07D890ED080ADFED840A30EE200A4C
:101A800080ED080A90ED0B0AD0ED0C0AB4EEE00AE6
:101A9000F1EE10FA06D890ED080AB5EEC00AF1EEA4
:101AA00010FA11DC90ED0B0AD0ED0C0AF1EE600A91
:101AB000B4EEE00AF1EE10FA23DB90ED080AB5EE81
:101AC000C00AF1EE10FA1CD290ED080AB5EEC00A79
:101AD000F1EE10FA02DD90ED080A03E090ED080A3D
:101AE000B1EE400AD0ED110AB4EEE00AF1EE10FAC0
:101AF00007D290ED0A0AD0ED080A30EE200A80EDF8
:101B00000A0A90ED0A0AD0ED100AF1EE600AB4EE6E
:101B1000E00AF1EE10FA05D290ED100AB1EE400A9B
:101B200080ED0A0A90ED0A0AD0ED100AB4EEE00A40
:101B3000F1EE10FA03DD90ED100A80ED0A0A90ED47
:101B4000030AD0ED0A0A20EE200A80ED060A90ED85
:101B5000060AD0ED0E0AF1EE600AB4EEE00AF1EEEC
:101B600010FA05D290ED0E0AB1EE400A80ED060A99
:101B700090ED060AD0ED0E0AB4EEE00AF1EE10FA8E
:101B800003DD90ED0E0A80ED060A90ED020AD0ED1D
:101B9000080A20EE200A80ED050A90ED050AD0ED36
:101BA0000D0AF1EE600AB4EEE00AF1EE10FA05D289
:101BB00090ED0D0AB1EE400A80ED050A90ED050AA0
:101BC000D0ED0D0AB4EEE00AF1EE10FA03DD90ED6F
:101BD0000D0A80ED050A90ED080AD0ED090A30EEF5
:101BE000600AD0ED040A20EE200A80ED070A90ED8D
:101BF000070AD0ED0F0AF1EE600AB4EEE00AF1EE4A
:101C000010FA05D290ED0F0AB1EE400A80ED070AF6
:101C100090ED070AD0ED0F0AB4EEE00AF1EE10FAEB
:101C200003DD90ED0F0A80ED070A90ED050AD0ED77
:101C3000060A30EE200AD0ED070A30EE200A80EDC9
:101C40000B0A90ED0B0AD0ED0C0AF1EE600AB4EE2F
:101C5000E00AF1EE10FA05D290ED0C0AB1EE400A5E
:101C600080ED0B0A90ED0B0AD0ED0C0AB4EEE00A01
:101C7000F1EE10FA03DD90ED0C0A80ED0B0A90ED09
:101C8000080A80ED090A7047000034430000B4439D
:101C9000000034C310B5032005F0B0F89848007870
:101CA000401C9749087008460078022805DB9548D3
:101CB000FFF7B4FD002092490870042005F09EF85B
:101CC00090484830FFF7AAFD8F480078401C8E49A5
:101CD000087008460078022819DB012005F08EF80C
:101CE00088489030FFF79AFD8648D830FFF796FD78
:101CF000002085490870022005F080F802F0F6FB0C
:101D00008248FFF78BFD81484830FFF787FD0520AB
:101D100005F074F87E48FFF781FD7D484830FFF7F5
:101D20007DFD062005F06AF879489030FFF780FEC7
:101D3000072005F063F802F0CFFA7248D838FFF7B1
:101D40006DFD70489038FFF769FD6E484838FFF721
:101D500065FD6F4801F036FC4FF42F606D49088037
:101D60006B48D0ED890A0846B0F9000000EE100A71
:101D7000B8EEC00A30EE800A6748D0ED460A6748E0
:101D800090ED191A00EE810A654880ED000A60485E
:101D900090ED410A6048D0ED220A624890ED191A90
:101DA00000EE810A604880ED000A594890ED530A20
:101DB0005948D0ED100A5D4890ED191A10EEC10A8D
:101DC0005B4880ED000A524890ED650A5248D0ED1C
:101DD000340A584890ED191A00EE810A564880EDF1
:101DE000000A5648D0ED000A9FED551A9FED540A9F
:101DF00000EE810AB0EE402A5248D0ED000A9FED75
:101E0000501A9FED4F0A00EE810AF0EE402AF4EEE0
:101E1000C22AF1EE10FA06D2B0EE620AF0EE422AC1
:101E2000B0EE402A00BFB0EE621AF0EE420A3C4823
:101E300090ED000A00F08AF8394880ED000A90ED34
:101E4000000A3B48D0ED000A30EE600A3648D0ED7B
:101E5000000A30EE600A3848D0ED000A30EE200A61
:101E6000BDEEC00A10EE100A00B2374908802C48B7
:101E700090ED000A2E48D0ED000A30EE200A2A48E4
:101E8000D0ED000A30EE200A2B48D0ED000A30EEEB
:101E9000200ABDEEC00A10EE100A00B248802048A9
:101EA00090ED000A2248D0ED000A30EE600A1E488C
:101EB000D0ED000A30EE200A1F48D0ED000A30EEC7
:101EC000600ABDEEC00A10EE100A00B28880144805
:101ED00090ED000A1648D0ED000A30EE200A1248B4
:101EE000D0ED000A30EE600A1348D0ED000A30EE63
:101EF000600ABDEEC00A10EE100A00B2C88010BD24
:101F0000280000206C040020290000208C050020FF
:101F1000BC0200203C0000206C470120F449012055
:101F20002C00002004490120300000208C480120B2
:101F3000340000207C4901203800002008070020E0
:101F40000000FA440C070020B0060020F0EE401A12
:101F5000F4EEE01AF1EE10FA02D2B0EE600A704729
:101F6000F4EEC11AF1EE10FA02DDB0EE410AF6E726
:101F7000B0EE610AF3E7000010B50749074800F02A
:101F800033F940B14FF0C051044800F033F800215C
:101F9000024800F063F810BD00800018586002404D
:101FA00010B50749074800F01FF938B10649054840
:101FB00000F020F80021034800F050F810BD0000A8
:101FC00000802020A06002400000202010B50749BA
:101FD000074800F009F940B14FF02051044800F0E3
:101FE00009F80021024800F039F810BD00800028EF
:101FF000B86002400246094B9A4201D2084801E00B
:102000000648103801F000531BB1064B0B40C3606B
:1020100002E0044B0B4083607047000010640240F4
:10202000006002407D0F7D0F0246094B9A4201D2AB
:10203000084801E00648103801F000531BB1064B78
:102040000B40C36002E0044B0B408360704700000C
:1020500010640240006002407D0F7D0F21B10268D4
:1020600042F00102026003E0026822F00102026015
:1020700070470000016821F001010160002101604A
:1020800041608160C1600161212141614A4988420A
:1020900004D13D21484A103A91608CE046491831FC
:1020A000884205D14FF47461434A103A916082E04E
:1020B00041493031884205D14FF474113E4A103AFB
:1020C000916078E03C494831884205D14FF0746115
:1020D000394A103A91606EE037496031884204D144
:1020E0003649354A103AD16065E033497831884243
:1020F00004D13349304A103AD1605CE02E49903126
:10210000884204D12F492C4A103AD16053E02A4921
:10211000A831884205D14FF03D51274A103AD1608D
:1021200049E02949884204D13D21274A083A1160F3
:1021300041E025491831884205D14FF47461224AA3
:10214000083A116037E020493031884205D14FF418
:1021500074111D4A083A11602DE01B49483188422C
:1021600005D14FF07461184A083A116023E016490E
:102170006031884204D11149134A121F11601AE0DC
:1021800011497831884204D10D490F4A121F11605C
:1021900011E00D499031884204D10A490A4A121FC0
:1021A000116008E00849A831884204D14FF03D5140
:1021B000054A121F11607047106002403D00002068
:1021C000400F002000003D20106402400146002026
:1021D0000A6802F001020AB1012000E00020704705
:1021E0000146486880B2704770B50246002000245E
:1021F0000025124EB24201D2114B01E00F4B103BB1
:10220000104E0E4036B11E2606EAD124166806EAA4
:10221000040502E0566906F0800501F000560EB193
:102220005C6800E01C68084E344004EA010616B100
:102230000DB1012000E0002070BD000010640240DC
:10224000006002403C0F3C0F7D0F7D0F10B501F088
:1022500080034BB122B1436943F08003436103E043
:10226000436923F08003436180290BD02AB10368BE
:1022700001F01E042343036004E0036801F01E0420
:10228000A343036010BD000010B500220268134B89
:102290001A40CC680B6823434C6923438C69234361
:1022A000CC6923430C6A23434C6A23438C6A23433F
:1022B0004C6B23438C6B23431A430260426922F028
:1022C0000702D1E90B3423431A4342610B6943608F
:1022D0004B6883608B68C36010BD00003F801CF0BA
:1022E000F8480078AA287DD1F6484078AA28FAD183
:1022F000F4488078F4490870F248C0784870F14892
:1023000000798870EF484079C870084690ED000A5F
:10231000DFEDEE0AB4EEE00AF1EE10FA11DD90ED19
:10232000000ADFEDEB0AB4EEE00AF1EE10FA08D293
:1023300090ED000ADFEDE70A20EE200AE64880ED86
:10234000000AE0488079E0490870DE48C0794870AA
:10235000DC48007A8870DB48407AC870084690ED07
:10236000000ADFEDDA0AB4EEE00AF1EE10FA11DD50
:1023700090ED000ADFEDD60AB4EEE00AF1EE10FAB5
:1023800008D290ED000ADFEDD30A20EE200AD248F1
:1023900080ED000ACB48807ACB490870C948C07AE2
:1023A0004870C848007B8870C648407BC8700846A3
:1023B00090ED000ADFEDC50AB4EEE00AF1EE10FA86
:1023C00013DD90ED000ADFEDC20AB4EEE00AF1EE93
:1023D00010FA0AD290ED000ADFEDBE0A20EE200AC4
:1023E000BD4800E06CE180ED000AB648807BB6494C
:1023F0000870B448C07B4870B248007C8870B1480F
:10240000407CC870084690ED000ADFEDB00AB4EEDB
:10241000E00AF1EE10FA11DD90ED000ADFEDAC0AF2
:10242000B4EEE00AF1EE10FA08D290ED000ADFED0A
:10243000A90A20EE200AA84880ED000AA148807C65
:10244000A14908709F48C07C48709E48007D8870F4
:102450009C48407DC870084690ED000ADFED9B0A5D
:10246000B4EEE00AF1EE10FA11DD90ED000ADFEDB6
:10247000980AB4EEE00AF1EE10FA08D290ED000AE4
:10248000DFED940A20EE200A934880ED000A8D4883
:10249000807D8D4908708B48C07D48708948007EDA
:1024A00088708848407EC870084690ED000ADFEDCD
:1024B000870AB4EEE00AF1EE10FA11DD90ED000AA1
:1024C000DFED830AB4EEE00AF1EE10FA08D290EDE7
:1024D000000ADFED800A20EE200A7F4880ED000A26
:1024E0007848807E784908707648C07E4870754884
:1024F000007F88707348407FC870084690ED000ADE
:10250000F9EE040AB4EEE00AF1EE10FA0DDD90EDFA
:10251000000AF1EE040AB4EEE00AF1EE10FA04D279
:1025200090ED000A6C4880ED000A6648807F66499D
:1025300008706448C07F4870624890F82000887036
:10254000604890F82100C870084690ED000AF9EE46
:10255000040AB4EEE00AF1EE10FA0DDD90ED000A87
:10256000F1EE040AB4EEE00AF1EE10FA04D290EDB6
:10257000000A594880ED000A524890F8220052495A
:102580000870504890F8230048704E4890F8240096
:1025900088704C4890F82500C870084690ED000AF5
:1025A000F9EE040AB4EEE00AF1EE10FA0DDD90ED5A
:1025B000000AF1EE040AB4EEE00AF1EE10FA04D2D9
:1025C00090ED000A444880ED000A3E4890F826004D
:1025D0003D4908703B4890F827004870394890F80A
:1025E00028008870374890F82900C870084690ED98
:1025F000000ADFED360AB4EEE00AF1EE10FA0DDD66
:1026000090ED000ADFED320AB4EEE00AF1EE10FAC6
:1026100004D290ED000A304880ED000A294890F875
:102620002A0029490870274890F82B00487025484F
:1026300090F82C008870234890F82D00C870084648
:1026400090ED000ADFED210AB4EEE00AF1EE10FA97
:102650000DDD90ED000ADFED1E0AB4EEE00AF1EEAA
:1026600010FA04D290ED000A1B4880ED000A1548CC
:1026700090F82E0014490870124890F82F00487006
:10268000104890F8300088700E4890F83100C870FB
:10269000084690ED000ADFED0D0AB4EEE00AF1EE17
:1026A00010FA0DDD90ED000ADFED090AB4EEE00A44
:1026B000F1EE10FA04D290ED000A074880ED000A0E
:1026C00070470000704C012074000020002474C981
:1026D000002474490000C8427800002038B5044640
:1026E00072A000680090724801780078401C704A1F
:1026F0001070704844541046007819287ED1182074
:10270000114608706B4800780F2878D16948007E20
:1027100038B16848017E684A12781DF8020081428B
:10272000F3D1002062490870624840786149897895
:1027300001F0070140EA0120604908805D48C07847
:102740008006400D5B49897840EAE1005B4948809A
:1027500058484079C007400D5649097940EA810040
:102760005449C97840EAA110544988805148807979
:102770000007400D4F49497940EA61004F49C88040
:102780004C48C0794006400D4A49897940EA2110F9
:102790004A4908814748407A8007400D4549097AEF
:1027A00040EA41004349C97940EAE1104349488180
:1027B0004048807AC006400D3E49497A40EAA1006F
:1027C0003E4988813B48C07AC0003A49897A40EA4C
:1027D00061103A49C8813748007B3649497B01F08E
:1027E000070140EA0120354908823248807B800693
:1027F000400D3049497B40EAE10001E054E049E006
:102800002E4948822B48007CC007400D2949C97BCE
:1028100040EA81002749897B40EAA1102749888244
:102820002448407C0007400D2249097C40EA6100B1
:102830002249C8821F48807C4006400D1D49497CC2
:1028400040EA21101D4908831A48007D8007400D89
:102850001849C97C40EA41001649897C40EAE110E8
:10286000164948831348407DC006400D1149097D33
:1028700040EAA100114988830E48807DC0000D49BF
:10288000497D40EA61100D49C88309F03FFB0C49BE
:10289000086009E0002005E0064A411C515C115423
:1028A000411CC8B21828F7DB38BD000004142434DA
:1028B000B8060020384B0120B9060020184B012033
:1028C000E0060020F0B50A4600210023002400BFE6
:1028D0003DE0012505FA01F3156805EA03049C4271
:1028E00034D105684F000326BE40B5430560157915
:1028F0004E00B5400668354305601579012D02D0BC
:102900001579022D16D185684F000326BE40B543C8
:10291000856055794E00B5408668354385604568C9
:1029200001268E40B5434560456896798E40B6B223
:1029300035434560C5684F000326BE40B543C560BA
:10294000D5794E00B540C6683543C560491C10298D
:10295000BFD3F0BDF0B5002300244D07ED0E02FA01
:1029600005F3CE1000F1200555F826504E07F70E5E
:102970000F26BE40B543CF1000F1200646F8275081
:10298000CE1000F1200555F8265045EA0304CE107C
:1029900000F1200545F82640F0BD418370470183D2
:1029A00070474FF6FF710160002101714171817123
:1029B000C171704710B52DED028B00F00BF9714815
:1029C000008800285ED0704890ED000A6D480088AD
:1029D00041F28831081A6D4901EB800080ED000A50
:1029E0006B4890ED000A6848D0ED000A30EE200AEE
:1029F000674880ED000A674890ED000A614800884A
:102A000041F28831081A644901EB800080ED000A28
:102A1000624890ED000A5F48D0ED000A30EE200ACF
:102A20005E4880ED000A5E4890ED000A5548008837
:102A300041F28831081A5B4901EB800080ED000A01
:102A4000594890ED000A5648D0ED000A30EE200AB1
:102A5000554880ED000A4B48008841F28831081A39
:102A600000EE100AB8EEC00A46480088081A4F491E
:102A700001EB800080ED000A42480088401E414979
:102A800008807BE0484890ED000ADFED490A80EEBF
:102A9000201A484880ED001A00244BE040F27120D3
:102AA00060433A4A02EB401141F288323F4806F057
:102AB000EFFE414800EB840080ED000A3E4800EB49
:102AC000840090ED000A10EE101A08460AF0C6FACB
:102AD0009FED3A0B53EC102B0AF0C8F812D336488E
:102AE00000EB840090ED000A10EE101A08460AF080
:102AF000B5FA41EC180B9FED330B53EC102B09F09A
:102B00007BFF16D241F288301E4908809FED2F0AC4
:102B10001F4880ED000A9FED2D0A204880ED000A35
:102B20009FED2A0A204880ED000A0020BDEC028BB0
:102B300010BD641C032CB1DB154890ED000ADFEDDD
:102B40001C0A80EE201A80ED001A144890ED000A4D
:102B5000DFED170A80EE201A80ED001A124890ED82
:102B6000000ADFED130A80EE201A80ED001A41F210
:102B7000883004490880012015490860144800681D
:102B8000D4E700004C01002060010020E00E00208E
:102B90009001002064010020005D002094010020CD
:102BA0006801002020AB00209801002040F900209F
:102BB00000409C45A4010020604701202D431CEBF0
:102BC000E2360A3F2D431CEBE2360ABF000000004C
:102BD000B40100202DE9F04F2DED068B87B01320B6
:102BE000FEF772FB07461220FEF76EFB80461520AB
:102BF000FEF76AFB81461420FEF766FB824617202B
:102C0000FEF762FB83461620FEF75EFB069003206C
:102C1000FEF776FB05900220FEF772FB049005207C
:102C2000FEF76EFB03900420FEF76AFB029007207C
:102C3000FEF766FB01900620FEF762FB009048EA73
:102C4000072000B200EE100AB8EEC00ADFED660AF7
:102C500080EE201A9FED650A61EE000A644890ED4F
:102C6000000AB8EE400A20EE800A624880ED000AB1
:102C70004AEA092000B200EE100AB8EEC00ADFED01
:102C80005A0A80EE201A9FED590A61EE000A584850
:102C900090ED000AB8EE400A20EE800A564880ED1A
:102CA000000A069840EA0B2000B200EE100AF8EE87
:102CB000C00A9FED4D1A80EE810ADFED4C0A60EEEE
:102CC000200A4B4890ED000AB8EE400A20EE800A38
:102CD0004A4880ED000ADDE9040140EA012000B223
:102CE00000EE100AB8EEC00A9FED3F1AC0EE010ACE
:102CF0009FED3E0A20EE800A414880ED000ADDE9A2
:102D0000020140EA012000B200EE100AF8EEC00A0B
:102D10009FED351A80EE810ADFED340A20EE200A9D
:102D2000384880ED000ADDE9000140EA012000B2E8
:102D300000EE100AF8EEC00A9FED2B1A80EE810A11
:102D4000DFED2A0A20EE200A2F4880ED000A22201B
:102D5000FEF7BAFA06462320FEF7B6FA04462046E6
:102D6000E11704EBD161491101EBC605B5F5806FA0
:102D70001BDBA5F5006009F014FE41EC1A0B9FED7A
:102D8000230B53EC102B09F073FE41EC190B9FED54
:102D9000210B53EC102B09F093FB41EC180B09F0BD
:102DA000A3FD00B21D49088019E0284609F010FE75
:102DB00041EC1A0B9FED150B53EC102B09F058FE4C
:102DC00041EC190B9FED130B53EC102B09F078FB22
:102DD00041EC180B09F088FD00B21049088007B0DB
:102DE000BDEC068BBDE8F08F00FEFF4600007A4484
:102DF000A801002054010020580100205C0100209F
:102E00006001002064010020680100200000000033
:102E10000000C03F000000000000374050010020CB
:102E200010B5FDF773FD114908800846008804F0CD
:102E300049FA0F4880ED000A90ED000ADFED0D0A17
:102E400080EE201A9FED0C0A21EE000A0B4880ED5F
:102E5000000A90ED000AF2EE0E0AB4EEE00AF1EE7E
:102E600010FA02D2012002F00DFC10BD6800002013
:102E70006000002066663640666686416400002079
:102E800000200E4988610E4948760E4908769FED6C
:102E90000E0A0E4880ED000A9FED0B0A80ED010A34
:102EA0009FED090A80ED020A9FED070A80ED030AF3
:102EB0000020074908700749C8717047BC07002007
:102EC000144E0120344E012000803B45E4060020D2
:102ED00011070020E84D0120F8B523480078CC28E0
:102EE00041D121484078DD283DD11F498B78CC78ED
:102EF00009798DF800101C4949798DF801101A499B
:102F000089798DF802101849C9798DF8031016498E
:102F10000D7A0022022003E01349095C4A40401C5C
:102F20000828F9DBAA421DD11049114E367801F864
:102F300036300F4E367801EBC6014C709DED000A1D
:102F40000A490B4E367801EBC60181ED010A084EA5
:102F50003678711CCE1701EB5676F610A1EBC6063B
:102F6000034F3E7000BFF8BD704C0120A44C0120FF
:102F7000D806002008B500BF08F0C2FF00900AE0A4
:102F800002F0BCF90448408C401C034948840121EC
:102F9000684608F0FBF8F3E7A04D012008B500BF34
:102FA00008F0AEFF00900DE09FED070A074800F023
:102FB00011F80748808C401C054988840121684627
:102FC00008F0E4F8F0E700006F12833A18020020DE
:102FD000A04D012010B52DED108B86B00446F0EE0B
:102FE000408A0020039004900590B6EE000A28EE77
:102FF000800AB0EE40FAFE4890ED000AF0EE409AEA
:10300000FC4890ED000AB0EE40AAFB4890ED000AA3
:10301000F0EE40AAF94890ED000AB0EE40BAF84848
:1030200090ED000AB5EEC00AF1EE10FA0FD1F548A6
:1030300090ED000AB5EEC00AF1EE10FA07D1F248A1
:1030400090ED000AB5EEC00AF1EE10FA7ED0EC4821
:1030500090ED000A8DED030AEA4890ED000A8DED2F
:10306000040AE94890ED000A8DED050ADDED030A3A
:1030700060EEA00A9DED041ADDED041A41EE210A6E
:103080009DED051ADDED051A41EE210AB0EE600A4C
:1030900006F0E0FBB0EE408ADDED030AB0EE480A30
:1030A00020EE800A8DED030ADDED040AB0EE480A39
:1030B00020EE800A8DED040ADDED050AB0EE480A27
:1030C00020EE800A8DED050A9DED040ACF48D0ED73
:1030D000000A20EE200ADDED050ACD4890ED001A29
:1030E000F0EE40BA40EEC1BA9DED050AC948D0EDF8
:1030F000000A20EE200ADDED030AC44890ED001A14
:10310000B0EE40CA00EEC1CA9DED030AC048D0ED42
:10311000000A20EE200ADDED040ABE4890ED001AF8
:10312000F0EE40CA40EEC1CABB4890ED000A60EE26
:103130002B0ABA4890ED000A00EEA80A80ED000ABA
:10314000B54890ED000A60EE0C0A00E03FE0B4489C
:1031500090ED000A00EEA80A80ED000AAE4890ED5E
:10316000000A60EE2C0AAF4890ED000A00EEA80AB3
:1031700080ED000AA94890ED000AAB48D0ED000AA6
:1031800000EEAB0AA948D0ED000A30EE200A80ED2F
:10319000000AA34890ED000AA348D0ED000A00EE13
:1031A0008C0AA348D0ED000A30EE200A80ED000A18
:1031B0009C4890ED000A9C48D0ED000A00EEAC0A55
:1031C0009C48D0ED000A30EE200A80ED000A9748B6
:1031D00090ED000A20EE0F0A8DED000A944890ED64
:1031E000000A20EE0F0A8DED010A924890ED000AC8
:1031F00020EE0F0A8DED020A9DED000A20EE000A76
:10320000DDED010A9DED011A00EE810ADDED020AF5
:103210009DED021AB0EE409A00EE819AB7EE000AD8
:1032200030EE490A20EE290ADDED000A0AEE600AB6
:10323000DDED010A0AEEE00ADDED020A0BEE600A9E
:103240006B4880ED000AB7EE000A30EE490A20EE26
:103250000A0ADDED000A09EEA00ADDED020A0AEE17
:10326000A00ADDED010A0BEE600A624880ED000A5B
:10327000B7EE000A30EE490A20EE2A0ADDED010A17
:1032800009EEA00ADDED020A0AEE600ADDED000A91
:103290000BEE200A584880ED000AB7EE000A30EE27
:1032A000490A20EE0B0ADDED020A09EEA00ADDED67
:1032B000010A0AEE200ADDED000A0AEEE00A4F4894
:1032C00080ED000A4A48D0ED000A60EEA00A4948A5
:1032D00090ED001AD0ED001A41EE210A464890ED1B
:1032E000001AD0ED001A41EE210A444890ED001A70
:1032F000D0ED001A41EE210AB0EE600A06F0AAFAFB
:10330000B0EE408A3A4890ED000A20EE080A80EDBF
:10331000000A384890ED000A20EE080A80ED000A05
:10332000354890ED000A20EE080A80ED000A334887
:1033300090ED000A20EE080A80ED000A2C4890ED7E
:10334000000A20EE00DA2B4890ED000A60EE00DA69
:10335000294890ED000A20EE00EA284890ED000A86
:1033600060EE00EA3DEE2D0A30EE4E0A30EE6E0AB7
:10337000314880ED000A1F4890ED000A1E48D0ED4C
:10338000000A20EE200A1A48D0ED000A1B4890EDF2
:10339000001A00EE810AF0EE000A20EE200A27480B
:1033A00080ED000A134890ED000A1448D0ED000AA1
:1033B00020EE200A0E48D0ED000A0F4890ED001ACA
:1033C00000EEC10AF0EE000A20EE200A114880ED5E
:1033D000000A074890ED000A0648D0ED000A20EEEA
:1033E000200A0548D0ED000A044890ED001A27E0B5
:1033F000980200209C020020A0020020A4020020CD
:103400006C0100207001002074010020B80200202F
:10341000B4020020B0020020880200208C020020AC
:1034200090020020940200208402002078010020F5
:103430007C01002080010020A8020020AC020020B6
:1034400000EE810AF0EE000A20EE200A2A4880ED04
:10345000000A3DEE6D0A30EE4E0A30EE2E0A274885
:1034600080ED000A264890ED000AF7EE000AB4EE5F
:10347000E00AF1EE10FA03DDB7EE000A80ED000A73
:103480001F4890ED000AFFEE000AB4EEE00AF1EEEC
:1034900010FA03D2BFEE000A80ED000A184890ED42
:1034A000000A03F049FFB1EE400ADFED160A20EEF4
:1034B000200A84ED190A1148D0ED000A0E4890ED5B
:1034C000000A03F0CFFFDFED0F0A20EE200A84EDA3
:1034D000180A0D48D0ED000A0C4890ED000A03F0E0
:1034E000C1FFDFED080A20EE200A84ED1A0A06B0BB
:1034F000BDEC108B10BD0000B4020020B80200200B
:10350000B0020020ED2E6542A8020020AC0200208F
:103510001CB50121084600F007FE0121042000F03F
:1035200003FE4FF4C050009001208DF804000020ED
:103530008DF8060003208DF8050001208DF80700A6
:1035400069461348FFF7BEF94FF4807000900120E0
:103550008DF8040000208DF8060003208DF805008A
:1035600001208DF8070069460A48FFF7ABF94FF4D0
:1035700000610748FFF713FA4FF480510448FFF742
:103580000EFA4FF480710348FFF707FA1CBD0000E4
:103590000000024000080240B0EE401AB4EEE01A0B
:1035A000F1EE10FA09D2B1EE600AB4EEC01AF1EEF3
:1035B00010FA02DD9FED020A7047B0EE410AFBE708
:1035C0000000000010B52DED0A8B044694ED490A69
:1035D000DFED4B0A20EE200AF0EE408A94ED370A28
:1035E000DFED470A20EE200AB0EE409A94ED5B0A28
:1035F000DFED430A20EE200AB0EE408A4148C0EDDC
:10360000018A80ED139A80ED258A94ED7F0A80ED82
:10361000370A29EE080AF0EE409A28EE880AB0EE42
:1036200040AA94ED480ADFED360A20EE200AF0EEBB
:1036300040AA94ED360ADFED320A20EE200AB0EE01
:1036400040BA94ED5A0ADFED2E0A20EE200AF0EE81
:1036500040BA94ED7E0AB0EE40CA94ED530A2A486F
:10366000D0ED190A80EE201A264880ED0F1A94ED4D
:10367000410A2648D0ED190A80EE201A214880ED33
:10368000211A94ED650A2248D0ED190A80EE201A1D
:103690001C4880ED331A94ED890A1E48D0ED190AB2
:1036A00080EE201A174880ED451AF0EE6A0AB0EE57
:1036B000690A154A0146002000F090F8F0EE4B0A26
:1036C000B0EE4A0A114A0F494831012000F086F84D
:1036D000F0EE6B0A9FED100A0D4A0A499031022064
:1036E00000F07CF8F0EE4C0A9FED0B0A094A054900
:1036F000D831032000F072F8BDEC0A8B10BD000039
:1037000039FA8E3C6C4701208C4801200449012085
:103710007C490120F449012000000000F0EE400A3D
:1037200091ED011AB0EE410AB7EE001A81ED031ACD
:1037300081ED040AB0EEC01A21EE001A81ED051ADF
:10374000032801D0022804D19FED071A81ED061A43
:1037500001E0C1ED060A91ED0F1A81ED071A91ED16
:10376000001A81ED081A704700000000B0EE402AF0
:10377000B0EEC20AF0EE402A31EE610AB4EEE20A7F
:10378000F1EE10FA02DBB0EE600A7047B5EEC02A27
:10379000F1EE10FA04DDF5EEC00AF1EE10FA09D3ED
:1037A000B5EEC02AF1EE10FA07D2F5EEC00AF1EE3E
:1037B00010FA02DDB0EE600AE7E7F4EEC12AF1EE9E
:1037C00010FA02DB9FED040ADFE731EE620A80EEB9
:1037D000213A20EE830AD8E7000000002DE9F041ED
:1037E0002DED088B07460C461646F0EE409AF0EE9B
:1037F000608AB7EE000AB0EE40AAC4ED008A94EDEC
:10380000010AD4ED000A30EE600A84ED020AB0EE3F
:10381000690A21463846FFF781FF062104F10C00B2
:1038200000F090F8F0EE40AAB7EE000A3AEE800AF7
:10383000B0EE40BA94ED020AB0EEC00AD6ED1B0A13
:10384000B4EEE00AF1EE10FA59DB002554E094EDF5
:10385000020AB1EE400A20EE0A0A04F10C0000EB65
:103860008500D0ED000A20EE200A80EE0B9AD6EDFE
:10387000070A04F1240000EB850090ED001AB0EE79
:10388000490A00EEC10A06EB8500D0ED000A20EEE1
:10389000208A04F1240000EB850090ED000ADFEDA2
:1038A000270A00EE880A04F1240000EB850080ED71
:1038B000000A06F1400000EB8500D0ED000AF0EEB2
:1038C000601A06F1280000EB8500D0ED000AB0EE8A
:1038D000601A04F1240000EB8500D0ED000AB0EE80
:1038E000600AF0EE480AFFF741FF04F1240000EB04
:1038F000850080ED000A6D1C062DA8DB00BF9FED42
:10390000100A84ED100A002512E094ED100A04F16B
:10391000240000EB8500D0ED000A04F10C0000EB60
:10392000850090ED001A00EE810A84ED100A6D1CEE
:10393000062DEADBBDEC088BBDE8F0810AD7A33B7E
:10394000000000000246DFED0C0AB0EE600A002025
:103950000FE002EB800393ED001A02EB8003D3ED3E
:10396000001AF0EE400A41EE210AB0EE600A431C54
:10397000D8B28842EDDB70470000000070B500212E
:1039800000230F22C4781CB3174C246804F4E064AD
:10399000C4F5E064C4F30721C1F10404E3B20A41B1
:1039A00044789C40E1B28478144021430C07210EF6
:1039B0000E4C05786155047804F01F050124AC40D5
:1039C00005786D11AD0005F1E025C5F8004109E06D
:1039D000047804F01F050124AC40054D06787611EB
:1039E00045F8264070BD00000CED00E000E400E06A
:1039F00080E100E002490143024A11607047000083
:103A00000000FA050CED00E000B58BB001A8FEF750
:103A1000C8FF08A802F040FA03A802F0EBF9012160
:103A2000022000F091FB0121032000F07DFBC0206B
:103A3000019002208DF8080003208DF80900002075
:103A40008DF80A0001208DF80B0001A93A48FEF715
:103A500039FF022206213848FEF77CFF02220721A7
:103A60003548FEF777FF0320019002208DF808000B
:103A700003208DF8090000208DF80A0001208DF840
:103A80000B0001A92D48FEF71DFF022200212B4843
:103A9000FEF760FF022201212848FEF75BFF42F299
:103AA0000F7009902920ADF820000020ADF8280003
:103AB000ADF822008DF82A0008A9214802F0AAF9E1
:103AC0006020ADF80C000020ADF81000ADF8180033
:103AD0000820ADF81A004001ADF81C000020ADF838
:103AE0001E000120ADF80E000020059003A9144827
:103AF00002F04CF80020059003A9114802F08EF85E
:103B00000020059003A90E4802F0E8F80020059077
:103B100003A90B4802F032F90121094802F026F806
:103B20000121074802F00AF80121054802F012F8C5
:103B300001F002FF0BB000BD000002400004024093
:103B40000004004000B58BB001A8FEF72AFF08A8CA
:103B500002F0A2F903A802F04DF90121042000F0BF
:103B6000F3FA0121022000F0DFFAC02001900220C8
:103B70008DF8080003208DF8090000208DF80A0058
:103B800001208DF80B0001A92D48FEF79BFE0222B3
:103B900006212B48FEF7DEFE022207212848FEF709
:103BA000D9FE44F61F6009905320ADF82000002094
:103BB000ADF82800ADF822008DF82A0008A92148A8
:103BC00002F028F96020ADF80C000020ADF81000DC
:103BD000ADF818000820ADF81A004001ADF81C003F
:103BE0000020ADF81E000120ADF80E0040F6B83000
:103BF000059003A9134801F0C9FF0821114802F0FC
:103C000003F803A90F4802F009F808210D4802F053
:103C100057F801210B4801F0A9FF0121094801F0E3
:103C20008DFF0121074801F095FF9FED070A01F084
:103C300039FD9FED060A01F061FD0BB000BD0000EB
:103C40000004024000080040000020420000B4428E
:103C500030B52DED028B87B053E2F748F74909786C
:103C600010F83150F549097800EBC1004478F2486A
:103C7000F249097800EBC10090ED010AB0EE408AEC
:103C8000EE490978481CC11700EB5171C910A0EB2F
:103C9000C101EA4A1170012D2DD1032294FBF2F2E9
:103CA000D0B2032294FBF2F302FB1342D1B2E44AF6
:103CB00000924832019248320292483203924832CE
:103CC00004924832059290320692072812DA21B9FE
:103CD0005DF8202082ED028A0CE0012904D15DF814
:103CE000202082ED038A05E0022903D15DF820201F
:103CF00082ED048A04E2022D03D0052D01D0082DA7
:103D00002ED1200904F00F01CE4A0392CE4A04922C
:103D1000CE4A0592CE4A0692042820DA06291EDAF7
:103D2000022D07D103AA52F8202002EB810282ED76
:103D3000008A14E0052D08D103AA52F82020283269
:103D400002EB810282ED008A09E0082D07D103AA67
:103D500052F82020403202EB810282ED008ACFE14E
:103D6000062D0FD1BB4800780128C3D1BA48C079CD
:103D70000128BFD1042CBDDAB84800EB840080EDE7
:103D8000008ABDE1072D0ED1002CB3D1B6EE000A9A
:103D9000B4EEC08AF1EE10FA01DB012000E0002051
:103DA000AF490870ACE1032D3CD1A6480390A6486A
:103DB0000490A6480590A6480690042C05DA03A8AE
:103DC00050F8240080ED198A2BE0082C06DA201F19
:103DD00003A951F8200080ED188A22E0082C0FD1A9
:103DE000B5EEC08AF1EE10FA1BDBB7EE000AB4EEB6
:103DF000C08AF1EE10FA14D89A4880ED008A10E0DB
:103E0000092C0ED1B5EEC08AF1EE10FA09DBB7EE3F
:103E1000000AB4EEC08AF1EE10FA02D8924880EDA2
:103E2000008A6DE1092D4ED18CB99FED900AB4EE58
:103E3000C08AF1EE10FA92DDB3EE040AB4EEC08A45
:103E4000F1EE10FA8BD28A4880ED008A58E1012CFD
:103E500011D19FED860AB4EEC08AF1EE10FA90DD22
:103E6000B2EE040AB4EEC08AF1EE10FA89D28148AB
:103E700080ED008A44E1022C11D1B0EE080AB4EEC4
:103E8000C08AF1EE10FA8DDB9FED7B0AB4EEC08A9A
:103E9000F1EE10FA86D8794880ED008A30E1032CE3
:103EA000BFD1B0EE080AB4EEC08AF1EE10FAB8DB6A
:103EB0009FED710AB4EEC08AF1EE10FAB1D87048E5
:103EC00080ED008A1CE1042D09D114B9FEF7D8FF5A
:103ED00016E1012CA5D101205F49C87110E10A2D1E
:103EE0002CD15D48C07901289BD11CB9654880ED73
:103EF000008A05E1012C03D1624880ED018AFFE0D0
:103F0000022C03D15F4880ED028AF9E0032C03D133
:103F10005C4880ED078AF3E0042C0ED1B6EE000A6F
:103F200038EE000ABCEEC00A10EE100AC0B208B1AA
:103F3000012000E0002053498861E1E00B2D52D1BF
:103F40004548C079012803D11CB94F4880ED008A4B
:103F5000D6E0012C03D14C4880ED018AD0E0022C40
:103F600003D1494880ED028ACAE0032C03D14648B8
:103F700080ED038AC4E0042C03D1434880ED048A19
:103F8000BEE0052C03D1404880ED058AB8E0062C40
:103F900010D1B6EE000A38EE000ABCEEC00A10EEF0
:103FA000100A394908760846007E022801D9022005
:103FB0000876A5E0072C11D1B6EE000A38EE000A0B
:103FC000BCEEC00A10EE100AC0B240B101202E496A
:103FD00048769FED2E0A084680ED070A90E0002003
:103FE000294948768CE00C2D72D11B48C0790128F4
:103FF00003D11CB9264880ED008A81E0012C03D151
:10400000234880ED018A7BE0022C03D1204880ED1B
:10401000028A75E0032C03D11D4880ED038A6FE00E
:10402000042C03D11A4880ED048A69E0052C31D1B3
:10403000174880ED058A63E0A44C0120D9060020D2
:10404000BC0200208C480120044901207C49012049
:10405000F4490120DC060020E84D0120E4060020A0
:10406000F4060020080700200C070020CDCC4C3DB2
:10407000F8060020FC060020000070420007002027
:1040800004070020BC070020144E0120000000009F
:10409000344E0120062C33D1B6EE000A38EE000A69
:1040A000BCEEC00A10EE100AC0B260B101201A497D
:1040B00008761FED0A0A084680ED070A1FED0D0A73
:1040C00080ED080A1CE000201349087618E0FFE79D
:1040D0000D2D03D1A4B9FEF7D3FE11E00E2D0FD1A3
:1040E00074B9B6EE000A38EE000ABCEEC00A10EE53
:1040F000100AC0B208B1012000E000200749087092
:1041000000BF074800780749097888427FF4A5ADC9
:1041100007B0BDEC028B30BD344E012011070020EA
:10412000D9060020D806002029B1064A12680243A9
:10413000044B1A6004E0034A12688243014B1A6080
:10414000704700003038024029B1064A1268024325
:10415000044B1A6004E0034A12688243014B1A6060
:10416000704700004038024029B1064A12680243F5
:10417000044B1A6004E0034A12688243014B1A6040
:10418000704700002038024029B1064A12680243F5
:10419000044B1A6004E0034A12688243014B1A6020
:1041A000704700004438024029B1064A12680243B1
:1041B000044B1A6004E0034A12688243014B1A6000
:1041C0007047000024380240F0B50021002200248E
:1041D000022500260223324F3F6807F00C0121B16F
:1041E000042905D0082937D105E02E4F076036E0B5
:1041F0002D4F076033E02A4F3F1F3F68C7F38056BB
:10420000274F3F1F3F6807F03F036EB1264FB7FBB4
:10421000F3F7DFF88CC0ACF1040CDCF800C0CCF391
:10422000881C07FB0CF40CE01E4FB7FBF3F7DFF81C
:1042300070C0ACF1040CDCF800C0CCF3881C07FBA8
:104240000CF4174F3F1F3F68C7F301477F1C7D00E9
:10425000B4FBF5F7076002E0124F076000BF00BF34
:104260000F4F3F6807F0F0010909104F7A5C0768AB
:10427000D74047600A4F3F6807F4E051890A0B4F67
:104280007A5C4768D7408760054F3F6807F4604114
:10429000490B064F7A5C4768D740C760F0BD000005
:1042A000083802400024F40000127A0012070020AF
:1042B00008B500BF07F024FE00900AE006F0C4F93C
:1042C0000448008D401C034908850A21684606F011
:1042D0005DFFF3E7A04D012010B52DED068B77486B
:1042E0007749096850F82100062861D0734874495D
:1042F000096850F8210008285AD0704870490968A8
:1043000050F82100072853D06C486D49096850F8CF
:10431000210002284CD069486949096850F82100F9
:104320000C2845D065486649096850F821000D28D9
:104330003ED062486249096850F821000E2837D003
:104340005E485F49096850F821000F2830D05B486B
:104350005B49096850F82100132829D0574858496B
:10436000096850F82100122822D05448544909689D
:1043700050F8210010281BD050485149096850F8C6
:104380002100032814D04D484D49096850F82100F8
:1043900006280DD049484A49096850F821001928D3
:1043A00006D046484649096850F8210011282DD109
:1043B0004448C088A0F57A70002804DD4148C088D0
:1043C000A0F57A7003E03F48C088C0F57A70642891
:1043D0001DDD3D498988A1F6B83008F0E2FA41ECCC
:1043E0001A0B9FED3A0B53EC102B08F025F941EC1A
:1043F000190B9FED380B53EC102B08F039FB41ECF7
:10440000180B08F02BF83549C1F8680153E034481F
:1044100090ED000AB5EEC00AF1EE10FA40D1314835
:1044200090ED000AB5EEC00AF1EE10FA0AD12B4861
:1044300090ED250A80ED240AB7EE000A294880EDA8
:10444000000A38E0274890ED000AF7EE000AB4EEC3
:10445000600AF1EE10FA2ED1204890ED2F0AF3EE0B
:104460000E0AB4EEE00AF1EE10FA04DDB3EE0E0A25
:1044700080ED5A0A1FE0194890ED2F0AFBEE0E0A54
:10448000B4EEE00AF1EE10FA04D2BBEE0E0A80EDB3
:104490005A0A10E0114890ED2F0A80ED5A0A0AE0FE
:1044A0000F4890ED000A0D4880ED5A0A9FED0E0A64
:1044B0000C4880ED000ABDEC068B10BDE007002023
:1044C000A0000020184B0120D84D01200000000062
:1044D00000408F400000000000006940BC02002046
:1044E000B80000209C0000200000000010B52DED59
:1044F000088BE148E149096850F8210002285AD0A8
:10450000DD48DE49096850F82100042853D0DA4814
:10451000DA49096850F821000C284CD0D648D74910
:10452000096850F821000D2845D0D348D3490968BF
:1045300050F821000E283ED0CF48D049096850F8E5
:1045400021000F2837D0CC48CC49096850F8210009
:10455000132830D0C848C949096850F821001228EA
:1045600029D0C548C549096850F82100102822D033
:10457000C148C249096850F8210001281BD0BE4833
:10458000BE49096850F82100032814D0BA48BB4935
:10459000096850F8210006280DD0B748B7490968C6
:1045A00050F82100192806D0B348B449096850F8DA
:1045B0002100112873D1B2484088A0F57A700028F4
:1045C00004DDAF484088A0F57A7003E0AC4840882D
:1045D000C0F57A70642821DDAA490988A1F6B830AF
:1045E00008F0DFF941EC1B0B9FEDA70B53EC102BF0
:1045F00008F022F841EC1A0B07F024FF41EC190BEC
:104600009FEDA30B53EC102B08F032FA41EC180B82
:1046100007F024FFA049C1F818037BE09F4890ED04
:10462000000AFFEE000AB4EE600AF1EE10FA37D18C
:104630009B4890ED000AB5EEC00AF1EE10FA0AD1DF
:10464000954890EDA30A80EDA20AB7EE000A9448BF
:1046500080ED000A5EE0904890EDAD0ADFED910A32
:10466000B4EEE00AF1EE10FA04DD9FED8E0A80ED63
:10467000C60A4FE0884890EDAD0ADFED8B0AB4EE34
:10468000E00AF1EE10FA04D29FED870A80EDC60A27
:1046900040E0814890EDAD0A80EDC60A3AE0D0E0F6
:1046A0007E4890ED000AFFEE000AB4EE600AF1EEDB
:1046B00010FA2FD09FED7D0A794880ED000A7748E7
:1046C00090ED000A7A4880ED010A90ED010ADFEDD5
:1046D000750AB4EEE00AF1EE10FA05DD9FED710AFD
:1046E0006D4880EDC60A15E0714890ED010ADFEDD6
:1046F0006E0AB4EEE00AF1EE10FA05D29FED6A0AF6
:10470000654880EDC60A05E0694890ED010A6248F7
:1047100080EDC60A5A480088A0F57A70002804DDAA
:1047200057480088A0F57A7003E055480088C0F526
:104730007A70642821DD53494988A1F6B83008F021
:1047400030F941EC1B0B9FED500B53EC102B07F095
:1047500073FF41EC1A0B07F075FE41EC190B9FED4E
:104760004C0B53EC102B08F083F941EC180B07F0BD
:1047700075FE4949C1F8D0027AE04E4890ED000A32
:10478000FFEE000AB4EE600AF1EE10FA36D14A48A4
:1047900090ED000AB5EEC00AF1EE10FA0AD13E48DB
:1047A00090ED910A80ED900AB7EE000A424880ED44
:1047B000000A5DE0384890ED9B0ADFED3A0AB4EE5E
:1047C000E00AF1EE10FA04DD9FED360A80EDB40A3E
:1047D0004EE0314890ED9B0ADFED330AB4EEE00A7B
:1047E000F1EE10FA04D29FED300A80EDB40A3FE0FA
:1047F000294890ED9B0A80EDB40A39E02D4890EDF0
:10480000000AFFEE000AB4EE600AF1EE10FA2FD0B3
:104810009FED260A284880ED000A264890ED000A00
:10482000234880ED000A90ED000ADFED1E0AB4EE89
:10483000E00AF1EE10FA05DD9FED1A0A164880ED48
:10484000B40A15E01A4890ED000ADFED170AB4EE3D
:10485000E00AF1EE10FA05D29FED130A0E4880ED42
:10486000B40A05E0124890ED000A0B4880EDB40A46
:10487000BDEC088B10BD0000E0070020A000002068
:10488000184B0120D84D01200000000000408F404F
:104890000000000000005940BC020020B4000020CD
:1048A0009800002000004842000048C200000000BC
:1048B000544B0120B0000020940000200020054946
:1048C000086008460068801E03490860002001490E
:1048D00008607047A0000020A40000207C487D49AB
:1048E000096850F82100042862D003DCE0B30128F5
:1048F0007ED185E00B2802D00C28F9D17FE07648E4
:1049000000680B2824D0754890ED910A80ED900A3C
:1049100090EDA30A80EDA20A90ED250A80ED240A0D
:1049200090ED6D0A80ED6C0ABFEE000A6C4880EDD8
:10493000000ABFEE000A6B4880ED000A9FED6A0A8C
:104940006A4880ED000A9FED680A694880ED000A18
:104950005F4960480068401C51F82000142804D3C7
:1049600001206449087003E003E0002061490870F9
:1049700067E09FED610A594880ED6C0A90ED6D0A81
:10498000DFED5E0AB4EEE00AF1EE10FA0FDB90ED17
:104990006D0AF6EE080AB4EEE00AF1EE10FA06D857
:1049A00000214B4A4B480068401C42F8201048E068
:1049B00049480068042808D0484890EDA30A80EDD3
:1049C000A20A90ED910A80ED900A9FED470A4C48AB
:1049D00080ED040A01204B490860BFEE000A404800
:1049E00080ED000ABFEE000A3E4880ED000A00E0BC
:1049F00026E09FED3D0A3E4880ED000A21E020E0E0
:104A00009FED390A354880ED6C0A01203E49087057
:104A1000324890ED6D0ADFED3D0AB4EEE00AF1EEAA
:104A200010FA0CD800212A4A2A480068401C42F893
:104A3000201000203649087036498871C87100E09E
:104A400000BF00BF22482349096850F821002249CD
:104A500008601F491F480068401C51F82000B0F54D
:104A60007A7F0AD81B480068401C51F820000A28A9
:104A700003D301202849087002E00020264908706D
:104A8000134914480068401C51F8200005280BD336
:104A900010480068401C51F82000401F0A460D498C
:104AA0000968491C42F8210009490A480068401C6D
:104AB00051F820000A280AD80648006817490968F2
:104AC000884204D203480068801C0249086070478D
:104AD000E0070020A0000020CC000020BC02002045
:104AE000B0000020B400002000000000BC00002046
:104AF000B8000020AE0000203333333F6666263F07
:104B0000000B0020C4000020AF000020CDCC4C3EA4
:104B1000AC000020E84D0120AD000020A4000020E2
:104B200000B5002002490860FFF7C8FE00BD000084
:104B3000A000002021B1028842F04002028004E07F
:104B400002884FF6BF731A400280704700B587B0E5
:104B500001210620FFF7E8FA01218803FFF7F4FAA4
:104B600005220D213B48FDF7F5FE052202213A48BA
:104B7000FDF7F0FE052203213748FDF7EBFE4FF469
:104B80000050009002208DF8040003208DF80500ED
:104B900000208DF8060001208DF8070069462D4899
:104BA000FDF790FE0420009069462B48FDF78AFE31
:104BB0000820009069462848FDF784FE274800F049
:104BC0004FF80820ADF814000020ADF81000ADF843
:104BD0000E000720ADF818004FF40060ADF80C008F
:104BE0000020ADF80800ADF816004FF48270ADF863
:104BF0000A004FF40070ADF8120002A9174800F047
:104C000087F801211548FFF795FF01210420FFF7E0
:104C10008BFA01210420FFF787FA10200090012071
:104C20008DF8040000208DF8060069460A48FDF75B
:104C300049FE2020009069460748FDF743FE1021F9
:104C40000548FDF7ACFE20210348FDF7A8FE07B09C
:104C500000BD00000004024000080240003800408F
:104C600010B504462448844208D101218014FFF77E
:104C70009BFA0021A014FFF797FA3CE01F488442FA
:104C800008D101210014FFF76FFA00212014FFF76B
:104C90006BFA30E01A48844208D10121C013FFF7B3
:104CA00063FA0021E013FFF75FFA24E0154884421D
:104CB00008D101214014FFF777FA00216014FFF7B3
:104CC00073FA18E01048844209D101210805FFF762
:104CD0006BFA00214FF48010FFF766FA0BE00B48E7
:104CE000844208D101214805FFF75EFA00214FF404
:104CF0000010FFF759FA10BD0030014000380040A5
:104D0000003C00400034014000500140005401408C
:104D100010B50022028802F441520B884C882343CC
:104D20008C882343CC8823430C8923434C89234319
:104D30008C892343CC8923431A430280838B4FF20F
:104D4000FF74234083830B8A038210BD2DE9F04159
:104D500092B000240026AA20FE490870BB204870AB
:104D6000FD480078052190FBF1F201FB12000028BC
:104D70007CD025200121F74A91700112D170114693
:104D80000871062151710624F44890ED020A8DED58
:104D90000A0A90ED100A8DED0B0A90ED140A8DEDC4
:104DA0000C0A90ED220A8DED0D0A90ED260A8DED8C
:104DB0000E0A90ED340A8DED0F0A90ED380A8DED54
:104DC000100A90ED460A8DED110A002523E00AA88D
:104DD00010F825202046611C8CB2DE490A540AA82E
:104DE00000EB850042782046611C8CB2D9490A54F8
:104DF0000AA800EB850082782046611C8CB2D54958
:104E00000A540AA800EB8500C2782046611C8CB2C7
:104E1000D0490A546D1C082DD9DBD148827920462F
:104E2000611C8CB2CB490A54CD48C2792046611C22
:104E30008CB2C8490A54CB4802782046611C8CB217
:104E4000C4490A54C848806908B1012200E0002220
:104E50002146601C84B2BF484254C44802782046B0
:104E6000611C8CB2BB490A54F0E1FFE744271620CD
:104E700000EB87080220B74988704FEA2820C870E5
:104E800081F80480062048710624B94BD3E9010259
:104E90001968DB68CDE91023CDE90E10002080E011
:104EA00000252FE00EA951F82010243111F82530EB
:104EB0002146621C94B2A74A53540EA951F82010FF
:104EC000243101EB85014B782146621C94B2A14A42
:104ED00053540EA951F82010243101EB85018B7831
:104EE0002146621C94B29B4A53540EA951F82010DB
:104EF000243101EB8501CB782146621C94B2954A9E
:104F000053546D1C062DCDDB0EA951F8201091F8DD
:104F10003C302146621C94B28E4A53540EA951F87B
:104F2000201091F83D302146621C94B2894A5354B6
:104F30000EA951F8201091F83E302146621C94B21F
:104F4000844A53540EA951F8201091F83F3021465D
:104F5000621C94B27F4A53540EA951F820100B786A
:104F60002146621C94B27B4A53540EA951F820107A
:104F70004B782146621C94B2764A53540EA951F8DC
:104F800020108B782146621C94B2724A53540EA9A9
:104F900051F82010CB782146621C94B26D4A5354CC
:104FA000401C0428FFF67CAF30227149103102A862
:104FB000FBF7CBFA002570E002A850F82500027933
:104FC0002046611C8CB263490A5402A850F825009F
:104FD00042792046611C8CB25E490A5402A850F8FE
:104FE000250082792046611C8CB25A490A5402A8D5
:104FF00050F82500C2792046611C8CB255490A54EC
:1050000002A850F8250002782046611C8CB2514954
:105010000A5402A850F8250042782046611C8CB240
:105020004C490A5402A850F8250082782046611C99
:105030008CB248490A5402A850F82500C27821468B
:10504000601C84B24348425402A850F8250090F8EE
:105050002C202046611C8CB23E490A5402A850F80C
:10506000250090F82D202146601C84B23948425416
:1050700002A850F8250090F82E202046611C8CB222
:1050800034490A5402A850F8250090F82F202046F1
:10509000611C8CB22F490A546D1C0C2D8CDB002036
:1050A0003449497E09B1022008E03349097E09B13B
:1050B000032003E02C49896901B101202146621CCB
:1050C00094B2244A5054284991ED000A8DED010A0A
:1050D0009DF804302146621C94B21E4A53549DF838
:1050E00005302146621C94B21A4A53549DF806308A
:1050F0002146621C94B2174A53549DF8073021464A
:10510000621C94B2134A5354174991ED010A8DED74
:10511000010A9DF804302146621C94B20D4A535492
:105120009DF805302146621C94B20A4A53549DF8FA
:1051300006302146621C94B2064A53549DF807304B
:105140002146621C94B2034A5354074991ED020A66
:1051500014E00000540B0020D00000206C47012018
:10516000E84D0120DC060020BC07002010070020CD
:1051700044D20008144E0120344E01208DED010A66
:105180009DF804302146621C94B2474A53549DF85E
:1051900005302146621C94B2434A53549DF80630B0
:1051A0002146621C94B2404A53549DF80730214670
:1051B000621C94B23C4A53543C4991ED070A8DED70
:1051C000010A9DF804302146621C94B2364A5354B9
:1051D0009DF805302146621C94B2334A53549DF821
:1051E00006302146621C94B22F4A53549DF8073072
:1051F0002146621C94B22C4A53542D4991ED070A62
:105200008DED010A9DF804302146621C94B2264AB5
:1052100053549DF805302146621C94B2224A5354DF
:105220009DF806302146621C94B21F4A53549DF8E3
:1052300007302146621C94B21B4A53541D490B7817
:105240002146621C94B2184A535400BF002602251E
:1052500003E01548405D46406D1CA542F9DB204641
:10526000611C8CB210490E5413480078401C12493E
:10527000087000BF1148FCF7B3FF0028FAD11049AD
:105280000E48FCF7D1FE00210C48FCF7E7FE06486B
:105290000A497039C8670846446701210748FCF786
:1052A000DDFE12B0BDE8F081540B0020144E012049
:1052B000344E012010070020D00000207060024012
:1052C0002080002008B500BF06F01AFE009012E012
:1052D000FBF7A0FB05F006FBFFF738FDFEF7B8FC77
:1052E00005F02CFD0448808D401C034988850A2167
:1052F000684605F04BFFEBE7A04D012010B52DED02
:10530000048BFDF767FCBF4890ED000ABE48D0ED66
:10531000000A30EE600AF7EE000A20EE200AB948D3
:1053200080ED000AB94890ED000AB948D0ED000AB6
:1053300030EE600AF7EE000A20EE200AB34880ED56
:10534000000AB44890ED000AB348D0ED000A30EEF0
:10535000600AF7EE000A20EE200AAE4880ED000A4F
:10536000AE4890ED000AAE48D0ED000A30EE600A7B
:10537000F7EE000A20EE200AA84880ED000AA948AE
:1053800090ED000AA848D0ED000A30EE600AF7EE72
:10539000000A20EE200AA34880ED000AA34890ED01
:1053A000000AA348D0ED000A30EE600AF7EE000ACA
:1053B00020EE200A9D4880ED000A984890ED000AF2
:1053C0009C4880ED000A974890ED000A9A4880EDCD
:1053D000000A964890ED000A984880ED000A894836
:1053E00090ED000A964880ED000A884890ED000A8A
:1053F000944880ED000A874890ED000A924880EDBD
:10540000000A864890ED000A904880ED080A854819
:1054100090ED000A8D4880ED120A844890ED000A54
:105420008A4880ED1C0AFCF72FF888482830FCF7E2
:105430002BF886485030FCF727F8844890ED090A8D
:10544000764880ED000A814890ED130A754880ED9A
:10545000000A7E4890ED1D0A744880ED000A6948F4
:1054600090ED000A794880ED240A684890ED000A22
:10547000764880ED2C0A674890ED000A734880ED6D
:10548000340A7830FBF7C2FF70489830FBF7BEFF54
:105490006E48B830FBF7BAFF6C4890ED250A5948C2
:1054A00080ED000A694890ED2D0A584880ED000A09
:1054B000664890ED350A574880ED000ADFED640A32
:1054C000564890ED000AFEF767F8544880ED000A50
:1054D000DFED5F0A534890ED000AFEF75DF8514892
:1054E00080ED000ADFED5A0A504890ED000AFEF701
:1054F00053F84E4880ED000A484890ED000ADFED71
:10550000550A20EE200A544880ED000A454890EDE7
:10551000000ADFED500A20EE200A504880ED000A14
:10552000424890ED000ADFED4B0A20EE200A4C487D
:1055300080ED000A334890ED000A4A4880ED000AE9
:10554000324890ED000A484880ED000A314890ED5D
:10555000000A464880ED000A424890ED000A20EE1D
:10556000000A4148D0ED000A90ED001A00EE810AD1
:105570003E48D0ED000A90ED001A00EE810A10EED0
:10558000101A084607F06AFD41EC190BB0EE490A03
:10559000F0EE690A03F0F0F8B0EE408AF0EE608AAF
:1055A00051EC180B06F05AFF31490860084690ED9F
:1055B000000ADFED300AB4EEE00AF1EE10FA03DD86
:1055C00001202D49087019E0234890ED000ADFED15
:1055D0002B0AB4EEE00AF1EE10FA08D290ED000AC0
:1055E000DFED270AB4EEE00AF1EE10FA03DC012049
:1055F0002149087002E000201F490870BDEC048BAF
:1056000010BD00005401002084010020580100203A
:10561000880100205C0100208C0100206001002036
:105620009001002064010020940100206801002006
:10563000980100200002002004020020080200203F
:105640000C0200201002002014020020540D002043
:105650006F12033B39FA8E3C780100207C01002058
:10566000800100206C0100207001002074010020E6
:10567000BC01002000202346C00100200000FA44A5
:105680000000FAC410B5044624B90021044800F013
:10569000BFFB04E04FF47A71014800F0B9FB10BD84
:1056A0000008004010B52DED028BB0EE408AB2EE3E
:1056B000040A28EE000ADFED0D0A80EE201AB0EE93
:1056C000040A31EE000ADFED0A0A80EE201A9FED8F
:1056D000090A21EE000ABCEEC00A10EE104A21466B
:1056E000054800F093FBBDEC028B10BD0000344375
:1056F0000000C84200409C460008004010B52DED57
:10570000028BB0EE408AB2EE040A28EE000ADFED0A
:105710000D0A80EE201AB0EE040A31EE000ADFED29
:105720000A0A80EE201A9FED090A21EE000ABCEE5B
:10573000C00A10EE104A2146054800F065FBBDEC9A
:10574000028B10BD000034430000C84200409C465C
:10575000000800400CB5002001900090344800681B
:1057600040F480303249086000BF3148006800F4DE
:10577000003000900198401C0190009818B90198E1
:10578000B0F5A04FF1D12A48006800F4003010B104
:105790000120009001E0002000900098012846D1EF
:1057A00023484030006840F0805021494031086073
:1057B0002048006840F440401E4908601C480830FA
:1057C00000681B49083108600846006840F4004042
:1057D00008600846006840F4A05008601648091F99
:1057E0000860081F006840F08070091F086000BF53
:1057F0000F48006800F000700028F9D040F20570F2
:105800000E4908600A480830006820F00300084983
:10581000083108600846006840F00200086000BFD8
:1058200003480830006800F00C000828F8D10CBDCF
:10583000003802400070004008544007003C02401D
:1058400040F6660005490860044908310860091DF2
:1058500008600249091D08607047000034040040D8
:105860003348B0F90000B0F5FA6F03DA4FF4FA608C
:105870002F4908802E48B0F90000B0F57A6F03DD9B
:105880004FF47A602A4908802948B0F90000294974
:1058900008602748B0F90200B0F5FA6F03DA4FF458
:1058A000FA60234948802248B0F90200B0F57A6FC7
:1058B00003DD4FF47A601E4948801D48B0F90200AC
:1058C0001C49083108601A48B0F90400B0F5FA6FB5
:1058D00003DA4FF4FA60164988801548B0F90400DD
:1058E000B0F57A6F03DD4FF47A6011498880104873
:1058F000B0F904000F490C3108600D48B0F90600FA
:10590000B0F5FA6F03DA4FF4FA600949C880084825
:10591000B0F90600B0F57A6F03DD4FF47A60044900
:10592000C8800348B0F906000249091D08607047A5
:10593000B0060020340400404FF4FA6005490860C6
:10594000044908310860091D08600249091D086002
:10595000704700003404004008B500BF06F0D0FADC
:1059600000900AE005F030F90448C08C401C03495F
:10597000C8840521684605F009FCF3E7A04D012025
:1059800010B506F0ADFA012801D005F02FFF10BDCB
:1059900010B54448408C434908820020488408469A
:1059A000808C4882002088840846C08C8882002031
:1059B000C8840846008DC882002008850846408DAE
:1059C0000883002048850846808D4883002088850C
:1059D0000846C08D88830020C8850846008EC8838D
:1059E000002008860846408E0884002048862E48FD
:1059F00090ED6D0AB5EEC00AF1EE10FA0FD14FF43A
:105A000000612A48FCF7CBFF4FF480512748FCF790
:105A1000C6FF4FF480712648FCF7BFFF41E02148E4
:105A2000808B0A280FDA4FF400612048FCF7B5FF9D
:105A30004FF480511D48FCF7B0FF4FF480711C48B3
:105A4000FCF7ABFF2DE01B4890ED070AB5EEC00A4E
:105A5000F1EE10FA16D190ED060AB5EEC00AF1EE9D
:105A600010FA0FD14FF400611048FCF798FF4FF483
:105A700080510E48FCF791FF4FF480710C48FCF701
:105A80008EFF0EE04FF400610848FCF786FF4FF4EC
:105A900080510648FCF783FF4FF480710448FCF7FF
:105AA0007EFF10BDA04D0120BC020020000002407E
:105AB00000080240544B012010B51548006840F41E
:105AC0007000134908601348006840F00100114954
:105AD000086000200F49083108600E4800680E4930
